00010010001000000000000000000000000000000000000000000000000000000000000000000000000000000000000000000          REGISTERED VOTERS - TOTAL                               REGISTERED VOTERS - TOTAL             Precinct 1                                             00 
00010010002000000000000000000000000000000000000000000000000000000000000000000000000000000000000000000          REGISTERED VOTERS - TOTAL                               REGISTERED VOTERS - TOTAL             Precinct 2                                             00 
00010010003000000000000000000000000000000000000000000000000000000000000000000000000000000000000000000          REGISTERED VOTERS - TOTAL                               REGISTERED VOTERS - TOTAL             Precinct 3                                             00 
00010010004000000000000000000000000000000000000000000000000000000000000000000000000000000000000000000          REGISTERED VOTERS - TOTAL                               REGISTERED VOTERS - TOTAL             Precinct 4                                             00 
00010010005000000000000000000000000000000000000000000000000000000000000000000000000000000000000000000          REGISTERED VOTERS - TOTAL                               REGISTERED VOTERS - TOTAL             Precinct 303                                           00 
00020010001000000000000000000000000000000000000000000000000000000000000000000000000000000000000000000REP       REGISTERED VOTERS - Republican Party                    REGISTERED VOTERS - Republican Party  Precinct 1                                             00 
00020010002000000000000000000000000000000000000000000000000000000000000000000000000000000000000000000REP       REGISTERED VOTERS - Republican Party                    REGISTERED VOTERS - Republican Party  Precinct 2                                             00 
00020010003000000000000000000000000000000000000000000000000000000000000000000000000000000000000000000REP       REGISTERED VOTERS - Republican Party                    REGISTERED VOTERS - Republican Party  Precinct 3                                             00 
00020010004000000000000000000000000000000000000000000000000000000000000000000000000000000000000000000REP       REGISTERED VOTERS - Republican Party                    REGISTERED VOTERS - Republican Party  Precinct 4                                             00 
00020010005000000000000000000000000000000000000000000000000000000000000000000000000000000000000000000REP       REGISTERED VOTERS - Republican Party                    REGISTERED VOTERS - Republican Party  Precinct 303                                           00 
00030010001000000000000000000000000000000000000000000000000000000000000000000000000000000000000000000DEM       REGISTERED VOTERS - Democratic Party                    REGISTERED VOTERS - Democratic Party  Precinct 1                                             00 
00030010002000000000000000000000000000000000000000000000000000000000000000000000000000000000000000000DEM       REGISTERED VOTERS - Democratic Party                    REGISTERED VOTERS - Democratic Party  Precinct 2                                             00 
00030010003000000000000000000000000000000000000000000000000000000000000000000000000000000000000000000DEM       REGISTERED VOTERS - Democratic Party                    REGISTERED VOTERS - Democratic Party  Precinct 3                                             00 
00030010004000000000000000000000000000000000000000000000000000000000000000000000000000000000000000000DEM       REGISTERED VOTERS - Democratic Party                    REGISTERED VOTERS - Democratic Party  Precinct 4                                             00 
00030010005000000000000000000000000000000000000000000000000000000000000000000000000000000000000000000DEM       REGISTERED VOTERS - Democratic Party                    REGISTERED VOTERS - Democratic Party  Precinct 303                                           00 
00040010001000000000000000000000000000000000000000000000000000000000000000000000000000000000000000000NON       REGISTERED VOTERS - NONPARTISAN                         REGISTERED VOTERS - NONPARTISAN       Precinct 1                                             00 
00040010002000000000000000000000000000000000000000000000000000000000000000000000000000000000000000000NON       REGISTERED VOTERS - NONPARTISAN                         REGISTERED VOTERS - NONPARTISAN       Precinct 2                                             00 
00040010003000000000000000000000000000000000000000000000000000000000000000000000000000000000000000000NON       REGISTERED VOTERS - NONPARTISAN                         REGISTERED VOTERS - NONPARTISAN       Precinct 3                                             00 
00040010004000000000000000000000000000000000000000000000000000000000000000000000000000000000000000000NON       REGISTERED VOTERS - NONPARTISAN                         REGISTERED VOTERS - NONPARTISAN       Precinct 4                                             00 
00040010005000000000000000000000000000000000000000000000000000000000000000000000000000000000000000000NON       REGISTERED VOTERS - NONPARTISAN                         REGISTERED VOTERS - NONPARTISAN       Precinct 303                                           00 
00050010001000158000007000082000069000000000000000000000000000000000000000000000000000000000000000000          BALLOTS CAST - TOTAL                                    BALLOTS CAST - TOTAL                  Precinct 1                                             00 
00050010002000237000003000116000118000000000000000000000000000000000000000000000000000000000000000000          BALLOTS CAST - TOTAL                                    BALLOTS CAST - TOTAL                  Precinct 2                                             00 
00050010003000067000002000042000023000000000000000000000000000000000000000000000000000000000000000000          BALLOTS CAST - TOTAL                                    BALLOTS CAST - TOTAL                  Precinct 3                                             00 
00050010004000125000005000046000074000000000000000000000000000000000000000000000000000000000000000000          BALLOTS CAST - TOTAL                                    BALLOTS CAST - TOTAL                  Precinct 4                                             00 
00050010005000075000000000015000060000000000000000000000000000000000000000000000000000000000000000000          BALLOTS CAST - TOTAL                                    BALLOTS CAST - TOTAL                  Precinct 303                                           00 
00060010001000153000005000081000067000000000000000000000000000000000000000000000000000000000000000000REP       BALLOTS CAST - Republican Party                         BALLOTS CAST - Republican Party       Precinct 1                                             00 
00060010002000226000002000115000109000000000000000000000000000000000000000000000000000000000000000000REP       BALLOTS CAST - Republican Party                         BALLOTS CAST - Republican Party       Precinct 2                                             00 
00060010003000067000002000042000023000000000000000000000000000000000000000000000000000000000000000000REP       BALLOTS CAST - Republican Party                         BALLOTS CAST - Republican Party       Precinct 3                                             00 
00060010004000113000005000044000064000000000000000000000000000000000000000000000000000000000000000000REP       BALLOTS CAST - Republican Party                         BALLOTS CAST - Republican Party       Precinct 4                                             00 
00060010005000069000000000013000056000000000000000000000000000000000000000000000000000000000000000000REP       BALLOTS CAST - Republican Party                         BALLOTS CAST - Republican Party       Precinct 303                                           00 
00070010001000005000002000001000002000000000000000000000000000000000000000000000000000000000000000000DEM       BALLOTS CAST - Democratic Party                         BALLOTS CAST - Democratic Party       Precinct 1                                             00 
00070010002000011000001000001000009000000000000000000000000000000000000000000000000000000000000000000DEM       BALLOTS CAST - Democratic Party                         BALLOTS CAST - Democratic Party       Precinct 2                                             00 
00070010003000000000000000000000000000000000000000000000000000000000000000000000000000000000000000000DEM       BALLOTS CAST - Democratic Party                         BALLOTS CAST - Democratic Party       Precinct 3                                             00 
00070010004000012000000000002000010000000000000000000000000000000000000000000000000000000000000000000DEM       BALLOTS CAST - Democratic Party                         BALLOTS CAST - Democratic Party       Precinct 4                                             00 
00070010005000006000000000002000004000000000000000000000000000000000000000000000000000000000000000000DEM       BALLOTS CAST - Democratic Party                         BALLOTS CAST - Democratic Party       Precinct 303                                           00 
00080010001000000000000000000000000000000000000000000000000000000000000000000000000000000000000000000NON       BALLOTS CAST - NONPARTISAN                              BALLOTS CAST - NONPARTISAN            Precinct 1                                             00 
00080010002000000000000000000000000000000000000000000000000000000000000000000000000000000000000000000NON       BALLOTS CAST - NONPARTISAN                              BALLOTS CAST - NONPARTISAN            Precinct 2                                             00 
00080010003000000000000000000000000000000000000000000000000000000000000000000000000000000000000000000NON       BALLOTS CAST - NONPARTISAN                              BALLOTS CAST - NONPARTISAN            Precinct 3                                             00 
00080010004000000000000000000000000000000000000000000000000000000000000000000000000000000000000000000NON       BALLOTS CAST - NONPARTISAN                              BALLOTS CAST - NONPARTISAN            Precinct 4                                             00 
00080010005000000000000000000000000000000000000000000000000000000000000000000000000000000000000000000NON       BALLOTS CAST - NONPARTISAN                              BALLOTS CAST - NONPARTISAN            Precinct 303                                           00 
00090010001000000000000000000000000000000000000000000000000000000000000000000000000000000000000000000          BALLOTS CAST - BLANK                                    BALLOTS CAST - BLANK                  Precinct 1                                             00 
00090010002000000000000000000000000000000000000000000000000000000000000000000000000000000000000000000          BALLOTS CAST - BLANK                                    BALLOTS CAST - BLANK                  Precinct 2                                             00 
00090010003000000000000000000000000000000000000000000000000000000000000000000000000000000000000000000          BALLOTS CAST - BLANK                                    BALLOTS CAST - BLANK                  Precinct 3                                             00 
00090010004000000000000000000000000000000000000000000000000000000000000000000000000000000000000000000          BALLOTS CAST - BLANK                                    BALLOTS CAST - BLANK                  Precinct 4                                             00 
00090010005000000000000000000000000000000000000000000000000000000000000000000000000000000000000000000          BALLOTS CAST - BLANK                                    BALLOTS CAST - BLANK                  Precinct 303                                           00 
00100010001000137000003000075000059000000000000000000000000000000000000000000000000000000000000000000REP       REP US Representative, District 13                      Ronny Jackson                         Precinct 1                                             01 
00100010002000195000001000098000096000000000000000000000000000000000000000000000000000000000000000000REP       REP US Representative, District 13                      Ronny Jackson                         Precinct 2                                             01 
00100010003000060000001000039000020000000000000000000000000000000000000000000000000000000000000000000REP       REP US Representative, District 13                      Ronny Jackson                         Precinct 3                                             01 
00100010004000104000005000041000058000000000000000000000000000000000000000000000000000000000000000000REP       REP US Representative, District 13                      Ronny Jackson                         Precinct 4                                             01 
00100010005000058000000000010000048000000000000000000000000000000000000000000000000000000000000000000REP       REP US Representative, District 13                      Ronny Jackson                         Precinct 303                                           01 
00100020001000000000000000000000000000000000000000000000000000000000000000000000000000000000000000000          REP US Representative, District 13                      OVER VOTES                            Precinct 1                                             01 
00100020002000000000000000000000000000000000000000000000000000000000000000000000000000000000000000000          REP US Representative, District 13                      OVER VOTES                            Precinct 2                                             01 
00100020003000000000000000000000000000000000000000000000000000000000000000000000000000000000000000000          REP US Representative, District 13                      OVER VOTES                            Precinct 3                                             01 
00100020004000000000000000000000000000000000000000000000000000000000000000000000000000000000000000000          REP US Representative, District 13                      OVER VOTES                            Precinct 4                                             01 
00100020005000000000000000000000000000000000000000000000000000000000000000000000000000000000000000000          REP US Representative, District 13                      OVER VOTES                            Precinct 303                                           01 
00100030001000016000002000006000008000000000000000000000000000000000000000000000000000000000000000000          REP US Representative, District 13                      UNDER VOTES                           Precinct 1                                             01 
00100030002000031000001000017000013000000000000000000000000000000000000000000000000000000000000000000          REP US Representative, District 13                      UNDER VOTES                           Precinct 2                                             01 
00100030003000007000001000003000003000000000000000000000000000000000000000000000000000000000000000000          REP US Representative, District 13                      UNDER VOTES                           Precinct 3                                             01 
00100030004000009000000000003000006000000000000000000000000000000000000000000000000000000000000000000          REP US Representative, District 13                      UNDER VOTES                           Precinct 4                                             01 
00100030005000011000000000003000008000000000000000000000000000000000000000000000000000000000000000000          REP US Representative, District 13                      UNDER VOTES                           Precinct 303                                           01 
00110010001000005000000000003000002000000000000000000000000000000000000000000000000000000000000000000REP       REP Governor                                            Chad Prather                          Precinct 1                                             01 
00110010002000028000000000008000020000000000000000000000000000000000000000000000000000000000000000000REP       REP Governor                                            Chad Prather                          Precinct 2                                             01 
00110010003000009000000000004000005000000000000000000000000000000000000000000000000000000000000000000REP       REP Governor                                            Chad Prather                          Precinct 3                                             01 
00110010004000018000000000011000007000000000000000000000000000000000000000000000000000000000000000000REP       REP Governor                                            Chad Prather                          Precinct 4                                             01 
00110010005000005000000000000000005000000000000000000000000000000000000000000000000000000000000000000REP       REP Governor                                            Chad Prather                          Precinct 303                                           01 
00110020001000015000000000006000009000000000000000000000000000000000000000000000000000000000000000000REP       REP Governor                                            Allen B. West                         Precinct 1                                             01 
00110020002000019000000000010000009000000000000000000000000000000000000000000000000000000000000000000REP       REP Governor                                            Allen B. West                         Precinct 2                                             01 
00110020003000006000000000004000002000000000000000000000000000000000000000000000000000000000000000000REP       REP Governor                                            Allen B. West                         Precinct 3                                             01 
00110020004000008000000000000000008000000000000000000000000000000000000000000000000000000000000000000REP       REP Governor                                            Allen B. West                         Precinct 4                                             01 
00110020005000006000000000001000005000000000000000000000000000000000000000000000000000000000000000000REP       REP Governor                                            Allen B. West                         Precinct 303                                           01 
00110030001000000000000000000000000000000000000000000000000000000000000000000000000000000000000000000REP       REP Governor                                            Danny Harrison                        Precinct 1                                             01 
00110030002000004000000000003000001000000000000000000000000000000000000000000000000000000000000000000REP       REP Governor                                            Danny Harrison                        Precinct 2                                             01 
00110030003000000000000000000000000000000000000000000000000000000000000000000000000000000000000000000REP       REP Governor                                            Danny Harrison                        Precinct 3                                             01 
00110030004000000000000000000000000000000000000000000000000000000000000000000000000000000000000000000REP       REP Governor                                            Danny Harrison                        Precinct 4                                             01 
00110030005000000000000000000000000000000000000000000000000000000000000000000000000000000000000000000REP       REP Governor                                            Danny Harrison                        Precinct 303                                           01 
00110040001000017000000000009000008000000000000000000000000000000000000000000000000000000000000000000REP       REP Governor                                            Don Huffines                          Precinct 1                                             01 
00110040002000010000000000004000006000000000000000000000000000000000000000000000000000000000000000000REP       REP Governor                                            Don Huffines                          Precinct 2                                             01 
00110040003000007000000000007000000000000000000000000000000000000000000000000000000000000000000000000REP       REP Governor                                            Don Huffines                          Precinct 3                                             01 
00110040004000012000000000001000011000000000000000000000000000000000000000000000000000000000000000000REP       REP Governor                                            Don Huffines                          Precinct 4                                             01 
00110040005000009000000000001000008000000000000000000000000000000000000000000000000000000000000000000REP       REP Governor                                            Don Huffines                          Precinct 303                                           01 
00110050001000000000000000000000000000000000000000000000000000000000000000000000000000000000000000000REP       REP Governor                                            Kandy Kaye Horn                       Precinct 1                                             01 
00110050002000003000000000000000003000000000000000000000000000000000000000000000000000000000000000000REP       REP Governor                                            Kandy Kaye Horn                       Precinct 2                                             01 
00110050003000001000001000000000000000000000000000000000000000000000000000000000000000000000000000000REP       REP Governor                                            Kandy Kaye Horn                       Precinct 3                                             01 
00110050004000000000000000000000000000000000000000000000000000000000000000000000000000000000000000000REP       REP Governor                                            Kandy Kaye Horn                       Precinct 4                                             01 
00110050005000002000000000002000000000000000000000000000000000000000000000000000000000000000000000000REP       REP Governor                                            Kandy Kaye Horn                       Precinct 303                                           01 
00110060001000113000005000061000047000000000000000000000000000000000000000000000000000000000000000000REP       REP Governor                                            Greg Abbott                           Precinct 1                                             01 
00110060002000141000002000075000064000000000000000000000000000000000000000000000000000000000000000000REP       REP Governor                                            Greg Abbott                           Precinct 2                                             01 
00110060003000041000001000027000013000000000000000000000000000000000000000000000000000000000000000000REP       REP Governor                                            Greg Abbott                           Precinct 3                                             01 
00110060004000068000005000029000034000000000000000000000000000000000000000000000000000000000000000000REP       REP Governor                                            Greg Abbott                           Precinct 4                                             01 
00110060005000046000000000009000037000000000000000000000000000000000000000000000000000000000000000000REP       REP Governor                                            Greg Abbott                           Precinct 303                                           01 
00110070001000001000000000000000001000000000000000000000000000000000000000000000000000000000000000000REP       REP Governor                                            Paul Belew                            Precinct 1                                             01 
00110070002000002000000000002000000000000000000000000000000000000000000000000000000000000000000000000REP       REP Governor                                            Paul Belew                            Precinct 2                                             01 
00110070003000000000000000000000000000000000000000000000000000000000000000000000000000000000000000000REP       REP Governor                                            Paul Belew                            Precinct 3                                             01 
00110070004000000000000000000000000000000000000000000000000000000000000000000000000000000000000000000REP       REP Governor                                            Paul Belew                            Precinct 4                                             01 
00110070005000000000000000000000000000000000000000000000000000000000000000000000000000000000000000000REP       REP Governor                                            Paul Belew                            Precinct 303                                           01 
00110080001000001000000000001000000000000000000000000000000000000000000000000000000000000000000000000REP       REP Governor                                            Rick Perry                            Precinct 1                                             01 
00110080002000008000000000007000001000000000000000000000000000000000000000000000000000000000000000000REP       REP Governor                                            Rick Perry                            Precinct 2                                             01 
00110080003000003000000000000000003000000000000000000000000000000000000000000000000000000000000000000REP       REP Governor                                            Rick Perry                            Precinct 3                                             01 
00110080004000007000000000003000004000000000000000000000000000000000000000000000000000000000000000000REP       REP Governor                                            Rick Perry                            Precinct 4                                             01 
00110080005000000000000000000000000000000000000000000000000000000000000000000000000000000000000000000REP       REP Governor                                            Rick Perry                            Precinct 303                                           01 
00110090001000000000000000000000000000000000000000000000000000000000000000000000000000000000000000000          REP Governor                                            OVER VOTES                            Precinct 1                                             01 
00110090002000000000000000000000000000000000000000000000000000000000000000000000000000000000000000000          REP Governor                                            OVER VOTES                            Precinct 2                                             01 
00110090003000000000000000000000000000000000000000000000000000000000000000000000000000000000000000000          REP Governor                                            OVER VOTES                            Precinct 3                                             01 
00110090004000000000000000000000000000000000000000000000000000000000000000000000000000000000000000000          REP Governor                                            OVER VOTES                            Precinct 4                                             01 
00110090005000000000000000000000000000000000000000000000000000000000000000000000000000000000000000000          REP Governor                                            OVER VOTES                            Precinct 303                                           01 
00110100001000001000000000001000000000000000000000000000000000000000000000000000000000000000000000000          REP Governor                                            UNDER VOTES                           Precinct 1                                             01 
00110100002000011000000000006000005000000000000000000000000000000000000000000000000000000000000000000          REP Governor                                            UNDER VOTES                           Precinct 2                                             01 
00110100003000000000000000000000000000000000000000000000000000000000000000000000000000000000000000000          REP Governor                                            UNDER VOTES                           Precinct 3                                             01 
00110100004000000000000000000000000000000000000000000000000000000000000000000000000000000000000000000          REP Governor                                            UNDER VOTES                           Precinct 4                                             01 
00110100005000001000000000000000001000000000000000000000000000000000000000000000000000000000000000000          REP Governor                                            UNDER VOTES                           Precinct 303                                           01 
00120010001000011000000000006000005000000000000000000000000000000000000000000000000000000000000000000REP       REP Lieutenant Governor                                 Daniel Miller                         Precinct 1                                             01 
00120010002000022000000000011000011000000000000000000000000000000000000000000000000000000000000000000REP       REP Lieutenant Governor                                 Daniel Miller                         Precinct 2                                             01 
00120010003000008000000000007000001000000000000000000000000000000000000000000000000000000000000000000REP       REP Lieutenant Governor                                 Daniel Miller                         Precinct 3                                             01 
00120010004000011000000000004000007000000000000000000000000000000000000000000000000000000000000000000REP       REP Lieutenant Governor                                 Daniel Miller                         Precinct 4                                             01 
00120010005000009000000000002000007000000000000000000000000000000000000000000000000000000000000000000REP       REP Lieutenant Governor                                 Daniel Miller                         Precinct 303                                           01 
00120020001000007000000000004000003000000000000000000000000000000000000000000000000000000000000000000REP       REP Lieutenant Governor                                 Aaron Sorrells                        Precinct 1                                             01 
00120020002000014000000000010000004000000000000000000000000000000000000000000000000000000000000000000REP       REP Lieutenant Governor                                 Aaron Sorrells                        Precinct 2                                             01 
00120020003000005000000000004000001000000000000000000000000000000000000000000000000000000000000000000REP       REP Lieutenant Governor                                 Aaron Sorrells                        Precinct 3                                             01 
00120020004000005000000000001000004000000000000000000000000000000000000000000000000000000000000000000REP       REP Lieutenant Governor                                 Aaron Sorrells                        Precinct 4                                             01 
00120020005000000000000000000000000000000000000000000000000000000000000000000000000000000000000000000REP       REP Lieutenant Governor                                 Aaron Sorrells                        Precinct 303                                           01 
00120030001000007000000000004000003000000000000000000000000000000000000000000000000000000000000000000REP       REP Lieutenant Governor                                 Zach Vance                            Precinct 1                                             01 
00120030002000014000000000007000007000000000000000000000000000000000000000000000000000000000000000000REP       REP Lieutenant Governor                                 Zach Vance                            Precinct 2                                             01 
00120030003000003000001000000000002000000000000000000000000000000000000000000000000000000000000000000REP       REP Lieutenant Governor                                 Zach Vance                            Precinct 3                                             01 
00120030004000004000000000000000004000000000000000000000000000000000000000000000000000000000000000000REP       REP Lieutenant Governor                                 Zach Vance                            Precinct 4                                             01 
00120030005000002000000000000000002000000000000000000000000000000000000000000000000000000000000000000REP       REP Lieutenant Governor                                 Zach Vance                            Precinct 303                                           01 
00120040001000103000004000052000047000000000000000000000000000000000000000000000000000000000000000000REP       REP Lieutenant Governor                                 Dan Patrick                           Precinct 1                                             01 
00120040002000120000002000062000056000000000000000000000000000000000000000000000000000000000000000000REP       REP Lieutenant Governor                                 Dan Patrick                           Precinct 2                                             01 
00120040003000039000001000026000012000000000000000000000000000000000000000000000000000000000000000000REP       REP Lieutenant Governor                                 Dan Patrick                           Precinct 3                                             01 
00120040004000066000005000028000033000000000000000000000000000000000000000000000000000000000000000000REP       REP Lieutenant Governor                                 Dan Patrick                           Precinct 4                                             01 
00120040005000040000000000008000032000000000000000000000000000000000000000000000000000000000000000000REP       REP Lieutenant Governor                                 Dan Patrick                           Precinct 303                                           01 
00120050001000005000001000001000003000000000000000000000000000000000000000000000000000000000000000000REP       REP Lieutenant Governor                                 Trayce Bradford                       Precinct 1                                             01 
00120050002000003000000000000000003000000000000000000000000000000000000000000000000000000000000000000REP       REP Lieutenant Governor                                 Trayce Bradford                       Precinct 2                                             01 
00120050003000005000000000004000001000000000000000000000000000000000000000000000000000000000000000000REP       REP Lieutenant Governor                                 Trayce Bradford                       Precinct 3                                             01 
00120050004000006000000000003000003000000000000000000000000000000000000000000000000000000000000000000REP       REP Lieutenant Governor                                 Trayce Bradford                       Precinct 4                                             01 
00120050005000005000000000002000003000000000000000000000000000000000000000000000000000000000000000000REP       REP Lieutenant Governor                                 Trayce Bradford                       Precinct 303                                           01 
00120060001000001000000000001000000000000000000000000000000000000000000000000000000000000000000000000REP       REP Lieutenant Governor                                 Todd M. Bullis                        Precinct 1                                             01 
00120060002000005000000000001000004000000000000000000000000000000000000000000000000000000000000000000REP       REP Lieutenant Governor                                 Todd M. Bullis                        Precinct 2                                             01 
00120060003000000000000000000000000000000000000000000000000000000000000000000000000000000000000000000REP       REP Lieutenant Governor                                 Todd M. Bullis                        Precinct 3                                             01 
00120060004000000000000000000000000000000000000000000000000000000000000000000000000000000000000000000REP       REP Lieutenant Governor                                 Todd M. Bullis                        Precinct 4                                             01 
00120060005000002000000000000000002000000000000000000000000000000000000000000000000000000000000000000REP       REP Lieutenant Governor                                 Todd M. Bullis                        Precinct 303                                           01 
00120070001000000000000000000000000000000000000000000000000000000000000000000000000000000000000000000          REP Lieutenant Governor                                 OVER VOTES                            Precinct 1                                             01 
00120070002000000000000000000000000000000000000000000000000000000000000000000000000000000000000000000          REP Lieutenant Governor                                 OVER VOTES                            Precinct 2                                             01 
00120070003000000000000000000000000000000000000000000000000000000000000000000000000000000000000000000          REP Lieutenant Governor                                 OVER VOTES                            Precinct 3                                             01 
00120070004000000000000000000000000000000000000000000000000000000000000000000000000000000000000000000          REP Lieutenant Governor                                 OVER VOTES                            Precinct 4                                             01 
00120070005000000000000000000000000000000000000000000000000000000000000000000000000000000000000000000          REP Lieutenant Governor                                 OVER VOTES                            Precinct 303                                           01 
00120080001000019000000000013000006000000000000000000000000000000000000000000000000000000000000000000          REP Lieutenant Governor                                 UNDER VOTES                           Precinct 1                                             01 
00120080002000048000000000024000024000000000000000000000000000000000000000000000000000000000000000000          REP Lieutenant Governor                                 UNDER VOTES                           Precinct 2                                             01 
00120080003000007000000000001000006000000000000000000000000000000000000000000000000000000000000000000          REP Lieutenant Governor                                 UNDER VOTES                           Precinct 3                                             01 
00120080004000021000000000008000013000000000000000000000000000000000000000000000000000000000000000000          REP Lieutenant Governor                                 UNDER VOTES                           Precinct 4                                             01 
00120080005000011000000000001000010000000000000000000000000000000000000000000000000000000000000000000          REP Lieutenant Governor                                 UNDER VOTES                           Precinct 303                                           01 
00130010001000023000000000015000008000000000000000000000000000000000000000000000000000000000000000000REP       REP Attorney General                                    George P. Bush                        Precinct 1                                             01 
00130010002000051000001000024000026000000000000000000000000000000000000000000000000000000000000000000REP       REP Attorney General                                    George P. Bush                        Precinct 2                                             01 
00130010003000009000000000004000005000000000000000000000000000000000000000000000000000000000000000000REP       REP Attorney General                                    George P. Bush                        Precinct 3                                             01 
00130010004000026000000000010000016000000000000000000000000000000000000000000000000000000000000000000REP       REP Attorney General                                    George P. Bush                        Precinct 4                                             01 
00130010005000007000000000002000005000000000000000000000000000000000000000000000000000000000000000000REP       REP Attorney General                                    George P. Bush                        Precinct 303                                           01 
00130020001000018000001000008000009000000000000000000000000000000000000000000000000000000000000000000REP       REP Attorney General                                    Louie Gohmert                         Precinct 1                                             01 
00130020002000007000000000001000006000000000000000000000000000000000000000000000000000000000000000000REP       REP Attorney General                                    Louie Gohmert                         Precinct 2                                             01 
00130020003000012000000000008000004000000000000000000000000000000000000000000000000000000000000000000REP       REP Attorney General                                    Louie Gohmert                         Precinct 3                                             01 
00130020004000009000000000003000006000000000000000000000000000000000000000000000000000000000000000000REP       REP Attorney General                                    Louie Gohmert                         Precinct 4                                             01 
00130020005000006000000000000000006000000000000000000000000000000000000000000000000000000000000000000REP       REP Attorney General                                    Louie Gohmert                         Precinct 303                                           01 
00130030001000080000002000045000033000000000000000000000000000000000000000000000000000000000000000000REP       REP Attorney General                                    Ken Paxton                            Precinct 1                                             01 
00130030002000103000001000058000044000000000000000000000000000000000000000000000000000000000000000000REP       REP Attorney General                                    Ken Paxton                            Precinct 2                                             01 
00130030003000032000001000020000011000000000000000000000000000000000000000000000000000000000000000000REP       REP Attorney General                                    Ken Paxton                            Precinct 3                                             01 
00130030004000061000004000026000031000000000000000000000000000000000000000000000000000000000000000000REP       REP Attorney General                                    Ken Paxton                            Precinct 4                                             01 
00130030005000037000000000008000029000000000000000000000000000000000000000000000000000000000000000000REP       REP Attorney General                                    Ken Paxton                            Precinct 303                                           01 
00130040001000026000002000009000015000000000000000000000000000000000000000000000000000000000000000000REP       REP Attorney General                                    Eva Guzman                            Precinct 1                                             01 
00130040002000042000000000022000020000000000000000000000000000000000000000000000000000000000000000000REP       REP Attorney General                                    Eva Guzman                            Precinct 2                                             01 
00130040003000012000001000009000002000000000000000000000000000000000000000000000000000000000000000000REP       REP Attorney General                                    Eva Guzman                            Precinct 3                                             01 
00130040004000012000001000004000007000000000000000000000000000000000000000000000000000000000000000000REP       REP Attorney General                                    Eva Guzman                            Precinct 4                                             01 
00130040005000012000000000003000009000000000000000000000000000000000000000000000000000000000000000000REP       REP Attorney General                                    Eva Guzman                            Precinct 303                                           01 
00130050001000000000000000000000000000000000000000000000000000000000000000000000000000000000000000000          REP Attorney General                                    OVER VOTES                            Precinct 1                                             01 
00130050002000000000000000000000000000000000000000000000000000000000000000000000000000000000000000000          REP Attorney General                                    OVER VOTES                            Precinct 2                                             01 
00130050003000000000000000000000000000000000000000000000000000000000000000000000000000000000000000000          REP Attorney General                                    OVER VOTES                            Precinct 3                                             01 
00130050004000000000000000000000000000000000000000000000000000000000000000000000000000000000000000000          REP Attorney General                                    OVER VOTES                            Precinct 4                                             01 
00130050005000000000000000000000000000000000000000000000000000000000000000000000000000000000000000000          REP Attorney General                                    OVER VOTES                            Precinct 303                                           01 
00130060001000006000000000004000002000000000000000000000000000000000000000000000000000000000000000000          REP Attorney General                                    UNDER VOTES                           Precinct 1                                             01 
00130060002000023000000000010000013000000000000000000000000000000000000000000000000000000000000000000          REP Attorney General                                    UNDER VOTES                           Precinct 2                                             01 
00130060003000002000000000001000001000000000000000000000000000000000000000000000000000000000000000000          REP Attorney General                                    UNDER VOTES                           Precinct 3                                             01 
00130060004000005000000000001000004000000000000000000000000000000000000000000000000000000000000000000          REP Attorney General                                    UNDER VOTES                           Precinct 4                                             01 
00130060005000007000000000000000007000000000000000000000000000000000000000000000000000000000000000000          REP Attorney General                                    UNDER VOTES                           Precinct 303                                           01 
00140010001000094000003000051000040000000000000000000000000000000000000000000000000000000000000000000REP       REP Comptroller of Public Accounts                      Glenn Hegar                           Precinct 1                                             01 
00140010002000122000002000064000056000000000000000000000000000000000000000000000000000000000000000000REP       REP Comptroller of Public Accounts                      Glenn Hegar                           Precinct 2                                             01 
00140010003000046000001000035000010000000000000000000000000000000000000000000000000000000000000000000REP       REP Comptroller of Public Accounts                      Glenn Hegar                           Precinct 3                                             01 
00140010004000068000005000027000036000000000000000000000000000000000000000000000000000000000000000000REP       REP Comptroller of Public Accounts                      Glenn Hegar                           Precinct 4                                             01 
00140010005000044000000000007000037000000000000000000000000000000000000000000000000000000000000000000REP       REP Comptroller of Public Accounts                      Glenn Hegar                           Precinct 303                                           01 
00140020001000020000000000009000011000000000000000000000000000000000000000000000000000000000000000000REP       REP Comptroller of Public Accounts                      Mark V. Goloby                        Precinct 1                                             01 
00140020002000024000000000011000013000000000000000000000000000000000000000000000000000000000000000000REP       REP Comptroller of Public Accounts                      Mark V. Goloby                        Precinct 2                                             01 
00140020003000007000001000003000003000000000000000000000000000000000000000000000000000000000000000000REP       REP Comptroller of Public Accounts                      Mark V. Goloby                        Precinct 3                                             01 
00140020004000012000000000005000007000000000000000000000000000000000000000000000000000000000000000000REP       REP Comptroller of Public Accounts                      Mark V. Goloby                        Precinct 4                                             01 
00140020005000005000000000002000003000000000000000000000000000000000000000000000000000000000000000000REP       REP Comptroller of Public Accounts                      Mark V. Goloby                        Precinct 303                                           01 
00140030001000000000000000000000000000000000000000000000000000000000000000000000000000000000000000000          REP Comptroller of Public Accounts                      OVER VOTES                            Precinct 1                                             01 
00140030002000000000000000000000000000000000000000000000000000000000000000000000000000000000000000000          REP Comptroller of Public Accounts                      OVER VOTES                            Precinct 2                                             01 
00140030003000000000000000000000000000000000000000000000000000000000000000000000000000000000000000000          REP Comptroller of Public Accounts                      OVER VOTES                            Precinct 3                                             01 
00140030004000000000000000000000000000000000000000000000000000000000000000000000000000000000000000000          REP Comptroller of Public Accounts                      OVER VOTES                            Precinct 4                                             01 
00140030005000000000000000000000000000000000000000000000000000000000000000000000000000000000000000000          REP Comptroller of Public Accounts                      OVER VOTES                            Precinct 303                                           01 
00140040001000039000002000021000016000000000000000000000000000000000000000000000000000000000000000000          REP Comptroller of Public Accounts                      UNDER VOTES                           Precinct 1                                             01 
00140040002000080000000000040000040000000000000000000000000000000000000000000000000000000000000000000          REP Comptroller of Public Accounts                      UNDER VOTES                           Precinct 2                                             01 
00140040003000014000000000004000010000000000000000000000000000000000000000000000000000000000000000000          REP Comptroller of Public Accounts                      UNDER VOTES                           Precinct 3                                             01 
00140040004000033000000000012000021000000000000000000000000000000000000000000000000000000000000000000          REP Comptroller of Public Accounts                      UNDER VOTES                           Precinct 4                                             01 
00140040005000020000000000004000016000000000000000000000000000000000000000000000000000000000000000000          REP Comptroller of Public Accounts                      UNDER VOTES                           Precinct 303                                           01 
00150010001000013000000000007000006000000000000000000000000000000000000000000000000000000000000000000REP       REP Comm General Land Office                            Victor Avila                          Precinct 1                                             01 
00150010002000012000000000004000008000000000000000000000000000000000000000000000000000000000000000000REP       REP Comm General Land Office                            Victor Avila                          Precinct 2                                             01 
00150010003000004000000000003000001000000000000000000000000000000000000000000000000000000000000000000REP       REP Comm General Land Office                            Victor Avila                          Precinct 3                                             01 
00150010004000011000002000004000005000000000000000000000000000000000000000000000000000000000000000000REP       REP Comm General Land Office                            Victor Avila                          Precinct 4                                             01 
00150010005000003000000000000000003000000000000000000000000000000000000000000000000000000000000000000REP       REP Comm General Land Office                            Victor Avila                          Precinct 303                                           01 
00150020001000003000000000002000001000000000000000000000000000000000000000000000000000000000000000000REP       REP Comm General Land Office                            Rufus Lopez                           Precinct 1                                             01 
00150020002000008000000000004000004000000000000000000000000000000000000000000000000000000000000000000REP       REP Comm General Land Office                            Rufus Lopez                           Precinct 2                                             01 
00150020003000001000000000001000000000000000000000000000000000000000000000000000000000000000000000000REP       REP Comm General Land Office                            Rufus Lopez                           Precinct 3                                             01 
00150020004000002000000000001000001000000000000000000000000000000000000000000000000000000000000000000REP       REP Comm General Land Office                            Rufus Lopez                           Precinct 4                                             01 
00150020005000001000000000000000001000000000000000000000000000000000000000000000000000000000000000000REP       REP Comm General Land Office                            Rufus Lopez                           Precinct 303                                           01 
00150030001000003000000000003000000000000000000000000000000000000000000000000000000000000000000000000REP       REP Comm General Land Office                            Ben Armenta                           Precinct 1                                             01 
00150030002000001000000000000000001000000000000000000000000000000000000000000000000000000000000000000REP       REP Comm General Land Office                            Ben Armenta                           Precinct 2                                             01 
00150030003000000000000000000000000000000000000000000000000000000000000000000000000000000000000000000REP       REP Comm General Land Office                            Ben Armenta                           Precinct 3                                             01 
00150030004000003000000000000000003000000000000000000000000000000000000000000000000000000000000000000REP       REP Comm General Land Office                            Ben Armenta                           Precinct 4                                             01 
00150030005000002000000000001000001000000000000000000000000000000000000000000000000000000000000000000REP       REP Comm General Land Office                            Ben Armenta                           Precinct 303                                           01 
00150040001000020000003000008000009000000000000000000000000000000000000000000000000000000000000000000REP       REP Comm General Land Office                            Jon Spiers                            Precinct 1                                             01 
00150040002000030000000000017000013000000000000000000000000000000000000000000000000000000000000000000REP       REP Comm General Land Office                            Jon Spiers                            Precinct 2                                             01 
00150040003000005000001000004000000000000000000000000000000000000000000000000000000000000000000000000REP       REP Comm General Land Office                            Jon Spiers                            Precinct 3                                             01 
00150040004000017000002000006000009000000000000000000000000000000000000000000000000000000000000000000REP       REP Comm General Land Office                            Jon Spiers                            Precinct 4                                             01 
00150040005000010000000000000000010000000000000000000000000000000000000000000000000000000000000000000REP       REP Comm General Land Office                            Jon Spiers                            Precinct 303                                           01 
00150050001000007000000000004000003000000000000000000000000000000000000000000000000000000000000000000REP       REP Comm General Land Office                            Weston Martinez                       Precinct 1                                             01 
00150050002000011000000000004000007000000000000000000000000000000000000000000000000000000000000000000REP       REP Comm General Land Office                            Weston Martinez                       Precinct 2                                             01 
00150050003000010000000000010000000000000000000000000000000000000000000000000000000000000000000000000REP       REP Comm General Land Office                            Weston Martinez                       Precinct 3                                             01 
00150050004000002000000000002000000000000000000000000000000000000000000000000000000000000000000000000REP       REP Comm General Land Office                            Weston Martinez                       Precinct 4                                             01 
00150050005000000000000000000000000000000000000000000000000000000000000000000000000000000000000000000REP       REP Comm General Land Office                            Weston Martinez                       Precinct 303                                           01 
00150060001000023000000000011000012000000000000000000000000000000000000000000000000000000000000000000REP       REP Comm General Land Office                            Tim Westley                           Precinct 1                                             01 
00150060002000029000000000014000015000000000000000000000000000000000000000000000000000000000000000000REP       REP Comm General Land Office                            Tim Westley                           Precinct 2                                             01 
00150060003000008000000000003000005000000000000000000000000000000000000000000000000000000000000000000REP       REP Comm General Land Office                            Tim Westley                           Precinct 3                                             01 
00150060004000014000001000008000005000000000000000000000000000000000000000000000000000000000000000000REP       REP Comm General Land Office                            Tim Westley                           Precinct 4                                             01 
00150060005000017000000000003000014000000000000000000000000000000000000000000000000000000000000000000REP       REP Comm General Land Office                            Tim Westley                           Precinct 303                                           01 
00150070001000011000000000004000007000000000000000000000000000000000000000000000000000000000000000000REP       REP Comm General Land Office                            Don W. Minton                         Precinct 1                                             01 
00150070002000011000000000009000002000000000000000000000000000000000000000000000000000000000000000000REP       REP Comm General Land Office                            Don W. Minton                         Precinct 2                                             01 
00150070003000004000001000001000002000000000000000000000000000000000000000000000000000000000000000000REP       REP Comm General Land Office                            Don W. Minton                         Precinct 3                                             01 
00150070004000005000000000000000005000000000000000000000000000000000000000000000000000000000000000000REP       REP Comm General Land Office                            Don W. Minton                         Precinct 4                                             01 
00150070005000004000000000001000003000000000000000000000000000000000000000000000000000000000000000000REP       REP Comm General Land Office                            Don W. Minton                         Precinct 303                                           01 
00150080001000027000001000014000012000000000000000000000000000000000000000000000000000000000000000000REP       REP Comm General Land Office                            Dawn Buckingham                       Precinct 1                                             01 
00150080002000033000001000019000013000000000000000000000000000000000000000000000000000000000000000000REP       REP Comm General Land Office                            Dawn Buckingham                       Precinct 2                                             01 
00150080003000017000000000013000004000000000000000000000000000000000000000000000000000000000000000000REP       REP Comm General Land Office                            Dawn Buckingham                       Precinct 3                                             01 
00150080004000024000000000009000015000000000000000000000000000000000000000000000000000000000000000000REP       REP Comm General Land Office                            Dawn Buckingham                       Precinct 4                                             01 
00150080005000007000000000004000003000000000000000000000000000000000000000000000000000000000000000000REP       REP Comm General Land Office                            Dawn Buckingham                       Precinct 303                                           01 
00150090001000000000000000000000000000000000000000000000000000000000000000000000000000000000000000000          REP Comm General Land Office                            OVER VOTES                            Precinct 1                                             01 
00150090002000000000000000000000000000000000000000000000000000000000000000000000000000000000000000000          REP Comm General Land Office                            OVER VOTES                            Precinct 2                                             01 
00150090003000000000000000000000000000000000000000000000000000000000000000000000000000000000000000000          REP Comm General Land Office                            OVER VOTES                            Precinct 3                                             01 
00150090004000000000000000000000000000000000000000000000000000000000000000000000000000000000000000000          REP Comm General Land Office                            OVER VOTES                            Precinct 4                                             01 
00150090005000000000000000000000000000000000000000000000000000000000000000000000000000000000000000000          REP Comm General Land Office                            OVER VOTES                            Precinct 303                                           01 
00150100001000046000001000028000017000000000000000000000000000000000000000000000000000000000000000000          REP Comm General Land Office                            UNDER VOTES                           Precinct 1                                             01 
00150100002000091000001000044000046000000000000000000000000000000000000000000000000000000000000000000          REP Comm General Land Office                            UNDER VOTES                           Precinct 2                                             01 
00150100003000018000000000007000011000000000000000000000000000000000000000000000000000000000000000000          REP Comm General Land Office                            UNDER VOTES                           Precinct 3                                             01 
00150100004000035000000000014000021000000000000000000000000000000000000000000000000000000000000000000          REP Comm General Land Office                            UNDER VOTES                           Precinct 4                                             01 
00150100005000025000000000004000021000000000000000000000000000000000000000000000000000000000000000000          REP Comm General Land Office                            UNDER VOTES                           Precinct 303                                           01 
00160010001000045000000000024000021000000000000000000000000000000000000000000000000000000000000000000REP       REP Commissioner of Agriculture                         James White                           Precinct 1                                             01 
00160010002000061000000000031000030000000000000000000000000000000000000000000000000000000000000000000REP       REP Commissioner of Agriculture                         James White                           Precinct 2                                             01 
00160010003000025000001000021000003000000000000000000000000000000000000000000000000000000000000000000REP       REP Commissioner of Agriculture                         James White                           Precinct 3                                             01 
00160010004000043000003000015000025000000000000000000000000000000000000000000000000000000000000000000REP       REP Commissioner of Agriculture                         James White                           Precinct 4                                             01 
00160010005000021000000000004000017000000000000000000000000000000000000000000000000000000000000000000REP       REP Commissioner of Agriculture                         James White                           Precinct 303                                           01 
00160020001000008000000000003000005000000000000000000000000000000000000000000000000000000000000000000REP       REP Commissioner of Agriculture                         Carey A. Counsil                      Precinct 1                                             01 
00160020002000018000000000012000006000000000000000000000000000000000000000000000000000000000000000000REP       REP Commissioner of Agriculture                         Carey A. Counsil                      Precinct 2                                             01 
00160020003000002000000000002000000000000000000000000000000000000000000000000000000000000000000000000REP       REP Commissioner of Agriculture                         Carey A. Counsil                      Precinct 3                                             01 
00160020004000005000000000002000003000000000000000000000000000000000000000000000000000000000000000000REP       REP Commissioner of Agriculture                         Carey A. Counsil                      Precinct 4                                             01 
00160020005000005000000000003000002000000000000000000000000000000000000000000000000000000000000000000REP       REP Commissioner of Agriculture                         Carey A. Counsil                      Precinct 303                                           01 
00160030001000067000003000031000033000000000000000000000000000000000000000000000000000000000000000000REP       REP Commissioner of Agriculture                         Sid Miller                            Precinct 1                                             01 
00160030002000090000002000044000044000000000000000000000000000000000000000000000000000000000000000000REP       REP Commissioner of Agriculture                         Sid Miller                            Precinct 2                                             01 
00160030003000028000000000018000010000000000000000000000000000000000000000000000000000000000000000000REP       REP Commissioner of Agriculture                         Sid Miller                            Precinct 3                                             01 
00160030004000049000002000021000026000000000000000000000000000000000000000000000000000000000000000000REP       REP Commissioner of Agriculture                         Sid Miller                            Precinct 4                                             01 
00160030005000033000000000006000027000000000000000000000000000000000000000000000000000000000000000000REP       REP Commissioner of Agriculture                         Sid Miller                            Precinct 303                                           01 
00160040001000000000000000000000000000000000000000000000000000000000000000000000000000000000000000000          REP Commissioner of Agriculture                         OVER VOTES                            Precinct 1                                             01 
00160040002000000000000000000000000000000000000000000000000000000000000000000000000000000000000000000          REP Commissioner of Agriculture                         OVER VOTES                            Precinct 2                                             01 
00160040003000000000000000000000000000000000000000000000000000000000000000000000000000000000000000000          REP Commissioner of Agriculture                         OVER VOTES                            Precinct 3                                             01 
00160040004000000000000000000000000000000000000000000000000000000000000000000000000000000000000000000          REP Commissioner of Agriculture                         OVER VOTES                            Precinct 4                                             01 
00160040005000000000000000000000000000000000000000000000000000000000000000000000000000000000000000000          REP Commissioner of Agriculture                         OVER VOTES                            Precinct 303                                           01 
00160050001000033000002000023000008000000000000000000000000000000000000000000000000000000000000000000          REP Commissioner of Agriculture                         UNDER VOTES                           Precinct 1                                             01 
00160050002000057000000000028000029000000000000000000000000000000000000000000000000000000000000000000          REP Commissioner of Agriculture                         UNDER VOTES                           Precinct 2                                             01 
00160050003000012000001000001000010000000000000000000000000000000000000000000000000000000000000000000          REP Commissioner of Agriculture                         UNDER VOTES                           Precinct 3                                             01 
00160050004000016000000000006000010000000000000000000000000000000000000000000000000000000000000000000          REP Commissioner of Agriculture                         UNDER VOTES                           Precinct 4                                             01 
00160050005000010000000000000000010000000000000000000000000000000000000000000000000000000000000000000          REP Commissioner of Agriculture                         UNDER VOTES                           Precinct 303                                           01 
00170010001000030000000000018000012000000000000000000000000000000000000000000000000000000000000000000REP       REP Railroad Commissioner                               Tom Slocum Jr                         Precinct 1                                             01 
00170010002000030000000000012000018000000000000000000000000000000000000000000000000000000000000000000REP       REP Railroad Commissioner                               Tom Slocum Jr                         Precinct 2                                             01 
00170010003000010000000000008000002000000000000000000000000000000000000000000000000000000000000000000REP       REP Railroad Commissioner                               Tom Slocum Jr                         Precinct 3                                             01 
00170010004000014000000000010000004000000000000000000000000000000000000000000000000000000000000000000REP       REP Railroad Commissioner                               Tom Slocum Jr                         Precinct 4                                             01 
00170010005000009000000000002000007000000000000000000000000000000000000000000000000000000000000000000REP       REP Railroad Commissioner                               Tom Slocum Jr                         Precinct 303                                           01 
00170020001000014000000000007000007000000000000000000000000000000000000000000000000000000000000000000REP       REP Railroad Commissioner                               Sarah Stogner                         Precinct 1                                             01 
00170020002000019000000000009000010000000000000000000000000000000000000000000000000000000000000000000REP       REP Railroad Commissioner                               Sarah Stogner                         Precinct 2                                             01 
00170020003000011000002000007000002000000000000000000000000000000000000000000000000000000000000000000REP       REP Railroad Commissioner                               Sarah Stogner                         Precinct 3                                             01 
00170020004000013000000000002000011000000000000000000000000000000000000000000000000000000000000000000REP       REP Railroad Commissioner                               Sarah Stogner                         Precinct 4                                             01 
00170020005000003000000000001000002000000000000000000000000000000000000000000000000000000000000000000REP       REP Railroad Commissioner                               Sarah Stogner                         Precinct 303                                           01 
00170030001000013000000000004000009000000000000000000000000000000000000000000000000000000000000000000REP       REP Railroad Commissioner                               Marvin "Sarge" Summers                Precinct 1                                             01 
00170030002000014000000000006000008000000000000000000000000000000000000000000000000000000000000000000REP       REP Railroad Commissioner                               Marvin "Sarge" Summers                Precinct 2                                             01 
00170030003000003000000000002000001000000000000000000000000000000000000000000000000000000000000000000REP       REP Railroad Commissioner                               Marvin "Sarge" Summers                Precinct 3                                             01 
00170030004000009000000000004000005000000000000000000000000000000000000000000000000000000000000000000REP       REP Railroad Commissioner                               Marvin "Sarge" Summers                Precinct 4                                             01 
00170030005000009000000000001000008000000000000000000000000000000000000000000000000000000000000000000REP       REP Railroad Commissioner                               Marvin "Sarge" Summers                Precinct 303                                           01 
00170040001000012000000000007000005000000000000000000000000000000000000000000000000000000000000000000REP       REP Railroad Commissioner                               Dawayne Tipton                        Precinct 1                                             01 
00170040002000009000000000005000004000000000000000000000000000000000000000000000000000000000000000000REP       REP Railroad Commissioner                               Dawayne Tipton                        Precinct 2                                             01 
00170040003000007000000000004000003000000000000000000000000000000000000000000000000000000000000000000REP       REP Railroad Commissioner                               Dawayne Tipton                        Precinct 3                                             01 
00170040004000008000000000002000006000000000000000000000000000000000000000000000000000000000000000000REP       REP Railroad Commissioner                               Dawayne Tipton                        Precinct 4                                             01 
00170040005000007000000000000000007000000000000000000000000000000000000000000000000000000000000000000REP       REP Railroad Commissioner                               Dawayne Tipton                        Precinct 303                                           01 
00170050001000049000003000024000022000000000000000000000000000000000000000000000000000000000000000000REP       REP Railroad Commissioner                               Wayne Christian                       Precinct 1                                             01 
00170050002000084000002000048000034000000000000000000000000000000000000000000000000000000000000000000REP       REP Railroad Commissioner                               Wayne Christian                       Precinct 2                                             01 
00170050003000020000000000016000004000000000000000000000000000000000000000000000000000000000000000000REP       REP Railroad Commissioner                               Wayne Christian                       Precinct 3                                             01 
00170050004000039000005000012000022000000000000000000000000000000000000000000000000000000000000000000REP       REP Railroad Commissioner                               Wayne Christian                       Precinct 4                                             01 
00170050005000017000000000004000013000000000000000000000000000000000000000000000000000000000000000000REP       REP Railroad Commissioner                               Wayne Christian                       Precinct 303                                           01 
00170060001000000000000000000000000000000000000000000000000000000000000000000000000000000000000000000          REP Railroad Commissioner                               OVER VOTES                            Precinct 1                                             01 
00170060002000000000000000000000000000000000000000000000000000000000000000000000000000000000000000000          REP Railroad Commissioner                               OVER VOTES                            Precinct 2                                             01 
00170060003000000000000000000000000000000000000000000000000000000000000000000000000000000000000000000          REP Railroad Commissioner                               OVER VOTES                            Precinct 3                                             01 
00170060004000000000000000000000000000000000000000000000000000000000000000000000000000000000000000000          REP Railroad Commissioner                               OVER VOTES                            Precinct 4                                             01 
00170060005000000000000000000000000000000000000000000000000000000000000000000000000000000000000000000          REP Railroad Commissioner                               OVER VOTES                            Precinct 303                                           01 
00170070001000035000002000021000012000000000000000000000000000000000000000000000000000000000000000000          REP Railroad Commissioner                               UNDER VOTES                           Precinct 1                                             01 
00170070002000070000000000035000035000000000000000000000000000000000000000000000000000000000000000000          REP Railroad Commissioner                               UNDER VOTES                           Precinct 2                                             01 
00170070003000016000000000005000011000000000000000000000000000000000000000000000000000000000000000000          REP Railroad Commissioner                               UNDER VOTES                           Precinct 3                                             01 
00170070004000030000000000014000016000000000000000000000000000000000000000000000000000000000000000000          REP Railroad Commissioner                               UNDER VOTES                           Precinct 4                                             01 
00170070005000024000000000005000019000000000000000000000000000000000000000000000000000000000000000000          REP Railroad Commissioner                               UNDER VOTES                           Precinct 303                                           01 
00180010001000108000003000055000050000000000000000000000000000000000000000000000000000000000000000000REP       REP Justice, Supreme Court, Pl 3                        Debra Lehrmann                        Precinct 1                                             01 
00180010002000137000001000071000065000000000000000000000000000000000000000000000000000000000000000000REP       REP Justice, Supreme Court, Pl 3                        Debra Lehrmann                        Precinct 2                                             01 
00180010003000047000001000032000014000000000000000000000000000000000000000000000000000000000000000000REP       REP Justice, Supreme Court, Pl 3                        Debra Lehrmann                        Precinct 3                                             01 
00180010004000076000004000029000043000000000000000000000000000000000000000000000000000000000000000000REP       REP Justice, Supreme Court, Pl 3                        Debra Lehrmann                        Precinct 4                                             01 
00180010005000043000000000007000036000000000000000000000000000000000000000000000000000000000000000000REP       REP Justice, Supreme Court, Pl 3                        Debra Lehrmann                        Precinct 303                                           01 
00180020001000000000000000000000000000000000000000000000000000000000000000000000000000000000000000000          REP Justice, Supreme Court, Pl 3                        OVER VOTES                            Precinct 1                                             01 
00180020002000000000000000000000000000000000000000000000000000000000000000000000000000000000000000000          REP Justice, Supreme Court, Pl 3                        OVER VOTES                            Precinct 2                                             01 
00180020003000000000000000000000000000000000000000000000000000000000000000000000000000000000000000000          REP Justice, Supreme Court, Pl 3                        OVER VOTES                            Precinct 3                                             01 
00180020004000000000000000000000000000000000000000000000000000000000000000000000000000000000000000000          REP Justice, Supreme Court, Pl 3                        OVER VOTES                            Precinct 4                                             01 
00180020005000000000000000000000000000000000000000000000000000000000000000000000000000000000000000000          REP Justice, Supreme Court, Pl 3                        OVER VOTES                            Precinct 303                                           01 
00180030001000045000002000026000017000000000000000000000000000000000000000000000000000000000000000000          REP Justice, Supreme Court, Pl 3                        UNDER VOTES                           Precinct 1                                             01 
00180030002000089000001000044000044000000000000000000000000000000000000000000000000000000000000000000          REP Justice, Supreme Court, Pl 3                        UNDER VOTES                           Precinct 2                                             01 
00180030003000020000001000010000009000000000000000000000000000000000000000000000000000000000000000000          REP Justice, Supreme Court, Pl 3                        UNDER VOTES                           Precinct 3                                             01 
00180030004000037000001000015000021000000000000000000000000000000000000000000000000000000000000000000          REP Justice, Supreme Court, Pl 3                        UNDER VOTES                           Precinct 4                                             01 
00180030005000026000000000006000020000000000000000000000000000000000000000000000000000000000000000000          REP Justice, Supreme Court, Pl 3                        UNDER VOTES                           Precinct 303                                           01 
00190010001000109000003000056000050000000000000000000000000000000000000000000000000000000000000000000REP       REP Justice, Supreme Court, Pl 5                        Rebeca Huddle                         Precinct 1                                             01 
00190010002000136000001000070000065000000000000000000000000000000000000000000000000000000000000000000REP       REP Justice, Supreme Court, Pl 5                        Rebeca Huddle                         Precinct 2                                             01 
00190010003000047000001000033000013000000000000000000000000000000000000000000000000000000000000000000REP       REP Justice, Supreme Court, Pl 5                        Rebeca Huddle                         Precinct 3                                             01 
00190010004000075000004000028000043000000000000000000000000000000000000000000000000000000000000000000REP       REP Justice, Supreme Court, Pl 5                        Rebeca Huddle                         Precinct 4                                             01 
00190010005000041000000000006000035000000000000000000000000000000000000000000000000000000000000000000REP       REP Justice, Supreme Court, Pl 5                        Rebeca Huddle                         Precinct 303                                           01 
00190020001000000000000000000000000000000000000000000000000000000000000000000000000000000000000000000          REP Justice, Supreme Court, Pl 5                        OVER VOTES                            Precinct 1                                             01 
00190020002000000000000000000000000000000000000000000000000000000000000000000000000000000000000000000          REP Justice, Supreme Court, Pl 5                        OVER VOTES                            Precinct 2                                             01 
00190020003000000000000000000000000000000000000000000000000000000000000000000000000000000000000000000          REP Justice, Supreme Court, Pl 5                        OVER VOTES                            Precinct 3                                             01 
00190020004000000000000000000000000000000000000000000000000000000000000000000000000000000000000000000          REP Justice, Supreme Court, Pl 5                        OVER VOTES                            Precinct 4                                             01 
00190020005000000000000000000000000000000000000000000000000000000000000000000000000000000000000000000          REP Justice, Supreme Court, Pl 5                        OVER VOTES                            Precinct 303                                           01 
00190030001000044000002000025000017000000000000000000000000000000000000000000000000000000000000000000          REP Justice, Supreme Court, Pl 5                        UNDER VOTES                           Precinct 1                                             01 
00190030002000090000001000045000044000000000000000000000000000000000000000000000000000000000000000000          REP Justice, Supreme Court, Pl 5                        UNDER VOTES                           Precinct 2                                             01 
00190030003000020000001000009000010000000000000000000000000000000000000000000000000000000000000000000          REP Justice, Supreme Court, Pl 5                        UNDER VOTES                           Precinct 3                                             01 
00190030004000038000001000016000021000000000000000000000000000000000000000000000000000000000000000000          REP Justice, Supreme Court, Pl 5                        UNDER VOTES                           Precinct 4                                             01 
00190030005000028000000000007000021000000000000000000000000000000000000000000000000000000000000000000          REP Justice, Supreme Court, Pl 5                        UNDER VOTES                           Precinct 303                                           01 
00200010001000057000001000030000026000000000000000000000000000000000000000000000000000000000000000000REP       REP Justice, Supreme Court, Pl 9                        David J. Schenck                      Precinct 1                                             01 
00200010002000078000002000043000033000000000000000000000000000000000000000000000000000000000000000000REP       REP Justice, Supreme Court, Pl 9                        David J. Schenck                      Precinct 2                                             01 
00200010003000022000001000014000007000000000000000000000000000000000000000000000000000000000000000000REP       REP Justice, Supreme Court, Pl 9                        David J. Schenck                      Precinct 3                                             01 
00200010004000045000001000013000031000000000000000000000000000000000000000000000000000000000000000000REP       REP Justice, Supreme Court, Pl 9                        David J. Schenck                      Precinct 4                                             01 
00200010005000018000000000002000016000000000000000000000000000000000000000000000000000000000000000000REP       REP Justice, Supreme Court, Pl 9                        David J. Schenck                      Precinct 303                                           01 
00200020001000049000002000021000026000000000000000000000000000000000000000000000000000000000000000000REP       REP Justice, Supreme Court, Pl 9                        Evan Young                            Precinct 1                                             01 
00200020002000058000000000021000037000000000000000000000000000000000000000000000000000000000000000000REP       REP Justice, Supreme Court, Pl 9                        Evan Young                            Precinct 2                                             01 
00200020003000028000001000022000005000000000000000000000000000000000000000000000000000000000000000000REP       REP Justice, Supreme Court, Pl 9                        Evan Young                            Precinct 3                                             01 
00200020004000032000004000015000013000000000000000000000000000000000000000000000000000000000000000000REP       REP Justice, Supreme Court, Pl 9                        Evan Young                            Precinct 4                                             01 
00200020005000027000000000006000021000000000000000000000000000000000000000000000000000000000000000000REP       REP Justice, Supreme Court, Pl 9                        Evan Young                            Precinct 303                                           01 
00200030001000000000000000000000000000000000000000000000000000000000000000000000000000000000000000000          REP Justice, Supreme Court, Pl 9                        OVER VOTES                            Precinct 1                                             01 
00200030002000000000000000000000000000000000000000000000000000000000000000000000000000000000000000000          REP Justice, Supreme Court, Pl 9                        OVER VOTES                            Precinct 2                                             01 
00200030003000000000000000000000000000000000000000000000000000000000000000000000000000000000000000000          REP Justice, Supreme Court, Pl 9                        OVER VOTES                            Precinct 3                                             01 
00200030004000000000000000000000000000000000000000000000000000000000000000000000000000000000000000000          REP Justice, Supreme Court, Pl 9                        OVER VOTES                            Precinct 4                                             01 
00200030005000000000000000000000000000000000000000000000000000000000000000000000000000000000000000000          REP Justice, Supreme Court, Pl 9                        OVER VOTES                            Precinct 303                                           01 
00200040001000047000002000030000015000000000000000000000000000000000000000000000000000000000000000000          REP Justice, Supreme Court, Pl 9                        UNDER VOTES                           Precinct 1                                             01 
00200040002000090000000000051000039000000000000000000000000000000000000000000000000000000000000000000          REP Justice, Supreme Court, Pl 9                        UNDER VOTES                           Precinct 2                                             01 
00200040003000017000000000006000011000000000000000000000000000000000000000000000000000000000000000000          REP Justice, Supreme Court, Pl 9                        UNDER VOTES                           Precinct 3                                             01 
00200040004000036000000000016000020000000000000000000000000000000000000000000000000000000000000000000          REP Justice, Supreme Court, Pl 9                        UNDER VOTES                           Precinct 4                                             01 
00200040005000024000000000005000019000000000000000000000000000000000000000000000000000000000000000000          REP Justice, Supreme Court, Pl 9                        UNDER VOTES                           Precinct 303                                           01 
00210010001000098000003000047000048000000000000000000000000000000000000000000000000000000000000000000REP       REP Judge, Ct of Crim App, Pl 2                         Mary Lou Keel                         Precinct 1                                             01 
00210010002000127000001000067000059000000000000000000000000000000000000000000000000000000000000000000REP       REP Judge, Ct of Crim App, Pl 2                         Mary Lou Keel                         Precinct 2                                             01 
00210010003000042000001000029000012000000000000000000000000000000000000000000000000000000000000000000REP       REP Judge, Ct of Crim App, Pl 2                         Mary Lou Keel                         Precinct 3                                             01 
00210010004000075000004000029000042000000000000000000000000000000000000000000000000000000000000000000REP       REP Judge, Ct of Crim App, Pl 2                         Mary Lou Keel                         Precinct 4                                             01 
00210010005000043000000000006000037000000000000000000000000000000000000000000000000000000000000000000REP       REP Judge, Ct of Crim App, Pl 2                         Mary Lou Keel                         Precinct 303                                           01 
00210020001000000000000000000000000000000000000000000000000000000000000000000000000000000000000000000          REP Judge, Ct of Crim App, Pl 2                         OVER VOTES                            Precinct 1                                             01 
00210020002000000000000000000000000000000000000000000000000000000000000000000000000000000000000000000          REP Judge, Ct of Crim App, Pl 2                         OVER VOTES                            Precinct 2                                             01 
00210020003000000000000000000000000000000000000000000000000000000000000000000000000000000000000000000          REP Judge, Ct of Crim App, Pl 2                         OVER VOTES                            Precinct 3                                             01 
00210020004000000000000000000000000000000000000000000000000000000000000000000000000000000000000000000          REP Judge, Ct of Crim App, Pl 2                         OVER VOTES                            Precinct 4                                             01 
00210020005000000000000000000000000000000000000000000000000000000000000000000000000000000000000000000          REP Judge, Ct of Crim App, Pl 2                         OVER VOTES                            Precinct 303                                           01 
00210030001000055000002000034000019000000000000000000000000000000000000000000000000000000000000000000          REP Judge, Ct of Crim App, Pl 2                         UNDER VOTES                           Precinct 1                                             01 
00210030002000099000001000048000050000000000000000000000000000000000000000000000000000000000000000000          REP Judge, Ct of Crim App, Pl 2                         UNDER VOTES                           Precinct 2                                             01 
00210030003000025000001000013000011000000000000000000000000000000000000000000000000000000000000000000          REP Judge, Ct of Crim App, Pl 2                         UNDER VOTES                           Precinct 3                                             01 
00210030004000038000001000015000022000000000000000000000000000000000000000000000000000000000000000000          REP Judge, Ct of Crim App, Pl 2                         UNDER VOTES                           Precinct 4                                             01 
00210030005000026000000000007000019000000000000000000000000000000000000000000000000000000000000000000          REP Judge, Ct of Crim App, Pl 2                         UNDER VOTES                           Precinct 303                                           01 
00220010001000080000001000040000039000000000000000000000000000000000000000000000000000000000000000000REP       REP Judge, Ct of Crim App, Pl 5                         Scott Walker                          Precinct 1                                             01 
00220010002000085000002000039000044000000000000000000000000000000000000000000000000000000000000000000REP       REP Judge, Ct of Crim App, Pl 5                         Scott Walker                          Precinct 2                                             01 
