00010010001002181REP       REGISTERED VOTERS - Republican Party                    REGISTERED VOTERS - Republican Party  1001                                                   00 
00010010002000158REP       REGISTERED VOTERS - Republican Party                    REGISTERED VOTERS - Republican Party  1002                                                   00 
00010010003002302REP       REGISTERED VOTERS - Republican Party                    REGISTERED VOTERS - Republican Party  1003                                                   00 
00010010004000009REP       REGISTERED VOTERS - Republican Party                    REGISTERED VOTERS - Republican Party  1004                                                   00 
00010010005003446REP       REGISTERED VOTERS - Republican Party                    REGISTERED VOTERS - Republican Party  1005                                                   00 
00010010006003555REP       REGISTERED VOTERS - Republican Party                    REGISTERED VOTERS - Republican Party  1006                                                   00 
00010010007002016REP       REGISTERED VOTERS - Republican Party                    REGISTERED VOTERS - Republican Party  1007                                                   00 
00010010008000159REP       REGISTERED VOTERS - Republican Party                    REGISTERED VOTERS - Republican Party  1008                                                   00 
00010010009003342REP       REGISTERED VOTERS - Republican Party                    REGISTERED VOTERS - Republican Party  1009                                                   00 
00010010010002080REP       REGISTERED VOTERS - Republican Party                    REGISTERED VOTERS - Republican Party  1010                                                   00 
00010010011002878REP       REGISTERED VOTERS - Republican Party                    REGISTERED VOTERS - Republican Party  1011                                                   00 
00010010012003500REP       REGISTERED VOTERS - Republican Party                    REGISTERED VOTERS - Republican Party  1012                                                   00 
00010010013001844REP       REGISTERED VOTERS - Republican Party                    REGISTERED VOTERS - Republican Party  1013                                                   00 
00010010014001871REP       REGISTERED VOTERS - Republican Party                    REGISTERED VOTERS - Republican Party  1014                                                   00 
00010010015002932REP       REGISTERED VOTERS - Republican Party                    REGISTERED VOTERS - Republican Party  1015                                                   00 
00010010016001887REP       REGISTERED VOTERS - Republican Party                    REGISTERED VOTERS - Republican Party  1016                                                   00 
00010010017002832REP       REGISTERED VOTERS - Republican Party                    REGISTERED VOTERS - Republican Party  1017                                                   00 
00010010018002462REP       REGISTERED VOTERS - Republican Party                    REGISTERED VOTERS - Republican Party  1018                                                   00 
00010010019002361REP       REGISTERED VOTERS - Republican Party                    REGISTERED VOTERS - Republican Party  1019                                                   00 
00010010020001837REP       REGISTERED VOTERS - Republican Party                    REGISTERED VOTERS - Republican Party  1020                                                   00 
00010010021001444REP       REGISTERED VOTERS - Republican Party                    REGISTERED VOTERS - Republican Party  1021                                                   00 
00010010022003018REP       REGISTERED VOTERS - Republican Party                    REGISTERED VOTERS - Republican Party  1022                                                   00 
00010010023000000REP       REGISTERED VOTERS - Republican Party                    REGISTERED VOTERS - Republican Party  1023                                                   00 
00010010024002168REP       REGISTERED VOTERS - Republican Party                    REGISTERED VOTERS - Republican Party  1024                                                   00 
00010010025002797REP       REGISTERED VOTERS - Republican Party                    REGISTERED VOTERS - Republican Party  1025                                                   00 
00010010026002653REP       REGISTERED VOTERS - Republican Party                    REGISTERED VOTERS - Republican Party  1026                                                   00 
00010010027002691REP       REGISTERED VOTERS - Republican Party                    REGISTERED VOTERS - Republican Party  1027                                                   00 
00010010028002686REP       REGISTERED VOTERS - Republican Party                    REGISTERED VOTERS - Republican Party  1028                                                   00 
00010010029000657REP       REGISTERED VOTERS - Republican Party                    REGISTERED VOTERS - Republican Party  1029                                                   00 
00010010030002005REP       REGISTERED VOTERS - Republican Party                    REGISTERED VOTERS - Republican Party  1030                                                   00 
00010010031000677REP       REGISTERED VOTERS - Republican Party                    REGISTERED VOTERS - Republican Party  1031                                                   00 
00010010032003441REP       REGISTERED VOTERS - Republican Party                    REGISTERED VOTERS - Republican Party  1032                                                   00 
00010010033002090REP       REGISTERED VOTERS - Republican Party                    REGISTERED VOTERS - Republican Party  1033                                                   00 
00010010034004014REP       REGISTERED VOTERS - Republican Party                    REGISTERED VOTERS - Republican Party  1034                                                   00 
00010010035001892REP       REGISTERED VOTERS - Republican Party                    REGISTERED VOTERS - Republican Party  1035                                                   00 
00010010036003542REP       REGISTERED VOTERS - Republican Party                    REGISTERED VOTERS - Republican Party  1036                                                   00 
00010010037001788REP       REGISTERED VOTERS - Republican Party                    REGISTERED VOTERS - Republican Party  1037                                                   00 
00010010038004076REP       REGISTERED VOTERS - Republican Party                    REGISTERED VOTERS - Republican Party  1038                                                   00 
00010010039003608REP       REGISTERED VOTERS - Republican Party                    REGISTERED VOTERS - Republican Party  1039                                                   00 
00010010040000351REP       REGISTERED VOTERS - Republican Party                    REGISTERED VOTERS - Republican Party  1040                                                   00 
00010010041002647REP       REGISTERED VOTERS - Republican Party                    REGISTERED VOTERS - Republican Party  1041                                                   00 
00010010042000402REP       REGISTERED VOTERS - Republican Party                    REGISTERED VOTERS - Republican Party  1042                                                   00 
00010010043003781REP       REGISTERED VOTERS - Republican Party                    REGISTERED VOTERS - Republican Party  1043                                                   00 
00010010044000607REP       REGISTERED VOTERS - Republican Party                    REGISTERED VOTERS - Republican Party  1044                                                   00 
00010010045000155REP       REGISTERED VOTERS - Republican Party                    REGISTERED VOTERS - Republican Party  1045                                                   00 
00010010046000396REP       REGISTERED VOTERS - Republican Party                    REGISTERED VOTERS - Republican Party  1046                                                   00 
00010010047000357REP       REGISTERED VOTERS - Republican Party                    REGISTERED VOTERS - Republican Party  1047                                                   00 
00010010048002072REP       REGISTERED VOTERS - Republican Party                    REGISTERED VOTERS - Republican Party  1048                                                   00 
00010010049000643REP       REGISTERED VOTERS - Republican Party                    REGISTERED VOTERS - Republican Party  1049                                                   00 
00010010050003441REP       REGISTERED VOTERS - Republican Party                    REGISTERED VOTERS - Republican Party  1050                                                   00 
00010010051003186REP       REGISTERED VOTERS - Republican Party                    REGISTERED VOTERS - Republican Party  1051                                                   00 
00010010052002470REP       REGISTERED VOTERS - Republican Party                    REGISTERED VOTERS - Republican Party  1052                                                   00 
00010010053002092REP       REGISTERED VOTERS - Republican Party                    REGISTERED VOTERS - Republican Party  1053                                                   00 
00010010054002674REP       REGISTERED VOTERS - Republican Party                    REGISTERED VOTERS - Republican Party  1054                                                   00 
00010010055002861REP       REGISTERED VOTERS - Republican Party                    REGISTERED VOTERS - Republican Party  1055                                                   00 
00010010056002830REP       REGISTERED VOTERS - Republican Party                    REGISTERED VOTERS - Republican Party  1056                                                   00 
00010010057002909REP       REGISTERED VOTERS - Republican Party                    REGISTERED VOTERS - Republican Party  1057                                                   00 
00010010058001212REP       REGISTERED VOTERS - Republican Party                    REGISTERED VOTERS - Republican Party  1058                                                   00 
00010010059000709REP       REGISTERED VOTERS - Republican Party                    REGISTERED VOTERS - Republican Party  1059                                                   00 
00040010001000081REP       BALLOTS CAST - Republican Party                         BALLOTS CAST - Republican Party       1001                                                   00 
00040010002000030REP       BALLOTS CAST - Republican Party                         BALLOTS CAST - Republican Party       1002                                                   00 
00040010003000290REP       BALLOTS CAST - Republican Party                         BALLOTS CAST - Republican Party       1003                                                   00 
00040010004000000REP       BALLOTS CAST - Republican Party                         BALLOTS CAST - Republican Party       1004                                                   00 
00040010005000583REP       BALLOTS CAST - Republican Party                         BALLOTS CAST - Republican Party       1005                                                   00 
00040010006000387REP       BALLOTS CAST - Republican Party                         BALLOTS CAST - Republican Party       1006                                                   00 
00040010007000345REP       BALLOTS CAST - Republican Party                         BALLOTS CAST - Republican Party       1007                                                   00 
00040010008000022REP       BALLOTS CAST - Republican Party                         BALLOTS CAST - Republican Party       1008                                                   00 
00040010009000567REP       BALLOTS CAST - Republican Party                         BALLOTS CAST - Republican Party       1009                                                   00 
00040010010000318REP       BALLOTS CAST - Republican Party                         BALLOTS CAST - Republican Party       1010                                                   00 
00040010011000416REP       BALLOTS CAST - Republican Party                         BALLOTS CAST - Republican Party       1011                                                   00 
00040010012000299REP       BALLOTS CAST - Republican Party                         BALLOTS CAST - Republican Party       1012                                                   00 
00040010013000272REP       BALLOTS CAST - Republican Party                         BALLOTS CAST - Republican Party       1013                                                   00 
00040010014000444REP       BALLOTS CAST - Republican Party                         BALLOTS CAST - Republican Party       1014                                                   00 
00040010015000440REP       BALLOTS CAST - Republican Party                         BALLOTS CAST - Republican Party       1015                                                   00 
00040010016000072REP       BALLOTS CAST - Republican Party                         BALLOTS CAST - Republican Party       1016                                                   00 
00040010017000408REP       BALLOTS CAST - Republican Party                         BALLOTS CAST - Republican Party       1017                                                   00 
00040010018000103REP       BALLOTS CAST - Republican Party                         BALLOTS CAST - Republican Party       1018                                                   00 
00040010019000435REP       BALLOTS CAST - Republican Party                         BALLOTS CAST - Republican Party       1019                                                   00 
00040010020000334REP       BALLOTS CAST - Republican Party                         BALLOTS CAST - Republican Party       1020                                                   00 
00040010021000301REP       BALLOTS CAST - Republican Party                         BALLOTS CAST - Republican Party       1021                                                   00 
00040010022000439REP       BALLOTS CAST - Republican Party                         BALLOTS CAST - Republican Party       1022                                                   00 
00040010023000000REP       BALLOTS CAST - Republican Party                         BALLOTS CAST - Republican Party       1023                                                   00 
00040010024000321REP       BALLOTS CAST - Republican Party                         BALLOTS CAST - Republican Party       1024                                                   00 
00040010025000443REP       BALLOTS CAST - Republican Party                         BALLOTS CAST - Republican Party       1025                                                   00 
00040010026000362REP       BALLOTS CAST - Republican Party                         BALLOTS CAST - Republican Party       1026                                                   00 
00040010027000500REP       BALLOTS CAST - Republican Party                         BALLOTS CAST - Republican Party       1027                                                   00 
00040010028000496REP       BALLOTS CAST - Republican Party                         BALLOTS CAST - Republican Party       1028                                                   00 
00040010029000121REP       BALLOTS CAST - Republican Party                         BALLOTS CAST - Republican Party       1029                                                   00 
00040010030000312REP       BALLOTS CAST - Republican Party                         BALLOTS CAST - Republican Party       1030                                                   00 
00040010031000119REP       BALLOTS CAST - Republican Party                         BALLOTS CAST - Republican Party       1031                                                   00 
00040010032000740REP       BALLOTS CAST - Republican Party                         BALLOTS CAST - Republican Party       1032                                                   00 
00040010033000362REP       BALLOTS CAST - Republican Party                         BALLOTS CAST - Republican Party       1033                                                   00 
00040010034000691REP       BALLOTS CAST - Republican Party                         BALLOTS CAST - Republican Party       1034                                                   00 
00040010035000202REP       BALLOTS CAST - Republican Party                         BALLOTS CAST - Republican Party       1035                                                   00 
00040010036000417REP       BALLOTS CAST - Republican Party                         BALLOTS CAST - Republican Party       1036                                                   00 
00040010037000264REP       BALLOTS CAST - Republican Party                         BALLOTS CAST - Republican Party       1037                                                   00 
00040010038000842REP       BALLOTS CAST - Republican Party                         BALLOTS CAST - Republican Party       1038                                                   00 
00040010039000508REP       BALLOTS CAST - Republican Party                         BALLOTS CAST - Republican Party       1039                                                   00 
00040010040000070REP       BALLOTS CAST - Republican Party                         BALLOTS CAST - Republican Party       1040                                                   00 
00040010041000591REP       BALLOTS CAST - Republican Party                         BALLOTS CAST - Republican Party       1041                                                   00 
00040010042000094REP       BALLOTS CAST - Republican Party                         BALLOTS CAST - Republican Party       1042                                                   00 
00040010043000675REP       BALLOTS CAST - Republican Party                         BALLOTS CAST - Republican Party       1043                                                   00 
00040010044000152REP       BALLOTS CAST - Republican Party                         BALLOTS CAST - Republican Party       1044                                                   00 
00040010045000045REP       BALLOTS CAST - Republican Party                         BALLOTS CAST - Republican Party       1045                                                   00 
00040010046000075REP       BALLOTS CAST - Republican Party                         BALLOTS CAST - Republican Party       1046                                                   00 
00040010047000084REP       BALLOTS CAST - Republican Party                         BALLOTS CAST - Republican Party       1047                                                   00 
00040010048000403REP       BALLOTS CAST - Republican Party                         BALLOTS CAST - Republican Party       1048                                                   00 
00040010049000143REP       BALLOTS CAST - Republican Party                         BALLOTS CAST - Republican Party       1049                                                   00 
00040010050000251REP       BALLOTS CAST - Republican Party                         BALLOTS CAST - Republican Party       1050                                                   00 
00040010051000316REP       BALLOTS CAST - Republican Party                         BALLOTS CAST - Republican Party       1051                                                   00 
00040010052000263REP       BALLOTS CAST - Republican Party                         BALLOTS CAST - Republican Party       1052                                                   00 
00040010053000346REP       BALLOTS CAST - Republican Party                         BALLOTS CAST - Republican Party       1053                                                   00 
00040010054000128REP       BALLOTS CAST - Republican Party                         BALLOTS CAST - Republican Party       1054                                                   00 
00040010055000653REP       BALLOTS CAST - Republican Party                         BALLOTS CAST - Republican Party       1055                                                   00 
00040010056000551REP       BALLOTS CAST - Republican Party                         BALLOTS CAST - Republican Party       1056                                                   00 
00040010057000437REP       BALLOTS CAST - Republican Party                         BALLOTS CAST - Republican Party       1057                                                   00 
00040010058000122REP       BALLOTS CAST - Republican Party                         BALLOTS CAST - Republican Party       1058                                                   00 
00040010059000126REP       BALLOTS CAST - Republican Party                         BALLOTS CAST - Republican Party       1059                                                   00 
00050010001000016REP       REP US Representative, District 6                       James Buford                          1001                                                   01 
00050010002000004REP       REP US Representative, District 6                       James Buford                          1002                                                   01 
00050010003000032REP       REP US Representative, District 6                       James Buford                          1003                                                   01 
00050010004000000REP       REP US Representative, District 6                       James Buford                          1004                                                   01 
00050010005000061REP       REP US Representative, District 6                       James Buford                          1005                                                   01 
00050010006000041REP       REP US Representative, District 6                       James Buford                          1006                                                   01 
00050010007000040REP       REP US Representative, District 6                       James Buford                          1007                                                   01 
00050010008000007REP       REP US Representative, District 6                       James Buford                          1008                                                   01 
00050010009000086REP       REP US Representative, District 6                       James Buford                          1009                                                   01 
00050010010000046REP       REP US Representative, District 6                       James Buford                          1010                                                   01 
00050010011000058REP       REP US Representative, District 6                       James Buford                          1011                                                   01 
00050010012000038REP       REP US Representative, District 6                       James Buford                          1012                                                   01 
00050010013000028REP       REP US Representative, District 6                       James Buford                          1013                                                   01 
00050010014000041REP       REP US Representative, District 6                       James Buford                          1014                                                   01 
00050010015000045REP       REP US Representative, District 6                       James Buford                          1015                                                   01 
00050010016000009REP       REP US Representative, District 6                       James Buford                          1016                                                   01 
00050010017000043REP       REP US Representative, District 6                       James Buford                          1017                                                   01 
00050010018000009REP       REP US Representative, District 6                       James Buford                          1018                                                   01 
00050010019000044REP       REP US Representative, District 6                       James Buford                          1019                                                   01 
00050010020000032REP       REP US Representative, District 6                       James Buford                          1020                                                   01 
00050010021000036REP       REP US Representative, District 6                       James Buford                          1021                                                   01 
00050010022000069REP       REP US Representative, District 6                       James Buford                          1022                                                   01 
00050010023000000REP       REP US Representative, District 6                       James Buford                          1023                                                   01 
00050010024000042REP       REP US Representative, District 6                       James Buford                          1024                                                   01 
00050010025000043REP       REP US Representative, District 6                       James Buford                          1025                                                   01 
00050010026000046REP       REP US Representative, District 6                       James Buford                          1026                                                   01 
00050010027000073REP       REP US Representative, District 6                       James Buford                          1027                                                   01 
00050010028000062REP       REP US Representative, District 6                       James Buford                          1028                                                   01 
00050010029000008REP       REP US Representative, District 6                       James Buford                          1029                                                   01 
00050010030000026REP       REP US Representative, District 6                       James Buford                          1030                                                   01 
00050010031000009REP       REP US Representative, District 6                       James Buford                          1031                                                   01 
00050010032000091REP       REP US Representative, District 6                       James Buford                          1032                                                   01 
00050010033000052REP       REP US Representative, District 6                       James Buford                          1033                                                   01 
00050010034000085REP       REP US Representative, District 6                       James Buford                          1034                                                   01 
00050010035000032REP       REP US Representative, District 6                       James Buford                          1035                                                   01 
00050010036000062REP       REP US Representative, District 6                       James Buford                          1036                                                   01 
00050010037000042REP       REP US Representative, District 6                       James Buford                          1037                                                   01 
00050010038000122REP       REP US Representative, District 6                       James Buford                          1038                                                   01 
00050010039000058REP       REP US Representative, District 6                       James Buford                          1039                                                   01 
00050010040000012REP       REP US Representative, District 6                       James Buford                          1040                                                   01 
00050010041000081REP       REP US Representative, District 6                       James Buford                          1041                                                   01 
00050010042000011REP       REP US Representative, District 6                       James Buford                          1042                                                   01 
00050010043000104REP       REP US Representative, District 6                       James Buford                          1043                                                   01 
00050010044000020REP       REP US Representative, District 6                       James Buford                          1044                                                   01 
00050010045000004REP       REP US Representative, District 6                       James Buford                          1045                                                   01 
00050010046000002REP       REP US Representative, District 6                       James Buford                          1046                                                   01 
00050010047000010REP       REP US Representative, District 6                       James Buford                          1047                                                   01 
00050010048000063REP       REP US Representative, District 6                       James Buford                          1048                                                   01 
00050010049000017REP       REP US Representative, District 6                       James Buford                          1049                                                   01 
00050010050000039REP       REP US Representative, District 6                       James Buford                          1050                                                   01 
00050010051000050REP       REP US Representative, District 6                       James Buford                          1051                                                   01 
00050010052000038REP       REP US Representative, District 6                       James Buford                          1052                                                   01 
00050010053000056REP       REP US Representative, District 6                       James Buford                          1053                                                   01 
00050010054000023REP       REP US Representative, District 6                       James Buford                          1054                                                   01 
00050010055000076REP       REP US Representative, District 6                       James Buford                          1055                                                   01 
00050010056000080REP       REP US Representative, District 6                       James Buford                          1056                                                   01 
00050010057000069REP       REP US Representative, District 6                       James Buford                          1057                                                   01 
00050010058000023REP       REP US Representative, District 6                       James Buford                          1058                                                   01 
00050010059000017REP       REP US Representative, District 6                       James Buford                          1059                                                   01 
00050020001000054REP       REP US Representative, District 6                       Jake Ellzey                           1001                                                   01 
00050020002000023REP       REP US Representative, District 6                       Jake Ellzey                           1002                                                   01 
00050020003000226REP       REP US Representative, District 6                       Jake Ellzey                           1003                                                   01 
00050020004000000REP       REP US Representative, District 6                       Jake Ellzey                           1004                                                   01 
00050020005000479REP       REP US Representative, District 6                       Jake Ellzey                           1005                                                   01 
00050020006000304REP       REP US Representative, District 6                       Jake Ellzey                           1006                                                   01 
00050020007000271REP       REP US Representative, District 6                       Jake Ellzey                           1007                                                   01 
00050020008000013REP       REP US Representative, District 6                       Jake Ellzey                           1008                                                   01 
00050020009000442REP       REP US Representative, District 6                       Jake Ellzey                           1009                                                   01 
00050020010000241REP       REP US Representative, District 6                       Jake Ellzey                           1010                                                   01 
00050020011000299REP       REP US Representative, District 6                       Jake Ellzey                           1011                                                   01 
00050020012000229REP       REP US Representative, District 6                       Jake Ellzey                           1012                                                   01 
00050020013000207REP       REP US Representative, District 6                       Jake Ellzey                           1013                                                   01 
00050020014000351REP       REP US Representative, District 6                       Jake Ellzey                           1014                                                   01 
00050020015000356REP       REP US Representative, District 6                       Jake Ellzey                           1015                                                   01 
00050020016000054REP       REP US Representative, District 6                       Jake Ellzey                           1016                                                   01 
00050020017000336REP       REP US Representative, District 6                       Jake Ellzey                           1017                                                   01 
00050020018000082REP       REP US Representative, District 6                       Jake Ellzey                           1018                                                   01 
00050020019000356REP       REP US Representative, District 6                       Jake Ellzey                           1019                                                   01 
00050020020000276REP       REP US Representative, District 6                       Jake Ellzey                           1020                                                   01 
00050020021000237REP       REP US Representative, District 6                       Jake Ellzey                           1021                                                   01 
00050020022000333REP       REP US Representative, District 6                       Jake Ellzey                           1022                                                   01 
00050020023000000REP       REP US Representative, District 6                       Jake Ellzey                           1023                                                   01 
00050020024000251REP       REP US Representative, District 6                       Jake Ellzey                           1024                                                   01 
00050020025000362REP       REP US Representative, District 6                       Jake Ellzey                           1025                                                   01 
00050020026000290REP       REP US Representative, District 6                       Jake Ellzey                           1026                                                   01 
00050020027000378REP       REP US Representative, District 6                       Jake Ellzey                           1027                                                   01 
00050020028000403REP       REP US Representative, District 6                       Jake Ellzey                           1028                                                   01 
00050020029000101REP       REP US Representative, District 6                       Jake Ellzey                           1029                                                   01 
00050020030000253REP       REP US Representative, District 6                       Jake Ellzey                           1030                                                   01 
00050020031000096REP       REP US Representative, District 6                       Jake Ellzey                           1031                                                   01 
00050020032000579REP       REP US Representative, District 6                       Jake Ellzey                           1032                                                   01 
00050020033000264REP       REP US Representative, District 6                       Jake Ellzey                           1033                                                   01 
00050020034000537REP       REP US Representative, District 6                       Jake Ellzey                           1034                                                   01 
00050020035000149REP       REP US Representative, District 6                       Jake Ellzey                           1035                                                   01 
00050020036000314REP       REP US Representative, District 6                       Jake Ellzey                           1036                                                   01 
00050020037000201REP       REP US Representative, District 6                       Jake Ellzey                           1037                                                   01 
00050020038000633REP       REP US Representative, District 6                       Jake Ellzey                           1038                                                   01 
00050020039000390REP       REP US Representative, District 6                       Jake Ellzey                           1039                                                   01 
00050020040000053REP       REP US Representative, District 6                       Jake Ellzey                           1040                                                   01 
00050020041000477REP       REP US Representative, District 6                       Jake Ellzey                           1041                                                   01 
00050020042000077REP       REP US Representative, District 6                       Jake Ellzey                           1042                                                   01 
00050020043000506REP       REP US Representative, District 6                       Jake Ellzey                           1043                                                   01 
00050020044000125REP       REP US Representative, District 6                       Jake Ellzey                           1044                                                   01 
00050020045000040REP       REP US Representative, District 6                       Jake Ellzey                           1045                                                   01 
00050020046000068REP       REP US Representative, District 6                       Jake Ellzey                           1046                                                   01 
00050020047000070REP       REP US Representative, District 6                       Jake Ellzey                           1047                                                   01 
00050020048000309REP       REP US Representative, District 6                       Jake Ellzey                           1048                                                   01 
00050020049000117REP       REP US Representative, District 6                       Jake Ellzey                           1049                                                   01 
00050020050000173REP       REP US Representative, District 6                       Jake Ellzey                           1050                                                   01 
00050020051000235REP       REP US Representative, District 6                       Jake Ellzey                           1051                                                   01 
00050020052000202REP       REP US Representative, District 6                       Jake Ellzey                           1052                                                   01 
00050020053000247REP       REP US Representative, District 6                       Jake Ellzey                           1053                                                   01 
00050020054000077REP       REP US Representative, District 6                       Jake Ellzey                           1054                                                   01 
00050020055000501REP       REP US Representative, District 6                       Jake Ellzey                           1055                                                   01 
00050020056000419REP       REP US Representative, District 6                       Jake Ellzey                           1056                                                   01 
00050020057000329REP       REP US Representative, District 6                       Jake Ellzey                           1057                                                   01 
00050020058000079REP       REP US Representative, District 6                       Jake Ellzey                           1058                                                   01 
00050020059000095REP       REP US Representative, District 6                       Jake Ellzey                           1059                                                   01 
00050030001000005REP       REP US Representative, District 6                       Bill Payne                            1001                                                   01 
00050030002000003REP       REP US Representative, District 6                       Bill Payne                            1002                                                   01 
00050030003000016REP       REP US Representative, District 6                       Bill Payne                            1003                                                   01 
00050030004000000REP       REP US Representative, District 6                       Bill Payne                            1004                                                   01 
00050030005000021REP       REP US Representative, District 6                       Bill Payne                            1005                                                   01 
00050030006000021REP       REP US Representative, District 6                       Bill Payne                            1006                                                   01 
00050030007000014REP       REP US Representative, District 6                       Bill Payne                            1007                                                   01 
00050030008000000REP       REP US Representative, District 6                       Bill Payne                            1008                                                   01 
00050030009000016REP       REP US Representative, District 6                       Bill Payne                            1009                                                   01 
00050030010000013REP       REP US Representative, District 6                       Bill Payne                            1010                                                   01 
00050030011000025REP       REP US Representative, District 6                       Bill Payne                            1011                                                   01 
00050030012000009REP       REP US Representative, District 6                       Bill Payne                            1012                                                   01 
00050030013000016REP       REP US Representative, District 6                       Bill Payne                            1013                                                   01 
00050030014000026REP       REP US Representative, District 6                       Bill Payne                            1014                                                   01 
00050030015000017REP       REP US Representative, District 6                       Bill Payne                            1015                                                   01 
00050030016000002REP       REP US Representative, District 6                       Bill Payne                            1016                                                   01 
00050030017000009REP       REP US Representative, District 6                       Bill Payne                            1017                                                   01 
00050030018000007REP       REP US Representative, District 6                       Bill Payne                            1018                                                   01 
00050030019000018REP       REP US Representative, District 6                       Bill Payne                            1019                                                   01 
00050030020000014REP       REP US Representative, District 6                       Bill Payne                            1020                                                   01 
00050030021000009REP       REP US Representative, District 6                       Bill Payne                            1021                                                   01 
00050030022000015REP       REP US Representative, District 6                       Bill Payne                            1022                                                   01 
00050030023000000REP       REP US Representative, District 6                       Bill Payne                            1023                                                   01 
00050030024000012REP       REP US Representative, District 6                       Bill Payne                            1024                                                   01 
00050030025000016REP       REP US Representative, District 6                       Bill Payne                            1025                                                   01 
00050030026000009REP       REP US Representative, District 6                       Bill Payne                            1026                                                   01 
00050030027000022REP       REP US Representative, District 6                       Bill Payne                            1027                                                   01 
00050030028000010REP       REP US Representative, District 6                       Bill Payne                            1028                                                   01 
00050030029000002REP       REP US Representative, District 6                       Bill Payne                            1029                                                   01 
00050030030000019REP       REP US Representative, District 6                       Bill Payne                            1030                                                   01 
00050030031000005REP       REP US Representative, District 6                       Bill Payne                            1031                                                   01 
00050030032000021REP       REP US Representative, District 6                       Bill Payne                            1032                                                   01 
00050030033000023REP       REP US Representative, District 6                       Bill Payne                            1033                                                   01 
00050030034000037REP       REP US Representative, District 6                       Bill Payne                            1034                                                   01 
00050030035000012REP       REP US Representative, District 6                       Bill Payne                            1035                                                   01 
00050030036000016REP       REP US Representative, District 6                       Bill Payne                            1036                                                   01 
00050030037000006REP       REP US Representative, District 6                       Bill Payne                            1037                                                   01 
00050030038000045REP       REP US Representative, District 6                       Bill Payne                            1038                                                   01 
00050030039000020REP       REP US Representative, District 6                       Bill Payne                            1039                                                   01 
00050030040000002REP       REP US Representative, District 6                       Bill Payne                            1040                                                   01 
00050030041000012REP       REP US Representative, District 6                       Bill Payne                            1041                                                   01 
00050030042000002REP       REP US Representative, District 6                       Bill Payne                            1042                                                   01 
00050030043000031REP       REP US Representative, District 6                       Bill Payne                            1043                                                   01 
00050030044000001REP       REP US Representative, District 6                       Bill Payne                            1044                                                   01 
00050030045000000REP       REP US Representative, District 6                       Bill Payne                            1045                                                   01 
00050030046000001REP       REP US Representative, District 6                       Bill Payne                            1046                                                   01 
00050030047000001REP       REP US Representative, District 6                       Bill Payne                            1047                                                   01 
00050030048000011REP       REP US Representative, District 6                       Bill Payne                            1048                                                   01 
00050030049000004REP       REP US Representative, District 6                       Bill Payne                            1049                                                   01 
00050030050000013REP       REP US Representative, District 6                       Bill Payne                            1050                                                   01 
00050030051000013REP       REP US Representative, District 6                       Bill Payne                            1051                                                   01 
00050030052000009REP       REP US Representative, District 6                       Bill Payne                            1052                                                   01 
00050030053000024REP       REP US Representative, District 6                       Bill Payne                            1053                                                   01 
00050030054000019REP       REP US Representative, District 6                       Bill Payne                            1054                                                   01 
00050030055000035REP       REP US Representative, District 6                       Bill Payne                            1055                                                   01 
00050030056000016REP       REP US Representative, District 6                       Bill Payne                            1056                                                   01 
00050030057000017REP       REP US Representative, District 6                       Bill Payne                            1057                                                   01 
00050030058000009REP       REP US Representative, District 6                       Bill Payne                            1058                                                   01 
00050030059000009REP       REP US Representative, District 6                       Bill Payne                            1059                                                   01 
00050040001000000          REP US Representative, District 6                       OVER VOTES                            1001                                                   01 
00050040002000000          REP US Representative, District 6                       OVER VOTES                            1002                                                   01 
00050040003000000          REP US Representative, District 6                       OVER VOTES                            1003                                                   01 
00050040004000000          REP US Representative, District 6                       OVER VOTES                            1004                                                   01 
00050040005000000          REP US Representative, District 6                       OVER VOTES                            1005                                                   01 
00050040006000000          REP US Representative, District 6                       OVER VOTES                            1006                                                   01 
00050040007000000          REP US Representative, District 6                       OVER VOTES                            1007                                                   01 
00050040008000000          REP US Representative, District 6                       OVER VOTES                            1008                                                   01 
00050040009000000          REP US Representative, District 6                       OVER VOTES                            1009                                                   01 
00050040010000000          REP US Representative, District 6                       OVER VOTES                            1010                                                   01 
00050040011000000          REP US Representative, District 6                       OVER VOTES                            1011                                                   01 
00050040012000000          REP US Representative, District 6                       OVER VOTES                            1012                                                   01 
00050040013000000          REP US Representative, District 6                       OVER VOTES                            1013                                                   01 
00050040014000000          REP US Representative, District 6                       OVER VOTES                            1014                                                   01 
00050040015000000          REP US Representative, District 6                       OVER VOTES                            1015                                                   01 
00050040016000000          REP US Representative, District 6                       OVER VOTES                            1016                                                   01 
00050040017000000          REP US Representative, District 6                       OVER VOTES                            1017                                                   01 
00050040018000000          REP US Representative, District 6                       OVER VOTES                            1018                                                   01 
00050040019000000          REP US Representative, District 6                       OVER VOTES                            1019                                                   01 
00050040020000000          REP US Representative, District 6                       OVER VOTES                            1020                                                   01 
00050040021000000          REP US Representative, District 6                       OVER VOTES                            1021                                                   01 
00050040022000000          REP US Representative, District 6                       OVER VOTES                            1022                                                   01 
00050040023000000          REP US Representative, District 6                       OVER VOTES                            1023                                                   01 
00050040024000000          REP US Representative, District 6                       OVER VOTES                            1024                                                   01 
00050040025000000          REP US Representative, District 6                       OVER VOTES                            1025                                                   01 
00050040026000000          REP US Representative, District 6                       OVER VOTES                            1026                                                   01 
00050040027000000          REP US Representative, District 6                       OVER VOTES                            1027                                                   01 
00050040028000000          REP US Representative, District 6                       OVER VOTES                            1028                                                   01 
00050040029000000          REP US Representative, District 6                       OVER VOTES                            1029                                                   01 
00050040030000000          REP US Representative, District 6                       OVER VOTES                            1030                                                   01 
00050040031000000          REP US Representative, District 6                       OVER VOTES                            1031                                                   01 
00050040032000000          REP US Representative, District 6                       OVER VOTES                            1032                                                   01 
00050040033000000          REP US Representative, District 6                       OVER VOTES                            1033                                                   01 
00050040034000000          REP US Representative, District 6                       OVER VOTES                            1034                                                   01 
00050040035000000          REP US Representative, District 6                       OVER VOTES                            1035                                                   01 
00050040036000000          REP US Representative, District 6                       OVER VOTES                            1036                                                   01 
00050040037000000          REP US Representative, District 6                       OVER VOTES                            1037                                                   01 
00050040038000000          REP US Representative, District 6                       OVER VOTES                            1038                                                   01 
00050040039000000          REP US Representative, District 6                       OVER VOTES                            1039                                                   01 
00050040040000000          REP US Representative, District 6                       OVER VOTES                            1040                                                   01 
00050040041000000          REP US Representative, District 6                       OVER VOTES                            1041                                                   01 
00050040042000000          REP US Representative, District 6                       OVER VOTES                            1042                                                   01 
00050040043000000          REP US Representative, District 6                       OVER VOTES                            1043                                                   01 
00050040044000000          REP US Representative, District 6                       OVER VOTES                            1044                                                   01 
00050040045000000          REP US Representative, District 6                       OVER VOTES                            1045                                                   01 
00050040046000000          REP US Representative, District 6                       OVER VOTES                            1046                                                   01 
00050040047000000          REP US Representative, District 6                       OVER VOTES                            1047                                                   01 
00050040048000000          REP US Representative, District 6                       OVER VOTES                            1048                                                   01 
00050040049000000          REP US Representative, District 6                       OVER VOTES                            1049                                                   01 
00050040050000000          REP US Representative, District 6                       OVER VOTES                            1050                                                   01 
00050040051000000          REP US Representative, District 6                       OVER VOTES                            1051                                                   01 
00050040052000000          REP US Representative, District 6                       OVER VOTES                            1052                                                   01 
00050040053000000          REP US Representative, District 6                       OVER VOTES                            1053                                                   01 
00050040054000000          REP US Representative, District 6                       OVER VOTES                            1054                                                   01 
00050040055000000          REP US Representative, District 6                       OVER VOTES                            1055                                                   01 
00050040056000000          REP US Representative, District 6                       OVER VOTES                            1056                                                   01 
00050040057000000          REP US Representative, District 6                       OVER VOTES                            1057                                                   01 
00050040058000000          REP US Representative, District 6                       OVER VOTES                            1058                                                   01 
00050040059000000          REP US Representative, District 6                       OVER VOTES                            1059                                                   01 
00050050001000006          REP US Representative, District 6                       UNDER VOTES                           1001                                                   01 
00050050002000000          REP US Representative, District 6                       UNDER VOTES                           1002                                                   01 
00050050003000016          REP US Representative, District 6                       UNDER VOTES                           1003                                                   01 
00050050004000000          REP US Representative, District 6                       UNDER VOTES                           1004                                                   01 
00050050005000022          REP US Representative, District 6                       UNDER VOTES                           1005                                                   01 
00050050006000021          REP US Representative, District 6                       UNDER VOTES                           1006                                                   01 
00050050007000020          REP US Representative, District 6                       UNDER VOTES                           1007                                                   01 
00050050008000002          REP US Representative, District 6                       UNDER VOTES                           1008                                                   01 
00050050009000023          REP US Representative, District 6                       UNDER VOTES                           1009                                                   01 
00050050010000018          REP US Representative, District 6                       UNDER VOTES                           1010                                                   01 
00050050011000034          REP US Representative, District 6                       UNDER VOTES                           1011                                                   01 
00050050012000023          REP US Representative, District 6                       UNDER VOTES                           1012                                                   01 
00050050013000021          REP US Representative, District 6                       UNDER VOTES                           1013                                                   01 
00050050014000026          REP US Representative, District 6                       UNDER VOTES                           1014                                                   01 
00050050015000022          REP US Representative, District 6                       UNDER VOTES                           1015                                                   01 
00050050016000007          REP US Representative, District 6                       UNDER VOTES                           1016                                                   01 
00050050017000020          REP US Representative, District 6                       UNDER VOTES                           1017                                                   01 
00050050018000005          REP US Representative, District 6                       UNDER VOTES                           1018                                                   01 
00050050019000017          REP US Representative, District 6                       UNDER VOTES                           1019                                                   01 
00050050020000012          REP US Representative, District 6                       UNDER VOTES                           1020                                                   01 
00050050021000019          REP US Representative, District 6                       UNDER VOTES                           1021                                                   01 
00050050022000022          REP US Representative, District 6                       UNDER VOTES                           1022                                                   01 
00050050023000000          REP US Representative, District 6                       UNDER VOTES                           1023                                                   01 
00050050024000016          REP US Representative, District 6                       UNDER VOTES                           1024                                                   01 
00050050025000022          REP US Representative, District 6                       UNDER VOTES                           1025                                                   01 
00050050026000017          REP US Representative, District 6                       UNDER VOTES                           1026                                                   01 
00050050027000027          REP US Representative, District 6                       UNDER VOTES                           1027                                                   01 
00050050028000021          REP US Representative, District 6                       UNDER VOTES                           1028                                                   01 
00050050029000010          REP US Representative, District 6                       UNDER VOTES                           1029                                                   01 
00050050030000014          REP US Representative, District 6                       UNDER VOTES                           1030                                                   01 
00050050031000009          REP US Representative, District 6                       UNDER VOTES                           1031                                                   01 
00050050032000049          REP US Representative, District 6                       UNDER VOTES                           1032                                                   01 
00050050033000023          REP US Representative, District 6                       UNDER VOTES                           1033                                                   01 
00050050034000032          REP US Representative, District 6                       UNDER VOTES                           1034                                                   01 
00050050035000009          REP US Representative, District 6                       UNDER VOTES                           1035                                                   01 
00050050036000025          REP US Representative, District 6                       UNDER VOTES                           1036                                                   01 
00050050037000015          REP US Representative, District 6                       UNDER VOTES                           1037                                                   01 
00050050038000042          REP US Representative, District 6                       UNDER VOTES                           1038                                                   01 
00050050039000040          REP US Representative, District 6                       UNDER VOTES                           1039                                                   01 
00050050040000003          REP US Representative, District 6                       UNDER VOTES                           1040                                                   01 
00050050041000021          REP US Representative, District 6                       UNDER VOTES                           1041                                                   01 
00050050042000004          REP US Representative, District 6                       UNDER VOTES                           1042                                                   01 
00050050043000034          REP US Representative, District 6                       UNDER VOTES                           1043                                                   01 
00050050044000006          REP US Representative, District 6                       UNDER VOTES                           1044                                                   01 
00050050045000001          REP US Representative, District 6                       UNDER VOTES                           1045                                                   01 
00050050046000004          REP US Representative, District 6                       UNDER VOTES                           1046                                                   01 
00050050047000003          REP US Representative, District 6                       UNDER VOTES                           1047                                                   01 
00050050048000020          REP US Representative, District 6                       UNDER VOTES                           1048                                                   01 
00050050049000005          REP US Representative, District 6                       UNDER VOTES                           1049                                                   01 
00050050050000026          REP US Representative, District 6                       UNDER VOTES                           1050                                                   01 
00050050051000018          REP US Representative, District 6                       UNDER VOTES                           1051                                                   01 
00050050052000014          REP US Representative, District 6                       UNDER VOTES                           1052                                                   01 
00050050053000019          REP US Representative, District 6                       UNDER VOTES                           1053                                                   01 
00050050054000009          REP US Representative, District 6                       UNDER VOTES                           1054                                                   01 
00050050055000041          REP US Representative, District 6                       UNDER VOTES                           1055                                                   01 
00050050056000036          REP US Representative, District 6                       UNDER VOTES                           1056                                                   01 
00050050057000022          REP US Representative, District 6                       UNDER VOTES                           1057                                                   01 
00050050058000011          REP US Representative, District 6                       UNDER VOTES                           1058                                                   01 
00050050059000005          REP US Representative, District 6                       UNDER VOTES                           1059                                                   01 
00060010001000018REP       REP Governor                                            Don Huffines                          1001                                                   01 
00060010002000006REP       REP Governor                                            Don Huffines                          1002                                                   01 
00060010003000049REP       REP Governor                                            Don Huffines                          1003                                                   01 
00060010004000000REP       REP Governor                                            Don Huffines                          1004                                                   01 
00060010005000096REP       REP Governor                                            Don Huffines                          1005                                                   01 
00060010006000064REP       REP Governor                                            Don Huffines                          1006                                                   01 
00060010007000045REP       REP Governor                                            Don Huffines                          1007                                                   01 
00060010008000004REP       REP Governor                                            Don Huffines                          1008                                                   01 
00060010009000076REP       REP Governor                                            Don Huffines                          1009                                                   01 
00060010010000055REP       REP Governor                                            Don Huffines                          1010                                                   01 
00060010011000064REP       REP Governor                                            Don Huffines                          1011                                                   01 
00060010012000054REP       REP Governor                                            Don Huffines                          1012                                                   01 
00060010013000038REP       REP Governor                                            Don Huffines                          1013                                                   01 
00060010014000067REP       REP Governor                                            Don Huffines                          1014                                                   01 
00060010015000051REP       REP Governor                                            Don Huffines                          1015                                                   01 
00060010016000007REP       REP Governor                                            Don Huffines                          1016                                                   01 
00060010017000054REP       REP Governor                                            Don Huffines                          1017                                                   01 
00060010018000012REP       REP Governor                                            Don Huffines                          1018                                                   01 
00060010019000067REP       REP Governor                                            Don Huffines                          1019                                                   01 
00060010020000052REP       REP Governor                                            Don Huffines                          1020                                                   01 
00060010021000040REP       REP Governor                                            Don Huffines                          1021                                                   01 
00060010022000074REP       REP Governor                                            Don Huffines                          1022                                                   01 
00060010023000000REP       REP Governor                                            Don Huffines                          1023                                                   01 
00060010024000047REP       REP Governor                                            Don Huffines                          1024                                                   01 
00060010025000058REP       REP Governor                                            Don Huffines                          1025                                                   01 
00060010026000076REP       REP Governor                                            Don Huffines                          1026                                                   01 
00060010027000092REP       REP Governor                                            Don Huffines                          1027                                                   01 
00060010028000067REP       REP Governor                                            Don Huffines                          1028                                                   01 
00060010029000012REP       REP Governor                                            Don Huffines                          1029                                                   01 
00060010030000046REP       REP Governor                                            Don Huffines                          1030                                                   01 
00060010031000011REP       REP Governor                                            Don Huffines                          1031                                                   01 
00060010032000100REP       REP Governor                                            Don Huffines                          1032                                                   01 
00060010033000068REP       REP Governor                                            Don Huffines                          1033                                                   01 
00060010034000111REP       REP Governor                                            Don Huffines                          1034                                                   01 
00060010035000034REP       REP Governor                                            Don Huffines                          1035                                                   01 
00060010036000065REP       REP Governor                                            Don Huffines                          1036                                                   01 
00060010037000032REP       REP Governor                                            Don Huffines                          1037                                                   01 
00060010038000113REP       REP Governor                                            Don Huffines                          1038                                                   01 
00060010039000069REP       REP Governor                                            Don Huffines                          1039                                                   01 
00060010040000010REP       REP Governor                                            Don Huffines                          1040                                                   01 
00060010041000103REP       REP Governor                                            Don Huffines                          1041                                                   01 
00060010042000013REP       REP Governor                                            Don Huffines                          1042                                                   01 
00060010043000140REP       REP Governor                                            Don Huffines                          1043                                                   01 
00060010044000020REP       REP Governor                                            Don Huffines                          1044                                                   01 
00060010045000006REP       REP Governor                                            Don Huffines                          1045                                                   01 
00060010046000010REP       REP Governor                                            Don Huffines                          1046                                                   01 
00060010047000007REP       REP Governor                                            Don Huffines                          1047                                                   01 
00060010048000075REP       REP Governor                                            Don Huffines                          1048                                                   01 
00060010049000016REP       REP Governor                                            Don Huffines                          1049                                                   01 
00060010050000056REP       REP Governor                                            Don Huffines                          1050                                                   01 
00060010051000035REP       REP Governor                                            Don Huffines                          1051                                                   01 
00060010052000034REP       REP Governor                                            Don Huffines                          1052                                                   01 
00060010053000060REP       REP Governor                                            Don Huffines                          1053                                                   01 
00060010054000022REP       REP Governor                                            Don Huffines                          1054                                                   01 
00060010055000115REP       REP Governor                                            Don Huffines                          1055                                                   01 
00060010056000093REP       REP Governor                                            Don Huffines                          1056                                                   01 
00060010057000072REP       REP Governor                                            Don Huffines                          1057                                                   01 
00060010058000024REP       REP Governor                                            Don Huffines                          1058                                                   01 
00060010059000029REP       REP Governor                                            Don Huffines                          1059                                                   01 
00060020001000002REP       REP Governor                                            Rick Perry                            1001                                                   01 
00060020002000001REP       REP Governor                                            Rick Perry                            1002                                                   01 
00060020003000007REP       REP Governor                                            Rick Perry                            1003                                                   01 
00060020004000000REP       REP Governor                                            Rick Perry                            1004                                                   01 
00060020005000019REP       REP Governor                                            Rick Perry                            1005                                                   01 
00060020006000006REP       REP Governor                                            Rick Perry                            1006                                                   01 
00060020007000011REP       REP Governor                                            Rick Perry                            1007                                                   01 
00060020008000000REP       REP Governor                                            Rick Perry                            1008                                                   01 
00060020009000015REP       REP Governor                                            Rick Perry                            1009                                                   01 
00060020010000007REP       REP Governor                                            Rick Perry                            1010                                                   01 
00060020011000012REP       REP Governor                                            Rick Perry                            1011                                                   01 
00060020012000010REP       REP Governor                                            Rick Perry                            1012                                                   01 
00060020013000006REP       REP Governor                                            Rick Perry                            1013                                                   01 
00060020014000014REP       REP Governor                                            Rick Perry                            1014                                                   01 
00060020015000016REP       REP Governor                                            Rick Perry                            1015                                                   01 
00060020016000001REP       REP Governor                                            Rick Perry                            1016                                                   01 
00060020017000010REP       REP Governor                                            Rick Perry                            1017                                                   01 
00060020018000006REP       REP Governor                                            Rick Perry                            1018                                                   01 
00060020019000014REP       REP Governor                                            Rick Perry                            1019                                                   01 
00060020020000012REP       REP Governor                                            Rick Perry                            1020                                                   01 
00060020021000012REP       REP Governor                                            Rick Perry                            1021                                                   01 
00060020022000012REP       REP Governor                                            Rick Perry                            1022                                                   01 
00060020023000000REP       REP Governor                                            Rick Perry                            1023                                                   01 
00060020024000011REP       REP Governor                                            Rick Perry                            1024                                                   01 
00060020025000007REP       REP Governor                                            Rick Perry                            1025                                                   01 
00060020026000016REP       REP Governor                                            Rick Perry                            1026                                                   01 
00060020027000015REP       REP Governor                                            Rick Perry                            1027                                                   01 
00060020028000015REP       REP Governor                                            Rick Perry                            1028                                                   01 
00060020029000005REP       REP Governor                                            Rick Perry                            1029                                                   01 
00060020030000010REP       REP Governor                                            Rick Perry                            1030                                                   01 
00060020031000007REP       REP Governor                                            Rick Perry                            1031                                                   01 
00060020032000021REP       REP Governor                                            Rick Perry                            1032                                                   01 
00060020033000013REP       REP Governor                                            Rick Perry                            1033                                                   01 
00060020034000017REP       REP Governor                                            Rick Perry                            1034                                                   01 
00060020035000002REP       REP Governor                                            Rick Perry                            1035                                                   01 
00060020036000011REP       REP Governor                                            Rick Perry                            1036                                                   01 
00060020037000006REP       REP Governor                                            Rick Perry                            1037                                                   01 
00060020038000024REP       REP Governor                                            Rick Perry                            1038                                                   01 
00060020039000018REP       REP Governor                                            Rick Perry                            1039                                                   01 
00060020040000003REP       REP Governor                                            Rick Perry                            1040                                                   01 
00060020041000022REP       REP Governor                                            Rick Perry                            1041                                                   01 
00060020042000002REP       REP Governor                                            Rick Perry                            1042                                                   01 
00060020043000016REP       REP Governor                                            Rick Perry                            1043                                                   01 
00060020044000002REP       REP Governor                                            Rick Perry                            1044                                                   01 
00060020045000001REP       REP Governor                                            Rick Perry                            1045                                                   01 
00060020046000000REP       REP Governor                                            Rick Perry                            1046                                                   01 
00060020047000006REP       REP Governor                                            Rick Perry                            1047                                                   01 
00060020048000012REP       REP Governor                                            Rick Perry                            1048                                                   01 
00060020049000003REP       REP Governor                                            Rick Perry                            1049                                                   01 
00060020050000005REP       REP Governor                                            Rick Perry                            1050                                                   01 
00060020051000008REP       REP Governor                                            Rick Perry                            1051                                                   01 
00060020052000008REP       REP Governor                                            Rick Perry                            1052                                                   01 
00060020053000010REP       REP Governor                                            Rick Perry                            1053                                                   01 
00060020054000007REP       REP Governor                                            Rick Perry                            1054                                                   01 
00060020055000022REP       REP Governor                                            Rick Perry                            1055                                                   01 
00060020056000012REP       REP Governor                                            Rick Perry                            1056                                                   01 
00060020057000009REP       REP Governor                                            Rick Perry                            1057                                                   01 
00060020058000003REP       REP Governor                                            Rick Perry                            1058                                                   01 
00060020059000002REP       REP Governor                                            Rick Perry                            1059                                                   01 
00060030001000000REP       REP Governor                                            Danny Harrison                        1001                                                   01 
00060030002000000REP       REP Governor                                            Danny Harrison                        1002                                                   01 
00060030003000002REP       REP Governor                                            Danny Harrison                        1003                                                   01 
00060030004000000REP       REP Governor                                            Danny Harrison                        1004                                                   01 
00060030005000001REP       REP Governor                                            Danny Harrison                        1005                                                   01 
00060030006000000REP       REP Governor                                            Danny Harrison                        1006                                                   01 
00060030007000001REP       REP Governor                                            Danny Harrison                        1007                                                   01 
00060030008000000REP       REP Governor                                            Danny Harrison                        1008                                                   01 
00060030009000004REP       REP Governor                                            Danny Harrison                        1009                                                   01 
00060030010000000REP       REP Governor                                            Danny Harrison                        1010                                                   01 
00060030011000001REP       REP Governor                                            Danny Harrison                        1011                                                   01 
00060030012000002REP       REP Governor                                            Danny Harrison                        1012                                                   01 
00060030013000001REP       REP Governor                                            Danny Harrison                        1013                                                   01 
00060030014000000REP       REP Governor                                            Danny Harrison                        1014                                                   01 
00060030015000001REP       REP Governor                                            Danny Harrison                        1015                                                   01 
00060030016000000REP       REP Governor                                            Danny Harrison                        1016                                                   01 
00060030017000002REP       REP Governor                                            Danny Harrison                        1017                                                   01 
00060030018000000REP       REP Governor                                            Danny Harrison                        1018                                                   01 
00060030019000005REP       REP Governor                                            Danny Harrison                        1019                                                   01 
00060030020000001REP       REP Governor                                            Danny Harrison                        1020                                                   01 
00060030021000000REP       REP Governor                                            Danny Harrison                        1021                                                   01 
