00020010001002181DEM       REGISTERED VOTERS - Democratic Party                    REGISTERED VOTERS - Democratic Party  1001                                                   00 
00020010002000158DEM       REGISTERED VOTERS - Democratic Party                    REGISTERED VOTERS - Democratic Party  1002                                                   00 
00020010003002302DEM       REGISTERED VOTERS - Democratic Party                    REGISTERED VOTERS - Democratic Party  1003                                                   00 
00020010004000009DEM       REGISTERED VOTERS - Democratic Party                    REGISTERED VOTERS - Democratic Party  1004                                                   00 
00020010005003446DEM       REGISTERED VOTERS - Democratic Party                    REGISTERED VOTERS - Democratic Party  1005                                                   00 
00020010006003555DEM       REGISTERED VOTERS - Democratic Party                    REGISTERED VOTERS - Democratic Party  1006                                                   00 
00020010007002016DEM       REGISTERED VOTERS - Democratic Party                    REGISTERED VOTERS - Democratic Party  1007                                                   00 
00020010008000159DEM       REGISTERED VOTERS - Democratic Party                    REGISTERED VOTERS - Democratic Party  1008                                                   00 
00020010009003342DEM       REGISTERED VOTERS - Democratic Party                    REGISTERED VOTERS - Democratic Party  1009                                                   00 
00020010010002080DEM       REGISTERED VOTERS - Democratic Party                    REGISTERED VOTERS - Democratic Party  1010                                                   00 
00020010011002878DEM       REGISTERED VOTERS - Democratic Party                    REGISTERED VOTERS - Democratic Party  1011                                                   00 
00020010012003500DEM       REGISTERED VOTERS - Democratic Party                    REGISTERED VOTERS - Democratic Party  1012                                                   00 
00020010013001844DEM       REGISTERED VOTERS - Democratic Party                    REGISTERED VOTERS - Democratic Party  1013                                                   00 
00020010014001871DEM       REGISTERED VOTERS - Democratic Party                    REGISTERED VOTERS - Democratic Party  1014                                                   00 
00020010015002932DEM       REGISTERED VOTERS - Democratic Party                    REGISTERED VOTERS - Democratic Party  1015                                                   00 
00020010016001887DEM       REGISTERED VOTERS - Democratic Party                    REGISTERED VOTERS - Democratic Party  1016                                                   00 
00020010017002832DEM       REGISTERED VOTERS - Democratic Party                    REGISTERED VOTERS - Democratic Party  1017                                                   00 
00020010018002462DEM       REGISTERED VOTERS - Democratic Party                    REGISTERED VOTERS - Democratic Party  1018                                                   00 
00020010019002361DEM       REGISTERED VOTERS - Democratic Party                    REGISTERED VOTERS - Democratic Party  1019                                                   00 
00020010020001837DEM       REGISTERED VOTERS - Democratic Party                    REGISTERED VOTERS - Democratic Party  1020                                                   00 
00020010021001444DEM       REGISTERED VOTERS - Democratic Party                    REGISTERED VOTERS - Democratic Party  1021                                                   00 
00020010022003018DEM       REGISTERED VOTERS - Democratic Party                    REGISTERED VOTERS - Democratic Party  1022                                                   00 
00020010023000000DEM       REGISTERED VOTERS - Democratic Party                    REGISTERED VOTERS - Democratic Party  1023                                                   00 
00020010024002168DEM       REGISTERED VOTERS - Democratic Party                    REGISTERED VOTERS - Democratic Party  1024                                                   00 
00020010025002797DEM       REGISTERED VOTERS - Democratic Party                    REGISTERED VOTERS - Democratic Party  1025                                                   00 
00020010026002653DEM       REGISTERED VOTERS - Democratic Party                    REGISTERED VOTERS - Democratic Party  1026                                                   00 
00020010027002691DEM       REGISTERED VOTERS - Democratic Party                    REGISTERED VOTERS - Democratic Party  1027                                                   00 
00020010028002686DEM       REGISTERED VOTERS - Democratic Party                    REGISTERED VOTERS - Democratic Party  1028                                                   00 
00020010029000657DEM       REGISTERED VOTERS - Democratic Party                    REGISTERED VOTERS - Democratic Party  1029                                                   00 
00020010030002005DEM       REGISTERED VOTERS - Democratic Party                    REGISTERED VOTERS - Democratic Party  1030                                                   00 
00020010031000677DEM       REGISTERED VOTERS - Democratic Party                    REGISTERED VOTERS - Democratic Party  1031                                                   00 
00020010032003441DEM       REGISTERED VOTERS - Democratic Party                    REGISTERED VOTERS - Democratic Party  1032                                                   00 
00020010033002090DEM       REGISTERED VOTERS - Democratic Party                    REGISTERED VOTERS - Democratic Party  1033                                                   00 
00020010034004014DEM       REGISTERED VOTERS - Democratic Party                    REGISTERED VOTERS - Democratic Party  1034                                                   00 
00020010035001892DEM       REGISTERED VOTERS - Democratic Party                    REGISTERED VOTERS - Democratic Party  1035                                                   00 
00020010036003542DEM       REGISTERED VOTERS - Democratic Party                    REGISTERED VOTERS - Democratic Party  1036                                                   00 
00020010037001788DEM       REGISTERED VOTERS - Democratic Party                    REGISTERED VOTERS - Democratic Party  1037                                                   00 
00020010038004076DEM       REGISTERED VOTERS - Democratic Party                    REGISTERED VOTERS - Democratic Party  1038                                                   00 
00020010039003608DEM       REGISTERED VOTERS - Democratic Party                    REGISTERED VOTERS - Democratic Party  1039                                                   00 
00020010040000351DEM       REGISTERED VOTERS - Democratic Party                    REGISTERED VOTERS - Democratic Party  1040                                                   00 
00020010041002647DEM       REGISTERED VOTERS - Democratic Party                    REGISTERED VOTERS - Democratic Party  1041                                                   00 
00020010042000402DEM       REGISTERED VOTERS - Democratic Party                    REGISTERED VOTERS - Democratic Party  1042                                                   00 
00020010043003781DEM       REGISTERED VOTERS - Democratic Party                    REGISTERED VOTERS - Democratic Party  1043                                                   00 
00020010044000607DEM       REGISTERED VOTERS - Democratic Party                    REGISTERED VOTERS - Democratic Party  1044                                                   00 
00020010045000155DEM       REGISTERED VOTERS - Democratic Party                    REGISTERED VOTERS - Democratic Party  1045                                                   00 
00020010046000396DEM       REGISTERED VOTERS - Democratic Party                    REGISTERED VOTERS - Democratic Party  1046                                                   00 
00020010047000357DEM       REGISTERED VOTERS - Democratic Party                    REGISTERED VOTERS - Democratic Party  1047                                                   00 
00020010048002072DEM       REGISTERED VOTERS - Democratic Party                    REGISTERED VOTERS - Democratic Party  1048                                                   00 
00020010049000643DEM       REGISTERED VOTERS - Democratic Party                    REGISTERED VOTERS - Democratic Party  1049                                                   00 
00020010050003441DEM       REGISTERED VOTERS - Democratic Party                    REGISTERED VOTERS - Democratic Party  1050                                                   00 
00020010051003186DEM       REGISTERED VOTERS - Democratic Party                    REGISTERED VOTERS - Democratic Party  1051                                                   00 
00020010052002470DEM       REGISTERED VOTERS - Democratic Party                    REGISTERED VOTERS - Democratic Party  1052                                                   00 
00020010053002092DEM       REGISTERED VOTERS - Democratic Party                    REGISTERED VOTERS - Democratic Party  1053                                                   00 
00020010054002674DEM       REGISTERED VOTERS - Democratic Party                    REGISTERED VOTERS - Democratic Party  1054                                                   00 
00020010055002861DEM       REGISTERED VOTERS - Democratic Party                    REGISTERED VOTERS - Democratic Party  1055                                                   00 
00020010056002830DEM       REGISTERED VOTERS - Democratic Party                    REGISTERED VOTERS - Democratic Party  1056                                                   00 
00020010057002909DEM       REGISTERED VOTERS - Democratic Party                    REGISTERED VOTERS - Democratic Party  1057                                                   00 
00020010058001212DEM       REGISTERED VOTERS - Democratic Party                    REGISTERED VOTERS - Democratic Party  1058                                                   00 
00020010059000709DEM       REGISTERED VOTERS - Democratic Party                    REGISTERED VOTERS - Democratic Party  1059                                                   00 
00040010001000155DEM       BALLOTS CAST - Democratic Party                         BALLOTS CAST - Democratic Party       1001                                                   00 
00040010002000002DEM       BALLOTS CAST - Democratic Party                         BALLOTS CAST - Democratic Party       1002                                                   00 
00040010003000136DEM       BALLOTS CAST - Democratic Party                         BALLOTS CAST - Democratic Party       1003                                                   00 
00040010004000002DEM       BALLOTS CAST - Democratic Party                         BALLOTS CAST - Democratic Party       1004                                                   00 
00040010005000169DEM       BALLOTS CAST - Democratic Party                         BALLOTS CAST - Democratic Party       1005                                                   00 
00040010006000185DEM       BALLOTS CAST - Democratic Party                         BALLOTS CAST - Democratic Party       1006                                                   00 
00040010007000078DEM       BALLOTS CAST - Democratic Party                         BALLOTS CAST - Democratic Party       1007                                                   00 
00040010008000007DEM       BALLOTS CAST - Democratic Party                         BALLOTS CAST - Democratic Party       1008                                                   00 
00040010009000078DEM       BALLOTS CAST - Democratic Party                         BALLOTS CAST - Democratic Party       1009                                                   00 
00040010010000089DEM       BALLOTS CAST - Democratic Party                         BALLOTS CAST - Democratic Party       1010                                                   00 
00040010011000136DEM       BALLOTS CAST - Democratic Party                         BALLOTS CAST - Democratic Party       1011                                                   00 
00040010012000176DEM       BALLOTS CAST - Democratic Party                         BALLOTS CAST - Democratic Party       1012                                                   00 
00040010013000050DEM       BALLOTS CAST - Democratic Party                         BALLOTS CAST - Democratic Party       1013                                                   00 
00040010014000049DEM       BALLOTS CAST - Democratic Party                         BALLOTS CAST - Democratic Party       1014                                                   00 
00040010015000070DEM       BALLOTS CAST - Democratic Party                         BALLOTS CAST - Democratic Party       1015                                                   00 
00040010016000085DEM       BALLOTS CAST - Democratic Party                         BALLOTS CAST - Democratic Party       1016                                                   00 
00040010017000088DEM       BALLOTS CAST - Democratic Party                         BALLOTS CAST - Democratic Party       1017                                                   00 
00040010018000092DEM       BALLOTS CAST - Democratic Party                         BALLOTS CAST - Democratic Party       1018                                                   00 
00040010019000066DEM       BALLOTS CAST - Democratic Party                         BALLOTS CAST - Democratic Party       1019                                                   00 
00040010020000047DEM       BALLOTS CAST - Democratic Party                         BALLOTS CAST - Democratic Party       1020                                                   00 
00040010021000040DEM       BALLOTS CAST - Democratic Party                         BALLOTS CAST - Democratic Party       1021                                                   00 
00040010022000114DEM       BALLOTS CAST - Democratic Party                         BALLOTS CAST - Democratic Party       1022                                                   00 
00040010023000000DEM       BALLOTS CAST - Democratic Party                         BALLOTS CAST - Democratic Party       1023                                                   00 
00040010024000070DEM       BALLOTS CAST - Democratic Party                         BALLOTS CAST - Democratic Party       1024                                                   00 
00040010025000106DEM       BALLOTS CAST - Democratic Party                         BALLOTS CAST - Democratic Party       1025                                                   00 
00040010026000074DEM       BALLOTS CAST - Democratic Party                         BALLOTS CAST - Democratic Party       1026                                                   00 
00040010027000117DEM       BALLOTS CAST - Democratic Party                         BALLOTS CAST - Democratic Party       1027                                                   00 
00040010028000071DEM       BALLOTS CAST - Democratic Party                         BALLOTS CAST - Democratic Party       1028                                                   00 
00040010029000017DEM       BALLOTS CAST - Democratic Party                         BALLOTS CAST - Democratic Party       1029                                                   00 
00040010030000083DEM       BALLOTS CAST - Democratic Party                         BALLOTS CAST - Democratic Party       1030                                                   00 
00040010031000028DEM       BALLOTS CAST - Democratic Party                         BALLOTS CAST - Democratic Party       1031                                                   00 
00040010032000053DEM       BALLOTS CAST - Democratic Party                         BALLOTS CAST - Democratic Party       1032                                                   00 
00040010033000081DEM       BALLOTS CAST - Democratic Party                         BALLOTS CAST - Democratic Party       1033                                                   00 
00040010034000115DEM       BALLOTS CAST - Democratic Party                         BALLOTS CAST - Democratic Party       1034                                                   00 
00040010035000035DEM       BALLOTS CAST - Democratic Party                         BALLOTS CAST - Democratic Party       1035                                                   00 
00040010036000124DEM       BALLOTS CAST - Democratic Party                         BALLOTS CAST - Democratic Party       1036                                                   00 
00040010037000050DEM       BALLOTS CAST - Democratic Party                         BALLOTS CAST - Democratic Party       1037                                                   00 
00040010038000183DEM       BALLOTS CAST - Democratic Party                         BALLOTS CAST - Democratic Party       1038                                                   00 
00040010039000081DEM       BALLOTS CAST - Democratic Party                         BALLOTS CAST - Democratic Party       1039                                                   00 
00040010040000006DEM       BALLOTS CAST - Democratic Party                         BALLOTS CAST - Democratic Party       1040                                                   00 
00040010041000083DEM       BALLOTS CAST - Democratic Party                         BALLOTS CAST - Democratic Party       1041                                                   00 
00040010042000020DEM       BALLOTS CAST - Democratic Party                         BALLOTS CAST - Democratic Party       1042                                                   00 
00040010043000183DEM       BALLOTS CAST - Democratic Party                         BALLOTS CAST - Democratic Party       1043                                                   00 
00040010044000015DEM       BALLOTS CAST - Democratic Party                         BALLOTS CAST - Democratic Party       1044                                                   00 
00040010045000004DEM       BALLOTS CAST - Democratic Party                         BALLOTS CAST - Democratic Party       1045                                                   00 
00040010046000013DEM       BALLOTS CAST - Democratic Party                         BALLOTS CAST - Democratic Party       1046                                                   00 
00040010047000015DEM       BALLOTS CAST - Democratic Party                         BALLOTS CAST - Democratic Party       1047                                                   00 
00040010048000110DEM       BALLOTS CAST - Democratic Party                         BALLOTS CAST - Democratic Party       1048                                                   00 
00040010049000017DEM       BALLOTS CAST - Democratic Party                         BALLOTS CAST - Democratic Party       1049                                                   00 
00040010050000350DEM       BALLOTS CAST - Democratic Party                         BALLOTS CAST - Democratic Party       1050                                                   00 
00040010051000177DEM       BALLOTS CAST - Democratic Party                         BALLOTS CAST - Democratic Party       1051                                                   00 
00040010052000308DEM       BALLOTS CAST - Democratic Party                         BALLOTS CAST - Democratic Party       1052                                                   00 
00040010053000205DEM       BALLOTS CAST - Democratic Party                         BALLOTS CAST - Democratic Party       1053                                                   00 
00040010054000261DEM       BALLOTS CAST - Democratic Party                         BALLOTS CAST - Democratic Party       1054                                                   00 
00040010055000186DEM       BALLOTS CAST - Democratic Party                         BALLOTS CAST - Democratic Party       1055                                                   00 
00040010056000098DEM       BALLOTS CAST - Democratic Party                         BALLOTS CAST - Democratic Party       1056                                                   00 
00040010057000189DEM       BALLOTS CAST - Democratic Party                         BALLOTS CAST - Democratic Party       1057                                                   00 
00040010058000039DEM       BALLOTS CAST - Democratic Party                         BALLOTS CAST - Democratic Party       1058                                                   00 
00040010059000015DEM       BALLOTS CAST - Democratic Party                         BALLOTS CAST - Democratic Party       1059                                                   00 
00050010001000002DEM       DEM Governor                                            Inocencio (Inno) Barrientez           1001                                                   01 
00050010002000000DEM       DEM Governor                                            Inocencio (Inno) Barrientez           1002                                                   01 
00050010003000002DEM       DEM Governor                                            Inocencio (Inno) Barrientez           1003                                                   01 
00050010004000000DEM       DEM Governor                                            Inocencio (Inno) Barrientez           1004                                                   01 
00050010005000001DEM       DEM Governor                                            Inocencio (Inno) Barrientez           1005                                                   01 
00050010006000002DEM       DEM Governor                                            Inocencio (Inno) Barrientez           1006                                                   01 
00050010007000000DEM       DEM Governor                                            Inocencio (Inno) Barrientez           1007                                                   01 
00050010008000000DEM       DEM Governor                                            Inocencio (Inno) Barrientez           1008                                                   01 
00050010009000000DEM       DEM Governor                                            Inocencio (Inno) Barrientez           1009                                                   01 
00050010010000000DEM       DEM Governor                                            Inocencio (Inno) Barrientez           1010                                                   01 
00050010011000001DEM       DEM Governor                                            Inocencio (Inno) Barrientez           1011                                                   01 
00050010012000001DEM       DEM Governor                                            Inocencio (Inno) Barrientez           1012                                                   01 
00050010013000001DEM       DEM Governor                                            Inocencio (Inno) Barrientez           1013                                                   01 
00050010014000000DEM       DEM Governor                                            Inocencio (Inno) Barrientez           1014                                                   01 
00050010015000000DEM       DEM Governor                                            Inocencio (Inno) Barrientez           1015                                                   01 
00050010016000002DEM       DEM Governor                                            Inocencio (Inno) Barrientez           1016                                                   01 
00050010017000003DEM       DEM Governor                                            Inocencio (Inno) Barrientez           1017                                                   01 
00050010018000000DEM       DEM Governor                                            Inocencio (Inno) Barrientez           1018                                                   01 
00050010019000001DEM       DEM Governor                                            Inocencio (Inno) Barrientez           1019                                                   01 
00050010020000001DEM       DEM Governor                                            Inocencio (Inno) Barrientez           1020                                                   01 
00050010021000000DEM       DEM Governor                                            Inocencio (Inno) Barrientez           1021                                                   01 
00050010022000000DEM       DEM Governor                                            Inocencio (Inno) Barrientez           1022                                                   01 
00050010023000000DEM       DEM Governor                                            Inocencio (Inno) Barrientez           1023                                                   01 
00050010024000000DEM       DEM Governor                                            Inocencio (Inno) Barrientez           1024                                                   01 
00050010025000000DEM       DEM Governor                                            Inocencio (Inno) Barrientez           1025                                                   01 
00050010026000001DEM       DEM Governor                                            Inocencio (Inno) Barrientez           1026                                                   01 
00050010027000001DEM       DEM Governor                                            Inocencio (Inno) Barrientez           1027                                                   01 
00050010028000000DEM       DEM Governor                                            Inocencio (Inno) Barrientez           1028                                                   01 
00050010029000001DEM       DEM Governor                                            Inocencio (Inno) Barrientez           1029                                                   01 
00050010030000000DEM       DEM Governor                                            Inocencio (Inno) Barrientez           1030                                                   01 
00050010031000000DEM       DEM Governor                                            Inocencio (Inno) Barrientez           1031                                                   01 
00050010032000000DEM       DEM Governor                                            Inocencio (Inno) Barrientez           1032                                                   01 
00050010033000002DEM       DEM Governor                                            Inocencio (Inno) Barrientez           1033                                                   01 
00050010034000000DEM       DEM Governor                                            Inocencio (Inno) Barrientez           1034                                                   01 
00050010035000000DEM       DEM Governor                                            Inocencio (Inno) Barrientez           1035                                                   01 
00050010036000002DEM       DEM Governor                                            Inocencio (Inno) Barrientez           1036                                                   01 
00050010037000000DEM       DEM Governor                                            Inocencio (Inno) Barrientez           1037                                                   01 
00050010038000001DEM       DEM Governor                                            Inocencio (Inno) Barrientez           1038                                                   01 
00050010039000001DEM       DEM Governor                                            Inocencio (Inno) Barrientez           1039                                                   01 
00050010040000000DEM       DEM Governor                                            Inocencio (Inno) Barrientez           1040                                                   01 
00050010041000000DEM       DEM Governor                                            Inocencio (Inno) Barrientez           1041                                                   01 
00050010042000000DEM       DEM Governor                                            Inocencio (Inno) Barrientez           1042                                                   01 
00050010043000001DEM       DEM Governor                                            Inocencio (Inno) Barrientez           1043                                                   01 
00050010044000000DEM       DEM Governor                                            Inocencio (Inno) Barrientez           1044                                                   01 
00050010045000000DEM       DEM Governor                                            Inocencio (Inno) Barrientez           1045                                                   01 
00050010046000000DEM       DEM Governor                                            Inocencio (Inno) Barrientez           1046                                                   01 
00050010047000000DEM       DEM Governor                                            Inocencio (Inno) Barrientez           1047                                                   01 
00050010048000001DEM       DEM Governor                                            Inocencio (Inno) Barrientez           1048                                                   01 
00050010049000000DEM       DEM Governor                                            Inocencio (Inno) Barrientez           1049                                                   01 
00050010050000003DEM       DEM Governor                                            Inocencio (Inno) Barrientez           1050                                                   01 
00050010051000001DEM       DEM Governor                                            Inocencio (Inno) Barrientez           1051                                                   01 
00050010052000005DEM       DEM Governor                                            Inocencio (Inno) Barrientez           1052                                                   01 
00050010053000000DEM       DEM Governor                                            Inocencio (Inno) Barrientez           1053                                                   01 
00050010054000002DEM       DEM Governor                                            Inocencio (Inno) Barrientez           1054                                                   01 
00050010055000000DEM       DEM Governor                                            Inocencio (Inno) Barrientez           1055                                                   01 
00050010056000000DEM       DEM Governor                                            Inocencio (Inno) Barrientez           1056                                                   01 
00050010057000000DEM       DEM Governor                                            Inocencio (Inno) Barrientez           1057                                                   01 
00050010058000000DEM       DEM Governor                                            Inocencio (Inno) Barrientez           1058                                                   01 
00050010059000000DEM       DEM Governor                                            Inocencio (Inno) Barrientez           1059                                                   01 
00050020001000002DEM       DEM Governor                                            Rich Wakeland                         1001                                                   01 
00050020002000000DEM       DEM Governor                                            Rich Wakeland                         1002                                                   01 
00050020003000000DEM       DEM Governor                                            Rich Wakeland                         1003                                                   01 
00050020004000000DEM       DEM Governor                                            Rich Wakeland                         1004                                                   01 
00050020005000001DEM       DEM Governor                                            Rich Wakeland                         1005                                                   01 
00050020006000000DEM       DEM Governor                                            Rich Wakeland                         1006                                                   01 
00050020007000001DEM       DEM Governor                                            Rich Wakeland                         1007                                                   01 
00050020008000000DEM       DEM Governor                                            Rich Wakeland                         1008                                                   01 
00050020009000002DEM       DEM Governor                                            Rich Wakeland                         1009                                                   01 
00050020010000000DEM       DEM Governor                                            Rich Wakeland                         1010                                                   01 
00050020011000002DEM       DEM Governor                                            Rich Wakeland                         1011                                                   01 
00050020012000001DEM       DEM Governor                                            Rich Wakeland                         1012                                                   01 
00050020013000000DEM       DEM Governor                                            Rich Wakeland                         1013                                                   01 
00050020014000000DEM       DEM Governor                                            Rich Wakeland                         1014                                                   01 
00050020015000001DEM       DEM Governor                                            Rich Wakeland                         1015                                                   01 
00050020016000002DEM       DEM Governor                                            Rich Wakeland                         1016                                                   01 
00050020017000001DEM       DEM Governor                                            Rich Wakeland                         1017                                                   01 
00050020018000000DEM       DEM Governor                                            Rich Wakeland                         1018                                                   01 
00050020019000000DEM       DEM Governor                                            Rich Wakeland                         1019                                                   01 
00050020020000000DEM       DEM Governor                                            Rich Wakeland                         1020                                                   01 
00050020021000001DEM       DEM Governor                                            Rich Wakeland                         1021                                                   01 
00050020022000001DEM       DEM Governor                                            Rich Wakeland                         1022                                                   01 
00050020023000000DEM       DEM Governor                                            Rich Wakeland                         1023                                                   01 
00050020024000002DEM       DEM Governor                                            Rich Wakeland                         1024                                                   01 
00050020025000000DEM       DEM Governor                                            Rich Wakeland                         1025                                                   01 
00050020026000001DEM       DEM Governor                                            Rich Wakeland                         1026                                                   01 
00050020027000001DEM       DEM Governor                                            Rich Wakeland                         1027                                                   01 
00050020028000001DEM       DEM Governor                                            Rich Wakeland                         1028                                                   01 
00050020029000001DEM       DEM Governor                                            Rich Wakeland                         1029                                                   01 
00050020030000000DEM       DEM Governor                                            Rich Wakeland                         1030                                                   01 
00050020031000001DEM       DEM Governor                                            Rich Wakeland                         1031                                                   01 
00050020032000002DEM       DEM Governor                                            Rich Wakeland                         1032                                                   01 
00050020033000003DEM       DEM Governor                                            Rich Wakeland                         1033                                                   01 
00050020034000000DEM       DEM Governor                                            Rich Wakeland                         1034                                                   01 
00050020035000003DEM       DEM Governor                                            Rich Wakeland                         1035                                                   01 
00050020036000000DEM       DEM Governor                                            Rich Wakeland                         1036                                                   01 
00050020037000000DEM       DEM Governor                                            Rich Wakeland                         1037                                                   01 
00050020038000002DEM       DEM Governor                                            Rich Wakeland                         1038                                                   01 
00050020039000000DEM       DEM Governor                                            Rich Wakeland                         1039                                                   01 
00050020040000000DEM       DEM Governor                                            Rich Wakeland                         1040                                                   01 
00050020041000000DEM       DEM Governor                                            Rich Wakeland                         1041                                                   01 
00050020042000001DEM       DEM Governor                                            Rich Wakeland                         1042                                                   01 
00050020043000003DEM       DEM Governor                                            Rich Wakeland                         1043                                                   01 
00050020044000000DEM       DEM Governor                                            Rich Wakeland                         1044                                                   01 
00050020045000000DEM       DEM Governor                                            Rich Wakeland                         1045                                                   01 
00050020046000000DEM       DEM Governor                                            Rich Wakeland                         1046                                                   01 
00050020047000000DEM       DEM Governor                                            Rich Wakeland                         1047                                                   01 
00050020048000001DEM       DEM Governor                                            Rich Wakeland                         1048                                                   01 
00050020049000001DEM       DEM Governor                                            Rich Wakeland                         1049                                                   01 
00050020050000004DEM       DEM Governor                                            Rich Wakeland                         1050                                                   01 
00050020051000002DEM       DEM Governor                                            Rich Wakeland                         1051                                                   01 
00050020052000002DEM       DEM Governor                                            Rich Wakeland                         1052                                                   01 
00050020053000001DEM       DEM Governor                                            Rich Wakeland                         1053                                                   01 
00050020054000003DEM       DEM Governor                                            Rich Wakeland                         1054                                                   01 
00050020055000000DEM       DEM Governor                                            Rich Wakeland                         1055                                                   01 
00050020056000000DEM       DEM Governor                                            Rich Wakeland                         1056                                                   01 
00050020057000003DEM       DEM Governor                                            Rich Wakeland                         1057                                                   01 
00050020058000001DEM       DEM Governor                                            Rich Wakeland                         1058                                                   01 
00050020059000000DEM       DEM Governor                                            Rich Wakeland                         1059                                                   01 
00050030001000004DEM       DEM Governor                                            Joy Diaz                              1001                                                   01 
00050030002000000DEM       DEM Governor                                            Joy Diaz                              1002                                                   01 
00050030003000008DEM       DEM Governor                                            Joy Diaz                              1003                                                   01 
00050030004000000DEM       DEM Governor                                            Joy Diaz                              1004                                                   01 
00050030005000004DEM       DEM Governor                                            Joy Diaz                              1005                                                   01 
00050030006000002DEM       DEM Governor                                            Joy Diaz                              1006                                                   01 
00050030007000002DEM       DEM Governor                                            Joy Diaz                              1007                                                   01 
00050030008000001DEM       DEM Governor                                            Joy Diaz                              1008                                                   01 
00050030009000002DEM       DEM Governor                                            Joy Diaz                              1009                                                   01 
00050030010000002DEM       DEM Governor                                            Joy Diaz                              1010                                                   01 
00050030011000003DEM       DEM Governor                                            Joy Diaz                              1011                                                   01 
00050030012000002DEM       DEM Governor                                            Joy Diaz                              1012                                                   01 
00050030013000002DEM       DEM Governor                                            Joy Diaz                              1013                                                   01 
00050030014000001DEM       DEM Governor                                            Joy Diaz                              1014                                                   01 
00050030015000001DEM       DEM Governor                                            Joy Diaz                              1015                                                   01 
00050030016000003DEM       DEM Governor                                            Joy Diaz                              1016                                                   01 
00050030017000001DEM       DEM Governor                                            Joy Diaz                              1017                                                   01 
00050030018000005DEM       DEM Governor                                            Joy Diaz                              1018                                                   01 
00050030019000000DEM       DEM Governor                                            Joy Diaz                              1019                                                   01 
00050030020000000DEM       DEM Governor                                            Joy Diaz                              1020                                                   01 
00050030021000000DEM       DEM Governor                                            Joy Diaz                              1021                                                   01 
00050030022000004DEM       DEM Governor                                            Joy Diaz                              1022                                                   01 
00050030023000000DEM       DEM Governor                                            Joy Diaz                              1023                                                   01 
00050030024000001DEM       DEM Governor                                            Joy Diaz                              1024                                                   01 
00050030025000000DEM       DEM Governor                                            Joy Diaz                              1025                                                   01 
00050030026000002DEM       DEM Governor                                            Joy Diaz                              1026                                                   01 
00050030027000000DEM       DEM Governor                                            Joy Diaz                              1027                                                   01 
00050030028000002DEM       DEM Governor                                            Joy Diaz                              1028                                                   01 
00050030029000001DEM       DEM Governor                                            Joy Diaz                              1029                                                   01 
00050030030000001DEM       DEM Governor                                            Joy Diaz                              1030                                                   01 
00050030031000002DEM       DEM Governor                                            Joy Diaz                              1031                                                   01 
00050030032000000DEM       DEM Governor                                            Joy Diaz                              1032                                                   01 
00050030033000000DEM       DEM Governor                                            Joy Diaz                              1033                                                   01 
00050030034000001DEM       DEM Governor                                            Joy Diaz                              1034                                                   01 
00050030035000002DEM       DEM Governor                                            Joy Diaz                              1035                                                   01 
00050030036000002DEM       DEM Governor                                            Joy Diaz                              1036                                                   01 
00050030037000000DEM       DEM Governor                                            Joy Diaz                              1037                                                   01 
00050030038000008DEM       DEM Governor                                            Joy Diaz                              1038                                                   01 
00050030039000002DEM       DEM Governor                                            Joy Diaz                              1039                                                   01 
00050030040000000DEM       DEM Governor                                            Joy Diaz                              1040                                                   01 
00050030041000006DEM       DEM Governor                                            Joy Diaz                              1041                                                   01 
00050030042000000DEM       DEM Governor                                            Joy Diaz                              1042                                                   01 
00050030043000004DEM       DEM Governor                                            Joy Diaz                              1043                                                   01 
00050030044000000DEM       DEM Governor                                            Joy Diaz                              1044                                                   01 
00050030045000000DEM       DEM Governor                                            Joy Diaz                              1045                                                   01 
00050030046000000DEM       DEM Governor                                            Joy Diaz                              1046                                                   01 
00050030047000000DEM       DEM Governor                                            Joy Diaz                              1047                                                   01 
00050030048000002DEM       DEM Governor                                            Joy Diaz                              1048                                                   01 
00050030049000000DEM       DEM Governor                                            Joy Diaz                              1049                                                   01 
00050030050000006DEM       DEM Governor                                            Joy Diaz                              1050                                                   01 
00050030051000004DEM       DEM Governor                                            Joy Diaz                              1051                                                   01 
00050030052000010DEM       DEM Governor                                            Joy Diaz                              1052                                                   01 
00050030053000005DEM       DEM Governor                                            Joy Diaz                              1053                                                   01 
00050030054000004DEM       DEM Governor                                            Joy Diaz                              1054                                                   01 
00050030055000002DEM       DEM Governor                                            Joy Diaz                              1055                                                   01 
00050030056000004DEM       DEM Governor                                            Joy Diaz                              1056                                                   01 
00050030057000003DEM       DEM Governor                                            Joy Diaz                              1057                                                   01 
00050030058000002DEM       DEM Governor                                            Joy Diaz                              1058                                                   01 
00050030059000000DEM       DEM Governor                                            Joy Diaz                              1059                                                   01 
00050040001000135DEM       DEM Governor                                            Beto O'Rourke                         1001                                                   01 
00050040002000002DEM       DEM Governor                                            Beto O'Rourke                         1002                                                   01 
00050040003000123DEM       DEM Governor                                            Beto O'Rourke                         1003                                                   01 
00050040004000002DEM       DEM Governor                                            Beto O'Rourke                         1004                                                   01 
00050040005000157DEM       DEM Governor                                            Beto O'Rourke                         1005                                                   01 
00050040006000171DEM       DEM Governor                                            Beto O'Rourke                         1006                                                   01 
00050040007000074DEM       DEM Governor                                            Beto O'Rourke                         1007                                                   01 
00050040008000006DEM       DEM Governor                                            Beto O'Rourke                         1008                                                   01 
00050040009000072DEM       DEM Governor                                            Beto O'Rourke                         1009                                                   01 
00050040010000082DEM       DEM Governor                                            Beto O'Rourke                         1010                                                   01 
00050040011000122DEM       DEM Governor                                            Beto O'Rourke                         1011                                                   01 
00050040012000167DEM       DEM Governor                                            Beto O'Rourke                         1012                                                   01 
00050040013000045DEM       DEM Governor                                            Beto O'Rourke                         1013                                                   01 
00050040014000047DEM       DEM Governor                                            Beto O'Rourke                         1014                                                   01 
00050040015000063DEM       DEM Governor                                            Beto O'Rourke                         1015                                                   01 
00050040016000071DEM       DEM Governor                                            Beto O'Rourke                         1016                                                   01 
00050040017000081DEM       DEM Governor                                            Beto O'Rourke                         1017                                                   01 
00050040018000083DEM       DEM Governor                                            Beto O'Rourke                         1018                                                   01 
00050040019000063DEM       DEM Governor                                            Beto O'Rourke                         1019                                                   01 
00050040020000045DEM       DEM Governor                                            Beto O'Rourke                         1020                                                   01 
00050040021000038DEM       DEM Governor                                            Beto O'Rourke                         1021                                                   01 
00050040022000109DEM       DEM Governor                                            Beto O'Rourke                         1022                                                   01 
00050040023000000DEM       DEM Governor                                            Beto O'Rourke                         1023                                                   01 
00050040024000064DEM       DEM Governor                                            Beto O'Rourke                         1024                                                   01 
00050040025000104DEM       DEM Governor                                            Beto O'Rourke                         1025                                                   01 
00050040026000069DEM       DEM Governor                                            Beto O'Rourke                         1026                                                   01 
00050040027000114DEM       DEM Governor                                            Beto O'Rourke                         1027                                                   01 
00050040028000068DEM       DEM Governor                                            Beto O'Rourke                         1028                                                   01 
00050040029000012DEM       DEM Governor                                            Beto O'Rourke                         1029                                                   01 
00050040030000078DEM       DEM Governor                                            Beto O'Rourke                         1030                                                   01 
00050040031000022DEM       DEM Governor                                            Beto O'Rourke                         1031                                                   01 
00050040032000046DEM       DEM Governor                                            Beto O'Rourke                         1032                                                   01 
00050040033000074DEM       DEM Governor                                            Beto O'Rourke                         1033                                                   01 
00050040034000114DEM       DEM Governor                                            Beto O'Rourke                         1034                                                   01 
00050040035000026DEM       DEM Governor                                            Beto O'Rourke                         1035                                                   01 
00050040036000119DEM       DEM Governor                                            Beto O'Rourke                         1036                                                   01 
00050040037000047DEM       DEM Governor                                            Beto O'Rourke                         1037                                                   01 
00050040038000167DEM       DEM Governor                                            Beto O'Rourke                         1038                                                   01 
00050040039000075DEM       DEM Governor                                            Beto O'Rourke                         1039                                                   01 
00050040040000006DEM       DEM Governor                                            Beto O'Rourke                         1040                                                   01 
00050040041000073DEM       DEM Governor                                            Beto O'Rourke                         1041                                                   01 
00050040042000018DEM       DEM Governor                                            Beto O'Rourke                         1042                                                   01 
00050040043000170DEM       DEM Governor                                            Beto O'Rourke                         1043                                                   01 
00050040044000015DEM       DEM Governor                                            Beto O'Rourke                         1044                                                   01 
00050040045000004DEM       DEM Governor                                            Beto O'Rourke                         1045                                                   01 
00050040046000013DEM       DEM Governor                                            Beto O'Rourke                         1046                                                   01 
00050040047000014DEM       DEM Governor                                            Beto O'Rourke                         1047                                                   01 
00050040048000102DEM       DEM Governor                                            Beto O'Rourke                         1048                                                   01 
00050040049000016DEM       DEM Governor                                            Beto O'Rourke                         1049                                                   01 
00050040050000320DEM       DEM Governor                                            Beto O'Rourke                         1050                                                   01 
00050040051000160DEM       DEM Governor                                            Beto O'Rourke                         1051                                                   01 
00050040052000279DEM       DEM Governor                                            Beto O'Rourke                         1052                                                   01 
00050040053000195DEM       DEM Governor                                            Beto O'Rourke                         1053                                                   01 
00050040054000243DEM       DEM Governor                                            Beto O'Rourke                         1054                                                   01 
00050040055000180DEM       DEM Governor                                            Beto O'Rourke                         1055                                                   01 
00050040056000092DEM       DEM Governor                                            Beto O'Rourke                         1056                                                   01 
00050040057000177DEM       DEM Governor                                            Beto O'Rourke                         1057                                                   01 
00050040058000035DEM       DEM Governor                                            Beto O'Rourke                         1058                                                   01 
00050040059000013DEM       DEM Governor                                            Beto O'Rourke                         1059                                                   01 
00050050001000003DEM       DEM Governor                                            Michael Cooper                        1001                                                   01 
00050050002000000DEM       DEM Governor                                            Michael Cooper                        1002                                                   01 
00050050003000000DEM       DEM Governor                                            Michael Cooper                        1003                                                   01 
00050050004000000DEM       DEM Governor                                            Michael Cooper                        1004                                                   01 
00050050005000004DEM       DEM Governor                                            Michael Cooper                        1005                                                   01 
00050050006000007DEM       DEM Governor                                            Michael Cooper                        1006                                                   01 
00050050007000001DEM       DEM Governor                                            Michael Cooper                        1007                                                   01 
00050050008000000DEM       DEM Governor                                            Michael Cooper                        1008                                                   01 
00050050009000001DEM       DEM Governor                                            Michael Cooper                        1009                                                   01 
00050050010000005DEM       DEM Governor                                            Michael Cooper                        1010                                                   01 
00050050011000008DEM       DEM Governor                                            Michael Cooper                        1011                                                   01 
00050050012000004DEM       DEM Governor                                            Michael Cooper                        1012                                                   01 
00050050013000002DEM       DEM Governor                                            Michael Cooper                        1013                                                   01 
00050050014000001DEM       DEM Governor                                            Michael Cooper                        1014                                                   01 
00050050015000005DEM       DEM Governor                                            Michael Cooper                        1015                                                   01 
00050050016000004DEM       DEM Governor                                            Michael Cooper                        1016                                                   01 
00050050017000001DEM       DEM Governor                                            Michael Cooper                        1017                                                   01 
00050050018000003DEM       DEM Governor                                            Michael Cooper                        1018                                                   01 
00050050019000001DEM       DEM Governor                                            Michael Cooper                        1019                                                   01 
00050050020000000DEM       DEM Governor                                            Michael Cooper                        1020                                                   01 
00050050021000000DEM       DEM Governor                                            Michael Cooper                        1021                                                   01 
00050050022000000DEM       DEM Governor                                            Michael Cooper                        1022                                                   01 
00050050023000000DEM       DEM Governor                                            Michael Cooper                        1023                                                   01 
00050050024000000DEM       DEM Governor                                            Michael Cooper                        1024                                                   01 
00050050025000001DEM       DEM Governor                                            Michael Cooper                        1025                                                   01 
00050050026000000DEM       DEM Governor                                            Michael Cooper                        1026                                                   01 
00050050027000001DEM       DEM Governor                                            Michael Cooper                        1027                                                   01 
00050050028000000DEM       DEM Governor                                            Michael Cooper                        1028                                                   01 
00050050029000002DEM       DEM Governor                                            Michael Cooper                        1029                                                   01 
00050050030000003DEM       DEM Governor                                            Michael Cooper                        1030                                                   01 
00050050031000003DEM       DEM Governor                                            Michael Cooper                        1031                                                   01 
00050050032000004DEM       DEM Governor                                            Michael Cooper                        1032                                                   01 
00050050033000002DEM       DEM Governor                                            Michael Cooper                        1033                                                   01 
00050050034000000DEM       DEM Governor                                            Michael Cooper                        1034                                                   01 
00050050035000004DEM       DEM Governor                                            Michael Cooper                        1035                                                   01 
00050050036000000DEM       DEM Governor                                            Michael Cooper                        1036                                                   01 
00050050037000002DEM       DEM Governor                                            Michael Cooper                        1037                                                   01 
00050050038000004DEM       DEM Governor                                            Michael Cooper                        1038                                                   01 
00050050039000002DEM       DEM Governor                                            Michael Cooper                        1039                                                   01 
00050050040000000DEM       DEM Governor                                            Michael Cooper                        1040                                                   01 
00050050041000003DEM       DEM Governor                                            Michael Cooper                        1041                                                   01 
00050050042000001DEM       DEM Governor                                            Michael Cooper                        1042                                                   01 
00050050043000004DEM       DEM Governor                                            Michael Cooper                        1043                                                   01 
00050050044000000DEM       DEM Governor                                            Michael Cooper                        1044                                                   01 
00050050045000000DEM       DEM Governor                                            Michael Cooper                        1045                                                   01 
00050050046000000DEM       DEM Governor                                            Michael Cooper                        1046                                                   01 
00050050047000001DEM       DEM Governor                                            Michael Cooper                        1047                                                   01 
00050050048000002DEM       DEM Governor                                            Michael Cooper                        1048                                                   01 
00050050049000000DEM       DEM Governor                                            Michael Cooper                        1049                                                   01 
00050050050000013DEM       DEM Governor                                            Michael Cooper                        1050                                                   01 
00050050051000007DEM       DEM Governor                                            Michael Cooper                        1051                                                   01 
00050050052000011DEM       DEM Governor                                            Michael Cooper                        1052                                                   01 
00050050053000004DEM       DEM Governor                                            Michael Cooper                        1053                                                   01 
00050050054000009DEM       DEM Governor                                            Michael Cooper                        1054                                                   01 
00050050055000002DEM       DEM Governor                                            Michael Cooper                        1055                                                   01 
00050050056000001DEM       DEM Governor                                            Michael Cooper                        1056                                                   01 
00050050057000004DEM       DEM Governor                                            Michael Cooper                        1057                                                   01 
00050050058000001DEM       DEM Governor                                            Michael Cooper                        1058                                                   01 
00050050059000002DEM       DEM Governor                                            Michael Cooper                        1059                                                   01 
00050060001000000          DEM Governor                                            OVER VOTES                            1001                                                   01 
00050060002000000          DEM Governor                                            OVER VOTES                            1002                                                   01 
00050060003000000          DEM Governor                                            OVER VOTES                            1003                                                   01 
00050060004000000          DEM Governor                                            OVER VOTES                            1004                                                   01 
00050060005000000          DEM Governor                                            OVER VOTES                            1005                                                   01 
00050060006000000          DEM Governor                                            OVER VOTES                            1006                                                   01 
00050060007000000          DEM Governor                                            OVER VOTES                            1007                                                   01 
00050060008000000          DEM Governor                                            OVER VOTES                            1008                                                   01 
00050060009000000          DEM Governor                                            OVER VOTES                            1009                                                   01 
00050060010000000          DEM Governor                                            OVER VOTES                            1010                                                   01 
00050060011000000          DEM Governor                                            OVER VOTES                            1011                                                   01 
00050060012000000          DEM Governor                                            OVER VOTES                            1012                                                   01 
00050060013000000          DEM Governor                                            OVER VOTES                            1013                                                   01 
00050060014000000          DEM Governor                                            OVER VOTES                            1014                                                   01 
00050060015000000          DEM Governor                                            OVER VOTES                            1015                                                   01 
00050060016000000          DEM Governor                                            OVER VOTES                            1016                                                   01 
00050060017000000          DEM Governor                                            OVER VOTES                            1017                                                   01 
00050060018000000          DEM Governor                                            OVER VOTES                            1018                                                   01 
00050060019000000          DEM Governor                                            OVER VOTES                            1019                                                   01 
00050060020000000          DEM Governor                                            OVER VOTES                            1020                                                   01 
00050060021000000          DEM Governor                                            OVER VOTES                            1021                                                   01 
00050060022000000          DEM Governor                                            OVER VOTES                            1022                                                   01 
00050060023000000          DEM Governor                                            OVER VOTES                            1023                                                   01 
00050060024000000          DEM Governor                                            OVER VOTES                            1024                                                   01 
00050060025000000          DEM Governor                                            OVER VOTES                            1025                                                   01 
00050060026000000          DEM Governor                                            OVER VOTES                            1026                                                   01 
00050060027000000          DEM Governor                                            OVER VOTES                            1027                                                   01 
00050060028000000          DEM Governor                                            OVER VOTES                            1028                                                   01 
00050060029000000          DEM Governor                                            OVER VOTES                            1029                                                   01 
00050060030000000          DEM Governor                                            OVER VOTES                            1030                                                   01 
00050060031000000          DEM Governor                                            OVER VOTES                            1031                                                   01 
00050060032000000          DEM Governor                                            OVER VOTES                            1032                                                   01 
00050060033000000          DEM Governor                                            OVER VOTES                            1033                                                   01 
00050060034000000          DEM Governor                                            OVER VOTES                            1034                                                   01 
00050060035000000          DEM Governor                                            OVER VOTES                            1035                                                   01 
00050060036000000          DEM Governor                                            OVER VOTES                            1036                                                   01 
00050060037000000          DEM Governor                                            OVER VOTES                            1037                                                   01 
00050060038000000          DEM Governor                                            OVER VOTES                            1038                                                   01 
00050060039000000          DEM Governor                                            OVER VOTES                            1039                                                   01 
00050060040000000          DEM Governor                                            OVER VOTES                            1040                                                   01 
00050060041000000          DEM Governor                                            OVER VOTES                            1041                                                   01 
00050060042000000          DEM Governor                                            OVER VOTES                            1042                                                   01 
00050060043000000          DEM Governor                                            OVER VOTES                            1043                                                   01 
00050060044000000          DEM Governor                                            OVER VOTES                            1044                                                   01 
00050060045000000          DEM Governor                                            OVER VOTES                            1045                                                   01 
00050060046000000          DEM Governor                                            OVER VOTES                            1046                                                   01 
00050060047000000          DEM Governor                                            OVER VOTES                            1047                                                   01 
00050060048000000          DEM Governor                                            OVER VOTES                            1048                                                   01 
00050060049000000          DEM Governor                                            OVER VOTES                            1049                                                   01 
00050060050000000          DEM Governor                                            OVER VOTES                            1050                                                   01 
00050060051000000          DEM Governor                                            OVER VOTES                            1051                                                   01 
00050060052000000          DEM Governor                                            OVER VOTES                            1052                                                   01 
00050060053000000          DEM Governor                                            OVER VOTES                            1053                                                   01 
00050060054000000          DEM Governor                                            OVER VOTES                            1054                                                   01 
00050060055000000          DEM Governor                                            OVER VOTES                            1055                                                   01 
00050060056000000          DEM Governor                                            OVER VOTES                            1056                                                   01 
00050060057000000          DEM Governor                                            OVER VOTES                            1057                                                   01 
00050060058000000          DEM Governor                                            OVER VOTES                            1058                                                   01 
00050060059000000          DEM Governor                                            OVER VOTES                            1059                                                   01 
00050070001000009          DEM Governor                                            UNDER VOTES                           1001                                                   01 
00050070002000000          DEM Governor                                            UNDER VOTES                           1002                                                   01 
00050070003000003          DEM Governor                                            UNDER VOTES                           1003                                                   01 
00050070004000000          DEM Governor                                            UNDER VOTES                           1004                                                   01 
00050070005000002          DEM Governor                                            UNDER VOTES                           1005                                                   01 
00050070006000003          DEM Governor                                            UNDER VOTES                           1006                                                   01 
00050070007000000          DEM Governor                                            UNDER VOTES                           1007                                                   01 
00050070008000000          DEM Governor                                            UNDER VOTES                           1008                                                   01 
00050070009000001          DEM Governor                                            UNDER VOTES                           1009                                                   01 
00050070010000000          DEM Governor                                            UNDER VOTES                           1010                                                   01 
00050070011000000          DEM Governor                                            UNDER VOTES                           1011                                                   01 
00050070012000001          DEM Governor                                            UNDER VOTES                           1012                                                   01 
00050070013000000          DEM Governor                                            UNDER VOTES                           1013                                                   01 
00050070014000000          DEM Governor                                            UNDER VOTES                           1014                                                   01 
00050070015000000          DEM Governor                                            UNDER VOTES                           1015                                                   01 
00050070016000003          DEM Governor                                            UNDER VOTES                           1016                                                   01 
00050070017000001          DEM Governor                                            UNDER VOTES                           1017                                                   01 
00050070018000001          DEM Governor                                            UNDER VOTES                           1018                                                   01 
00050070019000001          DEM Governor                                            UNDER VOTES                           1019                                                   01 
00050070020000001          DEM Governor                                            UNDER VOTES                           1020                                                   01 
00050070021000001          DEM Governor                                            UNDER VOTES                           1021                                                   01 
00050070022000000          DEM Governor                                            UNDER VOTES                           1022                                                   01 
00050070023000000          DEM Governor                                            UNDER VOTES                           1023                                                   01 
00050070024000003          DEM Governor                                            UNDER VOTES                           1024                                                   01 
00050070025000001          DEM Governor                                            UNDER VOTES                           1025                                                   01 
00050070026000001          DEM Governor                                            UNDER VOTES                           1026                                                   01 
00050070027000000          DEM Governor                                            UNDER VOTES                           1027                                                   01 
00050070028000000          DEM Governor                                            UNDER VOTES                           1028                                                   01 
00050070029000000          DEM Governor                                            UNDER VOTES                           1029                                                   01 
00050070030000001          DEM Governor                                            UNDER VOTES                           1030                                                   01 
00050070031000000          DEM Governor                                            UNDER VOTES                           1031                                                   01 
00050070032000001          DEM Governor                                            UNDER VOTES                           1032                                                   01 
00050070033000000          DEM Governor                                            UNDER VOTES                           1033                                                   01 
00050070034000000          DEM Governor                                            UNDER VOTES                           1034                                                   01 
00050070035000000          DEM Governor                                            UNDER VOTES                           1035                                                   01 
00050070036000001          DEM Governor                                            UNDER VOTES                           1036                                                   01 
00050070037000001          DEM Governor                                            UNDER VOTES                           1037                                                   01 
00050070038000001          DEM Governor                                            UNDER VOTES                           1038                                                   01 
00050070039000001          DEM Governor                                            UNDER VOTES                           1039                                                   01 
00050070040000000          DEM Governor                                            UNDER VOTES                           1040                                                   01 
00050070041000001          DEM Governor                                            UNDER VOTES                           1041                                                   01 
00050070042000000          DEM Governor                                            UNDER VOTES                           1042                                                   01 
00050070043000001          DEM Governor                                            UNDER VOTES                           1043                                                   01 
00050070044000000          DEM Governor                                            UNDER VOTES                           1044                                                   01 
00050070045000000          DEM Governor                                            UNDER VOTES                           1045                                                   01 
00050070046000000          DEM Governor                                            UNDER VOTES                           1046                                                   01 
00050070047000000          DEM Governor                                            UNDER VOTES                           1047                                                   01 
00050070048000002          DEM Governor                                            UNDER VOTES                           1048                                                   01 
00050070049000000          DEM Governor                                            UNDER VOTES                           1049                                                   01 
00050070050000004          DEM Governor                                            UNDER VOTES                           1050                                                   01 
00050070051000003          DEM Governor                                            UNDER VOTES                           1051                                                   01 
00050070052000001          DEM Governor                                            UNDER VOTES                           1052                                                   01 
00050070053000000          DEM Governor                                            UNDER VOTES                           1053                                                   01 
00050070054000000          DEM Governor                                            UNDER VOTES                           1054                                                   01 
00050070055000002          DEM Governor                                            UNDER VOTES                           1055                                                   01 
00050070056000001          DEM Governor                                            UNDER VOTES                           1056                                                   01 
00050070057000002          DEM Governor                                            UNDER VOTES                           1057                                                   01 
00050070058000000          DEM Governor                                            UNDER VOTES                           1058                                                   01 
00050070059000000          DEM Governor                                            UNDER VOTES                           1059                                                   01 
00060010001000042DEM       DEM Lieutenant Governor                                 Michelle Beckley                      1001                                                   01 
00060010002000000DEM       DEM Lieutenant Governor                                 Michelle Beckley                      1002                                                   01 
00060010003000059DEM       DEM Lieutenant Governor                                 Michelle Beckley                      1003                                                   01 
00060010004000001DEM       DEM Lieutenant Governor                                 Michelle Beckley                      1004                                                   01 
00060010005000055DEM       DEM Lieutenant Governor                                 Michelle Beckley                      1005                                                   01 
00060010006000054DEM       DEM Lieutenant Governor                                 Michelle Beckley                      1006                                                   01 
00060010007000029DEM       DEM Lieutenant Governor                                 Michelle Beckley                      1007                                                   01 
00060010008000004DEM       DEM Lieutenant Governor                                 Michelle Beckley                      1008                                                   01 
00060010009000035DEM       DEM Lieutenant Governor                                 Michelle Beckley                      1009                                                   01 
00060010010000031DEM       DEM Lieutenant Governor                                 Michelle Beckley                      1010                                                   01 
00060010011000039DEM       DEM Lieutenant Governor                                 Michelle Beckley                      1011                                                   01 
00060010012000058DEM       DEM Lieutenant Governor                                 Michelle Beckley                      1012                                                   01 
00060010013000017DEM       DEM Lieutenant Governor                                 Michelle Beckley                      1013                                                   01 
00060010014000021DEM       DEM Lieutenant Governor                                 Michelle Beckley                      1014                                                   01 
00060010015000025DEM       DEM Lieutenant Governor                                 Michelle Beckley                      1015                                                   01 
00060010016000030DEM       DEM Lieutenant Governor                                 Michelle Beckley                      1016                                                   01 
00060010017000022DEM       DEM Lieutenant Governor                                 Michelle Beckley                      1017                                                   01 
00060010018000036DEM       DEM Lieutenant Governor                                 Michelle Beckley                      1018                                                   01 
00060010019000021DEM       DEM Lieutenant Governor                                 Michelle Beckley                      1019                                                   01 
00060010020000010DEM       DEM Lieutenant Governor                                 Michelle Beckley                      1020                                                   01 
00060010021000010DEM       DEM Lieutenant Governor                                 Michelle Beckley                      1021                                                   01 
