00010010001001026000000000000000000000000000000000000000000000000000000000000000000000000000000000000          REGISTERED VOTERS - TOTAL                               REGISTERED VOTERS - TOTAL             Precinct 11                                            00 
00010010002000467000000000000000000000000000000000000000000000000000000000000000000000000000000000000          REGISTERED VOTERS - TOTAL                               REGISTERED VOTERS - TOTAL             Precinct 12                                            00 
00010010003001183000000000000000000000000000000000000000000000000000000000000000000000000000000000000          REGISTERED VOTERS - TOTAL                               REGISTERED VOTERS - TOTAL             Precinct 21                                            00 
00010010004000273000000000000000000000000000000000000000000000000000000000000000000000000000000000000          REGISTERED VOTERS - TOTAL                               REGISTERED VOTERS - TOTAL             Precinct 22                                            00 
00010010005000634000000000000000000000000000000000000000000000000000000000000000000000000000000000000          REGISTERED VOTERS - TOTAL                               REGISTERED VOTERS - TOTAL             Precinct 31                                            00 
00010010006000648000000000000000000000000000000000000000000000000000000000000000000000000000000000000          REGISTERED VOTERS - TOTAL                               REGISTERED VOTERS - TOTAL             Precinct 32                                            00 
00010010007000404000000000000000000000000000000000000000000000000000000000000000000000000000000000000          REGISTERED VOTERS - TOTAL                               REGISTERED VOTERS - TOTAL             Precinct 41                                            00 
00010010008000662000000000000000000000000000000000000000000000000000000000000000000000000000000000000          REGISTERED VOTERS - TOTAL                               REGISTERED VOTERS - TOTAL             Precinct 42                                            00 
00010010009000438000000000000000000000000000000000000000000000000000000000000000000000000000000000000          REGISTERED VOTERS - TOTAL                               REGISTERED VOTERS - TOTAL             Precinct 43                                            00 
00020010001000000000000000000000000000000000000000000000000000000000000000000000000000000000000000000REP       REGISTERED VOTERS - Republican Party                    REGISTERED VOTERS - Republican Party  Precinct 11                                            00 
00020010002000000000000000000000000000000000000000000000000000000000000000000000000000000000000000000REP       REGISTERED VOTERS - Republican Party                    REGISTERED VOTERS - Republican Party  Precinct 12                                            00 
00020010003000000000000000000000000000000000000000000000000000000000000000000000000000000000000000000REP       REGISTERED VOTERS - Republican Party                    REGISTERED VOTERS - Republican Party  Precinct 21                                            00 
00020010004000000000000000000000000000000000000000000000000000000000000000000000000000000000000000000REP       REGISTERED VOTERS - Republican Party                    REGISTERED VOTERS - Republican Party  Precinct 22                                            00 
00020010005000000000000000000000000000000000000000000000000000000000000000000000000000000000000000000REP       REGISTERED VOTERS - Republican Party                    REGISTERED VOTERS - Republican Party  Precinct 31                                            00 
00020010006000000000000000000000000000000000000000000000000000000000000000000000000000000000000000000REP       REGISTERED VOTERS - Republican Party                    REGISTERED VOTERS - Republican Party  Precinct 32                                            00 
00020010007000000000000000000000000000000000000000000000000000000000000000000000000000000000000000000REP       REGISTERED VOTERS - Republican Party                    REGISTERED VOTERS - Republican Party  Precinct 41                                            00 
00020010008000000000000000000000000000000000000000000000000000000000000000000000000000000000000000000REP       REGISTERED VOTERS - Republican Party                    REGISTERED VOTERS - Republican Party  Precinct 42                                            00 
00020010009000000000000000000000000000000000000000000000000000000000000000000000000000000000000000000REP       REGISTERED VOTERS - Republican Party                    REGISTERED VOTERS - Republican Party  Precinct 43                                            00 
00030010001000000000000000000000000000000000000000000000000000000000000000000000000000000000000000000DEM       REGISTERED VOTERS - Democratic Party                    REGISTERED VOTERS - Democratic Party  Precinct 11                                            00 
00030010002000000000000000000000000000000000000000000000000000000000000000000000000000000000000000000DEM       REGISTERED VOTERS - Democratic Party                    REGISTERED VOTERS - Democratic Party  Precinct 12                                            00 
00030010003000000000000000000000000000000000000000000000000000000000000000000000000000000000000000000DEM       REGISTERED VOTERS - Democratic Party                    REGISTERED VOTERS - Democratic Party  Precinct 21                                            00 
00030010004000000000000000000000000000000000000000000000000000000000000000000000000000000000000000000DEM       REGISTERED VOTERS - Democratic Party                    REGISTERED VOTERS - Democratic Party  Precinct 22                                            00 
00030010005000000000000000000000000000000000000000000000000000000000000000000000000000000000000000000DEM       REGISTERED VOTERS - Democratic Party                    REGISTERED VOTERS - Democratic Party  Precinct 31                                            00 
00030010006000000000000000000000000000000000000000000000000000000000000000000000000000000000000000000DEM       REGISTERED VOTERS - Democratic Party                    REGISTERED VOTERS - Democratic Party  Precinct 32                                            00 
00030010007000000000000000000000000000000000000000000000000000000000000000000000000000000000000000000DEM       REGISTERED VOTERS - Democratic Party                    REGISTERED VOTERS - Democratic Party  Precinct 41                                            00 
00030010008000000000000000000000000000000000000000000000000000000000000000000000000000000000000000000DEM       REGISTERED VOTERS - Democratic Party                    REGISTERED VOTERS - Democratic Party  Precinct 42                                            00 
00030010009000000000000000000000000000000000000000000000000000000000000000000000000000000000000000000DEM       REGISTERED VOTERS - Democratic Party                    REGISTERED VOTERS - Democratic Party  Precinct 43                                            00 
00040010001001026000000000000000000000000000000000000000000000000000000000000000000000000000000000000NON       REGISTERED VOTERS - NONPARTISAN                         REGISTERED VOTERS - NONPARTISAN       Precinct 11                                            00 
00040010002000467000000000000000000000000000000000000000000000000000000000000000000000000000000000000NON       REGISTERED VOTERS - NONPARTISAN                         REGISTERED VOTERS - NONPARTISAN       Precinct 12                                            00 
00040010003001183000000000000000000000000000000000000000000000000000000000000000000000000000000000000NON       REGISTERED VOTERS - NONPARTISAN                         REGISTERED VOTERS - NONPARTISAN       Precinct 21                                            00 
00040010004000273000000000000000000000000000000000000000000000000000000000000000000000000000000000000NON       REGISTERED VOTERS - NONPARTISAN                         REGISTERED VOTERS - NONPARTISAN       Precinct 22                                            00 
00040010005000634000000000000000000000000000000000000000000000000000000000000000000000000000000000000NON       REGISTERED VOTERS - NONPARTISAN                         REGISTERED VOTERS - NONPARTISAN       Precinct 31                                            00 
00040010006000648000000000000000000000000000000000000000000000000000000000000000000000000000000000000NON       REGISTERED VOTERS - NONPARTISAN                         REGISTERED VOTERS - NONPARTISAN       Precinct 32                                            00 
00040010007000404000000000000000000000000000000000000000000000000000000000000000000000000000000000000NON       REGISTERED VOTERS - NONPARTISAN                         REGISTERED VOTERS - NONPARTISAN       Precinct 41                                            00 
00040010008000662000000000000000000000000000000000000000000000000000000000000000000000000000000000000NON       REGISTERED VOTERS - NONPARTISAN                         REGISTERED VOTERS - NONPARTISAN       Precinct 42                                            00 
00040010009000438000000000000000000000000000000000000000000000000000000000000000000000000000000000000NON       REGISTERED VOTERS - NONPARTISAN                         REGISTERED VOTERS - NONPARTISAN       Precinct 43                                            00 
00050010001000267000014000126000127000000000000000000000000000000000000000000000000000000000000000000          BALLOTS CAST - TOTAL                                    BALLOTS CAST - TOTAL                  Precinct 11                                            00 
00050010002000158000007000069000082000000000000000000000000000000000000000000000000000000000000000000          BALLOTS CAST - TOTAL                                    BALLOTS CAST - TOTAL                  Precinct 12                                            00 
00050010003000408000015000221000172000000000000000000000000000000000000000000000000000000000000000000          BALLOTS CAST - TOTAL                                    BALLOTS CAST - TOTAL                  Precinct 21                                            00 
00050010004000099000000000036000063000000000000000000000000000000000000000000000000000000000000000000          BALLOTS CAST - TOTAL                                    BALLOTS CAST - TOTAL                  Precinct 22                                            00 
00050010005000188000006000100000082000000000000000000000000000000000000000000000000000000000000000000          BALLOTS CAST - TOTAL                                    BALLOTS CAST - TOTAL                  Precinct 31                                            00 
00050010006000215000003000083000129000000000000000000000000000000000000000000000000000000000000000000          BALLOTS CAST - TOTAL                                    BALLOTS CAST - TOTAL                  Precinct 32                                            00 
00050010007000173000006000050000117000000000000000000000000000000000000000000000000000000000000000000          BALLOTS CAST - TOTAL                                    BALLOTS CAST - TOTAL                  Precinct 41                                            00 
00050010008000232000001000058000173000000000000000000000000000000000000000000000000000000000000000000          BALLOTS CAST - TOTAL                                    BALLOTS CAST - TOTAL                  Precinct 42                                            00 
00050010009000164000004000092000068000000000000000000000000000000000000000000000000000000000000000000          BALLOTS CAST - TOTAL                                    BALLOTS CAST - TOTAL                  Precinct 43                                            00 
00060010001000206000004000104000098000000000000000000000000000000000000000000000000000000000000000000REP       BALLOTS CAST - Republican Party                         BALLOTS CAST - Republican Party       Precinct 11                                            00 
00060010002000154000006000069000079000000000000000000000000000000000000000000000000000000000000000000REP       BALLOTS CAST - Republican Party                         BALLOTS CAST - Republican Party       Precinct 12                                            00 
00060010003000353000007000204000142000000000000000000000000000000000000000000000000000000000000000000REP       BALLOTS CAST - Republican Party                         BALLOTS CAST - Republican Party       Precinct 21                                            00 
00060010004000094000000000035000059000000000000000000000000000000000000000000000000000000000000000000REP       BALLOTS CAST - Republican Party                         BALLOTS CAST - Republican Party       Precinct 22                                            00 
00060010005000165000001000092000072000000000000000000000000000000000000000000000000000000000000000000REP       BALLOTS CAST - Republican Party                         BALLOTS CAST - Republican Party       Precinct 31                                            00 
00060010006000208000002000080000126000000000000000000000000000000000000000000000000000000000000000000REP       BALLOTS CAST - Republican Party                         BALLOTS CAST - Republican Party       Precinct 32                                            00 
00060010007000161000002000047000112000000000000000000000000000000000000000000000000000000000000000000REP       BALLOTS CAST - Republican Party                         BALLOTS CAST - Republican Party       Precinct 41                                            00 
00060010008000218000001000056000161000000000000000000000000000000000000000000000000000000000000000000REP       BALLOTS CAST - Republican Party                         BALLOTS CAST - Republican Party       Precinct 42                                            00 
00060010009000159000002000091000066000000000000000000000000000000000000000000000000000000000000000000REP       BALLOTS CAST - Republican Party                         BALLOTS CAST - Republican Party       Precinct 43                                            00 
00070010001000061000010000022000029000000000000000000000000000000000000000000000000000000000000000000DEM       BALLOTS CAST - Democratic Party                         BALLOTS CAST - Democratic Party       Precinct 11                                            00 
00070010002000004000001000000000003000000000000000000000000000000000000000000000000000000000000000000DEM       BALLOTS CAST - Democratic Party                         BALLOTS CAST - Democratic Party       Precinct 12                                            00 
00070010003000055000008000017000030000000000000000000000000000000000000000000000000000000000000000000DEM       BALLOTS CAST - Democratic Party                         BALLOTS CAST - Democratic Party       Precinct 21                                            00 
00070010004000005000000000001000004000000000000000000000000000000000000000000000000000000000000000000DEM       BALLOTS CAST - Democratic Party                         BALLOTS CAST - Democratic Party       Precinct 22                                            00 
00070010005000023000005000008000010000000000000000000000000000000000000000000000000000000000000000000DEM       BALLOTS CAST - Democratic Party                         BALLOTS CAST - Democratic Party       Precinct 31                                            00 
00070010006000007000001000003000003000000000000000000000000000000000000000000000000000000000000000000DEM       BALLOTS CAST - Democratic Party                         BALLOTS CAST - Democratic Party       Precinct 32                                            00 
00070010007000012000004000003000005000000000000000000000000000000000000000000000000000000000000000000DEM       BALLOTS CAST - Democratic Party                         BALLOTS CAST - Democratic Party       Precinct 41                                            00 
00070010008000014000000000002000012000000000000000000000000000000000000000000000000000000000000000000DEM       BALLOTS CAST - Democratic Party                         BALLOTS CAST - Democratic Party       Precinct 42                                            00 
00070010009000005000002000001000002000000000000000000000000000000000000000000000000000000000000000000DEM       BALLOTS CAST - Democratic Party                         BALLOTS CAST - Democratic Party       Precinct 43                                            00 
00080010001000000000000000000000000000000000000000000000000000000000000000000000000000000000000000000NON       BALLOTS CAST - NONPARTISAN                              BALLOTS CAST - NONPARTISAN            Precinct 11                                            00 
00080010002000000000000000000000000000000000000000000000000000000000000000000000000000000000000000000NON       BALLOTS CAST - NONPARTISAN                              BALLOTS CAST - NONPARTISAN            Precinct 12                                            00 
00080010003000000000000000000000000000000000000000000000000000000000000000000000000000000000000000000NON       BALLOTS CAST - NONPARTISAN                              BALLOTS CAST - NONPARTISAN            Precinct 21                                            00 
00080010004000000000000000000000000000000000000000000000000000000000000000000000000000000000000000000NON       BALLOTS CAST - NONPARTISAN                              BALLOTS CAST - NONPARTISAN            Precinct 22                                            00 
00080010005000000000000000000000000000000000000000000000000000000000000000000000000000000000000000000NON       BALLOTS CAST - NONPARTISAN                              BALLOTS CAST - NONPARTISAN            Precinct 31                                            00 
00080010006000000000000000000000000000000000000000000000000000000000000000000000000000000000000000000NON       BALLOTS CAST - NONPARTISAN                              BALLOTS CAST - NONPARTISAN            Precinct 32                                            00 
00080010007000000000000000000000000000000000000000000000000000000000000000000000000000000000000000000NON       BALLOTS CAST - NONPARTISAN                              BALLOTS CAST - NONPARTISAN            Precinct 41                                            00 
00080010008000000000000000000000000000000000000000000000000000000000000000000000000000000000000000000NON       BALLOTS CAST - NONPARTISAN                              BALLOTS CAST - NONPARTISAN            Precinct 42                                            00 
00080010009000000000000000000000000000000000000000000000000000000000000000000000000000000000000000000NON       BALLOTS CAST - NONPARTISAN                              BALLOTS CAST - NONPARTISAN            Precinct 43                                            00 
00090010001000000000000000000000000000000000000000000000000000000000000000000000000000000000000000000          BALLOTS CAST - BLANK                                    BALLOTS CAST - BLANK                  Precinct 11                                            00 
00090010002000000000000000000000000000000000000000000000000000000000000000000000000000000000000000000          BALLOTS CAST - BLANK                                    BALLOTS CAST - BLANK                  Precinct 12                                            00 
00090010003000000000000000000000000000000000000000000000000000000000000000000000000000000000000000000          BALLOTS CAST - BLANK                                    BALLOTS CAST - BLANK                  Precinct 21                                            00 
00090010004000000000000000000000000000000000000000000000000000000000000000000000000000000000000000000          BALLOTS CAST - BLANK                                    BALLOTS CAST - BLANK                  Precinct 22                                            00 
00090010005000000000000000000000000000000000000000000000000000000000000000000000000000000000000000000          BALLOTS CAST - BLANK                                    BALLOTS CAST - BLANK                  Precinct 31                                            00 
00090010006000000000000000000000000000000000000000000000000000000000000000000000000000000000000000000          BALLOTS CAST - BLANK                                    BALLOTS CAST - BLANK                  Precinct 32                                            00 
00090010007000000000000000000000000000000000000000000000000000000000000000000000000000000000000000000          BALLOTS CAST - BLANK                                    BALLOTS CAST - BLANK                  Precinct 41                                            00 
00090010008000000000000000000000000000000000000000000000000000000000000000000000000000000000000000000          BALLOTS CAST - BLANK                                    BALLOTS CAST - BLANK                  Precinct 42                                            00 
00090010009000000000000000000000000000000000000000000000000000000000000000000000000000000000000000000          BALLOTS CAST - BLANK                                    BALLOTS CAST - BLANK                  Precinct 43                                            00 
00100010001000024000000000014000010000000000000000000000000000000000000000000000000000000000000000000REP       REP US Rep, District 27                                 Eric Mireles                          Precinct 11                                            01 
00100010002000004000000000001000003000000000000000000000000000000000000000000000000000000000000000000REP       REP US Rep, District 27                                 Eric Mireles                          Precinct 12                                            01 
00100010003000043000000000018000025000000000000000000000000000000000000000000000000000000000000000000REP       REP US Rep, District 27                                 Eric Mireles                          Precinct 21                                            01 
00100010004000009000000000004000005000000000000000000000000000000000000000000000000000000000000000000REP       REP US Rep, District 27                                 Eric Mireles                          Precinct 22                                            01 
00100010005000011000000000006000005000000000000000000000000000000000000000000000000000000000000000000REP       REP US Rep, District 27                                 Eric Mireles                          Precinct 31                                            01 
00100010006000005000000000003000002000000000000000000000000000000000000000000000000000000000000000000REP       REP US Rep, District 27                                 Eric Mireles                          Precinct 32                                            01 
00100010007000002000000000002000000000000000000000000000000000000000000000000000000000000000000000000REP       REP US Rep, District 27                                 Eric Mireles                          Precinct 41                                            01 
00100010008000001000000000000000001000000000000000000000000000000000000000000000000000000000000000000REP       REP US Rep, District 27                                 Eric Mireles                          Precinct 42                                            01 
00100010009000006000000000001000005000000000000000000000000000000000000000000000000000000000000000000REP       REP US Rep, District 27                                 Eric Mireles                          Precinct 43                                            01 
00100020001000009000000000006000003000000000000000000000000000000000000000000000000000000000000000000REP       REP US Rep, District 27                                 Andrew Alvarez                        Precinct 11                                            01 
00100020002000004000000000004000000000000000000000000000000000000000000000000000000000000000000000000REP       REP US Rep, District 27                                 Andrew Alvarez                        Precinct 12                                            01 
00100020003000030000000000013000017000000000000000000000000000000000000000000000000000000000000000000REP       REP US Rep, District 27                                 Andrew Alvarez                        Precinct 21                                            01 
00100020004000009000000000005000004000000000000000000000000000000000000000000000000000000000000000000REP       REP US Rep, District 27                                 Andrew Alvarez                        Precinct 22                                            01 
00100020005000002000000000001000001000000000000000000000000000000000000000000000000000000000000000000REP       REP US Rep, District 27                                 Andrew Alvarez                        Precinct 31                                            01 
00100020006000001000000000000000001000000000000000000000000000000000000000000000000000000000000000000REP       REP US Rep, District 27                                 Andrew Alvarez                        Precinct 32                                            01 
00100020007000004000000000002000002000000000000000000000000000000000000000000000000000000000000000000REP       REP US Rep, District 27                                 Andrew Alvarez                        Precinct 41                                            01 
00100020008000005000000000000000005000000000000000000000000000000000000000000000000000000000000000000REP       REP US Rep, District 27                                 Andrew Alvarez                        Precinct 42                                            01 
00100020009000003000000000003000000000000000000000000000000000000000000000000000000000000000000000000REP       REP US Rep, District 27                                 Andrew Alvarez                        Precinct 43                                            01 
00100030001000019000001000008000010000000000000000000000000000000000000000000000000000000000000000000REP       REP US Rep, District 27                                 Chris Mapp                            Precinct 11                                            01 
00100030002000012000000000009000003000000000000000000000000000000000000000000000000000000000000000000REP       REP US Rep, District 27                                 Chris Mapp                            Precinct 12                                            01 
00100030003000017000000000013000004000000000000000000000000000000000000000000000000000000000000000000REP       REP US Rep, District 27                                 Chris Mapp                            Precinct 21                                            01 
00100030004000006000000000002000004000000000000000000000000000000000000000000000000000000000000000000REP       REP US Rep, District 27                                 Chris Mapp                            Precinct 22                                            01 
00100030005000004000000000003000001000000000000000000000000000000000000000000000000000000000000000000REP       REP US Rep, District 27                                 Chris Mapp                            Precinct 31                                            01 
00100030006000008000000000004000004000000000000000000000000000000000000000000000000000000000000000000REP       REP US Rep, District 27                                 Chris Mapp                            Precinct 32                                            01 
00100030007000007000000000005000002000000000000000000000000000000000000000000000000000000000000000000REP       REP US Rep, District 27                                 Chris Mapp                            Precinct 41                                            01 
00100030008000011000000000000000011000000000000000000000000000000000000000000000000000000000000000000REP       REP US Rep, District 27                                 Chris Mapp                            Precinct 42                                            01 
00100030009000004000000000001000003000000000000000000000000000000000000000000000000000000000000000000REP       REP US Rep, District 27                                 Chris Mapp                            Precinct 43                                            01 
00100040001000095000002000040000053000000000000000000000000000000000000000000000000000000000000000000REP       REP US Rep, District 27                                 Michael Cloud                         Precinct 11                                            01 
00100040002000099000004000040000055000000000000000000000000000000000000000000000000000000000000000000REP       REP US Rep, District 27                                 Michael Cloud                         Precinct 12                                            01 
00100040003000149000003000093000053000000000000000000000000000000000000000000000000000000000000000000REP       REP US Rep, District 27                                 Michael Cloud                         Precinct 21                                            01 
00100040004000032000000000014000018000000000000000000000000000000000000000000000000000000000000000000REP       REP US Rep, District 27                                 Michael Cloud                         Precinct 22                                            01 
00100040005000103000001000060000042000000000000000000000000000000000000000000000000000000000000000000REP       REP US Rep, District 27                                 Michael Cloud                         Precinct 31                                            01 
00100040006000137000002000051000084000000000000000000000000000000000000000000000000000000000000000000REP       REP US Rep, District 27                                 Michael Cloud                         Precinct 32                                            01 
00100040007000096000002000026000068000000000000000000000000000000000000000000000000000000000000000000REP       REP US Rep, District 27                                 Michael Cloud                         Precinct 41                                            01 
00100040008000139000000000036000103000000000000000000000000000000000000000000000000000000000000000000REP       REP US Rep, District 27                                 Michael Cloud                         Precinct 42                                            01 
00100040009000095000001000059000035000000000000000000000000000000000000000000000000000000000000000000REP       REP US Rep, District 27                                 Michael Cloud                         Precinct 43                                            01 
00100050001000021000000000015000006000000000000000000000000000000000000000000000000000000000000000000REP       REP US Rep, District 27                                 AJ Louderback                         Precinct 11                                            01 
00100050002000026000002000013000011000000000000000000000000000000000000000000000000000000000000000000REP       REP US Rep, District 27                                 AJ Louderback                         Precinct 12                                            01 
00100050003000058000002000035000021000000000000000000000000000000000000000000000000000000000000000000REP       REP US Rep, District 27                                 AJ Louderback                         Precinct 21                                            01 
00100050004000013000000000006000007000000000000000000000000000000000000000000000000000000000000000000REP       REP US Rep, District 27                                 AJ Louderback                         Precinct 22                                            01 
00100050005000029000000000016000013000000000000000000000000000000000000000000000000000000000000000000REP       REP US Rep, District 27                                 AJ Louderback                         Precinct 31                                            01 
00100050006000037000000000015000022000000000000000000000000000000000000000000000000000000000000000000REP       REP US Rep, District 27                                 AJ Louderback                         Precinct 32                                            01 
00100050007000029000000000005000024000000000000000000000000000000000000000000000000000000000000000000REP       REP US Rep, District 27                                 AJ Louderback                         Precinct 41                                            01 
00100050008000054000001000018000035000000000000000000000000000000000000000000000000000000000000000000REP       REP US Rep, District 27                                 AJ Louderback                         Precinct 42                                            01 
00100050009000033000000000023000010000000000000000000000000000000000000000000000000000000000000000000REP       REP US Rep, District 27                                 AJ Louderback                         Precinct 43                                            01 
00100060001000000000000000000000000000000000000000000000000000000000000000000000000000000000000000000          REP US Rep, District 27                                 OVER VOTES                            Precinct 11                                            01 
00100060002000000000000000000000000000000000000000000000000000000000000000000000000000000000000000000          REP US Rep, District 27                                 OVER VOTES                            Precinct 12                                            01 
00100060003000001000000000001000000000000000000000000000000000000000000000000000000000000000000000000          REP US Rep, District 27                                 OVER VOTES                            Precinct 21                                            01 
00100060004000000000000000000000000000000000000000000000000000000000000000000000000000000000000000000          REP US Rep, District 27                                 OVER VOTES                            Precinct 22                                            01 
00100060005000000000000000000000000000000000000000000000000000000000000000000000000000000000000000000          REP US Rep, District 27                                 OVER VOTES                            Precinct 31                                            01 
00100060006000000000000000000000000000000000000000000000000000000000000000000000000000000000000000000          REP US Rep, District 27                                 OVER VOTES                            Precinct 32                                            01 
00100060007000000000000000000000000000000000000000000000000000000000000000000000000000000000000000000          REP US Rep, District 27                                 OVER VOTES                            Precinct 41                                            01 
00100060008000000000000000000000000000000000000000000000000000000000000000000000000000000000000000000          REP US Rep, District 27                                 OVER VOTES                            Precinct 42                                            01 
00100060009000000000000000000000000000000000000000000000000000000000000000000000000000000000000000000          REP US Rep, District 27                                 OVER VOTES                            Precinct 43                                            01 
00100070001000038000001000021000016000000000000000000000000000000000000000000000000000000000000000000          REP US Rep, District 27                                 UNDER VOTES                           Precinct 11                                            01 
00100070002000009000000000002000007000000000000000000000000000000000000000000000000000000000000000000          REP US Rep, District 27                                 UNDER VOTES                           Precinct 12                                            01 
00100070003000055000002000031000022000000000000000000000000000000000000000000000000000000000000000000          REP US Rep, District 27                                 UNDER VOTES                           Precinct 21                                            01 
00100070004000025000000000004000021000000000000000000000000000000000000000000000000000000000000000000          REP US Rep, District 27                                 UNDER VOTES                           Precinct 22                                            01 
00100070005000016000000000006000010000000000000000000000000000000000000000000000000000000000000000000          REP US Rep, District 27                                 UNDER VOTES                           Precinct 31                                            01 
00100070006000020000000000007000013000000000000000000000000000000000000000000000000000000000000000000          REP US Rep, District 27                                 UNDER VOTES                           Precinct 32                                            01 
00100070007000023000000000007000016000000000000000000000000000000000000000000000000000000000000000000          REP US Rep, District 27                                 UNDER VOTES                           Precinct 41                                            01 
00100070008000008000000000002000006000000000000000000000000000000000000000000000000000000000000000000          REP US Rep, District 27                                 UNDER VOTES                           Precinct 42                                            01 
00100070009000018000001000004000013000000000000000000000000000000000000000000000000000000000000000000          REP US Rep, District 27                                 UNDER VOTES                           Precinct 43                                            01 
00110010001000009000000000007000002000000000000000000000000000000000000000000000000000000000000000000REP       REP Governor                                            Kandy Kaye Horn                       Precinct 11                                            01 
00110010002000000000000000000000000000000000000000000000000000000000000000000000000000000000000000000REP       REP Governor                                            Kandy Kaye Horn                       Precinct 12                                            01 
00110010003000019000002000012000005000000000000000000000000000000000000000000000000000000000000000000REP       REP Governor                                            Kandy Kaye Horn                       Precinct 21                                            01 
00110010004000001000000000001000000000000000000000000000000000000000000000000000000000000000000000000REP       REP Governor                                            Kandy Kaye Horn                       Precinct 22                                            01 
00110010005000003000000000001000002000000000000000000000000000000000000000000000000000000000000000000REP       REP Governor                                            Kandy Kaye Horn                       Precinct 31                                            01 
00110010006000002000000000002000000000000000000000000000000000000000000000000000000000000000000000000REP       REP Governor                                            Kandy Kaye Horn                       Precinct 32                                            01 
00110010007000003000000000002000001000000000000000000000000000000000000000000000000000000000000000000REP       REP Governor                                            Kandy Kaye Horn                       Precinct 41                                            01 
00110010008000003000000000000000003000000000000000000000000000000000000000000000000000000000000000000REP       REP Governor                                            Kandy Kaye Horn                       Precinct 42                                            01 
00110010009000001000000000001000000000000000000000000000000000000000000000000000000000000000000000000REP       REP Governor                                            Kandy Kaye Horn                       Precinct 43                                            01 
00110020001000104000003000060000041000000000000000000000000000000000000000000000000000000000000000000REP       REP Governor                                            Greg Abbott                           Precinct 11                                            01 
00110020002000110000004000051000055000000000000000000000000000000000000000000000000000000000000000000REP       REP Governor                                            Greg Abbott                           Precinct 12                                            01 
00110020003000211000004000120000087000000000000000000000000000000000000000000000000000000000000000000REP       REP Governor                                            Greg Abbott                           Precinct 21                                            01 
00110020004000054000000000018000036000000000000000000000000000000000000000000000000000000000000000000REP       REP Governor                                            Greg Abbott                           Precinct 22                                            01 
00110020005000118000001000067000050000000000000000000000000000000000000000000000000000000000000000000REP       REP Governor                                            Greg Abbott                           Precinct 31                                            01 
00110020006000153000002000060000091000000000000000000000000000000000000000000000000000000000000000000REP       REP Governor                                            Greg Abbott                           Precinct 32                                            01 
00110020007000099000002000025000072000000000000000000000000000000000000000000000000000000000000000000REP       REP Governor                                            Greg Abbott                           Precinct 41                                            01 
00110020008000154000000000039000115000000000000000000000000000000000000000000000000000000000000000000REP       REP Governor                                            Greg Abbott                           Precinct 42                                            01 
00110020009000106000001000064000041000000000000000000000000000000000000000000000000000000000000000000REP       REP Governor                                            Greg Abbott                           Precinct 43                                            01 
00110030001000003000000000000000003000000000000000000000000000000000000000000000000000000000000000000REP       REP Governor                                            Danny Harrison                        Precinct 11                                            01 
00110030002000000000000000000000000000000000000000000000000000000000000000000000000000000000000000000REP       REP Governor                                            Danny Harrison                        Precinct 12                                            01 
00110030003000005000000000001000004000000000000000000000000000000000000000000000000000000000000000000REP       REP Governor                                            Danny Harrison                        Precinct 21                                            01 
00110030004000001000000000001000000000000000000000000000000000000000000000000000000000000000000000000REP       REP Governor                                            Danny Harrison                        Precinct 22                                            01 
00110030005000001000000000001000000000000000000000000000000000000000000000000000000000000000000000000REP       REP Governor                                            Danny Harrison                        Precinct 31                                            01 
00110030006000001000000000001000000000000000000000000000000000000000000000000000000000000000000000000REP       REP Governor                                            Danny Harrison                        Precinct 32                                            01 
00110030007000000000000000000000000000000000000000000000000000000000000000000000000000000000000000000REP       REP Governor                                            Danny Harrison                        Precinct 41                                            01 
00110030008000000000000000000000000000000000000000000000000000000000000000000000000000000000000000000REP       REP Governor                                            Danny Harrison                        Precinct 42                                            01 
00110030009000002000000000000000002000000000000000000000000000000000000000000000000000000000000000000REP       REP Governor                                            Danny Harrison                        Precinct 43                                            01 
00110040001000027000001000010000016000000000000000000000000000000000000000000000000000000000000000000REP       REP Governor                                            Allen B. West                         Precinct 11                                            01 
00110040002000016000000000007000009000000000000000000000000000000000000000000000000000000000000000000REP       REP Governor                                            Allen B. West                         Precinct 12                                            01 
00110040003000030000000000020000010000000000000000000000000000000000000000000000000000000000000000000REP       REP Governor                                            Allen B. West                         Precinct 21                                            01 
00110040004000003000000000002000001000000000000000000000000000000000000000000000000000000000000000000REP       REP Governor                                            Allen B. West                         Precinct 22                                            01 
00110040005000015000000000008000007000000000000000000000000000000000000000000000000000000000000000000REP       REP Governor                                            Allen B. West                         Precinct 31                                            01 
00110040006000007000000000003000004000000000000000000000000000000000000000000000000000000000000000000REP       REP Governor                                            Allen B. West                         Precinct 32                                            01 
00110040007000013000000000006000007000000000000000000000000000000000000000000000000000000000000000000REP       REP Governor                                            Allen B. West                         Precinct 41                                            01 
00110040008000010000000000001000009000000000000000000000000000000000000000000000000000000000000000000REP       REP Governor                                            Allen B. West                         Precinct 42                                            01 
00110040009000015000000000009000006000000000000000000000000000000000000000000000000000000000000000000REP       REP Governor                                            Allen B. West                         Precinct 43                                            01 
00110050001000012000000000004000008000000000000000000000000000000000000000000000000000000000000000000REP       REP Governor                                            Chad Prather                          Precinct 11                                            01 
00110050002000006000000000002000004000000000000000000000000000000000000000000000000000000000000000000REP       REP Governor                                            Chad Prather                          Precinct 12                                            01 
00110050003000010000000000005000005000000000000000000000000000000000000000000000000000000000000000000REP       REP Governor                                            Chad Prather                          Precinct 21                                            01 
00110050004000005000000000003000002000000000000000000000000000000000000000000000000000000000000000000REP       REP Governor                                            Chad Prather                          Precinct 22                                            01 
00110050005000008000000000003000005000000000000000000000000000000000000000000000000000000000000000000REP       REP Governor                                            Chad Prather                          Precinct 31                                            01 
00110050006000019000000000007000012000000000000000000000000000000000000000000000000000000000000000000REP       REP Governor                                            Chad Prather                          Precinct 32                                            01 
00110050007000021000000000005000016000000000000000000000000000000000000000000000000000000000000000000REP       REP Governor                                            Chad Prather                          Precinct 41                                            01 
00110050008000020000001000006000013000000000000000000000000000000000000000000000000000000000000000000REP       REP Governor                                            Chad Prather                          Precinct 42                                            01 
00110050009000015000000000008000007000000000000000000000000000000000000000000000000000000000000000000REP       REP Governor                                            Chad Prather                          Precinct 43                                            01 
00110060001000003000000000003000000000000000000000000000000000000000000000000000000000000000000000000REP       REP Governor                                            Paul Belew                            Precinct 11                                            01 
00110060002000001000000000000000001000000000000000000000000000000000000000000000000000000000000000000REP       REP Governor                                            Paul Belew                            Precinct 12                                            01 
00110060003000001000000000001000000000000000000000000000000000000000000000000000000000000000000000000REP       REP Governor                                            Paul Belew                            Precinct 21                                            01 
00110060004000000000000000000000000000000000000000000000000000000000000000000000000000000000000000000REP       REP Governor                                            Paul Belew                            Precinct 22                                            01 
00110060005000003000000000002000001000000000000000000000000000000000000000000000000000000000000000000REP       REP Governor                                            Paul Belew                            Precinct 31                                            01 
00110060006000001000000000001000000000000000000000000000000000000000000000000000000000000000000000000REP       REP Governor                                            Paul Belew                            Precinct 32                                            01 
00110060007000001000000000000000001000000000000000000000000000000000000000000000000000000000000000000REP       REP Governor                                            Paul Belew                            Precinct 41                                            01 
00110060008000002000000000000000002000000000000000000000000000000000000000000000000000000000000000000REP       REP Governor                                            Paul Belew                            Precinct 42                                            01 
00110060009000000000000000000000000000000000000000000000000000000000000000000000000000000000000000000REP       REP Governor                                            Paul Belew                            Precinct 43                                            01 
00110070001000010000000000003000007000000000000000000000000000000000000000000000000000000000000000000REP       REP Governor                                            Rick Perry                            Precinct 11                                            01 
00110070002000009000002000003000004000000000000000000000000000000000000000000000000000000000000000000REP       REP Governor                                            Rick Perry                            Precinct 12                                            01 
00110070003000017000000000010000007000000000000000000000000000000000000000000000000000000000000000000REP       REP Governor                                            Rick Perry                            Precinct 21                                            01 
00110070004000004000000000003000001000000000000000000000000000000000000000000000000000000000000000000REP       REP Governor                                            Rick Perry                            Precinct 22                                            01 
00110070005000002000000000000000002000000000000000000000000000000000000000000000000000000000000000000REP       REP Governor                                            Rick Perry                            Precinct 31                                            01 
00110070006000004000000000001000003000000000000000000000000000000000000000000000000000000000000000000REP       REP Governor                                            Rick Perry                            Precinct 32                                            01 
00110070007000004000000000002000002000000000000000000000000000000000000000000000000000000000000000000REP       REP Governor                                            Rick Perry                            Precinct 41                                            01 
00110070008000007000000000004000003000000000000000000000000000000000000000000000000000000000000000000REP       REP Governor                                            Rick Perry                            Precinct 42                                            01 
00110070009000001000000000001000000000000000000000000000000000000000000000000000000000000000000000000REP       REP Governor                                            Rick Perry                            Precinct 43                                            01 
00110080001000016000000000007000009000000000000000000000000000000000000000000000000000000000000000000REP       REP Governor                                            Don Huffines                          Precinct 11                                            01 
00110080002000008000000000004000004000000000000000000000000000000000000000000000000000000000000000000REP       REP Governor                                            Don Huffines                          Precinct 12                                            01 
00110080003000020000000000011000009000000000000000000000000000000000000000000000000000000000000000000REP       REP Governor                                            Don Huffines                          Precinct 21                                            01 
00110080004000003000000000002000001000000000000000000000000000000000000000000000000000000000000000000REP       REP Governor                                            Don Huffines                          Precinct 22                                            01 
00110080005000010000000000007000003000000000000000000000000000000000000000000000000000000000000000000REP       REP Governor                                            Don Huffines                          Precinct 31                                            01 
00110080006000014000000000002000012000000000000000000000000000000000000000000000000000000000000000000REP       REP Governor                                            Don Huffines                          Precinct 32                                            01 
00110080007000011000000000004000007000000000000000000000000000000000000000000000000000000000000000000REP       REP Governor                                            Don Huffines                          Precinct 41                                            01 
00110080008000018000000000005000013000000000000000000000000000000000000000000000000000000000000000000REP       REP Governor                                            Don Huffines                          Precinct 42                                            01 
00110080009000016000001000006000009000000000000000000000000000000000000000000000000000000000000000000REP       REP Governor                                            Don Huffines                          Precinct 43                                            01 
00110090001000000000000000000000000000000000000000000000000000000000000000000000000000000000000000000          REP Governor                                            OVER VOTES                            Precinct 11                                            01 
00110090002000000000000000000000000000000000000000000000000000000000000000000000000000000000000000000          REP Governor                                            OVER VOTES                            Precinct 12                                            01 
00110090003000000000000000000000000000000000000000000000000000000000000000000000000000000000000000000          REP Governor                                            OVER VOTES                            Precinct 21                                            01 
00110090004000000000000000000000000000000000000000000000000000000000000000000000000000000000000000000          REP Governor                                            OVER VOTES                            Precinct 22                                            01 
00110090005000000000000000000000000000000000000000000000000000000000000000000000000000000000000000000          REP Governor                                            OVER VOTES                            Precinct 31                                            01 
00110090006000001000000000000000001000000000000000000000000000000000000000000000000000000000000000000          REP Governor                                            OVER VOTES                            Precinct 32                                            01 
00110090007000000000000000000000000000000000000000000000000000000000000000000000000000000000000000000          REP Governor                                            OVER VOTES                            Precinct 41                                            01 
00110090008000001000000000000000001000000000000000000000000000000000000000000000000000000000000000000          REP Governor                                            OVER VOTES                            Precinct 42                                            01 
00110090009000000000000000000000000000000000000000000000000000000000000000000000000000000000000000000          REP Governor                                            OVER VOTES                            Precinct 43                                            01 
00110100001000022000000000010000012000000000000000000000000000000000000000000000000000000000000000000          REP Governor                                            UNDER VOTES                           Precinct 11                                            01 
00110100002000004000000000002000002000000000000000000000000000000000000000000000000000000000000000000          REP Governor                                            UNDER VOTES                           Precinct 12                                            01 
00110100003000040000001000024000015000000000000000000000000000000000000000000000000000000000000000000          REP Governor                                            UNDER VOTES                           Precinct 21                                            01 
00110100004000023000000000005000018000000000000000000000000000000000000000000000000000000000000000000          REP Governor                                            UNDER VOTES                           Precinct 22                                            01 
00110100005000005000000000003000002000000000000000000000000000000000000000000000000000000000000000000          REP Governor                                            UNDER VOTES                           Precinct 31                                            01 
00110100006000006000000000003000003000000000000000000000000000000000000000000000000000000000000000000          REP Governor                                            UNDER VOTES                           Precinct 32                                            01 
00110100007000009000000000003000006000000000000000000000000000000000000000000000000000000000000000000          REP Governor                                            UNDER VOTES                           Precinct 41                                            01 
00110100008000003000000000001000002000000000000000000000000000000000000000000000000000000000000000000          REP Governor                                            UNDER VOTES                           Precinct 42                                            01 
00110100009000003000000000002000001000000000000000000000000000000000000000000000000000000000000000000          REP Governor                                            UNDER VOTES                           Precinct 43                                            01 
00120010001000009000000000004000005000000000000000000000000000000000000000000000000000000000000000000REP       REP Lieutenant Governor                                 Todd M. Bullis                        Precinct 11                                            01 
00120010002000005000000000002000003000000000000000000000000000000000000000000000000000000000000000000REP       REP Lieutenant Governor                                 Todd M. Bullis                        Precinct 12                                            01 
00120010003000018000000000005000013000000000000000000000000000000000000000000000000000000000000000000REP       REP Lieutenant Governor                                 Todd M. Bullis                        Precinct 21                                            01 
00120010004000006000000000005000001000000000000000000000000000000000000000000000000000000000000000000REP       REP Lieutenant Governor                                 Todd M. Bullis                        Precinct 22                                            01 
00120010005000007000000000005000002000000000000000000000000000000000000000000000000000000000000000000REP       REP Lieutenant Governor                                 Todd M. Bullis                        Precinct 31                                            01 
00120010006000005000000000004000001000000000000000000000000000000000000000000000000000000000000000000REP       REP Lieutenant Governor                                 Todd M. Bullis                        Precinct 32                                            01 
00120010007000002000000000000000002000000000000000000000000000000000000000000000000000000000000000000REP       REP Lieutenant Governor                                 Todd M. Bullis                        Precinct 41                                            01 
00120010008000004000000000000000004000000000000000000000000000000000000000000000000000000000000000000REP       REP Lieutenant Governor                                 Todd M. Bullis                        Precinct 42                                            01 
00120010009000006000000000003000003000000000000000000000000000000000000000000000000000000000000000000REP       REP Lieutenant Governor                                 Todd M. Bullis                        Precinct 43                                            01 
00120020001000017000000000008000009000000000000000000000000000000000000000000000000000000000000000000REP       REP Lieutenant Governor                                 Daniel Miller                         Precinct 11                                            01 
00120020002000019000000000009000010000000000000000000000000000000000000000000000000000000000000000000REP       REP Lieutenant Governor                                 Daniel Miller                         Precinct 12                                            01 
00120020003000038000000000017000021000000000000000000000000000000000000000000000000000000000000000000REP       REP Lieutenant Governor                                 Daniel Miller                         Precinct 21                                            01 
00120020004000007000000000003000004000000000000000000000000000000000000000000000000000000000000000000REP       REP Lieutenant Governor                                 Daniel Miller                         Precinct 22                                            01 
00120020005000011000000000005000006000000000000000000000000000000000000000000000000000000000000000000REP       REP Lieutenant Governor                                 Daniel Miller                         Precinct 31                                            01 
00120020006000016000000000007000009000000000000000000000000000000000000000000000000000000000000000000REP       REP Lieutenant Governor                                 Daniel Miller                         Precinct 32                                            01 
00120020007000015000000000006000009000000000000000000000000000000000000000000000000000000000000000000REP       REP Lieutenant Governor                                 Daniel Miller                         Precinct 41                                            01 
00120020008000019000000000004000015000000000000000000000000000000000000000000000000000000000000000000REP       REP Lieutenant Governor                                 Daniel Miller                         Precinct 42                                            01 
00120020009000010000000000007000003000000000000000000000000000000000000000000000000000000000000000000REP       REP Lieutenant Governor                                 Daniel Miller                         Precinct 43                                            01 
00120030001000016000000000007000009000000000000000000000000000000000000000000000000000000000000000000REP       REP Lieutenant Governor                                 Trayce Bradford                       Precinct 11                                            01 
00120030002000002000000000000000002000000000000000000000000000000000000000000000000000000000000000000REP       REP Lieutenant Governor                                 Trayce Bradford                       Precinct 12                                            01 
00120030003000040000002000025000013000000000000000000000000000000000000000000000000000000000000000000REP       REP Lieutenant Governor                                 Trayce Bradford                       Precinct 21                                            01 
00120030004000004000000000002000002000000000000000000000000000000000000000000000000000000000000000000REP       REP Lieutenant Governor                                 Trayce Bradford                       Precinct 22                                            01 
00120030005000006000000000003000003000000000000000000000000000000000000000000000000000000000000000000REP       REP Lieutenant Governor                                 Trayce Bradford                       Precinct 31                                            01 
00120030006000010000000000004000006000000000000000000000000000000000000000000000000000000000000000000REP       REP Lieutenant Governor                                 Trayce Bradford                       Precinct 32                                            01 
00120030007000023000000000006000017000000000000000000000000000000000000000000000000000000000000000000REP       REP Lieutenant Governor                                 Trayce Bradford                       Precinct 41                                            01 
00120030008000010000000000005000005000000000000000000000000000000000000000000000000000000000000000000REP       REP Lieutenant Governor                                 Trayce Bradford                       Precinct 42                                            01 
00120030009000013000000000009000004000000000000000000000000000000000000000000000000000000000000000000REP       REP Lieutenant Governor                                 Trayce Bradford                       Precinct 43                                            01 
00120040001000006000000000003000003000000000000000000000000000000000000000000000000000000000000000000REP       REP Lieutenant Governor                                 Zach Vance                            Precinct 11                                            01 
00120040002000002000002000000000000000000000000000000000000000000000000000000000000000000000000000000REP       REP Lieutenant Governor                                 Zach Vance                            Precinct 12                                            01 
00120040003000011000000000006000005000000000000000000000000000000000000000000000000000000000000000000REP       REP Lieutenant Governor                                 Zach Vance                            Precinct 21                                            01 
00120040004000001000000000000000001000000000000000000000000000000000000000000000000000000000000000000REP       REP Lieutenant Governor                                 Zach Vance                            Precinct 22                                            01 
00120040005000006000000000005000001000000000000000000000000000000000000000000000000000000000000000000REP       REP Lieutenant Governor                                 Zach Vance                            Precinct 31                                            01 
00120040006000004000000000000000004000000000000000000000000000000000000000000000000000000000000000000REP       REP Lieutenant Governor                                 Zach Vance                            Precinct 32                                            01 
00120040007000003000000000001000002000000000000000000000000000000000000000000000000000000000000000000REP       REP Lieutenant Governor                                 Zach Vance                            Precinct 41                                            01 
00120040008000010000000000001000009000000000000000000000000000000000000000000000000000000000000000000REP       REP Lieutenant Governor                                 Zach Vance                            Precinct 42                                            01 
00120040009000001000000000001000000000000000000000000000000000000000000000000000000000000000000000000REP       REP Lieutenant Governor                                 Zach Vance                            Precinct 43                                            01 
00120050001000111000003000057000051000000000000000000000000000000000000000000000000000000000000000000REP       REP Lieutenant Governor                                 Dan Patrick                           Precinct 11                                            01 
00120050002000101000002000048000051000000000000000000000000000000000000000000000000000000000000000000REP       REP Lieutenant Governor                                 Dan Patrick                           Precinct 12                                            01 
00120050003000165000003000108000054000000000000000000000000000000000000000000000000000000000000000000REP       REP Lieutenant Governor                                 Dan Patrick                           Precinct 21                                            01 
00120050004000046000000000016000030000000000000000000000000000000000000000000000000000000000000000000REP       REP Lieutenant Governor                                 Dan Patrick                           Precinct 22                                            01 
00120050005000107000001000063000043000000000000000000000000000000000000000000000000000000000000000000REP       REP Lieutenant Governor                                 Dan Patrick                           Precinct 31                                            01 
00120050006000146000002000056000088000000000000000000000000000000000000000000000000000000000000000000REP       REP Lieutenant Governor                                 Dan Patrick                           Precinct 32                                            01 
00120050007000090000002000023000065000000000000000000000000000000000000000000000000000000000000000000REP       REP Lieutenant Governor                                 Dan Patrick                           Precinct 41                                            01 
00120050008000142000001000038000103000000000000000000000000000000000000000000000000000000000000000000REP       REP Lieutenant Governor                                 Dan Patrick                           Precinct 42                                            01 
00120050009000100000001000057000042000000000000000000000000000000000000000000000000000000000000000000REP       REP Lieutenant Governor                                 Dan Patrick                           Precinct 43                                            01 
00120060001000008000000000006000002000000000000000000000000000000000000000000000000000000000000000000REP       REP Lieutenant Governor                                 Aaron Sorrells                        Precinct 11                                            01 
00120060002000002000000000002000000000000000000000000000000000000000000000000000000000000000000000000REP       REP Lieutenant Governor                                 Aaron Sorrells                        Precinct 12                                            01 
00120060003000007000000000004000003000000000000000000000000000000000000000000000000000000000000000000REP       REP Lieutenant Governor                                 Aaron Sorrells                        Precinct 21                                            01 
00120060004000002000000000002000000000000000000000000000000000000000000000000000000000000000000000000REP       REP Lieutenant Governor                                 Aaron Sorrells                        Precinct 22                                            01 
00120060005000003000000000000000003000000000000000000000000000000000000000000000000000000000000000000REP       REP Lieutenant Governor                                 Aaron Sorrells                        Precinct 31                                            01 
00120060006000004000000000001000003000000000000000000000000000000000000000000000000000000000000000000REP       REP Lieutenant Governor                                 Aaron Sorrells                        Precinct 32                                            01 
00120060007000003000000000002000001000000000000000000000000000000000000000000000000000000000000000000REP       REP Lieutenant Governor                                 Aaron Sorrells                        Precinct 41                                            01 
00120060008000004000000000002000002000000000000000000000000000000000000000000000000000000000000000000REP       REP Lieutenant Governor                                 Aaron Sorrells                        Precinct 42                                            01 
00120060009000005000000000004000001000000000000000000000000000000000000000000000000000000000000000000REP       REP Lieutenant Governor                                 Aaron Sorrells                        Precinct 43                                            01 
00120070001000000000000000000000000000000000000000000000000000000000000000000000000000000000000000000          REP Lieutenant Governor                                 OVER VOTES                            Precinct 11                                            01 
00120070002000000000000000000000000000000000000000000000000000000000000000000000000000000000000000000          REP Lieutenant Governor                                 OVER VOTES                            Precinct 12                                            01 
00120070003000000000000000000000000000000000000000000000000000000000000000000000000000000000000000000          REP Lieutenant Governor                                 OVER VOTES                            Precinct 21                                            01 
00120070004000000000000000000000000000000000000000000000000000000000000000000000000000000000000000000          REP Lieutenant Governor                                 OVER VOTES                            Precinct 22                                            01 
00120070005000000000000000000000000000000000000000000000000000000000000000000000000000000000000000000          REP Lieutenant Governor                                 OVER VOTES                            Precinct 31                                            01 
00120070006000000000000000000000000000000000000000000000000000000000000000000000000000000000000000000          REP Lieutenant Governor                                 OVER VOTES                            Precinct 32                                            01 
00120070007000000000000000000000000000000000000000000000000000000000000000000000000000000000000000000          REP Lieutenant Governor                                 OVER VOTES                            Precinct 41                                            01 
00120070008000000000000000000000000000000000000000000000000000000000000000000000000000000000000000000          REP Lieutenant Governor                                 OVER VOTES                            Precinct 42                                            01 
00120070009000000000000000000000000000000000000000000000000000000000000000000000000000000000000000000          REP Lieutenant Governor                                 OVER VOTES                            Precinct 43                                            01 
00120080001000039000001000019000019000000000000000000000000000000000000000000000000000000000000000000          REP Lieutenant Governor                                 UNDER VOTES                           Precinct 11                                            01 
00120080002000023000002000008000013000000000000000000000000000000000000000000000000000000000000000000          REP Lieutenant Governor                                 UNDER VOTES                           Precinct 12                                            01 
00120080003000074000002000039000033000000000000000000000000000000000000000000000000000000000000000000          REP Lieutenant Governor                                 UNDER VOTES                           Precinct 21                                            01 
00120080004000028000000000007000021000000000000000000000000000000000000000000000000000000000000000000          REP Lieutenant Governor                                 UNDER VOTES                           Precinct 22                                            01 
00120080005000025000000000011000014000000000000000000000000000000000000000000000000000000000000000000          REP Lieutenant Governor                                 UNDER VOTES                           Precinct 31                                            01 
00120080006000023000000000008000015000000000000000000000000000000000000000000000000000000000000000000          REP Lieutenant Governor                                 UNDER VOTES                           Precinct 32                                            01 
00120080007000025000000000009000016000000000000000000000000000000000000000000000000000000000000000000          REP Lieutenant Governor                                 UNDER VOTES                           Precinct 41                                            01 
00120080008000029000000000006000023000000000000000000000000000000000000000000000000000000000000000000          REP Lieutenant Governor                                 UNDER VOTES                           Precinct 42                                            01 
00120080009000024000001000010000013000000000000000000000000000000000000000000000000000000000000000000          REP Lieutenant Governor                                 UNDER VOTES                           Precinct 43                                            01 
00130010001000053000001000029000023000000000000000000000000000000000000000000000000000000000000000000REP       REP Attorney General                                    George P. Bush                        Precinct 11                                            01 
00130010002000036000004000010000022000000000000000000000000000000000000000000000000000000000000000000REP       REP Attorney General                                    George P. Bush                        Precinct 12                                            01 
00130010003000133000004000074000055000000000000000000000000000000000000000000000000000000000000000000REP       REP Attorney General                                    George P. Bush                        Precinct 21                                            01 
00130010004000023000000000009000014000000000000000000000000000000000000000000000000000000000000000000REP       REP Attorney General                                    George P. Bush                        Precinct 22                                            01 
00130010005000045000001000019000025000000000000000000000000000000000000000000000000000000000000000000REP       REP Attorney General                                    George P. Bush                        Precinct 31                                            01 
00130010006000066000000000022000044000000000000000000000000000000000000000000000000000000000000000000REP       REP Attorney General                                    George P. Bush                        Precinct 32                                            01 
00130010007000039000001000011000027000000000000000000000000000000000000000000000000000000000000000000REP       REP Attorney General                                    George P. Bush                        Precinct 41                                            01 
00130010008000069000000000009000060000000000000000000000000000000000000000000000000000000000000000000REP       REP Attorney General                                    George P. Bush                        Precinct 42                                            01 
00130010009000040000000000025000015000000000000000000000000000000000000000000000000000000000000000000REP       REP Attorney General                                    George P. Bush                        Precinct 43                                            01 
00130020001000066000002000033000031000000000000000000000000000000000000000000000000000000000000000000REP       REP Attorney General                                    Ken Paxton                            Precinct 11                                            01 
00130020002000067000002000033000032000000000000000000000000000000000000000000000000000000000000000000REP       REP Attorney General                                    Ken Paxton                            Precinct 12                                            01 
00130020003000091000002000058000031000000000000000000000000000000000000000000000000000000000000000000REP       REP Attorney General                                    Ken Paxton                            Precinct 21                                            01 
00130020004000033000000000013000020000000000000000000000000000000000000000000000000000000000000000000REP       REP Attorney General                                    Ken Paxton                            Precinct 22                                            01 
00130020005000065000000000038000027000000000000000000000000000000000000000000000000000000000000000000REP       REP Attorney General                                    Ken Paxton                            Precinct 31                                            01 
00130020006000087000000000033000054000000000000000000000000000000000000000000000000000000000000000000REP       REP Attorney General                                    Ken Paxton                            Precinct 32                                            01 
00130020007000063000000000012000051000000000000000000000000000000000000000000000000000000000000000000REP       REP Attorney General                                    Ken Paxton                            Precinct 41                                            01 
00130020008000091000001000023000067000000000000000000000000000000000000000000000000000000000000000000REP       REP Attorney General                                    Ken Paxton                            Precinct 42                                            01 
00130020009000064000000000035000029000000000000000000000000000000000000000000000000000000000000000000REP       REP Attorney General                                    Ken Paxton                            Precinct 43                                            01 
00130030001000027000000000014000013000000000000000000000000000000000000000000000000000000000000000000REP       REP Attorney General                                    Louie Gohmert                         Precinct 11                                            01 
00130030002000033000000000017000016000000000000000000000000000000000000000000000000000000000000000000REP       REP Attorney General                                    Louie Gohmert                         Precinct 12                                            01 
00130030003000041000000000025000016000000000000000000000000000000000000000000000000000000000000000000REP       REP Attorney General                                    Louie Gohmert                         Precinct 21                                            01 
00130030004000005000000000003000002000000000000000000000000000000000000000000000000000000000000000000REP       REP Attorney General                                    Louie Gohmert                         Precinct 22                                            01 
00130030005000024000000000015000009000000000000000000000000000000000000000000000000000000000000000000REP       REP Attorney General                                    Louie Gohmert                         Precinct 31                                            01 
00130030006000027000000000015000012000000000000000000000000000000000000000000000000000000000000000000REP       REP Attorney General                                    Louie Gohmert                         Precinct 32                                            01 
00130030007000034000001000012000021000000000000000000000000000000000000000000000000000000000000000000REP       REP Attorney General                                    Louie Gohmert                         Precinct 41                                            01 
00130030008000032000000000012000020000000000000000000000000000000000000000000000000000000000000000000REP       REP Attorney General                                    Louie Gohmert                         Precinct 42                                            01 
00130030009000027000001000012000014000000000000000000000000000000000000000000000000000000000000000000REP       REP Attorney General                                    Louie Gohmert                         Precinct 43                                            01 
00130040001000033000000000017000016000000000000000000000000000000000000000000000000000000000000000000REP       REP Attorney General                                    Eva Guzman                            Precinct 11                                            01 
00130040002000011000000000006000005000000000000000000000000000000000000000000000000000000000000000000REP       REP Attorney General                                    Eva Guzman                            Precinct 12                                            01 
00130040003000053000000000030000023000000000000000000000000000000000000000000000000000000000000000000REP       REP Attorney General                                    Eva Guzman                            Precinct 21                                            01 
00130040004000012000000000005000007000000000000000000000000000000000000000000000000000000000000000000REP       REP Attorney General                                    Eva Guzman                            Precinct 22                                            01 
00130040005000021000000000014000007000000000000000000000000000000000000000000000000000000000000000000REP       REP Attorney General                                    Eva Guzman                            Precinct 31                                            01 
00130040006000016000002000007000007000000000000000000000000000000000000000000000000000000000000000000REP       REP Attorney General                                    Eva Guzman                            Precinct 32                                            01 
00130040007000012000000000007000005000000000000000000000000000000000000000000000000000000000000000000REP       REP Attorney General                                    Eva Guzman                            Precinct 41                                            01 
00130040008000018000000000011000007000000000000000000000000000000000000000000000000000000000000000000REP       REP Attorney General                                    Eva Guzman                            Precinct 42                                            01 
00130040009000016000000000014000002000000000000000000000000000000000000000000000000000000000000000000REP       REP Attorney General                                    Eva Guzman                            Precinct 43                                            01 
00130050001000000000000000000000000000000000000000000000000000000000000000000000000000000000000000000          REP Attorney General                                    OVER VOTES                            Precinct 11                                            01 
00130050002000000000000000000000000000000000000000000000000000000000000000000000000000000000000000000          REP Attorney General                                    OVER VOTES                            Precinct 12                                            01 
00130050003000000000000000000000000000000000000000000000000000000000000000000000000000000000000000000          REP Attorney General                                    OVER VOTES                            Precinct 21                                            01 
00130050004000000000000000000000000000000000000000000000000000000000000000000000000000000000000000000          REP Attorney General                                    OVER VOTES                            Precinct 22                                            01 
00130050005000000000000000000000000000000000000000000000000000000000000000000000000000000000000000000          REP Attorney General                                    OVER VOTES                            Precinct 31                                            01 
00130050006000000000000000000000000000000000000000000000000000000000000000000000000000000000000000000          REP Attorney General                                    OVER VOTES                            Precinct 32                                            01 
00130050007000000000000000000000000000000000000000000000000000000000000000000000000000000000000000000          REP Attorney General                                    OVER VOTES                            Precinct 41                                            01 
00130050008000000000000000000000000000000000000000000000000000000000000000000000000000000000000000000          REP Attorney General                                    OVER VOTES                            Precinct 42                                            01 
00130050009000000000000000000000000000000000000000000000000000000000000000000000000000000000000000000          REP Attorney General                                    OVER VOTES                            Precinct 43                                            01 
00130060001000027000001000011000015000000000000000000000000000000000000000000000000000000000000000000          REP Attorney General                                    UNDER VOTES                           Precinct 11                                            01 
00130060002000007000000000003000004000000000000000000000000000000000000000000000000000000000000000000          REP Attorney General                                    UNDER VOTES                           Precinct 12                                            01 
00130060003000035000001000017000017000000000000000000000000000000000000000000000000000000000000000000          REP Attorney General                                    UNDER VOTES                           Precinct 21                                            01 
00130060004000021000000000005000016000000000000000000000000000000000000000000000000000000000000000000          REP Attorney General                                    UNDER VOTES                           Precinct 22                                            01 
00130060005000010000000000006000004000000000000000000000000000000000000000000000000000000000000000000          REP Attorney General                                    UNDER VOTES                           Precinct 31                                            01 
00130060006000012000000000003000009000000000000000000000000000000000000000000000000000000000000000000          REP Attorney General                                    UNDER VOTES                           Precinct 32                                            01 
00130060007000013000000000005000008000000000000000000000000000000000000000000000000000000000000000000          REP Attorney General                                    UNDER VOTES                           Precinct 41                                            01 
00130060008000008000000000001000007000000000000000000000000000000000000000000000000000000000000000000          REP Attorney General                                    UNDER VOTES                           Precinct 42                                            01 
00130060009000012000001000005000006000000000000000000000000000000000000000000000000000000000000000000          REP Attorney General                                    UNDER VOTES                           Precinct 43                                            01 
00140010001000021000000000012000009000000000000000000000000000000000000000000000000000000000000000000REP       REP Comptroller of Public Accounts                      Mark V. Goloby                        Precinct 11                                            01 
00140010002000025000002000012000011000000000000000000000000000000000000000000000000000000000000000000REP       REP Comptroller of Public Accounts                      Mark V. Goloby                        Precinct 12                                            01 
00140010003000057000001000032000024000000000000000000000000000000000000000000000000000000000000000000REP       REP Comptroller of Public Accounts                      Mark V. Goloby                        Precinct 21                                            01 
00140010004000012000000000006000006000000000000000000000000000000000000000000000000000000000000000000REP       REP Comptroller of Public Accounts                      Mark V. Goloby                        Precinct 22                                            01 
00140010005000017000000000008000009000000000000000000000000000000000000000000000000000000000000000000REP       REP Comptroller of Public Accounts                      Mark V. Goloby                        Precinct 31                                            01 
00140010006000024000000000009000015000000000000000000000000000000000000000000000000000000000000000000REP       REP Comptroller of Public Accounts                      Mark V. Goloby                        Precinct 32                                            01 
00140010007000008000000000004000004000000000000000000000000000000000000000000000000000000000000000000REP       REP Comptroller of Public Accounts                      Mark V. Goloby                        Precinct 41                                            01 
00140010008000025000000000003000022000000000000000000000000000000000000000000000000000000000000000000REP       REP Comptroller of Public Accounts                      Mark V. Goloby                        Precinct 42                                            01 
00140010009000019000000000012000007000000000000000000000000000000000000000000000000000000000000000000REP       REP Comptroller of Public Accounts                      Mark V. Goloby                        Precinct 43                                            01 
00140020001000138000003000066000069000000000000000000000000000000000000000000000000000000000000000000REP       REP Comptroller of Public Accounts                      Glenn Hegar                           Precinct 11                                            01 
00140020002000106000002000048000056000000000000000000000000000000000000000000000000000000000000000000REP       REP Comptroller of Public Accounts                      Glenn Hegar                           Precinct 12                                            01 
00140020003000215000006000127000082000000000000000000000000000000000000000000000000000000000000000000REP       REP Comptroller of Public Accounts                      Glenn Hegar                           Precinct 21                                            01 
00140020004000053000000000023000030000000000000000000000000000000000000000000000000000000000000000000REP       REP Comptroller of Public Accounts                      Glenn Hegar                           Precinct 22                                            01 
00140020005000117000001000067000049000000000000000000000000000000000000000000000000000000000000000000REP       REP Comptroller of Public Accounts                      Glenn Hegar                           Precinct 31                                            01 
00140020006000154000002000062000090000000000000000000000000000000000000000000000000000000000000000000REP       REP Comptroller of Public Accounts                      Glenn Hegar                           Precinct 32                                            01 
00140020007000125000002000032000091000000000000000000000000000000000000000000000000000000000000000000REP       REP Comptroller of Public Accounts                      Glenn Hegar                           Precinct 41                                            01 
00140020008000162000001000046000115000000000000000000000000000000000000000000000000000000000000000000REP       REP Comptroller of Public Accounts                      Glenn Hegar                           Precinct 42                                            01 
