00010010001000479          REGISTERED VOTERS - TOTAL                               REGISTERED VOTERS - TOTAL             Precinct 101                                           00 
00010010002000496          REGISTERED VOTERS - TOTAL                               REGISTERED VOTERS - TOTAL             Precinct 201                                           00 
00010010003000028          REGISTERED VOTERS - TOTAL                               REGISTERED VOTERS - TOTAL             Precinct 202                                           00 
00010010004000617          REGISTERED VOTERS - TOTAL                               REGISTERED VOTERS - TOTAL             Precinct 301                                           00 
00010010005000036          REGISTERED VOTERS - TOTAL                               REGISTERED VOTERS - TOTAL             Precinct 302                                           00 
00010010006000092          REGISTERED VOTERS - TOTAL                               REGISTERED VOTERS - TOTAL             Precinct 303                                           00 
00010010007000442          REGISTERED VOTERS - TOTAL                               REGISTERED VOTERS - TOTAL             Precinct 401                                           00 
00010010008000135          REGISTERED VOTERS - TOTAL                               REGISTERED VOTERS - TOTAL             Precinct 402                                           00 
00020010001000000REP       REGISTERED VOTERS - Republican Party                    REGISTERED VOTERS - Republican Party  Precinct 101                                           00 
00020010002000000REP       REGISTERED VOTERS - Republican Party                    REGISTERED VOTERS - Republican Party  Precinct 201                                           00 
00020010003000000REP       REGISTERED VOTERS - Republican Party                    REGISTERED VOTERS - Republican Party  Precinct 202                                           00 
00020010004000000REP       REGISTERED VOTERS - Republican Party                    REGISTERED VOTERS - Republican Party  Precinct 301                                           00 
00020010005000000REP       REGISTERED VOTERS - Republican Party                    REGISTERED VOTERS - Republican Party  Precinct 302                                           00 
00020010006000000REP       REGISTERED VOTERS - Republican Party                    REGISTERED VOTERS - Republican Party  Precinct 303                                           00 
00020010007000000REP       REGISTERED VOTERS - Republican Party                    REGISTERED VOTERS - Republican Party  Precinct 401                                           00 
00020010008000000REP       REGISTERED VOTERS - Republican Party                    REGISTERED VOTERS - Republican Party  Precinct 402                                           00 
00030010001000000DEM       REGISTERED VOTERS - Democratic Party                    REGISTERED VOTERS - Democratic Party  Precinct 101                                           00 
00030010002000000DEM       REGISTERED VOTERS - Democratic Party                    REGISTERED VOTERS - Democratic Party  Precinct 201                                           00 
00030010003000000DEM       REGISTERED VOTERS - Democratic Party                    REGISTERED VOTERS - Democratic Party  Precinct 202                                           00 
00030010004000000DEM       REGISTERED VOTERS - Democratic Party                    REGISTERED VOTERS - Democratic Party  Precinct 301                                           00 
00030010005000000DEM       REGISTERED VOTERS - Democratic Party                    REGISTERED VOTERS - Democratic Party  Precinct 302                                           00 
00030010006000000DEM       REGISTERED VOTERS - Democratic Party                    REGISTERED VOTERS - Democratic Party  Precinct 303                                           00 
00030010007000000DEM       REGISTERED VOTERS - Democratic Party                    REGISTERED VOTERS - Democratic Party  Precinct 401                                           00 
00030010008000000DEM       REGISTERED VOTERS - Democratic Party                    REGISTERED VOTERS - Democratic Party  Precinct 402                                           00 
00040010001000479NON       REGISTERED VOTERS - NONPARTISAN                         REGISTERED VOTERS - NONPARTISAN       Precinct 101                                           00 
00040010002000496NON       REGISTERED VOTERS - NONPARTISAN                         REGISTERED VOTERS - NONPARTISAN       Precinct 201                                           00 
00040010003000028NON       REGISTERED VOTERS - NONPARTISAN                         REGISTERED VOTERS - NONPARTISAN       Precinct 202                                           00 
00040010004000617NON       REGISTERED VOTERS - NONPARTISAN                         REGISTERED VOTERS - NONPARTISAN       Precinct 301                                           00 
00040010005000036NON       REGISTERED VOTERS - NONPARTISAN                         REGISTERED VOTERS - NONPARTISAN       Precinct 302                                           00 
00040010006000092NON       REGISTERED VOTERS - NONPARTISAN                         REGISTERED VOTERS - NONPARTISAN       Precinct 303                                           00 
00040010007000442NON       REGISTERED VOTERS - NONPARTISAN                         REGISTERED VOTERS - NONPARTISAN       Precinct 401                                           00 
00040010008000135NON       REGISTERED VOTERS - NONPARTISAN                         REGISTERED VOTERS - NONPARTISAN       Precinct 402                                           00 
00050010001000178          BALLOTS CAST - TOTAL                                    BALLOTS CAST - TOTAL                  Precinct 101                                           00 
00050010002000180          BALLOTS CAST - TOTAL                                    BALLOTS CAST - TOTAL                  Precinct 201                                           00 
00050010003000014          BALLOTS CAST - TOTAL                                    BALLOTS CAST - TOTAL                  Precinct 202                                           00 
00050010004000274          BALLOTS CAST - TOTAL                                    BALLOTS CAST - TOTAL                  Precinct 301                                           00 
00050010005000019          BALLOTS CAST - TOTAL                                    BALLOTS CAST - TOTAL                  Precinct 302                                           00 
00050010006000047          BALLOTS CAST - TOTAL                                    BALLOTS CAST - TOTAL                  Precinct 303                                           00 
00050010007000157          BALLOTS CAST - TOTAL                                    BALLOTS CAST - TOTAL                  Precinct 401                                           00 
00050010008000068          BALLOTS CAST - TOTAL                                    BALLOTS CAST - TOTAL                  Precinct 402                                           00 
00060010001000174REP       BALLOTS CAST - Republican Party                         BALLOTS CAST - Republican Party       Precinct 101                                           00 
00060010002000177REP       BALLOTS CAST - Republican Party                         BALLOTS CAST - Republican Party       Precinct 201                                           00 
00060010003000014REP       BALLOTS CAST - Republican Party                         BALLOTS CAST - Republican Party       Precinct 202                                           00 
00060010004000269REP       BALLOTS CAST - Republican Party                         BALLOTS CAST - Republican Party       Precinct 301                                           00 
00060010005000019REP       BALLOTS CAST - Republican Party                         BALLOTS CAST - Republican Party       Precinct 302                                           00 
00060010006000042REP       BALLOTS CAST - Republican Party                         BALLOTS CAST - Republican Party       Precinct 303                                           00 
00060010007000155REP       BALLOTS CAST - Republican Party                         BALLOTS CAST - Republican Party       Precinct 401                                           00 
00060010008000065REP       BALLOTS CAST - Republican Party                         BALLOTS CAST - Republican Party       Precinct 402                                           00 
00070010001000004DEM       BALLOTS CAST - Democratic Party                         BALLOTS CAST - Democratic Party       Precinct 101                                           00 
00070010002000003DEM       BALLOTS CAST - Democratic Party                         BALLOTS CAST - Democratic Party       Precinct 201                                           00 
00070010003000000DEM       BALLOTS CAST - Democratic Party                         BALLOTS CAST - Democratic Party       Precinct 202                                           00 
00070010004000005DEM       BALLOTS CAST - Democratic Party                         BALLOTS CAST - Democratic Party       Precinct 301                                           00 
00070010005000000DEM       BALLOTS CAST - Democratic Party                         BALLOTS CAST - Democratic Party       Precinct 302                                           00 
00070010006000005DEM       BALLOTS CAST - Democratic Party                         BALLOTS CAST - Democratic Party       Precinct 303                                           00 
00070010007000002DEM       BALLOTS CAST - Democratic Party                         BALLOTS CAST - Democratic Party       Precinct 401                                           00 
00070010008000003DEM       BALLOTS CAST - Democratic Party                         BALLOTS CAST - Democratic Party       Precinct 402                                           00 
00080010001000000NON       BALLOTS CAST - NONPARTISAN                              BALLOTS CAST - NONPARTISAN            Precinct 101                                           00 
00080010002000000NON       BALLOTS CAST - NONPARTISAN                              BALLOTS CAST - NONPARTISAN            Precinct 201                                           00 
00080010003000000NON       BALLOTS CAST - NONPARTISAN                              BALLOTS CAST - NONPARTISAN            Precinct 202                                           00 
00080010004000000NON       BALLOTS CAST - NONPARTISAN                              BALLOTS CAST - NONPARTISAN            Precinct 301                                           00 
00080010005000000NON       BALLOTS CAST - NONPARTISAN                              BALLOTS CAST - NONPARTISAN            Precinct 302                                           00 
00080010006000000NON       BALLOTS CAST - NONPARTISAN                              BALLOTS CAST - NONPARTISAN            Precinct 303                                           00 
00080010007000000NON       BALLOTS CAST - NONPARTISAN                              BALLOTS CAST - NONPARTISAN            Precinct 401                                           00 
00080010008000000NON       BALLOTS CAST - NONPARTISAN                              BALLOTS CAST - NONPARTISAN            Precinct 402                                           00 
00090010001000000          BALLOTS CAST - BLANK                                    BALLOTS CAST - BLANK                  Precinct 101                                           00 
00090010002000000          BALLOTS CAST - BLANK                                    BALLOTS CAST - BLANK                  Precinct 201                                           00 
00090010003000000          BALLOTS CAST - BLANK                                    BALLOTS CAST - BLANK                  Precinct 202                                           00 
00090010004000000          BALLOTS CAST - BLANK                                    BALLOTS CAST - BLANK                  Precinct 301                                           00 
00090010005000000          BALLOTS CAST - BLANK                                    BALLOTS CAST - BLANK                  Precinct 302                                           00 
00090010006000000          BALLOTS CAST - BLANK                                    BALLOTS CAST - BLANK                  Precinct 303                                           00 
00090010007000000          BALLOTS CAST - BLANK                                    BALLOTS CAST - BLANK                  Precinct 401                                           00 
00090010008000000          BALLOTS CAST - BLANK                                    BALLOTS CAST - BLANK                  Precinct 402                                           00 
00100010001000132REP       REP US Representative, District 13                      Ronny Jackson                         Precinct 101                                           01 
00100010002000123REP       REP US Representative, District 13                      Ronny Jackson                         Precinct 201                                           01 
00100010003000011REP       REP US Representative, District 13                      Ronny Jackson                         Precinct 202                                           01 
00100010004000219REP       REP US Representative, District 13                      Ronny Jackson                         Precinct 301                                           01 
00100010005000014REP       REP US Representative, District 13                      Ronny Jackson                         Precinct 302                                           01 
00100010006000034REP       REP US Representative, District 13                      Ronny Jackson                         Precinct 303                                           01 
00100010007000130REP       REP US Representative, District 13                      Ronny Jackson                         Precinct 401                                           01 
00100010008000047REP       REP US Representative, District 13                      Ronny Jackson                         Precinct 402                                           01 
00110010001000006REP       REP Governor                                            Kandy Kaye Horn                       Precinct 101                                           01 
00110010002000005REP       REP Governor                                            Kandy Kaye Horn                       Precinct 201                                           01 
00110010003000000REP       REP Governor                                            Kandy Kaye Horn                       Precinct 202                                           01 
00110010004000003REP       REP Governor                                            Kandy Kaye Horn                       Precinct 301                                           01 
00110010005000000REP       REP Governor                                            Kandy Kaye Horn                       Precinct 302                                           01 
00110010006000000REP       REP Governor                                            Kandy Kaye Horn                       Precinct 303                                           01 
00110010007000001REP       REP Governor                                            Kandy Kaye Horn                       Precinct 401                                           01 
00110010008000001REP       REP Governor                                            Kandy Kaye Horn                       Precinct 402                                           01 
00110020001000021REP       REP Governor                                            Don Huffines                          Precinct 101                                           01 
00110020002000010REP       REP Governor                                            Don Huffines                          Precinct 201                                           01 
00110020003000000REP       REP Governor                                            Don Huffines                          Precinct 202                                           01 
00110020004000031REP       REP Governor                                            Don Huffines                          Precinct 301                                           01 
00110020005000005REP       REP Governor                                            Don Huffines                          Precinct 302                                           01 
00110020006000005REP       REP Governor                                            Don Huffines                          Precinct 303                                           01 
00110020007000011REP       REP Governor                                            Don Huffines                          Precinct 401                                           01 
00110020008000006REP       REP Governor                                            Don Huffines                          Precinct 402                                           01 
00110030001000009REP       REP Governor                                            Rick Perry                            Precinct 101                                           01 
00110030002000009REP       REP Governor                                            Rick Perry                            Precinct 201                                           01 
00110030003000000REP       REP Governor                                            Rick Perry                            Precinct 202                                           01 
00110030004000020REP       REP Governor                                            Rick Perry                            Precinct 301                                           01 
00110030005000002REP       REP Governor                                            Rick Perry                            Precinct 302                                           01 
00110030006000004REP       REP Governor                                            Rick Perry                            Precinct 303                                           01 
00110030007000006REP       REP Governor                                            Rick Perry                            Precinct 401                                           01 
00110030008000005REP       REP Governor                                            Rick Perry                            Precinct 402                                           01 
00110040001000087REP       REP Governor                                            Greg Abbott                           Precinct 101                                           01 
00110040002000094REP       REP Governor                                            Greg Abbott                           Precinct 201                                           01 
00110040003000009REP       REP Governor                                            Greg Abbott                           Precinct 202                                           01 
00110040004000140REP       REP Governor                                            Greg Abbott                           Precinct 301                                           01 
00110040005000007REP       REP Governor                                            Greg Abbott                           Precinct 302                                           01 
00110040006000023REP       REP Governor                                            Greg Abbott                           Precinct 303                                           01 
00110040007000081REP       REP Governor                                            Greg Abbott                           Precinct 401                                           01 
00110040008000031REP       REP Governor                                            Greg Abbott                           Precinct 402                                           01 
00110050001000000REP       REP Governor                                            Danny Harrison                        Precinct 101                                           01 
00110050002000000REP       REP Governor                                            Danny Harrison                        Precinct 201                                           01 
00110050003000000REP       REP Governor                                            Danny Harrison                        Precinct 202                                           01 
00110050004000002REP       REP Governor                                            Danny Harrison                        Precinct 301                                           01 
00110050005000000REP       REP Governor                                            Danny Harrison                        Precinct 302                                           01 
00110050006000000REP       REP Governor                                            Danny Harrison                        Precinct 303                                           01 
00110050007000000REP       REP Governor                                            Danny Harrison                        Precinct 401                                           01 
00110050008000000REP       REP Governor                                            Danny Harrison                        Precinct 402                                           01 
00110060001000011REP       REP Governor                                            Chad Prather                          Precinct 101                                           01 
00110060002000014REP       REP Governor                                            Chad Prather                          Precinct 201                                           01 
00110060003000001REP       REP Governor                                            Chad Prather                          Precinct 202                                           01 
00110060004000011REP       REP Governor                                            Chad Prather                          Precinct 301                                           01 
00110060005000001REP       REP Governor                                            Chad Prather                          Precinct 302                                           01 
00110060006000009REP       REP Governor                                            Chad Prather                          Precinct 303                                           01 
00110060007000017REP       REP Governor                                            Chad Prather                          Precinct 401                                           01 
00110060008000003REP       REP Governor                                            Chad Prather                          Precinct 402                                           01 
00110070001000029REP       REP Governor                                            Allen B. West                         Precinct 101                                           01 
00110070002000031REP       REP Governor                                            Allen B. West                         Precinct 201                                           01 
00110070003000004REP       REP Governor                                            Allen B. West                         Precinct 202                                           01 
00110070004000049REP       REP Governor                                            Allen B. West                         Precinct 301                                           01 
00110070005000004REP       REP Governor                                            Allen B. West                         Precinct 302                                           01 
00110070006000001REP       REP Governor                                            Allen B. West                         Precinct 303                                           01 
00110070007000033REP       REP Governor                                            Allen B. West                         Precinct 401                                           01 
00110070008000015REP       REP Governor                                            Allen B. West                         Precinct 402                                           01 
00110080001000001REP       REP Governor                                            Paul Belew                            Precinct 101                                           01 
00110080002000001REP       REP Governor                                            Paul Belew                            Precinct 201                                           01 
00110080003000000REP       REP Governor                                            Paul Belew                            Precinct 202                                           01 
00110080004000000REP       REP Governor                                            Paul Belew                            Precinct 301                                           01 
00110080005000000REP       REP Governor                                            Paul Belew                            Precinct 302                                           01 
00110080006000000REP       REP Governor                                            Paul Belew                            Precinct 303                                           01 
00110080007000000REP       REP Governor                                            Paul Belew                            Precinct 401                                           01 
00110080008000000REP       REP Governor                                            Paul Belew                            Precinct 402                                           01 
00120010001000007REP       REP Lieutenant Governor                                 Todd M. Bullis                        Precinct 101                                           01 
00120010002000007REP       REP Lieutenant Governor                                 Todd M. Bullis                        Precinct 201                                           01 
00120010003000000REP       REP Lieutenant Governor                                 Todd M. Bullis                        Precinct 202                                           01 
00120010004000014REP       REP Lieutenant Governor                                 Todd M. Bullis                        Precinct 301                                           01 
00120010005000001REP       REP Lieutenant Governor                                 Todd M. Bullis                        Precinct 302                                           01 
00120010006000000REP       REP Lieutenant Governor                                 Todd M. Bullis                        Precinct 303                                           01 
00120010007000006REP       REP Lieutenant Governor                                 Todd M. Bullis                        Precinct 401                                           01 
00120010008000001REP       REP Lieutenant Governor                                 Todd M. Bullis                        Precinct 402                                           01 
00120020001000015REP       REP Lieutenant Governor                                 Daniel Miller                         Precinct 101                                           01 
00120020002000007REP       REP Lieutenant Governor                                 Daniel Miller                         Precinct 201                                           01 
00120020003000003REP       REP Lieutenant Governor                                 Daniel Miller                         Precinct 202                                           01 
00120020004000022REP       REP Lieutenant Governor                                 Daniel Miller                         Precinct 301                                           01 
00120020005000001REP       REP Lieutenant Governor                                 Daniel Miller                         Precinct 302                                           01 
00120020006000002REP       REP Lieutenant Governor                                 Daniel Miller                         Precinct 303                                           01 
00120020007000015REP       REP Lieutenant Governor                                 Daniel Miller                         Precinct 401                                           01 
00120020008000002REP       REP Lieutenant Governor                                 Daniel Miller                         Precinct 402                                           01 
00120030001000030REP       REP Lieutenant Governor                                 Zach Vance                            Precinct 101                                           01 
00120030002000028REP       REP Lieutenant Governor                                 Zach Vance                            Precinct 201                                           01 
00120030003000000REP       REP Lieutenant Governor                                 Zach Vance                            Precinct 202                                           01 
00120030004000037REP       REP Lieutenant Governor                                 Zach Vance                            Precinct 301                                           01 
00120030005000004REP       REP Lieutenant Governor                                 Zach Vance                            Precinct 302                                           01 
00120030006000004REP       REP Lieutenant Governor                                 Zach Vance                            Precinct 303                                           01 
00120030007000019REP       REP Lieutenant Governor                                 Zach Vance                            Precinct 401                                           01 
00120030008000012REP       REP Lieutenant Governor                                 Zach Vance                            Precinct 402                                           01 
00120040001000010REP       REP Lieutenant Governor                                 Trayce Bradford                       Precinct 101                                           01 
00120040002000013REP       REP Lieutenant Governor                                 Trayce Bradford                       Precinct 201                                           01 
00120040003000000REP       REP Lieutenant Governor                                 Trayce Bradford                       Precinct 202                                           01 
00120040004000010REP       REP Lieutenant Governor                                 Trayce Bradford                       Precinct 301                                           01 
00120040005000002REP       REP Lieutenant Governor                                 Trayce Bradford                       Precinct 302                                           01 
00120040006000007REP       REP Lieutenant Governor                                 Trayce Bradford                       Precinct 303                                           01 
00120040007000004REP       REP Lieutenant Governor                                 Trayce Bradford                       Precinct 401                                           01 
00120040008000001REP       REP Lieutenant Governor                                 Trayce Bradford                       Precinct 402                                           01 
00120050001000004REP       REP Lieutenant Governor                                 Aaron Sorrells                        Precinct 101                                           01 
00120050002000007REP       REP Lieutenant Governor                                 Aaron Sorrells                        Precinct 201                                           01 
00120050003000000REP       REP Lieutenant Governor                                 Aaron Sorrells                        Precinct 202                                           01 
00120050004000009REP       REP Lieutenant Governor                                 Aaron Sorrells                        Precinct 301                                           01 
00120050005000000REP       REP Lieutenant Governor                                 Aaron Sorrells                        Precinct 302                                           01 
00120050006000001REP       REP Lieutenant Governor                                 Aaron Sorrells                        Precinct 303                                           01 
00120050007000007REP       REP Lieutenant Governor                                 Aaron Sorrells                        Precinct 401                                           01 
00120050008000006REP       REP Lieutenant Governor                                 Aaron Sorrells                        Precinct 402                                           01 
00120060001000077REP       REP Lieutenant Governor                                 Dan Patrick                           Precinct 101                                           01 
00120060002000079REP       REP Lieutenant Governor                                 Dan Patrick                           Precinct 201                                           01 
00120060003000009REP       REP Lieutenant Governor                                 Dan Patrick                           Precinct 202                                           01 
00120060004000119REP       REP Lieutenant Governor                                 Dan Patrick                           Precinct 301                                           01 
00120060005000008REP       REP Lieutenant Governor                                 Dan Patrick                           Precinct 302                                           01 
00120060006000025REP       REP Lieutenant Governor                                 Dan Patrick                           Precinct 303                                           01 
00120060007000074REP       REP Lieutenant Governor                                 Dan Patrick                           Precinct 401                                           01 
00120060008000029REP       REP Lieutenant Governor                                 Dan Patrick                           Precinct 402                                           01 
00130010001000023REP       REP Attorney General                                    Louie Gohmert                         Precinct 101                                           01 
00130010002000025REP       REP Attorney General                                    Louie Gohmert                         Precinct 201                                           01 
00130010003000003REP       REP Attorney General                                    Louie Gohmert                         Precinct 202                                           01 
00130010004000050REP       REP Attorney General                                    Louie Gohmert                         Precinct 301                                           01 
00130010005000003REP       REP Attorney General                                    Louie Gohmert                         Precinct 302                                           01 
00130010006000000REP       REP Attorney General                                    Louie Gohmert                         Precinct 303                                           01 
00130010007000033REP       REP Attorney General                                    Louie Gohmert                         Precinct 401                                           01 
00130010008000012REP       REP Attorney General                                    Louie Gohmert                         Precinct 402                                           01 
00130020001000061REP       REP Attorney General                                    Ken Paxton                            Precinct 101                                           01 
00130020002000057REP       REP Attorney General                                    Ken Paxton                            Precinct 201                                           01 
00130020003000006REP       REP Attorney General                                    Ken Paxton                            Precinct 202                                           01 
00130020004000090REP       REP Attorney General                                    Ken Paxton                            Precinct 301                                           01 
00130020005000005REP       REP Attorney General                                    Ken Paxton                            Precinct 302                                           01 
00130020006000024REP       REP Attorney General                                    Ken Paxton                            Precinct 303                                           01 
00130020007000041REP       REP Attorney General                                    Ken Paxton                            Precinct 401                                           01 
00130020008000014REP       REP Attorney General                                    Ken Paxton                            Precinct 402                                           01 
00130030001000045REP       REP Attorney General                                    Eva Guzman                            Precinct 101                                           01 
00130030002000046REP       REP Attorney General                                    Eva Guzman                            Precinct 201                                           01 
00130030003000002REP       REP Attorney General                                    Eva Guzman                            Precinct 202                                           01 
00130030004000051REP       REP Attorney General                                    Eva Guzman                            Precinct 301                                           01 
00130030005000009REP       REP Attorney General                                    Eva Guzman                            Precinct 302                                           01 
00130030006000006REP       REP Attorney General                                    Eva Guzman                            Precinct 303                                           01 
00130030007000031REP       REP Attorney General                                    Eva Guzman                            Precinct 401                                           01 
00130030008000022REP       REP Attorney General                                    Eva Guzman                            Precinct 402                                           01 
00130040001000027REP       REP Attorney General                                    George P. Bush                        Precinct 101                                           01 
00130040002000033REP       REP Attorney General                                    George P. Bush                        Precinct 201                                           01 
00130040003000001REP       REP Attorney General                                    George P. Bush                        Precinct 202                                           01 
00130040004000055REP       REP Attorney General                                    George P. Bush                        Precinct 301                                           01 
00130040005000002REP       REP Attorney General                                    George P. Bush                        Precinct 302                                           01 
00130040006000009REP       REP Attorney General                                    George P. Bush                        Precinct 303                                           01 
00130040007000031REP       REP Attorney General                                    George P. Bush                        Precinct 401                                           01 
00130040008000009REP       REP Attorney General                                    George P. Bush                        Precinct 402                                           01 
00140010001000099REP       REP Comptroller of Public Accounts                      Glenn Hegar                           Precinct 101                                           01 
00140010002000094REP       REP Comptroller of Public Accounts                      Glenn Hegar                           Precinct 201                                           01 
00140010003000007REP       REP Comptroller of Public Accounts                      Glenn Hegar                           Precinct 202                                           01 
00140010004000164REP       REP Comptroller of Public Accounts                      Glenn Hegar                           Precinct 301                                           01 
00140010005000009REP       REP Comptroller of Public Accounts                      Glenn Hegar                           Precinct 302                                           01 
00140010006000030REP       REP Comptroller of Public Accounts                      Glenn Hegar                           Precinct 303                                           01 
00140010007000091REP       REP Comptroller of Public Accounts                      Glenn Hegar                           Precinct 401                                           01 
00140010008000033REP       REP Comptroller of Public Accounts                      Glenn Hegar                           Precinct 402                                           01 
00140020001000021REP       REP Comptroller of Public Accounts                      Mark V. Goloby                        Precinct 101                                           01 
00140020002000016REP       REP Comptroller of Public Accounts                      Mark V. Goloby                        Precinct 201                                           01 
00140020003000003REP       REP Comptroller of Public Accounts                      Mark V. Goloby                        Precinct 202                                           01 
00140020004000016REP       REP Comptroller of Public Accounts                      Mark V. Goloby                        Precinct 301                                           01 
00140020005000004REP       REP Comptroller of Public Accounts                      Mark V. Goloby                        Precinct 302                                           01 
00140020006000004REP       REP Comptroller of Public Accounts                      Mark V. Goloby                        Precinct 303                                           01 
00140020007000017REP       REP Comptroller of Public Accounts                      Mark V. Goloby                        Precinct 401                                           01 
00140020008000011REP       REP Comptroller of Public Accounts                      Mark V. Goloby                        Precinct 402                                           01 
00150010001000020REP       REP Comm General Land Office                            Don W. Minton                         Precinct 101                                           01 
00150010002000017REP       REP Comm General Land Office                            Don W. Minton                         Precinct 201                                           01 
00150010003000000REP       REP Comm General Land Office                            Don W. Minton                         Precinct 202                                           01 
00150010004000029REP       REP Comm General Land Office                            Don W. Minton                         Precinct 301                                           01 
00150010005000001REP       REP Comm General Land Office                            Don W. Minton                         Precinct 302                                           01 
00150010006000005REP       REP Comm General Land Office                            Don W. Minton                         Precinct 303                                           01 
00150010007000019REP       REP Comm General Land Office                            Don W. Minton                         Precinct 401                                           01 
00150010008000009REP       REP Comm General Land Office                            Don W. Minton                         Precinct 402                                           01 
00150020001000003REP       REP Comm General Land Office                            Ben Armenta                           Precinct 101                                           01 
00150020002000003REP       REP Comm General Land Office                            Ben Armenta                           Precinct 201                                           01 
00150020003000000REP       REP Comm General Land Office                            Ben Armenta                           Precinct 202                                           01 
00150020004000008REP       REP Comm General Land Office                            Ben Armenta                           Precinct 301                                           01 
00150020005000000REP       REP Comm General Land Office                            Ben Armenta                           Precinct 302                                           01 
00150020006000000REP       REP Comm General Land Office                            Ben Armenta                           Precinct 303                                           01 
00150020007000002REP       REP Comm General Land Office                            Ben Armenta                           Precinct 401                                           01 
00150020008000000REP       REP Comm General Land Office                            Ben Armenta                           Precinct 402                                           01 
00150030001000022REP       REP Comm General Land Office                            Tim Westley                           Precinct 101                                           01 
00150030002000013REP       REP Comm General Land Office                            Tim Westley                           Precinct 201                                           01 
00150030003000001REP       REP Comm General Land Office                            Tim Westley                           Precinct 202                                           01 
00150030004000023REP       REP Comm General Land Office                            Tim Westley                           Precinct 301                                           01 
00150030005000000REP       REP Comm General Land Office                            Tim Westley                           Precinct 302                                           01 
00150030006000002REP       REP Comm General Land Office                            Tim Westley                           Precinct 303                                           01 
00150030007000017REP       REP Comm General Land Office                            Tim Westley                           Precinct 401                                           01 
00150030008000004REP       REP Comm General Land Office                            Tim Westley                           Precinct 402                                           01 
00150040001000004REP       REP Comm General Land Office                            Rufus Lopez                           Precinct 101                                           01 
00150040002000004REP       REP Comm General Land Office                            Rufus Lopez                           Precinct 201                                           01 
00150040003000000REP       REP Comm General Land Office                            Rufus Lopez                           Precinct 202                                           01 
00150040004000006REP       REP Comm General Land Office                            Rufus Lopez                           Precinct 301                                           01 
00150040005000000REP       REP Comm General Land Office                            Rufus Lopez                           Precinct 302                                           01 
00150040006000000REP       REP Comm General Land Office                            Rufus Lopez                           Precinct 303                                           01 
00150040007000005REP       REP Comm General Land Office                            Rufus Lopez                           Precinct 401                                           01 
00150040008000000REP       REP Comm General Land Office                            Rufus Lopez                           Precinct 402                                           01 
00150050001000008REP       REP Comm General Land Office                            Victor Avila                          Precinct 101                                           01 
00150050002000010REP       REP Comm General Land Office                            Victor Avila                          Precinct 201                                           01 
00150050003000002REP       REP Comm General Land Office                            Victor Avila                          Precinct 202                                           01 
00150050004000011REP       REP Comm General Land Office                            Victor Avila                          Precinct 301                                           01 
00150050005000002REP       REP Comm General Land Office                            Victor Avila                          Precinct 302                                           01 
00150050006000001REP       REP Comm General Land Office                            Victor Avila                          Precinct 303                                           01 
00150050007000007REP       REP Comm General Land Office                            Victor Avila                          Precinct 401                                           01 
00150050008000001REP       REP Comm General Land Office                            Victor Avila                          Precinct 402                                           01 
00150060001000007REP       REP Comm General Land Office                            Jon Spiers                            Precinct 101                                           01 
00150060002000013REP       REP Comm General Land Office                            Jon Spiers                            Precinct 201                                           01 
00150060003000000REP       REP Comm General Land Office                            Jon Spiers                            Precinct 202                                           01 
00150060004000019REP       REP Comm General Land Office                            Jon Spiers                            Precinct 301                                           01 
00150060005000000REP       REP Comm General Land Office                            Jon Spiers                            Precinct 302                                           01 
00150060006000002REP       REP Comm General Land Office                            Jon Spiers                            Precinct 303                                           01 
00150060007000003REP       REP Comm General Land Office                            Jon Spiers                            Precinct 401                                           01 
00150060008000005REP       REP Comm General Land Office                            Jon Spiers                            Precinct 402                                           01 
00150070001000006REP       REP Comm General Land Office                            Weston Martinez                       Precinct 101                                           01 
00150070002000003REP       REP Comm General Land Office                            Weston Martinez                       Precinct 201                                           01 
00150070003000000REP       REP Comm General Land Office                            Weston Martinez                       Precinct 202                                           01 
00150070004000004REP       REP Comm General Land Office                            Weston Martinez                       Precinct 301                                           01 
00150070005000000REP       REP Comm General Land Office                            Weston Martinez                       Precinct 302                                           01 
00150070006000000REP       REP Comm General Land Office                            Weston Martinez                       Precinct 303                                           01 
00150070007000002REP       REP Comm General Land Office                            Weston Martinez                       Precinct 401                                           01 
00150070008000002REP       REP Comm General Land Office                            Weston Martinez                       Precinct 402                                           01 
00150080001000044REP       REP Comm General Land Office                            Dawn Buckingham                       Precinct 101                                           01 
00150080002000043REP       REP Comm General Land Office                            Dawn Buckingham                       Precinct 201                                           01 
00150080003000003REP       REP Comm General Land Office                            Dawn Buckingham                       Precinct 202                                           01 
00150080004000075REP       REP Comm General Land Office                            Dawn Buckingham                       Precinct 301                                           01 
00150080005000013REP       REP Comm General Land Office                            Dawn Buckingham                       Precinct 302                                           01 
00150080006000025REP       REP Comm General Land Office                            Dawn Buckingham                       Precinct 303                                           01 
00150080007000047REP       REP Comm General Land Office                            Dawn Buckingham                       Precinct 401                                           01 
00150080008000022REP       REP Comm General Land Office                            Dawn Buckingham                       Precinct 402                                           01 
00160010001000008REP       REP Commissioner of Agriculture                         Carey A. Counsil                      Precinct 101                                           01 
00160010002000015REP       REP Commissioner of Agriculture                         Carey A. Counsil                      Precinct 201                                           01 
00160010003000000REP       REP Commissioner of Agriculture                         Carey A. Counsil                      Precinct 202                                           01 
00160010004000014REP       REP Commissioner of Agriculture                         Carey A. Counsil                      Precinct 301                                           01 
00160010005000002REP       REP Commissioner of Agriculture                         Carey A. Counsil                      Precinct 302                                           01 
00160010006000001REP       REP Commissioner of Agriculture                         Carey A. Counsil                      Precinct 303                                           01 
00160010007000010REP       REP Commissioner of Agriculture                         Carey A. Counsil                      Precinct 401                                           01 
00160010008000003REP       REP Commissioner of Agriculture                         Carey A. Counsil                      Precinct 402                                           01 
00160020001000048REP       REP Commissioner of Agriculture                         James White                           Precinct 101                                           01 
00160020002000043REP       REP Commissioner of Agriculture                         James White                           Precinct 201                                           01 
00160020003000001REP       REP Commissioner of Agriculture                         James White                           Precinct 202                                           01 
00160020004000070REP       REP Commissioner of Agriculture                         James White                           Precinct 301                                           01 
00160020005000005REP       REP Commissioner of Agriculture                         James White                           Precinct 302                                           01 
00160020006000006REP       REP Commissioner of Agriculture                         James White                           Precinct 303                                           01 
00160020007000035REP       REP Commissioner of Agriculture                         James White                           Precinct 401                                           01 
00160020008000019REP       REP Commissioner of Agriculture                         James White                           Precinct 402                                           01 
00160030001000075REP       REP Commissioner of Agriculture                         Sid Miller                            Precinct 101                                           01 
00160030002000068REP       REP Commissioner of Agriculture                         Sid Miller                            Precinct 201                                           01 
00160030003000011REP       REP Commissioner of Agriculture                         Sid Miller                            Precinct 202                                           01 
00160030004000125REP       REP Commissioner of Agriculture                         Sid Miller                            Precinct 301                                           01 
00160030005000009REP       REP Commissioner of Agriculture                         Sid Miller                            Precinct 302                                           01 
00160030006000030REP       REP Commissioner of Agriculture                         Sid Miller                            Precinct 303                                           01 
00160030007000063REP       REP Commissioner of Agriculture                         Sid Miller                            Precinct 401                                           01 
00160030008000031REP       REP Commissioner of Agriculture                         Sid Miller                            Precinct 402                                           01 
00170010001000014REP       REP Railroad Commissioner                               Marvin "Sarge" Summers                Precinct 101                                           01 
00170010002000019REP       REP Railroad Commissioner                               Marvin "Sarge" Summers                Precinct 201                                           01 
00170010003000000REP       REP Railroad Commissioner                               Marvin "Sarge" Summers                Precinct 202                                           01 
00170010004000024REP       REP Railroad Commissioner                               Marvin "Sarge" Summers                Precinct 301                                           01 
00170010005000001REP       REP Railroad Commissioner                               Marvin "Sarge" Summers                Precinct 302                                           01 
00170010006000004REP       REP Railroad Commissioner                               Marvin "Sarge" Summers                Precinct 303                                           01 
00170010007000019REP       REP Railroad Commissioner                               Marvin "Sarge" Summers                Precinct 401                                           01 
00170010008000008REP       REP Railroad Commissioner                               Marvin "Sarge" Summers                Precinct 402                                           01 
00170020001000023REP       REP Railroad Commissioner                               Dawayne Tipton                        Precinct 101                                           01 
00170020002000010REP       REP Railroad Commissioner                               Dawayne Tipton                        Precinct 201                                           01 
00170020003000004REP       REP Railroad Commissioner                               Dawayne Tipton                        Precinct 202                                           01 
00170020004000018REP       REP Railroad Commissioner                               Dawayne Tipton                        Precinct 301                                           01 
00170020005000001REP       REP Railroad Commissioner                               Dawayne Tipton                        Precinct 302                                           01 
00170020006000005REP       REP Railroad Commissioner                               Dawayne Tipton                        Precinct 303                                           01 
00170020007000013REP       REP Railroad Commissioner                               Dawayne Tipton                        Precinct 401                                           01 
00170020008000004REP       REP Railroad Commissioner                               Dawayne Tipton                        Precinct 402                                           01 
00170030001000060REP       REP Railroad Commissioner                               Wayne Christian                       Precinct 101                                           01 
00170030002000051REP       REP Railroad Commissioner                               Wayne Christian                       Precinct 201                                           01 
00170030003000002REP       REP Railroad Commissioner                               Wayne Christian                       Precinct 202                                           01 
00170030004000087REP       REP Railroad Commissioner                               Wayne Christian                       Precinct 301                                           01 
00170030005000012REP       REP Railroad Commissioner                               Wayne Christian                       Precinct 302                                           01 
00170030006000019REP       REP Railroad Commissioner                               Wayne Christian                       Precinct 303                                           01 
00170030007000049REP       REP Railroad Commissioner                               Wayne Christian                       Precinct 401                                           01 
00170030008000021REP       REP Railroad Commissioner                               Wayne Christian                       Precinct 402                                           01 
00170040001000014REP       REP Railroad Commissioner                               Sarah Stogner                         Precinct 101                                           01 
00170040002000020REP       REP Railroad Commissioner                               Sarah Stogner                         Precinct 201                                           01 
00170040003000002REP       REP Railroad Commissioner                               Sarah Stogner                         Precinct 202                                           01 
00170040004000033REP       REP Railroad Commissioner                               Sarah Stogner                         Precinct 301                                           01 
00170040005000002REP       REP Railroad Commissioner                               Sarah Stogner                         Precinct 302                                           01 
00170040006000006REP       REP Railroad Commissioner                               Sarah Stogner                         Precinct 303                                           01 
00170040007000017REP       REP Railroad Commissioner                               Sarah Stogner                         Precinct 401                                           01 
00170040008000006REP       REP Railroad Commissioner                               Sarah Stogner                         Precinct 402                                           01 
00170050001000008REP       REP Railroad Commissioner                               Tom Slocum Jr                         Precinct 101                                           01 
00170050002000011REP       REP Railroad Commissioner                               Tom Slocum Jr                         Precinct 201                                           01 
00170050003000003REP       REP Railroad Commissioner                               Tom Slocum Jr                         Precinct 202                                           01 
00170050004000017REP       REP Railroad Commissioner                               Tom Slocum Jr                         Precinct 301                                           01 
00170050005000001REP       REP Railroad Commissioner                               Tom Slocum Jr                         Precinct 302                                           01 
00170050006000002REP       REP Railroad Commissioner                               Tom Slocum Jr                         Precinct 303                                           01 
00170050007000008REP       REP Railroad Commissioner                               Tom Slocum Jr                         Precinct 401                                           01 
00170050008000003REP       REP Railroad Commissioner                               Tom Slocum Jr                         Precinct 402                                           01 
00180010001000100REP       REP Justice, Supreme Court, Pl 3                        Debra Lehrmann                        Precinct 101                                           01 
00180010002000096REP       REP Justice, Supreme Court, Pl 3                        Debra Lehrmann                        Precinct 201                                           01 
00180010003000010REP       REP Justice, Supreme Court, Pl 3                        Debra Lehrmann                        Precinct 202                                           01 
00180010004000163REP       REP Justice, Supreme Court, Pl 3                        Debra Lehrmann                        Precinct 301                                           01 
00180010005000012REP       REP Justice, Supreme Court, Pl 3                        Debra Lehrmann                        Precinct 302                                           01 
00180010006000033REP       REP Justice, Supreme Court, Pl 3                        Debra Lehrmann                        Precinct 303                                           01 
00180010007000099REP       REP Justice, Supreme Court, Pl 3                        Debra Lehrmann                        Precinct 401                                           01 
00180010008000037REP       REP Justice, Supreme Court, Pl 3                        Debra Lehrmann                        Precinct 402                                           01 
00190010001000100REP       REP Justice, Supreme Court, Pl 5                        Rebeca Huddle                         Precinct 101                                           01 
00190010002000097REP       REP Justice, Supreme Court, Pl 5                        Rebeca Huddle                         Precinct 201                                           01 
00190010003000009REP       REP Justice, Supreme Court, Pl 5                        Rebeca Huddle                         Precinct 202                                           01 
00190010004000168REP       REP Justice, Supreme Court, Pl 5                        Rebeca Huddle                         Precinct 301                                           01 
00190010005000012REP       REP Justice, Supreme Court, Pl 5                        Rebeca Huddle                         Precinct 302                                           01 
00190010006000032REP       REP Justice, Supreme Court, Pl 5                        Rebeca Huddle                         Precinct 303                                           01 
00190010007000098REP       REP Justice, Supreme Court, Pl 5                        Rebeca Huddle                         Precinct 401                                           01 
00190010008000037REP       REP Justice, Supreme Court, Pl 5                        Rebeca Huddle                         Precinct 402                                           01 
00200010001000057REP       REP Justice, Supreme Court, Pl 9                        David J. Schenck                      Precinct 101                                           01 
00200010002000059REP       REP Justice, Supreme Court, Pl 9                        David J. Schenck                      Precinct 201                                           01 
00200010003000003REP       REP Justice, Supreme Court, Pl 9                        David J. Schenck                      Precinct 202                                           01 
00200010004000097REP       REP Justice, Supreme Court, Pl 9                        David J. Schenck                      Precinct 301                                           01 
00200010005000007REP       REP Justice, Supreme Court, Pl 9                        David J. Schenck                      Precinct 302                                           01 
00200010006000014REP       REP Justice, Supreme Court, Pl 9                        David J. Schenck                      Precinct 303                                           01 
00200010007000054REP       REP Justice, Supreme Court, Pl 9                        David J. Schenck                      Precinct 401                                           01 
00200010008000019REP       REP Justice, Supreme Court, Pl 9                        David J. Schenck                      Precinct 402                                           01 
00200020001000055REP       REP Justice, Supreme Court, Pl 9                        Evan Young                            Precinct 101                                           01 
00200020002000050REP       REP Justice, Supreme Court, Pl 9                        Evan Young                            Precinct 201                                           01 
00200020003000005REP       REP Justice, Supreme Court, Pl 9                        Evan Young                            Precinct 202                                           01 
00200020004000065REP       REP Justice, Supreme Court, Pl 9                        Evan Young                            Precinct 301                                           01 
00200020005000007REP       REP Justice, Supreme Court, Pl 9                        Evan Young                            Precinct 302                                           01 
00200020006000019REP       REP Justice, Supreme Court, Pl 9                        Evan Young                            Precinct 303                                           01 
00200020007000041REP       REP Justice, Supreme Court, Pl 9                        Evan Young                            Precinct 401                                           01 
00200020008000023REP       REP Justice, Supreme Court, Pl 9                        Evan Young                            Precinct 402                                           01 
00210010001000101REP       REP Judge, Ct of Crim App, Pl 2                         Mary Lou Keel                         Precinct 101                                           01 
00210010002000089REP       REP Judge, Ct of Crim App, Pl 2                         Mary Lou Keel                         Precinct 201                                           01 
00210010003000009REP       REP Judge, Ct of Crim App, Pl 2                         Mary Lou Keel                         Precinct 202                                           01 
00210010004000157REP       REP Judge, Ct of Crim App, Pl 2                         Mary Lou Keel                         Precinct 301                                           01 
00210010005000010REP       REP Judge, Ct of Crim App, Pl 2                         Mary Lou Keel                         Precinct 302                                           01 
00210010006000032REP       REP Judge, Ct of Crim App, Pl 2                         Mary Lou Keel                         Precinct 303                                           01 
00210010007000093REP       REP Judge, Ct of Crim App, Pl 2                         Mary Lou Keel                         Precinct 401                                           01 
00210010008000034REP       REP Judge, Ct of Crim App, Pl 2                         Mary Lou Keel                         Precinct 402                                           01 
00220010001000073REP       REP Judge, Ct of Crim App, Pl 5                         Scott Walker                          Precinct 101                                           01 
00220010002000067REP       REP Judge, Ct of Crim App, Pl 5                         Scott Walker                          Precinct 201                                           01 
00220010003000006REP       REP Judge, Ct of Crim App, Pl 5                         Scott Walker                          Precinct 202                                           01 
00220010004000094REP       REP Judge, Ct of Crim App, Pl 5                         Scott Walker                          Precinct 301                                           01 
00220010005000010REP       REP Judge, Ct of Crim App, Pl 5                         Scott Walker                          Precinct 302                                           01 
00220010006000017REP       REP Judge, Ct of Crim App, Pl 5                         Scott Walker                          Precinct 303                                           01 
00220010007000061REP       REP Judge, Ct of Crim App, Pl 5                         Scott Walker                          Precinct 401                                           01 
00220010008000024REP       REP Judge, Ct of Crim App, Pl 5                         Scott Walker                          Precinct 402                                           01 
00220020001000042REP       REP Judge, Ct of Crim App, Pl 5                         Clint Morgan                          Precinct 101                                           01 
00220020002000042REP       REP Judge, Ct of Crim App, Pl 5                         Clint Morgan                          Precinct 201                                           01 
00220020003000002REP       REP Judge, Ct of Crim App, Pl 5                         Clint Morgan                          Precinct 202                                           01 
00220020004000066REP       REP Judge, Ct of Crim App, Pl 5                         Clint Morgan                          Precinct 301                                           01 
00220020005000004REP       REP Judge, Ct of Crim App, Pl 5                         Clint Morgan                          Precinct 302                                           01 
00220020006000014REP       REP Judge, Ct of Crim App, Pl 5                         Clint Morgan                          Precinct 303                                           01 
00220020007000033REP       REP Judge, Ct of Crim App, Pl 5                         Clint Morgan                          Precinct 401                                           01 
00220020008000017REP       REP Judge, Ct of Crim App, Pl 5                         Clint Morgan                          Precinct 402                                           01 
00230010001000096REP       REP Judge, Ct of Crim App, Pl 6                         Jesse F. McClure, III                 Precinct 101                                           01 
00230010002000086REP       REP Judge, Ct of Crim App, Pl 6                         Jesse F. McClure, III                 Precinct 201                                           01 
00230010003000008REP       REP Judge, Ct of Crim App, Pl 6                         Jesse F. McClure, III                 Precinct 202                                           01 
00230010004000147REP       REP Judge, Ct of Crim App, Pl 6                         Jesse F. McClure, III                 Precinct 301                                           01 
00230010005000011REP       REP Judge, Ct of Crim App, Pl 6                         Jesse F. McClure, III                 Precinct 302                                           01 
00230010006000030REP       REP Judge, Ct of Crim App, Pl 6                         Jesse F. McClure, III                 Precinct 303                                           01 
00230010007000086REP       REP Judge, Ct of Crim App, Pl 6                         Jesse F. McClure, III                 Precinct 401                                           01 
00230010008000033REP       REP Judge, Ct of Crim App, Pl 6                         Jesse F. McClure, III                 Precinct 402                                           01 
00240010001000081REP       REP Member, State BoE, Dist 15                          Jay Johnson                           Precinct 101                                           01 
00240010002000085REP       REP Member, State BoE, Dist 15                          Jay Johnson                           Precinct 201                                           01 
00240010003000006REP       REP Member, State BoE, Dist 15                          Jay Johnson                           Precinct 202                                           01 
00240010004000124REP       REP Member, State BoE, Dist 15                          Jay Johnson                           Precinct 301                                           01 
00240010005000008REP       REP Member, State BoE, Dist 15                          Jay Johnson                           Precinct 302                                           01 
00240010006000022REP       REP Member, State BoE, Dist 15                          Jay Johnson                           Precinct 303                                           01 
00240010007000077REP       REP Member, State BoE, Dist 15                          Jay Johnson                           Precinct 401                                           01 
00240010008000034REP       REP Member, State BoE, Dist 15                          Jay Johnson                           Precinct 402                                           01 
00240020001000042REP       REP Member, State BoE, Dist 15                          Aaron Kinsey                          Precinct 101                                           01 
00240020002000032REP       REP Member, State BoE, Dist 15                          Aaron Kinsey                          Precinct 201                                           01 
00240020003000003REP       REP Member, State BoE, Dist 15                          Aaron Kinsey                          Precinct 202                                           01 
00240020004000066REP       REP Member, State BoE, Dist 15                          Aaron Kinsey                          Precinct 301                                           01 
00240020005000009REP       REP Member, State BoE, Dist 15                          Aaron Kinsey                          Precinct 302                                           01 
00240020006000013REP       REP Member, State BoE, Dist 15                          Aaron Kinsey                          Precinct 303                                           01 
00240020007000032REP       REP Member, State BoE, Dist 15                          Aaron Kinsey                          Precinct 401                                           01 
00240020008000012REP       REP Member, State BoE, Dist 15                          Aaron Kinsey                          Precinct 402                                           01 
00250010001000027REP       REP State Senator, Dist 31                              Jesse Quackenbush                     Precinct 101                                           01 
00250010002000022REP       REP State Senator, Dist 31                              Jesse Quackenbush                     Precinct 201                                           01 
00250010003000003REP       REP State Senator, Dist 31                              Jesse Quackenbush                     Precinct 202                                           01 
00250010004000030REP       REP State Senator, Dist 31                              Jesse Quackenbush                     Precinct 301                                           01 
00250010005000003REP       REP State Senator, Dist 31                              Jesse Quackenbush                     Precinct 302                                           01 
00250010006000002REP       REP State Senator, Dist 31                              Jesse Quackenbush                     Precinct 303                                           01 
00250010007000019REP       REP State Senator, Dist 31                              Jesse Quackenbush                     Precinct 401                                           01 
00250010008000017REP       REP State Senator, Dist 31                              Jesse Quackenbush                     Precinct 402                                           01 
00250020001000052REP       REP State Senator, Dist 31                              Kevin Sparks                          Precinct 101                                           01 
00250020002000044REP       REP State Senator, Dist 31                              Kevin Sparks                          Precinct 201                                           01 
00250020003000007REP       REP State Senator, Dist 31                              Kevin Sparks                          Precinct 202                                           01 
00250020004000096REP       REP State Senator, Dist 31                              Kevin Sparks                          Precinct 301                                           01 
00250020005000009REP       REP State Senator, Dist 31                              Kevin Sparks                          Precinct 302                                           01 
00250020006000020REP       REP State Senator, Dist 31                              Kevin Sparks                          Precinct 303                                           01 
00250020007000045REP       REP State Senator, Dist 31                              Kevin Sparks                          Precinct 401                                           01 
00250020008000016REP       REP State Senator, Dist 31                              Kevin Sparks                          Precinct 402                                           01 
00250030001000053REP       REP State Senator, Dist 31                              Tim Reid                              Precinct 101                                           01 
00250030002000054REP       REP State Senator, Dist 31                              Tim Reid                              Precinct 201                                           01 
00250030003000000REP       REP State Senator, Dist 31                              Tim Reid                              Precinct 202                                           01 
00250030004000065REP       REP State Senator, Dist 31                              Tim Reid                              Precinct 301                                           01 
00250030005000004REP       REP State Senator, Dist 31                              Tim Reid                              Precinct 302                                           01 
00250030006000007REP       REP State Senator, Dist 31                              Tim Reid                              Precinct 303                                           01 
00250030007000043REP       REP State Senator, Dist 31                              Tim Reid                              Precinct 401                                           01 
00250030008000013REP       REP State Senator, Dist 31                              Tim Reid                              Precinct 402                                           01 
00250040001000014REP       REP State Senator, Dist 31                              Stormy Bradley                        Precinct 101                                           01 
00250040002000023REP       REP State Senator, Dist 31                              Stormy Bradley                        Precinct 201                                           01 
00250040003000002REP       REP State Senator, Dist 31                              Stormy Bradley                        Precinct 202                                           01 
00250040004000039REP       REP State Senator, Dist 31                              Stormy Bradley                        Precinct 301                                           01 
00250040005000003REP       REP State Senator, Dist 31                              Stormy Bradley                        Precinct 302                                           01 
00250040006000009REP       REP State Senator, Dist 31                              Stormy Bradley                        Precinct 303                                           01 
00250040007000018REP       REP State Senator, Dist 31                              Stormy Bradley                        Precinct 401                                           01 
00250040008000012REP       REP State Senator, Dist 31                              Stormy Bradley                        Precinct 402                                           01 
00260010001000037REP       REP State Representative, Dist 88                       Ted Hutto                             Precinct 101                                           01 
00260010002000044REP       REP State Representative, Dist 88                       Ted Hutto                             Precinct 201                                           01 
00260010003000004REP       REP State Representative, Dist 88                       Ted Hutto                             Precinct 202                                           01 
00260010004000090REP       REP State Representative, Dist 88                       Ted Hutto                             Precinct 301                                           01 
00260010005000010REP       REP State Representative, Dist 88                       Ted Hutto                             Precinct 302                                           01 
00260010006000017REP       REP State Representative, Dist 88                       Ted Hutto                             Precinct 303                                           01 
00260010007000053REP       REP State Representative, Dist 88                       Ted Hutto                             Precinct 401                                           01 
00260010008000015REP       REP State Representative, Dist 88                       Ted Hutto                             Precinct 402                                           01 
00260020001000128REP       REP State Representative, Dist 88                       Ken King                              Precinct 101                                           01 
00260020002000128REP       REP State Representative, Dist 88                       Ken King                              Precinct 201                                           01 
00260020003000010REP       REP State Representative, Dist 88                       Ken King                              Precinct 202                                           01 
00260020004000172REP       REP State Representative, Dist 88                       Ken King                              Precinct 301                                           01 
00260020005000008REP       REP State Representative, Dist 88                       Ken King                              Precinct 302                                           01 
00260020006000025REP       REP State Representative, Dist 88                       Ken King                              Precinct 303                                           01 
00260020007000100REP       REP State Representative, Dist 88                       Ken King                              Precinct 401                                           01 
00260020008000050REP       REP State Representative, Dist 88                       Ken King                              Precinct 402                                           01 
00270010001000102REP       REP Justice, 7th Ct of App Dist, Pl 4                   Larry Doss                            Precinct 101                                           01 
00270010002000098REP       REP Justice, 7th Ct of App Dist, Pl 4                   Larry Doss                            Precinct 201                                           01 
00270010003000010REP       REP Justice, 7th Ct of App Dist, Pl 4                   Larry Doss                            Precinct 202                                           01 
00270010004000164REP       REP Justice, 7th Ct of App Dist, Pl 4                   Larry Doss                            Precinct 301                                           01 
00270010005000012REP       REP Justice, 7th Ct of App Dist, Pl 4                   Larry Doss                            Precinct 302                                           01 
00270010006000030REP       REP Justice, 7th Ct of App Dist, Pl 4                   Larry Doss                            Precinct 303                                           01 
00270010007000097REP       REP Justice, 7th Ct of App Dist, Pl 4                   Larry Doss                            Precinct 401                                           01 
00270010008000042REP       REP Justice, 7th Ct of App Dist, Pl 4                   Larry Doss                            Precinct 402                                           01 
00280010001000127REP       REP Dist Judge, 31st Judicial Dist                      Steven R. Emmert                      Precinct 101                                           01 
00280010002000133REP       REP Dist Judge, 31st Judicial Dist                      Steven R. Emmert                      Precinct 201                                           01 
00280010003000012REP       REP Dist Judge, 31st Judicial Dist                      Steven R. Emmert                      Precinct 202                                           01 
00280010004000202REP       REP Dist Judge, 31st Judicial Dist                      Steven R. Emmert                      Precinct 301                                           01 
00280010005000013REP       REP Dist Judge, 31st Judicial Dist                      Steven R. Emmert                      Precinct 302                                           01 
00280010006000034REP       REP Dist Judge, 31st Judicial Dist                      Steven R. Emmert                      Precinct 303                                           01 
00280010007000116REP       REP Dist Judge, 31st Judicial Dist                      Steven R. Emmert                      Precinct 401                                           01 
00280010008000049REP       REP Dist Judge, 31st Judicial Dist                      Steven R. Emmert                      Precinct 402                                           01 
00290010001000129REP       REP County Judge                                        Lisa Johnson                          Precinct 101                                           01 
00290010002000142REP       REP County Judge                                        Lisa Johnson                          Precinct 201                                           01 
00290010003000011REP       REP County Judge                                        Lisa Johnson                          Precinct 202                                           01 
00290010004000180REP       REP County Judge                                        Lisa Johnson                          Precinct 301                                           01 
00290010005000013REP       REP County Judge                                        Lisa Johnson                          Precinct 302                                           01 
00290010006000029REP       REP County Judge                                        Lisa Johnson                          Precinct 303                                           01 
00290010007000107REP       REP County Judge                                        Lisa Johnson                          Precinct 401                                           01 
00290010008000052REP       REP County Judge                                        Lisa Johnson                          Precinct 402                                           01 
00300010001000133REP       REP District and County Clerk                           Sylvia Guerrero                       Precinct 101                                           01 
00300010002000145REP       REP District and County Clerk                           Sylvia Guerrero                       Precinct 201                                           01 
00300010003000011REP       REP District and County Clerk                           Sylvia Guerrero                       Precinct 202                                           01 
00300010004000203REP       REP District and County Clerk                           Sylvia Guerrero                       Precinct 301                                           01 
00300010005000014REP       REP District and County Clerk                           Sylvia Guerrero                       Precinct 302                                           01 
00300010006000035REP       REP District and County Clerk                           Sylvia Guerrero                       Precinct 303                                           01 
00300010007000115REP       REP District and County Clerk                           Sylvia Guerrero                       Precinct 401                                           01 
00300010008000046REP       REP District and County Clerk                           Sylvia Guerrero                       Precinct 402                                           01 
00310010001000132REP       REP County Treasurer                                    Kay Smallwood                         Precinct 101                                           01 
00310010002000141REP       REP County Treasurer                                    Kay Smallwood                         Precinct 201                                           01 
00310010003000011REP       REP County Treasurer                                    Kay Smallwood                         Precinct 202                                           01 
00310010004000203REP       REP County Treasurer                                    Kay Smallwood                         Precinct 301                                           01 
00310010005000015REP       REP County Treasurer                                    Kay Smallwood                         Precinct 302                                           01 
00310010006000034REP       REP County Treasurer                                    Kay Smallwood                         Precinct 303                                           01 
00310010007000118REP       REP County Treasurer                                    Kay Smallwood                         Precinct 401                                           01 
00310010008000051REP       REP County Treasurer                                    Kay Smallwood                         Precinct 402                                           01 
00320010001000059REP       REP Justice of the Peace                                Kathy Dumbauld                        Precinct 101                                           01 
00320010002000064REP       REP Justice of the Peace                                Kathy Dumbauld                        Precinct 201                                           01 
00320010003000007REP       REP Justice of the Peace                                Kathy Dumbauld                        Precinct 202                                           01 
00320010004000095REP       REP Justice of the Peace                                Kathy Dumbauld                        Precinct 301                                           01 
00320010005000010REP       REP Justice of the Peace                                Kathy Dumbauld                        Precinct 302                                           01 
00320010006000010REP       REP Justice of the Peace                                Kathy Dumbauld                        Precinct 303                                           01 
00320010007000049REP       REP Justice of the Peace                                Kathy Dumbauld                        Precinct 401                                           01 
00320010008000026REP       REP Justice of the Peace                                Kathy Dumbauld                        Precinct 402                                           01 
00320020001000112REP       REP Justice of the Peace                                Jay Moseley                           Precinct 101                                           01 
00320020002000108REP       REP Justice of the Peace                                Jay Moseley                           Precinct 201                                           01 
00320020003000007REP       REP Justice of the Peace                                Jay Moseley                           Precinct 202                                           01 
00320020004000170REP       REP Justice of the Peace                                Jay Moseley                           Precinct 301                                           01 
00320020005000009REP       REP Justice of the Peace                                Jay Moseley                           Precinct 302                                           01 
00320020006000028REP       REP Justice of the Peace                                Jay Moseley                           Precinct 303                                           01 
00320020007000103REP       REP Justice of the Peace                                Jay Moseley                           Precinct 401                                           01 
00320020008000033REP       REP Justice of the Peace                                Jay Moseley                           Precinct 402                                           01 
