01020010001000320          BALLOTS CAST - TOTAL                                    BALLOTS CAST - TOTAL                  PRECINCT 1                                             00 
01020010002000493          BALLOTS CAST - TOTAL                                    BALLOTS CAST - TOTAL                  PRECINCT 2                                             00 
01020010003000563          BALLOTS CAST - TOTAL                                    BALLOTS CAST - TOTAL                  PRECINCT 3                                             00 
01020010004000706          BALLOTS CAST - TOTAL                                    BALLOTS CAST - TOTAL                  PRECINCT 4                                             00 
01030010001000265REP       BALLOTS CAST - REPUBLICAN PARTY                         BALLOTS CAST - REPUBLICAN PARTY       PRECINCT 1                                             00 
01030010002000438REP       BALLOTS CAST - REPUBLICAN PARTY                         BALLOTS CAST - REPUBLICAN PARTY       PRECINCT 2                                             00 
01030010003000536REP       BALLOTS CAST - REPUBLICAN PARTY                         BALLOTS CAST - REPUBLICAN PARTY       PRECINCT 3                                             00 
01030010004000653REP       BALLOTS CAST - REPUBLICAN PARTY                         BALLOTS CAST - REPUBLICAN PARTY       PRECINCT 4                                             00 
01040010001000055DEM       BALLOTS CAST - DEMOCRATIC PARTY                         BALLOTS CAST - DEMOCRATIC PARTY       PRECINCT 1                                             00 
01040010002000055DEM       BALLOTS CAST - DEMOCRATIC PARTY                         BALLOTS CAST - DEMOCRATIC PARTY       PRECINCT 2                                             00 
01040010003000027DEM       BALLOTS CAST - DEMOCRATIC PARTY                         BALLOTS CAST - DEMOCRATIC PARTY       PRECINCT 3                                             00 
01040010004000053DEM       BALLOTS CAST - DEMOCRATIC PARTY                         BALLOTS CAST - DEMOCRATIC PARTY       PRECINCT 4                                             00 
01050010001000217REP       US Representative, District 19                          Jodey C. Arrington                    PRECINCT 1                                             01 
01050010002000365REP       US Representative, District 19                          Jodey C. Arrington                    PRECINCT 2                                             01 
01050010003000439REP       US Representative, District 19                          Jodey C. Arrington                    PRECINCT 3                                             01 
01050010004000516REP       US Representative, District 19                          Jodey C. Arrington                    PRECINCT 4                                             01 
01050020001000000REP       US Representative, District 19                          OVER VOTES                            PRECINCT 1                                             01 
01050020002000000REP       US Representative, District 19                          OVER VOTES                            PRECINCT 2                                             01 
01050020003000000REP       US Representative, District 19                          OVER VOTES                            PRECINCT 3                                             01 
01050020004000000REP       US Representative, District 19                          OVER VOTES                            PRECINCT 4                                             01 
01050030001000048REP       US Representative, District 19                          UNDER VOTES                           PRECINCT 1                                             01 
01050030002000073REP       US Representative, District 19                          UNDER VOTES                           PRECINCT 2                                             01 
01050030003000097REP       US Representative, District 19                          UNDER VOTES                           PRECINCT 3                                             01 
01050030004000137REP       US Representative, District 19                          UNDER VOTES                           PRECINCT 4                                             01 
01060010001000020REP       Governor                                                Allen B. West                         PRECINCT 1                                             01 
01060010002000040REP       Governor                                                Allen B. West                         PRECINCT 2                                             01 
01060010003000047REP       Governor                                                Allen B. West                         PRECINCT 3                                             01 
01060010004000062REP       Governor                                                Allen B. West                         PRECINCT 4                                             01 
01060020001000019REP       Governor                                                Don Huffines                          PRECINCT 1                                             01 
01060020002000025REP       Governor                                                Don Huffines                          PRECINCT 2                                             01 
01060020003000060REP       Governor                                                Don Huffines                          PRECINCT 3                                             01 
01060020004000066REP       Governor                                                Don Huffines                          PRECINCT 4                                             01 
01060030001000005REP       Governor                                                Danny Harrison                        PRECINCT 1                                             01 
01060030002000004REP       Governor                                                Danny Harrison                        PRECINCT 2                                             01 
01060030003000002REP       Governor                                                Danny Harrison                        PRECINCT 3                                             01 
01060030004000004REP       Governor                                                Danny Harrison                        PRECINCT 4                                             01 
01060040001000019REP       Governor                                                Chad Prather                          PRECINCT 1                                             01 
01060040002000030REP       Governor                                                Chad Prather                          PRECINCT 2                                             01 
01060040003000046REP       Governor                                                Chad Prather                          PRECINCT 3                                             01 
01060040004000029REP       Governor                                                Chad Prather                          PRECINCT 4                                             01 
01060050001000000REP       Governor                                                Paul Belew                            PRECINCT 1                                             01 
01060050002000001REP       Governor                                                Paul Belew                            PRECINCT 2                                             01 
01060050003000000REP       Governor                                                Paul Belew                            PRECINCT 3                                             01 
01060050004000000REP       Governor                                                Paul Belew                            PRECINCT 4                                             01 
01060060001000010REP       Governor                                                Rick Perry                            PRECINCT 1                                             01 
01060060002000015REP       Governor                                                Rick Perry                            PRECINCT 2                                             01 
01060060003000006REP       Governor                                                Rick Perry                            PRECINCT 3                                             01 
01060060004000028REP       Governor                                                Rick Perry                            PRECINCT 4                                             01 
01060070001000001REP       Governor                                                Kandy Kaye Horn                       PRECINCT 1                                             01 
01060070002000001REP       Governor                                                Kandy Kaye Horn                       PRECINCT 2                                             01 
01060070003000005REP       Governor                                                Kandy Kaye Horn                       PRECINCT 3                                             01 
01060070004000011REP       Governor                                                Kandy Kaye Horn                       PRECINCT 4                                             01 
01060080001000186REP       Governor                                                Greg Abbott                           PRECINCT 1                                             01 
01060080002000314REP       Governor                                                Greg Abbott                           PRECINCT 2                                             01 
01060080003000364REP       Governor                                                Greg Abbott                           PRECINCT 3                                             01 
01060080004000445REP       Governor                                                Greg Abbott                           PRECINCT 4                                             01 
01060090001000000REP       Governor                                                OVER VOTES                            PRECINCT 1                                             01 
01060090002000000REP       Governor                                                OVER VOTES                            PRECINCT 2                                             01 
01060090003000000REP       Governor                                                OVER VOTES                            PRECINCT 3                                             01 
01060090004000000REP       Governor                                                OVER VOTES                            PRECINCT 4                                             01 
01060100001000005REP       Governor                                                UNDER VOTES                           PRECINCT 1                                             01 
01060100002000008REP       Governor                                                UNDER VOTES                           PRECINCT 2                                             01 
01060100003000006REP       Governor                                                UNDER VOTES                           PRECINCT 3                                             01 
01060100004000008REP       Governor                                                UNDER VOTES                           PRECINCT 4                                             01 
01070010001000186REP       Lieutenant Governor                                     Dan Patrick                           PRECINCT 1                                             01 
01070010002000336REP       Lieutenant Governor                                     Dan Patrick                           PRECINCT 2                                             01 
01070010003000379REP       Lieutenant Governor                                     Dan Patrick                           PRECINCT 3                                             01 
01070010004000485REP       Lieutenant Governor                                     Dan Patrick                           PRECINCT 4                                             01 
01070020001000008REP       Lieutenant Governor                                     Aaron Sorrells                        PRECINCT 1                                             01 
01070020002000015REP       Lieutenant Governor                                     Aaron Sorrells                        PRECINCT 2                                             01 
01070020003000020REP       Lieutenant Governor                                     Aaron Sorrells                        PRECINCT 3                                             01 
01070020004000033REP       Lieutenant Governor                                     Aaron Sorrells                        PRECINCT 4                                             01 
01070030001000002REP       Lieutenant Governor                                     Todd M. Bullis                        PRECINCT 1                                             01 
01070030002000004REP       Lieutenant Governor                                     Todd M. Bullis                        PRECINCT 2                                             01 
01070030003000014REP       Lieutenant Governor                                     Todd M. Bullis                        PRECINCT 3                                             01 
01070030004000007REP       Lieutenant Governor                                     Todd M. Bullis                        PRECINCT 4                                             01 
01070040001000020REP       Lieutenant Governor                                     Daniel Miller                         PRECINCT 1                                             01 
01070040002000026REP       Lieutenant Governor                                     Daniel Miller                         PRECINCT 2                                             01 
01070040003000037REP       Lieutenant Governor                                     Daniel Miller                         PRECINCT 3                                             01 
01070040004000040REP       Lieutenant Governor                                     Daniel Miller                         PRECINCT 4                                             01 
01070050001000004REP       Lieutenant Governor                                     Zach Vance                            PRECINCT 1                                             01 
01070050002000009REP       Lieutenant Governor                                     Zach Vance                            PRECINCT 2                                             01 
01070050003000008REP       Lieutenant Governor                                     Zach Vance                            PRECINCT 3                                             01 
01070050004000013REP       Lieutenant Governor                                     Zach Vance                            PRECINCT 4                                             01 
01070060001000014REP       Lieutenant Governor                                     Trayce Bradford                       PRECINCT 1                                             01 
01070060002000010REP       Lieutenant Governor                                     Trayce Bradford                       PRECINCT 2                                             01 
01070060003000033REP       Lieutenant Governor                                     Trayce Bradford                       PRECINCT 3                                             01 
01070060004000024REP       Lieutenant Governor                                     Trayce Bradford                       PRECINCT 4                                             01 
01070070001000000REP       Lieutenant Governor                                     OVER VOTES                            PRECINCT 1                                             01 
01070070002000000REP       Lieutenant Governor                                     OVER VOTES                            PRECINCT 2                                             01 
01070070003000000REP       Lieutenant Governor                                     OVER VOTES                            PRECINCT 3                                             01 
01070070004000000REP       Lieutenant Governor                                     OVER VOTES                            PRECINCT 4                                             01 
01070080001000031REP       Lieutenant Governor                                     UNDER VOTES                           PRECINCT 1                                             01 
01070080002000038REP       Lieutenant Governor                                     UNDER VOTES                           PRECINCT 2                                             01 
01070080003000045REP       Lieutenant Governor                                     UNDER VOTES                           PRECINCT 3                                             01 
01070080004000051REP       Lieutenant Governor                                     UNDER VOTES                           PRECINCT 4                                             01 
01080010001000067REP       Attorney General                                        George P. Bush                        PRECINCT 1                                             01 
01080010002000096REP       Attorney General                                        George P. Bush                        PRECINCT 2                                             01 
01080010003000088REP       Attorney General                                        George P. Bush                        PRECINCT 3                                             01 
01080010004000131REP       Attorney General                                        George P. Bush                        PRECINCT 4                                             01 
01080020001000050REP       Attorney General                                        Eva Guzman                            PRECINCT 1                                             01 
01080020002000093REP       Attorney General                                        Eva Guzman                            PRECINCT 2                                             01 
01080020003000103REP       Attorney General                                        Eva Guzman                            PRECINCT 3                                             01 
01080020004000145REP       Attorney General                                        Eva Guzman                            PRECINCT 4                                             01 
01080030001000106REP       Attorney General                                        Ken Paxton                            PRECINCT 1                                             01 
01080030002000176REP       Attorney General                                        Ken Paxton                            PRECINCT 2                                             01 
01080030003000271REP       Attorney General                                        Ken Paxton                            PRECINCT 3                                             01 
01080030004000283REP       Attorney General                                        Ken Paxton                            PRECINCT 4                                             01 
01080040001000026REP       Attorney General                                        Louie Gohmert                         PRECINCT 1                                             01 
01080040002000056REP       Attorney General                                        Louie Gohmert                         PRECINCT 2                                             01 
01080040003000047REP       Attorney General                                        Louie Gohmert                         PRECINCT 3                                             01 
01080040004000059REP       Attorney General                                        Louie Gohmert                         PRECINCT 4                                             01 
01080050001000000REP       Attorney General                                        OVER VOTES                            PRECINCT 1                                             01 
01080050002000000REP       Attorney General                                        OVER VOTES                            PRECINCT 2                                             01 
01080050003000000REP       Attorney General                                        OVER VOTES                            PRECINCT 3                                             01 
01080050004000000REP       Attorney General                                        OVER VOTES                            PRECINCT 4                                             01 
01080060001000016REP       Attorney General                                        UNDER VOTES                           PRECINCT 1                                             01 
01080060002000017REP       Attorney General                                        UNDER VOTES                           PRECINCT 2                                             01 
01080060003000027REP       Attorney General                                        UNDER VOTES                           PRECINCT 3                                             01 
01080060004000035REP       Attorney General                                        UNDER VOTES                           PRECINCT 4                                             01 
01090010001000180REP       Comptroller of Public Accounts                          Glenn Hegar                           PRECINCT 1                                             01 
01090010002000319REP       Comptroller of Public Accounts                          Glenn Hegar                           PRECINCT 2                                             01 
01090010003000366REP       Comptroller of Public Accounts                          Glenn Hegar                           PRECINCT 3                                             01 
01090010004000462REP       Comptroller of Public Accounts                          Glenn Hegar                           PRECINCT 4                                             01 
01090020001000027REP       Comptroller of Public Accounts                          Mark V. Goloby                        PRECINCT 1                                             01 
01090020002000045REP       Comptroller of Public Accounts                          Mark V. Goloby                        PRECINCT 2                                             01 
01090020003000064REP       Comptroller of Public Accounts                          Mark V. Goloby                        PRECINCT 3                                             01 
01090020004000076REP       Comptroller of Public Accounts                          Mark V. Goloby                        PRECINCT 4                                             01 
01090030001000000REP       Comptroller of Public Accounts                          OVER VOTES                            PRECINCT 1                                             01 
01090030002000000REP       Comptroller of Public Accounts                          OVER VOTES                            PRECINCT 2                                             01 
01090030003000000REP       Comptroller of Public Accounts                          OVER VOTES                            PRECINCT 3                                             01 
01090030004000000REP       Comptroller of Public Accounts                          OVER VOTES                            PRECINCT 4                                             01 
01090040001000058REP       Comptroller of Public Accounts                          UNDER VOTES                           PRECINCT 1                                             01 
01090040002000074REP       Comptroller of Public Accounts                          UNDER VOTES                           PRECINCT 2                                             01 
01090040003000106REP       Comptroller of Public Accounts                          UNDER VOTES                           PRECINCT 3                                             01 
01090040004000115REP       Comptroller of Public Accounts                          UNDER VOTES                           PRECINCT 4                                             01 
01100010001000115REP       Commissioner of the General Land Office                 Dawn Buckingham                       PRECINCT 1                                             01 
01100010002000229REP       Commissioner of the General Land Office                 Dawn Buckingham                       PRECINCT 2                                             01 
01100010003000263REP       Commissioner of the General Land Office                 Dawn Buckingham                       PRECINCT 3                                             01 
01100010004000337REP       Commissioner of the General Land Office                 Dawn Buckingham                       PRECINCT 4                                             01 
01100020001000006REP       Commissioner of the General Land Office                 Ben Armenta                           PRECINCT 1                                             01 
01100020002000002REP       Commissioner of the General Land Office                 Ben Armenta                           PRECINCT 2                                             01 
01100020003000011REP       Commissioner of the General Land Office                 Ben Armenta                           PRECINCT 3                                             01 
01100020004000011REP       Commissioner of the General Land Office                 Ben Armenta                           PRECINCT 4                                             01 
01100030001000008REP       Commissioner of the General Land Office                 Don W. Minton                         PRECINCT 1                                             01 
01100030002000015REP       Commissioner of the General Land Office                 Don W. Minton                         PRECINCT 2                                             01 
01100030003000017REP       Commissioner of the General Land Office                 Don W. Minton                         PRECINCT 3                                             01 
01100030004000025REP       Commissioner of the General Land Office                 Don W. Minton                         PRECINCT 4                                             01 
01100040001000012REP       Commissioner of the General Land Office                 Victor Avila                          PRECINCT 1                                             01 
01100040002000015REP       Commissioner of the General Land Office                 Victor Avila                          PRECINCT 2                                             01 
01100040003000011REP       Commissioner of the General Land Office                 Victor Avila                          PRECINCT 3                                             01 
01100040004000023REP       Commissioner of the General Land Office                 Victor Avila                          PRECINCT 4                                             01 
01100050001000010REP       Commissioner of the General Land Office                 Rufus Lopez                           PRECINCT 1                                             01 
01100050002000005REP       Commissioner of the General Land Office                 Rufus Lopez                           PRECINCT 2                                             01 
01100050003000006REP       Commissioner of the General Land Office                 Rufus Lopez                           PRECINCT 3                                             01 
01100050004000015REP       Commissioner of the General Land Office                 Rufus Lopez                           PRECINCT 4                                             01 
01100060001000011REP       Commissioner of the General Land Office                 Weston Martinez                       PRECINCT 1                                             01 
01100060002000012REP       Commissioner of the General Land Office                 Weston Martinez                       PRECINCT 2                                             01 
01100060003000015REP       Commissioner of the General Land Office                 Weston Martinez                       PRECINCT 3                                             01 
01100060004000017REP       Commissioner of the General Land Office                 Weston Martinez                       PRECINCT 4                                             01 
01100070001000019REP       Commissioner of the General Land Office                 Jon Spiers                            PRECINCT 1                                             01 
01100070002000040REP       Commissioner of the General Land Office                 Jon Spiers                            PRECINCT 2                                             01 
01100070003000053REP       Commissioner of the General Land Office                 Jon Spiers                            PRECINCT 3                                             01 
01100070004000062REP       Commissioner of the General Land Office                 Jon Spiers                            PRECINCT 4                                             01 
01100080001000028REP       Commissioner of the General Land Office                 Tim Westley                           PRECINCT 1                                             01 
01100080002000039REP       Commissioner of the General Land Office                 Tim Westley                           PRECINCT 2                                             01 
01100080003000058REP       Commissioner of the General Land Office                 Tim Westley                           PRECINCT 3                                             01 
01100080004000051REP       Commissioner of the General Land Office                 Tim Westley                           PRECINCT 4                                             01 
01100090001000000REP       Commissioner of the General Land Office                 OVER VOTES                            PRECINCT 1                                             01 
01100090002000000REP       Commissioner of the General Land Office                 OVER VOTES                            PRECINCT 2                                             01 
01100090003000000REP       Commissioner of the General Land Office                 OVER VOTES                            PRECINCT 3                                             01 
01100090004000000REP       Commissioner of the General Land Office                 OVER VOTES                            PRECINCT 4                                             01 
01100100001000056REP       Commissioner of the General Land Office                 UNDER VOTES                           PRECINCT 1                                             01 
01100100002000081REP       Commissioner of the General Land Office                 UNDER VOTES                           PRECINCT 2                                             01 
01100100003000102REP       Commissioner of the General Land Office                 UNDER VOTES                           PRECINCT 3                                             01 
01100100004000112REP       Commissioner of the General Land Office                 UNDER VOTES                           PRECINCT 4                                             01 
01110010001000075REP       Commissioner of Agriculture                             James White                           PRECINCT 1                                             01 
01110010002000081REP       Commissioner of Agriculture                             James White                           PRECINCT 2                                             01 
01110010003000121REP       Commissioner of Agriculture                             James White                           PRECINCT 3                                             01 
01110010004000166REP       Commissioner of Agriculture                             James White                           PRECINCT 4                                             01 
01110020001000011REP       Commissioner of Agriculture                             Carey A. Counsil                      PRECINCT 1                                             01 
01110020002000026REP       Commissioner of Agriculture                             Carey A. Counsil                      PRECINCT 2                                             01 
01110020003000025REP       Commissioner of Agriculture                             Carey A. Counsil                      PRECINCT 3                                             01 
01110020004000026REP       Commissioner of Agriculture                             Carey A. Counsil                      PRECINCT 4                                             01 
01110030001000136REP       Commissioner of Agriculture                             Sid Miller                            PRECINCT 1                                             01 
01110030002000277REP       Commissioner of Agriculture                             Sid Miller                            PRECINCT 2                                             01 
01110030003000313REP       Commissioner of Agriculture                             Sid Miller                            PRECINCT 3                                             01 
01110030004000377REP       Commissioner of Agriculture                             Sid Miller                            PRECINCT 4                                             01 
01110040001000000REP       Commissioner of Agriculture                             OVER VOTES                            PRECINCT 1                                             01 
01110040002000000REP       Commissioner of Agriculture                             OVER VOTES                            PRECINCT 2                                             01 
01110040003000000REP       Commissioner of Agriculture                             OVER VOTES                            PRECINCT 3                                             01 
01110040004000000REP       Commissioner of Agriculture                             OVER VOTES                            PRECINCT 4                                             01 
01110050001000043REP       Commissioner of Agriculture                             UNDER VOTES                           PRECINCT 1                                             01 
01110050002000054REP       Commissioner of Agriculture                             UNDER VOTES                           PRECINCT 2                                             01 
01110050003000077REP       Commissioner of Agriculture                             UNDER VOTES                           PRECINCT 3                                             01 
01110050004000084REP       Commissioner of Agriculture                             UNDER VOTES                           PRECINCT 4                                             01 
01120010001000092REP       Railroad Commissioner                                   Wayne Christian                       PRECINCT 1                                             01 
01120010002000174REP       Railroad Commissioner                                   Wayne Christian                       PRECINCT 2                                             01 
01120010003000203REP       Railroad Commissioner                                   Wayne Christian                       PRECINCT 3                                             01 
01120010004000239REP       Railroad Commissioner                                   Wayne Christian                       PRECINCT 4                                             01 
01120020001000023REP       Railroad Commissioner                                   Tom Slocum Jr                         PRECINCT 1                                             01 
01120020002000054REP       Railroad Commissioner                                   Tom Slocum Jr                         PRECINCT 2                                             01 
01120020003000050REP       Railroad Commissioner                                   Tom Slocum Jr                         PRECINCT 3                                             01 
01120020004000051REP       Railroad Commissioner                                   Tom Slocum Jr                         PRECINCT 4                                             01 
01120030001000029REP       Railroad Commissioner                                   Sarah Stogner                         PRECINCT 1                                             01 
01120030002000039REP       Railroad Commissioner                                   Sarah Stogner                         PRECINCT 2                                             01 
01120030003000044REP       Railroad Commissioner                                   Sarah Stogner                         PRECINCT 3                                             01 
01120030004000072REP       Railroad Commissioner                                   Sarah Stogner                         PRECINCT 4                                             01 
01120040001000024REP       Railroad Commissioner                                   Marvin "Sarge" Summers                PRECINCT 1                                             01 
01120040002000032REP       Railroad Commissioner                                   Marvin "Sarge" Summers                PRECINCT 2                                             01 
01120040003000049REP       Railroad Commissioner                                   Marvin "Sarge" Summers                PRECINCT 3                                             01 
01120040004000061REP       Railroad Commissioner                                   Marvin "Sarge" Summers                PRECINCT 4                                             01 
01120050001000030REP       Railroad Commissioner                                   Dawayne Tipton                        PRECINCT 1                                             01 
01120050002000037REP       Railroad Commissioner                                   Dawayne Tipton                        PRECINCT 2                                             01 
01120050003000055REP       Railroad Commissioner                                   Dawayne Tipton                        PRECINCT 3                                             01 
01120050004000078REP       Railroad Commissioner                                   Dawayne Tipton                        PRECINCT 4                                             01 
01120060001000000REP       Railroad Commissioner                                   OVER VOTES                            PRECINCT 1                                             01 
01120060002000000REP       Railroad Commissioner                                   OVER VOTES                            PRECINCT 2                                             01 
01120060003000000REP       Railroad Commissioner                                   OVER VOTES                            PRECINCT 3                                             01 
01120060004000000REP       Railroad Commissioner                                   OVER VOTES                            PRECINCT 4                                             01 
01120070001000067REP       Railroad Commissioner                                   UNDER VOTES                           PRECINCT 1                                             01 
01120070002000102REP       Railroad Commissioner                                   UNDER VOTES                           PRECINCT 2                                             01 
01120070003000135REP       Railroad Commissioner                                   UNDER VOTES                           PRECINCT 3                                             01 
01120070004000152REP       Railroad Commissioner                                   UNDER VOTES                           PRECINCT 4                                             01 
01130010001000192REP       Justice, Supreme Court, P3                              Debra Lehrmann                        PRECINCT 1                                             01 
01130010002000311REP       Justice, Supreme Court, P3                              Debra Lehrmann                        PRECINCT 2                                             01 
01130010003000371REP       Justice, Supreme Court, P3                              Debra Lehrmann                        PRECINCT 3                                             01 
01130010004000453REP       Justice, Supreme Court, P3                              Debra Lehrmann                        PRECINCT 4                                             01 
01130020001000000REP       Justice, Supreme Court, P3                              OVER VOTES                            PRECINCT 1                                             01 
01130020002000000REP       Justice, Supreme Court, P3                              OVER VOTES                            PRECINCT 2                                             01 
01130020003000000REP       Justice, Supreme Court, P3                              OVER VOTES                            PRECINCT 3                                             01 
01130020004000000REP       Justice, Supreme Court, P3                              OVER VOTES                            PRECINCT 4                                             01 
01130030001000073REP       Justice, Supreme Court, P3                              UNDER VOTES                           PRECINCT 1                                             01 
01130030002000127REP       Justice, Supreme Court, P3                              UNDER VOTES                           PRECINCT 2                                             01 
01130030003000165REP       Justice, Supreme Court, P3                              UNDER VOTES                           PRECINCT 3                                             01 
01130030004000200REP       Justice, Supreme Court, P3                              UNDER VOTES                           PRECINCT 4                                             01 
01140010001000192REP       Justice, Supreme Court, P5                              Rebeca Huddle                         PRECINCT 1                                             01 
01140010002000303REP       Justice, Supreme Court, P5                              Rebeca Huddle                         PRECINCT 2                                             01 
01140010003000369REP       Justice, Supreme Court, P5                              Rebeca Huddle                         PRECINCT 3                                             01 
01140010004000448REP       Justice, Supreme Court, P5                              Rebeca Huddle                         PRECINCT 4                                             01 
01140020001000000REP       Justice, Supreme Court, P5                              OVER VOTES                            PRECINCT 1                                             01 
01140020002000000REP       Justice, Supreme Court, P5                              OVER VOTES                            PRECINCT 2                                             01 
01140020003000000REP       Justice, Supreme Court, P5                              OVER VOTES                            PRECINCT 3                                             01 
01140020004000000REP       Justice, Supreme Court, P5                              OVER VOTES                            PRECINCT 4                                             01 
01140030001000073REP       Justice, Supreme Court, P5                              UNDER VOTES                           PRECINCT 1                                             01 
01140030002000135REP       Justice, Supreme Court, P5                              UNDER VOTES                           PRECINCT 2                                             01 
01140030003000167REP       Justice, Supreme Court, P5                              UNDER VOTES                           PRECINCT 3                                             01 
01140030004000205REP       Justice, Supreme Court, P5                              UNDER VOTES                           PRECINCT 4                                             01 
01150010001000089REP       Justice, Supreme Court, P9                              David J. Schenck                      PRECINCT 1                                             01 
01150010002000146REP       Justice, Supreme Court, P9                              David J. Schenck                      PRECINCT 2                                             01 
01150010003000157REP       Justice, Supreme Court, P9                              David J. Schenck                      PRECINCT 3                                             01 
01150010004000217REP       Justice, Supreme Court, P9                              David J. Schenck                      PRECINCT 4                                             01 
01150020001000101REP       Justice, Supreme Court, P9                              Evan Young                            PRECINCT 1                                             01 
01150020002000178REP       Justice, Supreme Court, P9                              Evan Young                            PRECINCT 2                                             01 
01150020003000223REP       Justice, Supreme Court, P9                              Evan Young                            PRECINCT 3                                             01 
01150020004000259REP       Justice, Supreme Court, P9                              Evan Young                            PRECINCT 4                                             01 
01150030001000000REP       Justice, Supreme Court, P9                              OVER VOTES                            PRECINCT 1                                             01 
01150030002000000REP       Justice, Supreme Court, P9                              OVER VOTES                            PRECINCT 2                                             01 
01150030003000000REP       Justice, Supreme Court, P9                              OVER VOTES                            PRECINCT 3                                             01 
01150030004000000REP       Justice, Supreme Court, P9                              OVER VOTES                            PRECINCT 4                                             01 
01150040001000075REP       Justice, Supreme Court, P9                              UNDER VOTES                           PRECINCT 1                                             01 
01150040002000114REP       Justice, Supreme Court, P9                              UNDER VOTES                           PRECINCT 2                                             01 
01150040003000156REP       Justice, Supreme Court, P9                              UNDER VOTES                           PRECINCT 3                                             01 
01150040004000177REP       Justice, Supreme Court, P9                              UNDER VOTES                           PRECINCT 4                                             01 
01160010001000185REP       Judge, Ct of Crim Appeals, P2                           Mary Lou Keel                         PRECINCT 1                                             01 
01160010002000299REP       Judge, Ct of Crim Appeals, P2                           Mary Lou Keel                         PRECINCT 2                                             01 
01160010003000361REP       Judge, Ct of Crim Appeals, P2                           Mary Lou Keel                         PRECINCT 3                                             01 
01160010004000447REP       Judge, Ct of Crim Appeals, P2                           Mary Lou Keel                         PRECINCT 4                                             01 
01160020001000000REP       Judge, Ct of Crim Appeals, P2                           OVER VOTES                            PRECINCT 1                                             01 
01160020002000000REP       Judge, Ct of Crim Appeals, P2                           OVER VOTES                            PRECINCT 2                                             01 
01160020003000000REP       Judge, Ct of Crim Appeals, P2                           OVER VOTES                            PRECINCT 3                                             01 
01160020004000000REP       Judge, Ct of Crim Appeals, P2                           OVER VOTES                            PRECINCT 4                                             01 
01160030001000080REP       Judge, Ct of Crim Appeals, P2                           UNDER VOTES                           PRECINCT 1                                             01 
01160030002000139REP       Judge, Ct of Crim Appeals, P2                           UNDER VOTES                           PRECINCT 2                                             01 
01160030003000175REP       Judge, Ct of Crim Appeals, P2                           UNDER VOTES                           PRECINCT 3                                             01 
01160030004000206REP       Judge, Ct of Crim Appeals, P2                           UNDER VOTES                           PRECINCT 4                                             01 
01170010001000137REP       Judge, Ct of Crim Appeals, P5                           Scott Walker                          PRECINCT 1                                             01 
01170010002000236REP       Judge, Ct of Crim Appeals, P5                           Scott Walker                          PRECINCT 2                                             01 
01170010003000239REP       Judge, Ct of Crim Appeals, P5                           Scott Walker                          PRECINCT 3                                             01 
01170010004000332REP       Judge, Ct of Crim Appeals, P5                           Scott Walker                          PRECINCT 4                                             01 
01170020001000045REP       Judge, Ct of Crim Appeals, P5                           Clint Morgan                          PRECINCT 1                                             01 
01170020002000089REP       Judge, Ct of Crim Appeals, P5                           Clint Morgan                          PRECINCT 2                                             01 
01170020003000143REP       Judge, Ct of Crim Appeals, P5                           Clint Morgan                          PRECINCT 3                                             01 
01170020004000151REP       Judge, Ct of Crim Appeals, P5                           Clint Morgan                          PRECINCT 4                                             01 
01170030001000000REP       Judge, Ct of Crim Appeals, P5                           OVER VOTES                            PRECINCT 1                                             01 
01170030002000000REP       Judge, Ct of Crim Appeals, P5                           OVER VOTES                            PRECINCT 2                                             01 
01170030003000000REP       Judge, Ct of Crim Appeals, P5                           OVER VOTES                            PRECINCT 3                                             01 
01170030004000000REP       Judge, Ct of Crim Appeals, P5                           OVER VOTES                            PRECINCT 4                                             01 
01170040001000083REP       Judge, Ct of Crim Appeals, P5                           UNDER VOTES                           PRECINCT 1                                             01 
01170040002000113REP       Judge, Ct of Crim Appeals, P5                           UNDER VOTES                           PRECINCT 2                                             01 
01170040003000154REP       Judge, Ct of Crim Appeals, P5                           UNDER VOTES                           PRECINCT 3                                             01 
01170040004000170REP       Judge, Ct of Crim Appeals, P5                           UNDER VOTES                           PRECINCT 4                                             01 
01180010001000176REP       Judge, Ct of Crim Appeals, P6                           Jesse F. McClure, III                 PRECINCT 1                                             01 
01180010002000287REP       Judge, Ct of Crim Appeals, P6                           Jesse F. McClure, III                 PRECINCT 2                                             01 
01180010003000361REP       Judge, Ct of Crim Appeals, P6                           Jesse F. McClure, III                 PRECINCT 3                                             01 
01180010004000434REP       Judge, Ct of Crim Appeals, P6                           Jesse F. McClure, III                 PRECINCT 4                                             01 
01180020001000000REP       Judge, Ct of Crim Appeals, P6                           OVER VOTES                            PRECINCT 1                                             01 
01180020002000000REP       Judge, Ct of Crim Appeals, P6                           OVER VOTES                            PRECINCT 2                                             01 
01180020003000000REP       Judge, Ct of Crim Appeals, P6                           OVER VOTES                            PRECINCT 3                                             01 
01180020004000000REP       Judge, Ct of Crim Appeals, P6                           OVER VOTES                            PRECINCT 4                                             01 
01180030001000089REP       Judge, Ct of Crim Appeals, P6                           UNDER VOTES                           PRECINCT 1                                             01 
01180030002000151REP       Judge, Ct of Crim Appeals, P6                           UNDER VOTES                           PRECINCT 2                                             01 
01180030003000175REP       Judge, Ct of Crim Appeals, P6                           UNDER VOTES                           PRECINCT 3                                             01 
01180030004000219REP       Judge, Ct of Crim Appeals, P6                           UNDER VOTES                           PRECINCT 4                                             01 
01190010001000093REP       Member, State BoE, Dist 15                              Aaron Kinsey                          PRECINCT 1                                             01 
01190010002000174REP       Member, State BoE, Dist 15                              Aaron Kinsey                          PRECINCT 2                                             01 
01190010003000202REP       Member, State BoE, Dist 15                              Aaron Kinsey                          PRECINCT 3                                             01 
01190010004000255REP       Member, State BoE, Dist 15                              Aaron Kinsey                          PRECINCT 4                                             01 
01190020001000089REP       Member, State BoE, Dist 15                              Jay Johnson                           PRECINCT 1                                             01 
01190020002000143REP       Member, State BoE, Dist 15                              Jay Johnson                           PRECINCT 2                                             01 
01190020003000177REP       Member, State BoE, Dist 15                              Jay Johnson                           PRECINCT 3                                             01 
01190020004000237REP       Member, State BoE, Dist 15                              Jay Johnson                           PRECINCT 4                                             01 
01190030001000000REP       Member, State BoE, Dist 15                              OVER VOTES                            PRECINCT 1                                             01 
01190030002000000REP       Member, State BoE, Dist 15                              OVER VOTES                            PRECINCT 2                                             01 
01190030003000000REP       Member, State BoE, Dist 15                              OVER VOTES                            PRECINCT 3                                             01 
01190030004000000REP       Member, State BoE, Dist 15                              OVER VOTES                            PRECINCT 4                                             01 
01190040001000083REP       Member, State BoE, Dist 15                              UNDER VOTES                           PRECINCT 1                                             01 
01190040002000121REP       Member, State BoE, Dist 15                              UNDER VOTES                           PRECINCT 2                                             01 
01190040003000157REP       Member, State BoE, Dist 15                              UNDER VOTES                           PRECINCT 3                                             01 
01190040004000161REP       Member, State BoE, Dist 15                              UNDER VOTES                           PRECINCT 4                                             01 
01200010001000198REP       State Senator, District 28                              Charles Perry                         PRECINCT 1                                             01 
01200010002000311REP       State Senator, District 28                              Charles Perry                         PRECINCT 2                                             01 
01200010003000385REP       State Senator, District 28                              Charles Perry                         PRECINCT 3                                             01 
01200010004000463REP       State Senator, District 28                              Charles Perry                         PRECINCT 4                                             01 
01200020001000000REP       State Senator, District 28                              OVER VOTES                            PRECINCT 1                                             01 
01200020002000000REP       State Senator, District 28                              OVER VOTES                            PRECINCT 2                                             01 
01200020003000000REP       State Senator, District 28                              OVER VOTES                            PRECINCT 3                                             01 
01200020004000000REP       State Senator, District 28                              OVER VOTES                            PRECINCT 4                                             01 
01200030001000067REP       State Senator, District 28                              UNDER VOTES                           PRECINCT 1                                             01 
01200030002000127REP       State Senator, District 28                              UNDER VOTES                           PRECINCT 2                                             01 
01200030003000151REP       State Senator, District 28                              UNDER VOTES                           PRECINCT 3                                             01 
01200030004000190REP       State Senator, District 28                              UNDER VOTES                           PRECINCT 4                                             01 
01210010001000171REP       State Representative, District 71                       Stan Lambert                          PRECINCT 1                                             01 
01210010002000337REP       State Representative, District 71                       Stan Lambert                          PRECINCT 2                                             01 
01210010003000351REP       State Representative, District 71                       Stan Lambert                          PRECINCT 3                                             01 
01210010004000440REP       State Representative, District 71                       Stan Lambert                          PRECINCT 4                                             01 
01210020001000056REP       State Representative, District 71                       Samuel Weatherby                      PRECINCT 1                                             01 
01210020002000059REP       State Representative, District 71                       Samuel Weatherby                      PRECINCT 2                                             01 
01210020003000125REP       State Representative, District 71                       Samuel Weatherby                      PRECINCT 3                                             01 
01210020004000147REP       State Representative, District 71                       Samuel Weatherby                      PRECINCT 4                                             01 
01210030001000000REP       State Representative, District 71                       OVER VOTES                            PRECINCT 1                                             01 
01210030002000000REP       State Representative, District 71                       OVER VOTES                            PRECINCT 2                                             01 
01210030003000000REP       State Representative, District 71                       OVER VOTES                            PRECINCT 3                                             01 
01210030004000000REP       State Representative, District 71                       OVER VOTES                            PRECINCT 4                                             01 
01210040001000038REP       State Representative, District 71                       UNDER VOTES                           PRECINCT 1                                             01 
01210040002000042REP       State Representative, District 71                       UNDER VOTES                           PRECINCT 2                                             01 
01210040003000060REP       State Representative, District 71                       UNDER VOTES                           PRECINCT 3                                             01 
01210040004000066REP       State Representative, District 71                       UNDER VOTES                           PRECINCT 4                                             01 
01220010001000177REP       Justice, 11th Ct of App Dist, Pl 3                      W. Stacy Trotter                      PRECINCT 1                                             01 
01220010002000290REP       Justice, 11th Ct of App Dist, Pl 3                      W. Stacy Trotter                      PRECINCT 2                                             01 
01220010003000367REP       Justice, 11th Ct of App Dist, Pl 3                      W. Stacy Trotter                      PRECINCT 3                                             01 
01220010004000435REP       Justice, 11th Ct of App Dist, Pl 3                      W. Stacy Trotter                      PRECINCT 4                                             01 
01220020001000000REP       Justice, 11th Ct of App Dist, Pl 3                      OVER VOTES                            PRECINCT 1                                             01 
01220020002000000REP       Justice, 11th Ct of App Dist, Pl 3                      OVER VOTES                            PRECINCT 2                                             01 
01220020003000000REP       Justice, 11th Ct of App Dist, Pl 3                      OVER VOTES                            PRECINCT 3                                             01 
01220020004000000REP       Justice, 11th Ct of App Dist, Pl 3                      OVER VOTES                            PRECINCT 4                                             01 
01220030001000088REP       Justice, 11th Ct of App Dist, Pl 3                      UNDER VOTES                           PRECINCT 1                                             01 
01220030002000148REP       Justice, 11th Ct of App Dist, Pl 3                      UNDER VOTES                           PRECINCT 2                                             01 
01220030003000169REP       Justice, 11th Ct of App Dist, Pl 3                      UNDER VOTES                           PRECINCT 3                                             01 
01220030004000218REP       Justice, 11th Ct of App Dist, Pl 3                      UNDER VOTES                           PRECINCT 4                                             01 
01230010001000199REP       County Judge                                            Dale Spurgin                          PRECINCT 1                                             01 
01230010002000323REP       County Judge                                            Dale Spurgin                          PRECINCT 2                                             01 
01230010003000394REP       County Judge                                            Dale Spurgin                          PRECINCT 3                                             01 
01230010004000484REP       County Judge                                            Dale Spurgin                          PRECINCT 4                                             01 
01230020001000000REP       County Judge                                            OVER VOTES                            PRECINCT 1                                             01 
01230020002000000REP       County Judge                                            OVER VOTES                            PRECINCT 2                                             01 
01230020003000000REP       County Judge                                            OVER VOTES                            PRECINCT 3                                             01 
01230020004000000REP       County Judge                                            OVER VOTES                            PRECINCT 4                                             01 
01230030001000066REP       County Judge                                            UNDER VOTES                           PRECINCT 1                                             01 
01230030002000115REP       County Judge                                            UNDER VOTES                           PRECINCT 2                                             01 
01230030003000142REP       County Judge                                            UNDER VOTES                           PRECINCT 3                                             01 
01230030004000169REP       County Judge                                            UNDER VOTES                           PRECINCT 4                                             01 
01240010001000206REP       District Clerk                                          Lacey Hansen                          PRECINCT 1                                             01 
01240010002000329REP       District Clerk                                          Lacey Hansen                          PRECINCT 2                                             01 
01240010003000378REP       District Clerk                                          Lacey Hansen                          PRECINCT 3                                             01 
01240010004000482REP       District Clerk                                          Lacey Hansen                          PRECINCT 4                                             01 
01240020001000000REP       District Clerk                                          OVER VOTES                            PRECINCT 1                                             01 
01240020002000000REP       District Clerk                                          OVER VOTES                            PRECINCT 2                                             01 
01240020003000000REP       District Clerk                                          OVER VOTES                            PRECINCT 3                                             01 
01240020004000000REP       District Clerk                                          OVER VOTES                            PRECINCT 4                                             01 
01240030001000059REP       District Clerk                                          UNDER VOTES                           PRECINCT 1                                             01 
01240030002000109REP       District Clerk                                          UNDER VOTES                           PRECINCT 2                                             01 
01240030003000158REP       District Clerk                                          UNDER VOTES                           PRECINCT 3                                             01 
01240030004000171REP       District Clerk                                          UNDER VOTES                           PRECINCT 4                                             01 
01250010001000221REP       County Clerk                                            LeeAnn Jennings                       PRECINCT 1                                             01 
01250010002000339REP       County Clerk                                            LeeAnn Jennings                       PRECINCT 2                                             01 
01250010003000392REP       County Clerk                                            LeeAnn Jennings                       PRECINCT 3                                             01 
01250010004000498REP       County Clerk                                            LeeAnn Jennings                       PRECINCT 4                                             01 
01250020001000000REP       County Clerk                                            OVER VOTES                            PRECINCT 1                                             01 
01250020002000000REP       County Clerk                                            OVER VOTES                            PRECINCT 2                                             01 
01250020003000000REP       County Clerk                                            OVER VOTES                            PRECINCT 3                                             01 
01250020004000000REP       County Clerk                                            OVER VOTES                            PRECINCT 4                                             01 
01250030001000044REP       County Clerk                                            UNDER VOTES                           PRECINCT 1                                             01 
01250030002000099REP       County Clerk                                            UNDER VOTES                           PRECINCT 2                                             01 
01250030003000144REP       County Clerk                                            UNDER VOTES                           PRECINCT 3                                             01 
01250030004000155REP       County Clerk                                            UNDER VOTES                           PRECINCT 4                                             01 
01260010001000197REP       County Treasurer                                        Sandy Taber                           PRECINCT 1                                             01 
01260010002000317REP       County Treasurer                                        Sandy Taber                           PRECINCT 2                                             01 
01260010003000368REP       County Treasurer                                        Sandy Taber                           PRECINCT 3                                             01 
01260010004000463REP       County Treasurer                                        Sandy Taber                           PRECINCT 4                                             01 
01260020001000000REP       County Treasurer                                        OVER VOTES                            PRECINCT 1                                             01 
01260020002000000REP       County Treasurer                                        OVER VOTES                            PRECINCT 2                                             01 
01260020003000000REP       County Treasurer                                        OVER VOTES                            PRECINCT 3                                             01 
01260020004000000REP       County Treasurer                                        OVER VOTES                            PRECINCT 4                                             01 
01260030001000068REP       County Treasurer                                        UNDER VOTES                           PRECINCT 1                                             01 
01260030002000121REP       County Treasurer                                        UNDER VOTES                           PRECINCT 2                                             01 
01260030003000168REP       County Treasurer                                        UNDER VOTES                           PRECINCT 3                                             01 
01260030004000190REP       County Treasurer                                        UNDER VOTES                           PRECINCT 4                                             01 
01270010001000204REP       Justice of the Peace                                    Cheryl Guernsey                       PRECINCT 1                                             01 
01270010002000326REP       Justice of the Peace                                    Cheryl Guernsey                       PRECINCT 2                                             01 
01270010003000377REP       Justice of the Peace                                    Cheryl Guernsey                       PRECINCT 3                                             01 
01270010004000485REP       Justice of the Peace                                    Cheryl Guernsey                       PRECINCT 4                                             01 
01270020001000000REP       Justice of the Peace                                    OVER VOTES                            PRECINCT 1                                             01 
01270020002000000REP       Justice of the Peace                                    OVER VOTES                            PRECINCT 2                                             01 
01270020003000000REP       Justice of the Peace                                    OVER VOTES                            PRECINCT 3                                             01 
01270020004000000REP       Justice of the Peace                                    OVER VOTES                            PRECINCT 4                                             01 
01270030001000061REP       Justice of the Peace                                    UNDER VOTES                           PRECINCT 1                                             01 
01270030002000112REP       Justice of the Peace                                    UNDER VOTES                           PRECINCT 2                                             01 
01270030003000159REP       Justice of the Peace                                    UNDER VOTES                           PRECINCT 3                                             01 
01270030004000168REP       Justice of the Peace                                    UNDER VOTES                           PRECINCT 4                                             01 
01280010002000327REP       County Commissioner, Precinct No. 2                     Lonnie Vivian                         PRECINCT 2                                             01 
01280020002000000REP       County Commissioner, Precinct No. 2                     OVER VOTES                            PRECINCT 2                                             01 
01280030002000111REP       County Commissioner, Precinct No. 2                     UNDER VOTES                           PRECINCT 2                                             01 
01290010004000360REP       County Commissioner, Precinct No. 4                     Joel Spraberry                        PRECINCT 4                                             01 
01290020004000247REP       County Commissioner, Precinct No. 4                     Anthony Ramos                         PRECINCT 4                                             01 
01290030004000000REP       County Commissioner, Precinct No. 4                     OVER VOTES                            PRECINCT 4                                             01 
01290040004000046REP       County Commissioner, Precinct No. 4                     UNDER VOTES                           PRECINCT 4                                             01 
01300010001000196REP       County Chair                                            W. B. Harrison III                    PRECINCT 1                                             01 
01300010002000329REP       County Chair                                            W. B. Harrison III                    PRECINCT 2                                             01 
01300010003000370REP       County Chair                                            W. B. Harrison III                    PRECINCT 3                                             01 
01300010004000456REP       County Chair                                            W. B. Harrison III                    PRECINCT 4                                             01 
01300020001000000REP       County Chair                                            OVER VOTES                            PRECINCT 1                                             01 
01300020002000000REP       County Chair                                            OVER VOTES                            PRECINCT 2                                             01 
01300020003000000REP       County Chair                                            OVER VOTES                            PRECINCT 3                                             01 
01300020004000000REP       County Chair                                            OVER VOTES                            PRECINCT 4                                             01 
01300030001000069REP       County Chair                                            UNDER VOTES                           PRECINCT 1                                             01 
01300030002000109REP       County Chair                                            UNDER VOTES                           PRECINCT 2                                             01 
01300030003000166REP       County Chair                                            UNDER VOTES                           PRECINCT 3                                             01 
01300030004000197REP       County Chair                                            UNDER VOTES                           PRECINCT 4                                             01 
01310010001000003DEM       Governor                                                Joy Diaz                              PRECINCT 1                                             01 
01310010002000003DEM       Governor                                                Joy Diaz                              PRECINCT 2                                             01 
01310010003000003DEM       Governor                                                Joy Diaz                              PRECINCT 3                                             01 
01310010004000001DEM       Governor                                                Joy Diaz                              PRECINCT 4                                             01 
01310020001000001DEM       Governor                                                Inocencio (Inno) Barrientez           PRECINCT 1                                             01 
01310020002000001DEM       Governor                                                Inocencio (Inno) Barrientez           PRECINCT 2                                             01 
01310020003000001DEM       Governor                                                Inocencio (Inno) Barrientez           PRECINCT 3                                             01 
01310020004000001DEM       Governor                                                Inocencio (Inno) Barrientez           PRECINCT 4                                             01 
01310030001000048DEM       Governor                                                Beto O'Rourke                         PRECINCT 1                                             01 
01310030002000048DEM       Governor                                                Beto O'Rourke                         PRECINCT 2                                             01 
01310030003000018DEM       Governor                                                Beto O'Rourke                         PRECINCT 3                                             01 
01310030004000046DEM       Governor                                                Beto O'Rourke                         PRECINCT 4                                             01 
01310040001000001DEM       Governor                                                Michael Cooper                        PRECINCT 1                                             01 
01310040002000002DEM       Governor                                                Michael Cooper                        PRECINCT 2                                             01 
01310040003000001DEM       Governor                                                Michael Cooper                        PRECINCT 3                                             01 
01310040004000002DEM       Governor                                                Michael Cooper                        PRECINCT 4                                             01 
01310050001000001DEM       Governor                                                Rich Wakeland                         PRECINCT 1                                             01 
01310050002000000DEM       Governor                                                Rich Wakeland                         PRECINCT 2                                             01 
01310050003000001DEM       Governor                                                Rich Wakeland                         PRECINCT 3                                             01 
01310050004000002DEM       Governor                                                Rich Wakeland                         PRECINCT 4                                             01 
01310060001000000DEM       Governor                                                OVER VOTES                            PRECINCT 1                                             01 
01310060002000000DEM       Governor                                                OVER VOTES                            PRECINCT 2                                             01 
01310060003000000DEM       Governor                                                OVER VOTES                            PRECINCT 3                                             01 
01310060004000000DEM       Governor                                                OVER VOTES                            PRECINCT 4                                             01 
01310070001000001DEM       Governor                                                UNDER VOTES                           PRECINCT 1                                             01 
01310070002000001DEM       Governor                                                UNDER VOTES                           PRECINCT 2                                             01 
01310070003000003DEM       Governor                                                UNDER VOTES                           PRECINCT 3                                             01 
01310070004000001DEM       Governor                                                UNDER VOTES                           PRECINCT 4                                             01 
01320010001000013DEM       Lieutenant Governor                                     Michelle Beckley                      PRECINCT 1                                             01 
01320010002000012DEM       Lieutenant Governor                                     Michelle Beckley                      PRECINCT 2                                             01 
01320010003000009DEM       Lieutenant Governor                                     Michelle Beckley                      PRECINCT 3                                             01 
01320010004000017DEM       Lieutenant Governor                                     Michelle Beckley                      PRECINCT 4                                             01 
01320020001000014DEM       Lieutenant Governor                                     Carla Brailey                         PRECINCT 1                                             01 
01320020002000013DEM       Lieutenant Governor                                     Carla Brailey                         PRECINCT 2                                             01 
01320020003000003DEM       Lieutenant Governor                                     Carla Brailey                         PRECINCT 3                                             01 
01320020004000010DEM       Lieutenant Governor                                     Carla Brailey                         PRECINCT 4                                             01 
01320030001000022DEM       Lieutenant Governor                                     Mike Collier                          PRECINCT 1                                             01 
01320030002000024DEM       Lieutenant Governor                                     Mike Collier                          PRECINCT 2                                             01 
01320030003000012DEM       Lieutenant Governor                                     Mike Collier                          PRECINCT 3                                             01 
01320030004000023DEM       Lieutenant Governor                                     Mike Collier                          PRECINCT 4                                             01 
01320040001000000DEM       Lieutenant Governor                                     OVER VOTES                            PRECINCT 1                                             01 
01320040002000000DEM       Lieutenant Governor                                     OVER VOTES                            PRECINCT 2                                             01 
01320040003000000DEM       Lieutenant Governor                                     OVER VOTES                            PRECINCT 3                                             01 
01320040004000000DEM       Lieutenant Governor                                     OVER VOTES                            PRECINCT 4                                             01 
01320050001000006DEM       Lieutenant Governor                                     UNDER VOTES                           PRECINCT 1                                             01 
01320050002000006DEM       Lieutenant Governor                                     UNDER VOTES                           PRECINCT 2                                             01 
01320050003000003DEM       Lieutenant Governor                                     UNDER VOTES                           PRECINCT 3                                             01 
01320050004000003DEM       Lieutenant Governor                                     UNDER VOTES                           PRECINCT 4                                             01 
01330010001000003DEM       Attorney General                                        S. "TBONE" Raynor                     PRECINCT 1                                             01 
01330010002000010DEM       Attorney General                                        S. "TBONE" Raynor                     PRECINCT 2                                             01 
01330010003000007DEM       Attorney General                                        S. "TBONE" Raynor                     PRECINCT 3                                             01 
01330010004000002DEM       Attorney General                                        S. "TBONE" Raynor                     PRECINCT 4                                             01 
01330020001000012DEM       Attorney General                                        Joe Jaworski                          PRECINCT 1                                             01 
01330020002000008DEM       Attorney General                                        Joe Jaworski                          PRECINCT 2                                             01 
01330020003000008DEM       Attorney General                                        Joe Jaworski                          PRECINCT 3                                             01 
01330020004000016DEM       Attorney General                                        Joe Jaworski                          PRECINCT 4                                             01 
01330030001000022DEM       Attorney General                                        Rochelle Mercedes Garza               PRECINCT 1                                             01 
01330030002000017DEM       Attorney General                                        Rochelle Mercedes Garza               PRECINCT 2                                             01 
01330030003000008DEM       Attorney General                                        Rochelle Mercedes Garza               PRECINCT 3                                             01 
01330030004000018DEM       Attorney General                                        Rochelle Mercedes Garza               PRECINCT 4                                             01 
01330040001000009DEM       Attorney General                                        Mike Fields                           PRECINCT 1                                             01 
01330040002000010DEM       Attorney General                                        Mike Fields                           PRECINCT 2                                             01 
01330040003000000DEM       Attorney General                                        Mike Fields                           PRECINCT 3                                             01 
01330040004000005DEM       Attorney General                                        Mike Fields                           PRECINCT 4                                             01 
01330050001000004DEM       Attorney General                                        Lee Merritt                           PRECINCT 1                                             01 
01330050002000005DEM       Attorney General                                        Lee Merritt                           PRECINCT 2                                             01 
01330050003000001DEM       Attorney General                                        Lee Merritt                           PRECINCT 3                                             01 
01330050004000009DEM       Attorney General                                        Lee Merritt                           PRECINCT 4                                             01 
01330060001000000DEM       Attorney General                                        OVER VOTES                            PRECINCT 1                                             01 
01330060002000000DEM       Attorney General                                        OVER VOTES                            PRECINCT 2                                             01 
01330060003000000DEM       Attorney General                                        OVER VOTES                            PRECINCT 3                                             01 
01330060004000000DEM       Attorney General                                        OVER VOTES                            PRECINCT 4                                             01 
01330070001000005DEM       Attorney General                                        UNDER VOTES                           PRECINCT 1                                             01 
01330070002000005DEM       Attorney General                                        UNDER VOTES                           PRECINCT 2                                             01 
01330070003000003DEM       Attorney General                                        UNDER VOTES                           PRECINCT 3                                             01 
01330070004000003DEM       Attorney General                                        UNDER VOTES                           PRECINCT 4                                             01 
01340010001000010DEM       Comptroller of Public Accounts                          Tim Mahoney                           PRECINCT 1                                             01 
01340010002000020DEM       Comptroller of Public Accounts                          Tim Mahoney                           PRECINCT 2                                             01 
01340010003000008DEM       Comptroller of Public Accounts                          Tim Mahoney                           PRECINCT 3                                             01 
01340010004000018DEM       Comptroller of Public Accounts                          Tim Mahoney                           PRECINCT 4                                             01 
01340020001000021DEM       Comptroller of Public Accounts                          Angel Luis Vega                       PRECINCT 1                                             01 
01340020002000012DEM       Comptroller of Public Accounts                          Angel Luis Vega                       PRECINCT 2                                             01 
01340020003000004DEM       Comptroller of Public Accounts                          Angel Luis Vega                       PRECINCT 3                                             01 
01340020004000017DEM       Comptroller of Public Accounts                          Angel Luis Vega                       PRECINCT 4                                             01 
01340030001000019DEM       Comptroller of Public Accounts                          Janet T. Dudding                      PRECINCT 1                                             01 
01340030002000015DEM       Comptroller of Public Accounts                          Janet T. Dudding                      PRECINCT 2                                             01 
01340030003000011DEM       Comptroller of Public Accounts                          Janet T. Dudding                      PRECINCT 3                                             01 
01340030004000014DEM       Comptroller of Public Accounts                          Janet T. Dudding                      PRECINCT 4                                             01 
01340040001000000DEM       Comptroller of Public Accounts                          OVER VOTES                            PRECINCT 1                                             01 
01340040002000000DEM       Comptroller of Public Accounts                          OVER VOTES                            PRECINCT 2                                             01 
01340040003000000DEM       Comptroller of Public Accounts                          OVER VOTES                            PRECINCT 3                                             01 
01340040004000000DEM       Comptroller of Public Accounts                          OVER VOTES                            PRECINCT 4                                             01 
01340050001000005DEM       Comptroller of Public Accounts                          UNDER VOTES                           PRECINCT 1                                             01 
01340050002000008DEM       Comptroller of Public Accounts                          UNDER VOTES                           PRECINCT 2                                             01 
01340050003000004DEM       Comptroller of Public Accounts                          UNDER VOTES                           PRECINCT 3                                             01 
01340050004000004DEM       Comptroller of Public Accounts                          UNDER VOTES                           PRECINCT 4                                             01 
01350010001000017DEM       Commissioner of the General Land Office                 Sandragrace Martinez                  PRECINCT 1                                             01 
01350010002000014DEM       Commissioner of the General Land Office                 Sandragrace Martinez                  PRECINCT 2                                             01 
01350010003000007DEM       Commissioner of the General Land Office                 Sandragrace Martinez                  PRECINCT 3                                             01 
01350010004000019DEM       Commissioner of the General Land Office                 Sandragrace Martinez                  PRECINCT 4                                             01 
01350020001000012DEM       Commissioner of the General Land Office                 Michael Lange                         PRECINCT 1                                             01 
01350020002000012DEM       Commissioner of the General Land Office                 Michael Lange                         PRECINCT 2                                             01 
01350020003000007DEM       Commissioner of the General Land Office                 Michael Lange                         PRECINCT 3                                             01 
01350020004000010DEM       Commissioner of the General Land Office                 Michael Lange                         PRECINCT 4                                             01 
01350030001000005DEM       Commissioner of the General Land Office                 Jinny Suh                             PRECINCT 1                                             01 
01350030002000008DEM       Commissioner of the General Land Office                 Jinny Suh                             PRECINCT 2                                             01 
01350030003000005DEM       Commissioner of the General Land Office                 Jinny Suh                             PRECINCT 3                                             01 
01350030004000006DEM       Commissioner of the General Land Office                 Jinny Suh                             PRECINCT 4                                             01 
01350040001000013DEM       Commissioner of the General Land Office                 Jay Kleberg                           PRECINCT 1                                             01 
01350040002000014DEM       Commissioner of the General Land Office                 Jay Kleberg                           PRECINCT 2                                             01 
01350040003000005DEM       Commissioner of the General Land Office                 Jay Kleberg                           PRECINCT 3                                             01 
01350040004000014DEM       Commissioner of the General Land Office                 Jay Kleberg                           PRECINCT 4                                             01 
01350050001000000DEM       Commissioner of the General Land Office                 OVER VOTES                            PRECINCT 1                                             01 
