01010010001001783000000000000000000000000000000          REGISTERED VOTERS - TOTAL                               REGISTERED VOTERS - TOTAL             Precinct 1                                             00 
01010010003000379000000000000000000000000000000          REGISTERED VOTERS - TOTAL                               REGISTERED VOTERS - TOTAL             Precinct 2                                             00 
01010010004000618000000000000000000000000000000          REGISTERED VOTERS - TOTAL                               REGISTERED VOTERS - TOTAL             Precinct 3                                             00 
01010010005000957000000000000000000000000000000          REGISTERED VOTERS - TOTAL                               REGISTERED VOTERS - TOTAL             Precinct 4                                             00 
01010010006000574000000000000000000000000000000          REGISTERED VOTERS - TOTAL                               REGISTERED VOTERS - TOTAL             Precinct 5                                             00 
01010010008001110000000000000000000000000000000          REGISTERED VOTERS - TOTAL                               REGISTERED VOTERS - TOTAL             Precinct 6                                             00 
01010010009000619000000000000000000000000000000          REGISTERED VOTERS - TOTAL                               REGISTERED VOTERS - TOTAL             Precinct 7                                             00 
01010010010001146000000000000000000000000000000          REGISTERED VOTERS - TOTAL                               REGISTERED VOTERS - TOTAL             Precinct 8                                             00 
01010010011000450000000000000000000000000000000          REGISTERED VOTERS - TOTAL                               REGISTERED VOTERS - TOTAL             Precinct 9                                             00 
01010010012001120000000000000000000000000000000          REGISTERED VOTERS - TOTAL                               REGISTERED VOTERS - TOTAL             Precinct 10                                            00 
01010010013001055000000000000000000000000000000          REGISTERED VOTERS - TOTAL                               REGISTERED VOTERS - TOTAL             Precinct 11                                            00 
01010010014000842000000000000000000000000000000          REGISTERED VOTERS - TOTAL                               REGISTERED VOTERS - TOTAL             Precinct 12                                            00 
01010010015000847000000000000000000000000000000          REGISTERED VOTERS - TOTAL                               REGISTERED VOTERS - TOTAL             Precinct 13                                            00 
01010010016000271000000000000000000000000000000          REGISTERED VOTERS - TOTAL                               REGISTERED VOTERS - TOTAL             Precinct 14                                            00 
01020010001000597000041000329000000000227000000          BALLOTS CAST - TOTAL                                    BALLOTS CAST - TOTAL                  Precinct 1                                             00 
01020010003000133000006000039000000000088000000          BALLOTS CAST - TOTAL                                    BALLOTS CAST - TOTAL                  Precinct 2                                             00 
01020010004000204000009000079000000000116000000          BALLOTS CAST - TOTAL                                    BALLOTS CAST - TOTAL                  Precinct 3                                             00 
01020010005000247000010000031000000000206000000          BALLOTS CAST - TOTAL                                    BALLOTS CAST - TOTAL                  Precinct 4                                             00 
01020010006000206000011000069000000000126000000          BALLOTS CAST - TOTAL                                    BALLOTS CAST - TOTAL                  Precinct 5                                             00 
01020010008000445000024000067000002000352000000          BALLOTS CAST - TOTAL                                    BALLOTS CAST - TOTAL                  Precinct 6                                             00 
01020010009000245000011000056000000000178000000          BALLOTS CAST - TOTAL                                    BALLOTS CAST - TOTAL                  Precinct 7                                             00 
01020010010000307000011000061000000000235000000          BALLOTS CAST - TOTAL                                    BALLOTS CAST - TOTAL                  Precinct 8                                             00 
01020010011000129000006000050000000000073000000          BALLOTS CAST - TOTAL                                    BALLOTS CAST - TOTAL                  Precinct 9                                             00 
01020010012000314000011000102000001000200000000          BALLOTS CAST - TOTAL                                    BALLOTS CAST - TOTAL                  Precinct 10                                            00 
01020010013000321000012000080000000000229000000          BALLOTS CAST - TOTAL                                    BALLOTS CAST - TOTAL                  Precinct 11                                            00 
01020010014000285000023000038000000000224000000          BALLOTS CAST - TOTAL                                    BALLOTS CAST - TOTAL                  Precinct 12                                            00 
01020010015000320000014000125000000000181000000          BALLOTS CAST - TOTAL                                    BALLOTS CAST - TOTAL                  Precinct 13                                            00 
01020010016000085000015000041000000000029000000          BALLOTS CAST - TOTAL                                    BALLOTS CAST - TOTAL                  Precinct 14                                            00 
01030010001000553000030000304000000000219000000REP       BALLOTS CAST - REPUBLICAN PARTY                         BALLOTS CAST - REPUBLICAN PARTY       Precinct 1                                             00 
01030010003000129000006000038000000000085000000REP       BALLOTS CAST - REPUBLICAN PARTY                         BALLOTS CAST - REPUBLICAN PARTY       Precinct 2                                             00 
01030010004000196000007000078000000000111000000REP       BALLOTS CAST - REPUBLICAN PARTY                         BALLOTS CAST - REPUBLICAN PARTY       Precinct 3                                             00 
01030010005000229000008000024000000000197000000REP       BALLOTS CAST - REPUBLICAN PARTY                         BALLOTS CAST - REPUBLICAN PARTY       Precinct 4                                             00 
01030010006000191000010000065000000000116000000REP       BALLOTS CAST - REPUBLICAN PARTY                         BALLOTS CAST - REPUBLICAN PARTY       Precinct 5                                             00 
01030010008000424000018000062000002000342000000REP       BALLOTS CAST - REPUBLICAN PARTY                         BALLOTS CAST - REPUBLICAN PARTY       Precinct 6                                             00 
01030010009000240000008000056000000000176000000REP       BALLOTS CAST - REPUBLICAN PARTY                         BALLOTS CAST - REPUBLICAN PARTY       Precinct 7                                             00 
01030010010000295000008000059000000000228000000REP       BALLOTS CAST - REPUBLICAN PARTY                         BALLOTS CAST - REPUBLICAN PARTY       Precinct 8                                             00 
01030010011000126000006000048000000000072000000REP       BALLOTS CAST - REPUBLICAN PARTY                         BALLOTS CAST - REPUBLICAN PARTY       Precinct 9                                             00 
01030010012000297000010000094000001000192000000REP       BALLOTS CAST - REPUBLICAN PARTY                         BALLOTS CAST - REPUBLICAN PARTY       Precinct 10                                            00 
01030010013000287000007000074000000000206000000REP       BALLOTS CAST - REPUBLICAN PARTY                         BALLOTS CAST - REPUBLICAN PARTY       Precinct 11                                            00 
01030010014000233000014000033000000000186000000REP       BALLOTS CAST - REPUBLICAN PARTY                         BALLOTS CAST - REPUBLICAN PARTY       Precinct 12                                            00 
01030010015000311000013000121000000000177000000REP       BALLOTS CAST - REPUBLICAN PARTY                         BALLOTS CAST - REPUBLICAN PARTY       Precinct 13                                            00 
01030010016000068000007000039000000000022000000REP       BALLOTS CAST - REPUBLICAN PARTY                         BALLOTS CAST - REPUBLICAN PARTY       Precinct 14                                            00 
01040010001000044000011000025000000000008000000DEM       BALLOTS CAST - DEMOCRATIC PARTY                         BALLOTS CAST - DEMOCRATIC PARTY       Precinct 1                                             00 
01040010003000004000000000001000000000003000000DEM       BALLOTS CAST - DEMOCRATIC PARTY                         BALLOTS CAST - DEMOCRATIC PARTY       Precinct 2                                             00 
01040010004000008000002000001000000000005000000DEM       BALLOTS CAST - DEMOCRATIC PARTY                         BALLOTS CAST - DEMOCRATIC PARTY       Precinct 3                                             00 
01040010005000018000002000007000000000009000000DEM       BALLOTS CAST - DEMOCRATIC PARTY                         BALLOTS CAST - DEMOCRATIC PARTY       Precinct 4                                             00 
01040010006000015000001000004000000000010000000DEM       BALLOTS CAST - DEMOCRATIC PARTY                         BALLOTS CAST - DEMOCRATIC PARTY       Precinct 5                                             00 
01040010008000021000006000005000000000010000000DEM       BALLOTS CAST - DEMOCRATIC PARTY                         BALLOTS CAST - DEMOCRATIC PARTY       Precinct 6                                             00 
01040010009000005000003000000000000000002000000DEM       BALLOTS CAST - DEMOCRATIC PARTY                         BALLOTS CAST - DEMOCRATIC PARTY       Precinct 7                                             00 
01040010010000012000003000002000000000007000000DEM       BALLOTS CAST - DEMOCRATIC PARTY                         BALLOTS CAST - DEMOCRATIC PARTY       Precinct 8                                             00 
01040010011000003000000000002000000000001000000DEM       BALLOTS CAST - DEMOCRATIC PARTY                         BALLOTS CAST - DEMOCRATIC PARTY       Precinct 9                                             00 
01040010012000017000001000008000000000008000000DEM       BALLOTS CAST - DEMOCRATIC PARTY                         BALLOTS CAST - DEMOCRATIC PARTY       Precinct 10                                            00 
01040010013000034000005000006000000000023000000DEM       BALLOTS CAST - DEMOCRATIC PARTY                         BALLOTS CAST - DEMOCRATIC PARTY       Precinct 11                                            00 
01040010014000052000009000005000000000038000000DEM       BALLOTS CAST - DEMOCRATIC PARTY                         BALLOTS CAST - DEMOCRATIC PARTY       Precinct 12                                            00 
01040010015000009000001000004000000000004000000DEM       BALLOTS CAST - DEMOCRATIC PARTY                         BALLOTS CAST - DEMOCRATIC PARTY       Precinct 13                                            00 
01040010016000017000008000002000000000007000000DEM       BALLOTS CAST - DEMOCRATIC PARTY                         BALLOTS CAST - DEMOCRATIC PARTY       Precinct 14                                            00 
01050010001000034000000000015000000000019000000REP       US Representative, District 17                          Rob Rosenberger                       Precinct 1                                             01 
01050010003000007000000000002000000000005000000REP       US Representative, District 17                          Rob Rosenberger                       Precinct 2                                             01 
01050010004000019000000000007000000000012000000REP       US Representative, District 17                          Rob Rosenberger                       Precinct 3                                             01 
01050010005000011000000000001000000000010000000REP       US Representative, District 17                          Rob Rosenberger                       Precinct 4                                             01 
01050010006000015000000000003000000000012000000REP       US Representative, District 17                          Rob Rosenberger                       Precinct 5                                             01 
01050010008000023000001000002000000000020000000REP       US Representative, District 17                          Rob Rosenberger                       Precinct 6                                             01 
01050010009000018000001000006000000000011000000REP       US Representative, District 17                          Rob Rosenberger                       Precinct 7                                             01 
01050010010000012000000000002000000000010000000REP       US Representative, District 17                          Rob Rosenberger                       Precinct 8                                             01 
01050010011000003000000000000000000000003000000REP       US Representative, District 17                          Rob Rosenberger                       Precinct 9                                             01 
01050010012000017000001000007000000000009000000REP       US Representative, District 17                          Rob Rosenberger                       Precinct 10                                            01 
01050010013000012000000000004000000000008000000REP       US Representative, District 17                          Rob Rosenberger                       Precinct 11                                            01 
01050010014000016000001000001000000000014000000REP       US Representative, District 17                          Rob Rosenberger                       Precinct 12                                            01 
01050010015000012000000000006000000000006000000REP       US Representative, District 17                          Rob Rosenberger                       Precinct 13                                            01 
01050010016000004000000000004000000000000000000REP       US Representative, District 17                          Rob Rosenberger                       Precinct 14                                            01 
01050020001000058000001000037000000000020000000REP       US Representative, District 17                          Jason "Stormchaser" Nelson            Precinct 1                                             01 
01050020003000010000000000004000000000006000000REP       US Representative, District 17                          Jason "Stormchaser" Nelson            Precinct 2                                             01 
01050020004000020000000000008000000000012000000REP       US Representative, District 17                          Jason "Stormchaser" Nelson            Precinct 3                                             01 
01050020005000022000000000007000000000015000000REP       US Representative, District 17                          Jason "Stormchaser" Nelson            Precinct 4                                             01 
01050020006000026000000000008000000000018000000REP       US Representative, District 17                          Jason "Stormchaser" Nelson            Precinct 5                                             01 
01050020008000078000001000013000000000064000000REP       US Representative, District 17                          Jason "Stormchaser" Nelson            Precinct 6                                             01 
01050020009000037000001000011000000000025000000REP       US Representative, District 17                          Jason "Stormchaser" Nelson            Precinct 7                                             01 
01050020010000020000000000004000000000016000000REP       US Representative, District 17                          Jason "Stormchaser" Nelson            Precinct 8                                             01 
01050020011000018000000000006000000000012000000REP       US Representative, District 17                          Jason "Stormchaser" Nelson            Precinct 9                                             01 
01050020012000025000000000008000000000017000000REP       US Representative, District 17                          Jason "Stormchaser" Nelson            Precinct 10                                            01 
01050020013000016000000000005000000000011000000REP       US Representative, District 17                          Jason "Stormchaser" Nelson            Precinct 11                                            01 
01050020014000022000001000003000000000018000000REP       US Representative, District 17                          Jason "Stormchaser" Nelson            Precinct 12                                            01 
01050020015000028000000000012000000000016000000REP       US Representative, District 17                          Jason "Stormchaser" Nelson            Precinct 13                                            01 
01050020016000009000000000005000000000004000000REP       US Representative, District 17                          Jason "Stormchaser" Nelson            Precinct 14                                            01 
01050030001000357000024000195000000000138000000REP       US Representative, District 17                          Pete Sessions                         Precinct 1                                             01 
01050030003000095000006000023000000000066000000REP       US Representative, District 17                          Pete Sessions                         Precinct 2                                             01 
01050030004000139000006000055000000000078000000REP       US Representative, District 17                          Pete Sessions                         Precinct 3                                             01 
01050030005000165000008000015000000000142000000REP       US Representative, District 17                          Pete Sessions                         Precinct 4                                             01 
01050030006000125000009000047000000000069000000REP       US Representative, District 17                          Pete Sessions                         Precinct 5                                             01 
01050030008000243000013000030000000000200000000REP       US Representative, District 17                          Pete Sessions                         Precinct 6                                             01 
01050030009000158000005000036000000000117000000REP       US Representative, District 17                          Pete Sessions                         Precinct 7                                             01 
01050030010000239000008000046000000000185000000REP       US Representative, District 17                          Pete Sessions                         Precinct 8                                             01 
01050030011000093000006000037000000000050000000REP       US Representative, District 17                          Pete Sessions                         Precinct 9                                             01 
01050030012000225000009000067000000000149000000REP       US Representative, District 17                          Pete Sessions                         Precinct 10                                            01 
01050030013000231000006000059000000000166000000REP       US Representative, District 17                          Pete Sessions                         Precinct 11                                            01 
01050030014000164000012000025000000000127000000REP       US Representative, District 17                          Pete Sessions                         Precinct 12                                            01 
01050030015000239000013000092000000000134000000REP       US Representative, District 17                          Pete Sessions                         Precinct 13                                            01 
01050030016000043000005000022000000000016000000REP       US Representative, District 17                          Pete Sessions                         Precinct 14                                            01 
01050040001000043000002000031000000000010000000REP       US Representative, District 17                          Paulette Carson                       Precinct 1                                             01 
01050040003000007000000000003000000000004000000REP       US Representative, District 17                          Paulette Carson                       Precinct 2                                             01 
01050040004000008000000000005000000000003000000REP       US Representative, District 17                          Paulette Carson                       Precinct 3                                             01 
01050040005000010000000000001000000000009000000REP       US Representative, District 17                          Paulette Carson                       Precinct 4                                             01 
01050040006000004000000000003000000000001000000REP       US Representative, District 17                          Paulette Carson                       Precinct 5                                             01 
01050040008000050000003000012000000000035000000REP       US Representative, District 17                          Paulette Carson                       Precinct 6                                             01 
01050040009000005000000000000000000000005000000REP       US Representative, District 17                          Paulette Carson                       Precinct 7                                             01 
01050040010000014000000000005000000000009000000REP       US Representative, District 17                          Paulette Carson                       Precinct 8                                             01 
01050040011000008000000000005000000000003000000REP       US Representative, District 17                          Paulette Carson                       Precinct 9                                             01 
01050040012000014000000000003000000000011000000REP       US Representative, District 17                          Paulette Carson                       Precinct 10                                            01 
01050040013000011000001000003000000000007000000REP       US Representative, District 17                          Paulette Carson                       Precinct 11                                            01 
01050040014000010000000000002000000000008000000REP       US Representative, District 17                          Paulette Carson                       Precinct 12                                            01 
01050040015000012000000000005000000000007000000REP       US Representative, District 17                          Paulette Carson                       Precinct 13                                            01 
01050040016000007000002000004000000000001000000REP       US Representative, District 17                          Paulette Carson                       Precinct 14                                            01 
01050050001000000000000000000000000000000000000REP       US Representative, District 17                          OVER VOTES                            Precinct 1                                             01 
01050050003000000000000000000000000000000000000REP       US Representative, District 17                          OVER VOTES                            Precinct 2                                             01 
01050050004000000000000000000000000000000000000REP       US Representative, District 17                          OVER VOTES                            Precinct 3                                             01 
01050050005000000000000000000000000000000000000REP       US Representative, District 17                          OVER VOTES                            Precinct 4                                             01 
01050050006000000000000000000000000000000000000REP       US Representative, District 17                          OVER VOTES                            Precinct 5                                             01 
01050050008000000000000000000000000000000000000REP       US Representative, District 17                          OVER VOTES                            Precinct 6                                             01 
01050050009000000000000000000000000000000000000REP       US Representative, District 17                          OVER VOTES                            Precinct 7                                             01 
01050050010000000000000000000000000000000000000REP       US Representative, District 17                          OVER VOTES                            Precinct 8                                             01 
01050050011000000000000000000000000000000000000REP       US Representative, District 17                          OVER VOTES                            Precinct 9                                             01 
01050050012000000000000000000000000000000000000REP       US Representative, District 17                          OVER VOTES                            Precinct 10                                            01 
01050050013000000000000000000000000000000000000REP       US Representative, District 17                          OVER VOTES                            Precinct 11                                            01 
01050050014000000000000000000000000000000000000REP       US Representative, District 17                          OVER VOTES                            Precinct 12                                            01 
01050050015000000000000000000000000000000000000REP       US Representative, District 17                          OVER VOTES                            Precinct 13                                            01 
01050050016000000000000000000000000000000000000REP       US Representative, District 17                          OVER VOTES                            Precinct 14                                            01 
01050060001000061000003000026000000000032000000REP       US Representative, District 17                          UNDER VOTES                           Precinct 1                                             01 
01050060003000010000000000006000000000004000000REP       US Representative, District 17                          UNDER VOTES                           Precinct 2                                             01 
01050060004000010000001000003000000000006000000REP       US Representative, District 17                          UNDER VOTES                           Precinct 3                                             01 
01050060005000021000000000000000000000021000000REP       US Representative, District 17                          UNDER VOTES                           Precinct 4                                             01 
01050060006000021000001000004000000000016000000REP       US Representative, District 17                          UNDER VOTES                           Precinct 5                                             01 
01050060008000028000000000005000000000023000000REP       US Representative, District 17                          UNDER VOTES                           Precinct 6                                             01 
01050060009000022000001000003000000000018000000REP       US Representative, District 17                          UNDER VOTES                           Precinct 7                                             01 
01050060010000010000000000002000000000008000000REP       US Representative, District 17                          UNDER VOTES                           Precinct 8                                             01 
01050060011000004000000000000000000000004000000REP       US Representative, District 17                          UNDER VOTES                           Precinct 9                                             01 
01050060012000016000000000009000001000006000000REP       US Representative, District 17                          UNDER VOTES                           Precinct 10                                            01 
01050060013000017000000000003000000000014000000REP       US Representative, District 17                          UNDER VOTES                           Precinct 11                                            01 
01050060014000021000000000002000000000019000000REP       US Representative, District 17                          UNDER VOTES                           Precinct 12                                            01 
01050060015000020000000000006000000000014000000REP       US Representative, District 17                          UNDER VOTES                           Precinct 13                                            01 
01050060016000005000000000004000000000001000000REP       US Representative, District 17                          UNDER VOTES                           Precinct 14                                            01 
01060010001000008000000000005000000000003000000REP       Governor                                                Kandy Kaye Horn                       Precinct 1                                             01 
01060010003000003000000000001000000000002000000REP       Governor                                                Kandy Kaye Horn                       Precinct 2                                             01 
01060010004000001000000000000000000000001000000REP       Governor                                                Kandy Kaye Horn                       Precinct 3                                             01 
01060010005000003000000000000000000000003000000REP       Governor                                                Kandy Kaye Horn                       Precinct 4                                             01 
01060010006000002000000000000000000000002000000REP       Governor                                                Kandy Kaye Horn                       Precinct 5                                             01 
01060010008000008000000000002000000000006000000REP       Governor                                                Kandy Kaye Horn                       Precinct 6                                             01 
01060010009000003000000000001000000000002000000REP       Governor                                                Kandy Kaye Horn                       Precinct 7                                             01 
01060010010000001000000000001000000000000000000REP       Governor                                                Kandy Kaye Horn                       Precinct 8                                             01 
01060010011000000000000000000000000000000000000REP       Governor                                                Kandy Kaye Horn                       Precinct 9                                             01 
01060010012000001000000000001000000000000000000REP       Governor                                                Kandy Kaye Horn                       Precinct 10                                            01 
01060010013000002000000000000000000000002000000REP       Governor                                                Kandy Kaye Horn                       Precinct 11                                            01 
01060010014000002000000000000000000000002000000REP       Governor                                                Kandy Kaye Horn                       Precinct 12                                            01 
01060010015000001000000000001000000000000000000REP       Governor                                                Kandy Kaye Horn                       Precinct 13                                            01 
01060010016000000000000000000000000000000000000REP       Governor                                                Kandy Kaye Horn                       Precinct 14                                            01 
01060020001000364000023000205000000000136000000REP       Governor                                                Greg Abbott                           Precinct 1                                             01 
01060020003000093000006000029000000000058000000REP       Governor                                                Greg Abbott                           Precinct 2                                             01 
01060020004000129000005000053000000000071000000REP       Governor                                                Greg Abbott                           Precinct 3                                             01 
01060020005000155000007000011000000000137000000REP       Governor                                                Greg Abbott                           Precinct 4                                             01 
01060020006000125000008000042000000000075000000REP       Governor                                                Greg Abbott                           Precinct 5                                             01 
01060020008000309000015000045000002000247000000REP       Governor                                                Greg Abbott                           Precinct 6                                             01 
01060020009000157000006000036000000000115000000REP       Governor                                                Greg Abbott                           Precinct 7                                             01 
01060020010000220000008000042000000000170000000REP       Governor                                                Greg Abbott                           Precinct 8                                             01 
01060020011000087000004000037000000000046000000REP       Governor                                                Greg Abbott                           Precinct 9                                             01 
01060020012000210000009000069000000000132000000REP       Governor                                                Greg Abbott                           Precinct 10                                            01 
01060020013000217000006000055000000000156000000REP       Governor                                                Greg Abbott                           Precinct 11                                            01 
01060020014000162000014000027000000000121000000REP       Governor                                                Greg Abbott                           Precinct 12                                            01 
01060020015000224000013000085000000000126000000REP       Governor                                                Greg Abbott                           Precinct 13                                            01 
01060020016000046000007000025000000000014000000REP       Governor                                                Greg Abbott                           Precinct 14                                            01 
01060030001000002000000000001000000000001000000REP       Governor                                                Danny Harrison                        Precinct 1                                             01 
01060030003000001000000000000000000000001000000REP       Governor                                                Danny Harrison                        Precinct 2                                             01 
01060030004000001000000000001000000000000000000REP       Governor                                                Danny Harrison                        Precinct 3                                             01 
01060030005000000000000000000000000000000000000REP       Governor                                                Danny Harrison                        Precinct 4                                             01 
01060030006000001000000000000000000000001000000REP       Governor                                                Danny Harrison                        Precinct 5                                             01 
01060030008000002000000000000000000000002000000REP       Governor                                                Danny Harrison                        Precinct 6                                             01 
01060030009000001000000000001000000000000000000REP       Governor                                                Danny Harrison                        Precinct 7                                             01 
01060030010000000000000000000000000000000000000REP       Governor                                                Danny Harrison                        Precinct 8                                             01 
01060030011000000000000000000000000000000000000REP       Governor                                                Danny Harrison                        Precinct 9                                             01 
01060030012000000000000000000000000000000000000REP       Governor                                                Danny Harrison                        Precinct 10                                            01 
01060030013000001000000000001000000000000000000REP       Governor                                                Danny Harrison                        Precinct 11                                            01 
01060030014000002000000000001000000000001000000REP       Governor                                                Danny Harrison                        Precinct 12                                            01 
01060030015000001000000000000000000000001000000REP       Governor                                                Danny Harrison                        Precinct 13                                            01 
01060030016000000000000000000000000000000000000REP       Governor                                                Danny Harrison                        Precinct 14                                            01 
01060040001000002000000000002000000000000000000REP       Governor                                                Paul Belew                            Precinct 1                                             01 
01060040003000000000000000000000000000000000000REP       Governor                                                Paul Belew                            Precinct 2                                             01 
01060040004000000000000000000000000000000000000REP       Governor                                                Paul Belew                            Precinct 3                                             01 
01060040005000002000000000000000000000002000000REP       Governor                                                Paul Belew                            Precinct 4                                             01 
01060040006000002000000000001000000000001000000REP       Governor                                                Paul Belew                            Precinct 5                                             01 
01060040008000004000000000000000000000004000000REP       Governor                                                Paul Belew                            Precinct 6                                             01 
01060040009000001000000000000000000000001000000REP       Governor                                                Paul Belew                            Precinct 7                                             01 
01060040010000000000000000000000000000000000000REP       Governor                                                Paul Belew                            Precinct 8                                             01 
01060040011000002000000000000000000000002000000REP       Governor                                                Paul Belew                            Precinct 9                                             01 
01060040012000002000000000001000000000001000000REP       Governor                                                Paul Belew                            Precinct 10                                            01 
01060040013000001000000000000000000000001000000REP       Governor                                                Paul Belew                            Precinct 11                                            01 
01060040014000000000000000000000000000000000000REP       Governor                                                Paul Belew                            Precinct 12                                            01 
01060040015000003000000000002000000000001000000REP       Governor                                                Paul Belew                            Precinct 13                                            01 
01060040016000000000000000000000000000000000000REP       Governor                                                Paul Belew                            Precinct 14                                            01 
01060050001000074000004000040000000000030000000REP       Governor                                                Allen B. West                         Precinct 1                                             01 
01060050003000018000000000005000000000013000000REP       Governor                                                Allen B. West                         Precinct 2                                             01 
01060050004000024000001000009000000000014000000REP       Governor                                                Allen B. West                         Precinct 3                                             01 
01060050005000032000001000003000000000028000000REP       Governor                                                Allen B. West                         Precinct 4                                             01 
01060050006000034000002000014000000000018000000REP       Governor                                                Allen B. West                         Precinct 5                                             01 
01060050008000050000002000003000000000045000000REP       Governor                                                Allen B. West                         Precinct 6                                             01 
01060050009000031000001000006000000000024000000REP       Governor                                                Allen B. West                         Precinct 7                                             01 
01060050010000027000000000003000000000024000000REP       Governor                                                Allen B. West                         Precinct 8                                             01 
01060050011000014000000000006000000000008000000REP       Governor                                                Allen B. West                         Precinct 9                                             01 
01060050012000039000000000010000001000028000000REP       Governor                                                Allen B. West                         Precinct 10                                            01 
01060050013000027000000000010000000000017000000REP       Governor                                                Allen B. West                         Precinct 11                                            01 
01060050014000025000000000000000000000025000000REP       Governor                                                Allen B. West                         Precinct 12                                            01 
01060050015000035000000000022000000000013000000REP       Governor                                                Allen B. West                         Precinct 13                                            01 
01060050016000012000000000007000000000005000000REP       Governor                                                Allen B. West                         Precinct 14                                            01 
01060060001000021000002000013000000000006000000REP       Governor                                                Rick Perry                            Precinct 1                                             01 
01060060003000003000000000000000000000003000000REP       Governor                                                Rick Perry                            Precinct 2                                             01 
01060060004000005000000000005000000000000000000REP       Governor                                                Rick Perry                            Precinct 3                                             01 
01060060005000004000000000002000000000002000000REP       Governor                                                Rick Perry                            Precinct 4                                             01 
01060060006000004000000000000000000000004000000REP       Governor                                                Rick Perry                            Precinct 5                                             01 
01060060008000009000001000000000000000008000000REP       Governor                                                Rick Perry                            Precinct 6                                             01 
01060060009000012000001000004000000000007000000REP       Governor                                                Rick Perry                            Precinct 7                                             01 
01060060010000009000000000003000000000006000000REP       Governor                                                Rick Perry                            Precinct 8                                             01 
01060060011000004000000000003000000000001000000REP       Governor                                                Rick Perry                            Precinct 9                                             01 
01060060012000004000000000000000000000004000000REP       Governor                                                Rick Perry                            Precinct 10                                            01 
01060060013000010000000000002000000000008000000REP       Governor                                                Rick Perry                            Precinct 11                                            01 
01060060014000004000000000001000000000003000000REP       Governor                                                Rick Perry                            Precinct 12                                            01 
01060060015000008000000000001000000000007000000REP       Governor                                                Rick Perry                            Precinct 13                                            01 
01060060016000001000000000001000000000000000000REP       Governor                                                Rick Perry                            Precinct 14                                            01 
01060070001000036000001000018000000000017000000REP       Governor                                                Chad Prather                          Precinct 1                                             01 
01060070003000004000000000001000000000003000000REP       Governor                                                Chad Prather                          Precinct 2                                             01 
01060070004000015000000000002000000000013000000REP       Governor                                                Chad Prather                          Precinct 3                                             01 
01060070005000018000000000002000000000016000000REP       Governor                                                Chad Prather                          Precinct 4                                             01 
01060070006000010000000000000000000000010000000REP       Governor                                                Chad Prather                          Precinct 5                                             01 
01060070008000009000000000001000000000008000000REP       Governor                                                Chad Prather                          Precinct 6                                             01 
01060070009000018000000000004000000000014000000REP       Governor                                                Chad Prather                          Precinct 7                                             01 
01060070010000019000000000007000000000012000000REP       Governor                                                Chad Prather                          Precinct 8                                             01 
01060070011000006000000000001000000000005000000REP       Governor                                                Chad Prather                          Precinct 9                                             01 
01060070012000011000000000002000000000009000000REP       Governor                                                Chad Prather                          Precinct 10                                            01 
01060070013000013000000000002000000000011000000REP       Governor                                                Chad Prather                          Precinct 11                                            01 
01060070014000019000000000003000000000016000000REP       Governor                                                Chad Prather                          Precinct 12                                            01 
01060070015000017000000000005000000000012000000REP       Governor                                                Chad Prather                          Precinct 13                                            01 
01060070016000003000000000002000000000001000000REP       Governor                                                Chad Prather                          Precinct 14                                            01 
01060080001000033000000000015000000000018000000REP       Governor                                                Don Huffines                          Precinct 1                                             01 
01060080003000007000000000002000000000005000000REP       Governor                                                Don Huffines                          Precinct 2                                             01 
01060080004000019000000000008000000000011000000REP       Governor                                                Don Huffines                          Precinct 3                                             01 
01060080005000014000000000006000000000008000000REP       Governor                                                Don Huffines                          Precinct 4                                             01 
01060080006000012000000000008000000000004000000REP       Governor                                                Don Huffines                          Precinct 5                                             01 
01060080008000028000000000010000000000018000000REP       Governor                                                Don Huffines                          Precinct 6                                             01 
01060080009000014000000000003000000000011000000REP       Governor                                                Don Huffines                          Precinct 7                                             01 
01060080010000019000000000003000000000016000000REP       Governor                                                Don Huffines                          Precinct 8                                             01 
01060080011000012000002000001000000000009000000REP       Governor                                                Don Huffines                          Precinct 9                                             01 
01060080012000026000001000010000000000015000000REP       Governor                                                Don Huffines                          Precinct 10                                            01 
01060080013000011000001000004000000000006000000REP       Governor                                                Don Huffines                          Precinct 11                                            01 
01060080014000014000000000001000000000013000000REP       Governor                                                Don Huffines                          Precinct 12                                            01 
01060080015000020000000000005000000000015000000REP       Governor                                                Don Huffines                          Precinct 13                                            01 
01060080016000005000000000003000000000002000000REP       Governor                                                Don Huffines                          Precinct 14                                            01 
01060090001000000000000000000000000000000000000REP       Governor                                                OVER VOTES                            Precinct 1                                             01 
01060090003000000000000000000000000000000000000REP       Governor                                                OVER VOTES                            Precinct 2                                             01 
01060090004000000000000000000000000000000000000REP       Governor                                                OVER VOTES                            Precinct 3                                             01 
01060090005000000000000000000000000000000000000REP       Governor                                                OVER VOTES                            Precinct 4                                             01 
01060090006000000000000000000000000000000000000REP       Governor                                                OVER VOTES                            Precinct 5                                             01 
01060090008000000000000000000000000000000000000REP       Governor                                                OVER VOTES                            Precinct 6                                             01 
01060090009000000000000000000000000000000000000REP       Governor                                                OVER VOTES                            Precinct 7                                             01 
01060090010000000000000000000000000000000000000REP       Governor                                                OVER VOTES                            Precinct 8                                             01 
01060090011000000000000000000000000000000000000REP       Governor                                                OVER VOTES                            Precinct 9                                             01 
01060090012000000000000000000000000000000000000REP       Governor                                                OVER VOTES                            Precinct 10                                            01 
01060090013000000000000000000000000000000000000REP       Governor                                                OVER VOTES                            Precinct 11                                            01 
01060090014000000000000000000000000000000000000REP       Governor                                                OVER VOTES                            Precinct 12                                            01 
01060090015000000000000000000000000000000000000REP       Governor                                                OVER VOTES                            Precinct 13                                            01 
01060090016000000000000000000000000000000000000REP       Governor                                                OVER VOTES                            Precinct 14                                            01 
01060100001000013000000000005000000000008000000REP       Governor                                                UNDER VOTES                           Precinct 1                                             01 
01060100003000000000000000000000000000000000000REP       Governor                                                UNDER VOTES                           Precinct 2                                             01 
01060100004000002000001000000000000000001000000REP       Governor                                                UNDER VOTES                           Precinct 3                                             01 
01060100005000001000000000000000000000001000000REP       Governor                                                UNDER VOTES                           Precinct 4                                             01 
01060100006000001000000000000000000000001000000REP       Governor                                                UNDER VOTES                           Precinct 5                                             01 
01060100008000005000000000001000000000004000000REP       Governor                                                UNDER VOTES                           Precinct 6                                             01 
01060100009000003000000000001000000000002000000REP       Governor                                                UNDER VOTES                           Precinct 7                                             01 
01060100010000000000000000000000000000000000000REP       Governor                                                UNDER VOTES                           Precinct 8                                             01 
01060100011000001000000000000000000000001000000REP       Governor                                                UNDER VOTES                           Precinct 9                                             01 
01060100012000004000000000001000000000003000000REP       Governor                                                UNDER VOTES                           Precinct 10                                            01 
01060100013000005000000000000000000000005000000REP       Governor                                                UNDER VOTES                           Precinct 11                                            01 
01060100014000005000000000000000000000005000000REP       Governor                                                UNDER VOTES                           Precinct 12                                            01 
01060100015000002000000000000000000000002000000REP       Governor                                                UNDER VOTES                           Precinct 13                                            01 
01060100016000001000000000001000000000000000000REP       Governor                                                UNDER VOTES                           Precinct 14                                            01 
01070010001000038000004000016000000000018000000REP       Lieutenant Governor                                     Trayce Bradford                       Precinct 1                                             01 
01070010003000012000000000002000000000010000000REP       Lieutenant Governor                                     Trayce Bradford                       Precinct 2                                             01 
01070010004000013000000000004000000000009000000REP       Lieutenant Governor                                     Trayce Bradford                       Precinct 3                                             01 
01070010005000005000000000001000000000004000000REP       Lieutenant Governor                                     Trayce Bradford                       Precinct 4                                             01 
01070010006000012000000000001000000000011000000REP       Lieutenant Governor                                     Trayce Bradford                       Precinct 5                                             01 
01070010008000018000001000004000000000013000000REP       Lieutenant Governor                                     Trayce Bradford                       Precinct 6                                             01 
01070010009000018000000000004000000000014000000REP       Lieutenant Governor                                     Trayce Bradford                       Precinct 7                                             01 
01070010010000013000000000004000000000009000000REP       Lieutenant Governor                                     Trayce Bradford                       Precinct 8                                             01 
01070010011000006000001000001000000000004000000REP       Lieutenant Governor                                     Trayce Bradford                       Precinct 9                                             01 
01070010012000012000000000003000000000009000000REP       Lieutenant Governor                                     Trayce Bradford                       Precinct 10                                            01 
01070010013000019000001000004000000000014000000REP       Lieutenant Governor                                     Trayce Bradford                       Precinct 11                                            01 
01070010014000016000002000002000000000012000000REP       Lieutenant Governor                                     Trayce Bradford                       Precinct 12                                            01 
01070010015000012000000000004000000000008000000REP       Lieutenant Governor                                     Trayce Bradford                       Precinct 13                                            01 
01070010016000004000000000002000000000002000000REP       Lieutenant Governor                                     Trayce Bradford                       Precinct 14                                            01 
01070020001000021000000000014000000000007000000REP       Lieutenant Governor                                     Aaron Sorrells                        Precinct 1                                             01 
01070020003000001000000000000000000000001000000REP       Lieutenant Governor                                     Aaron Sorrells                        Precinct 2                                             01 
01070020004000010000000000005000000000005000000REP       Lieutenant Governor                                     Aaron Sorrells                        Precinct 3                                             01 
01070020005000014000000000001000000000013000000REP       Lieutenant Governor                                     Aaron Sorrells                        Precinct 4                                             01 
01070020006000009000000000001000000000008000000REP       Lieutenant Governor                                     Aaron Sorrells                        Precinct 5                                             01 
01070020008000024000001000003000000000020000000REP       Lieutenant Governor                                     Aaron Sorrells                        Precinct 6                                             01 
01070020009000011000001000004000000000006000000REP       Lieutenant Governor                                     Aaron Sorrells                        Precinct 7                                             01 
01070020010000007000000000002000000000005000000REP       Lieutenant Governor                                     Aaron Sorrells                        Precinct 8                                             01 
01070020011000003000000000002000000000001000000REP       Lieutenant Governor                                     Aaron Sorrells                        Precinct 9                                             01 
01070020012000009000000000004000000000005000000REP       Lieutenant Governor                                     Aaron Sorrells                        Precinct 10                                            01 
01070020013000009000000000001000000000008000000REP       Lieutenant Governor                                     Aaron Sorrells                        Precinct 11                                            01 
01070020014000003000000000001000000000002000000REP       Lieutenant Governor                                     Aaron Sorrells                        Precinct 12                                            01 
01070020015000011000000000003000000000008000000REP       Lieutenant Governor                                     Aaron Sorrells                        Precinct 13                                            01 
01070020016000002000000000000000000000002000000REP       Lieutenant Governor                                     Aaron Sorrells                        Precinct 14                                            01 
01070030001000027000000000018000000000009000000REP       Lieutenant Governor                                     Daniel Miller                         Precinct 1                                             01 
01070030003000007000000000001000000000006000000REP       Lieutenant Governor                                     Daniel Miller                         Precinct 2                                             01 
01070030004000005000000000002000000000003000000REP       Lieutenant Governor                                     Daniel Miller                         Precinct 3                                             01 
01070030005000011000000000002000000000009000000REP       Lieutenant Governor                                     Daniel Miller                         Precinct 4                                             01 
01070030006000004000000000004000000000000000000REP       Lieutenant Governor                                     Daniel Miller                         Precinct 5                                             01 
01070030008000012000000000001000000000011000000REP       Lieutenant Governor                                     Daniel Miller                         Precinct 6                                             01 
01070030009000009000000000002000000000007000000REP       Lieutenant Governor                                     Daniel Miller                         Precinct 7                                             01 
01070030010000011000000000002000000000009000000REP       Lieutenant Governor                                     Daniel Miller                         Precinct 8                                             01 
01070030011000005000001000000000000000004000000REP       Lieutenant Governor                                     Daniel Miller                         Precinct 9                                             01 
01070030012000019000000000006000000000013000000REP       Lieutenant Governor                                     Daniel Miller                         Precinct 10                                            01 
01070030013000023000000000008000000000015000000REP       Lieutenant Governor                                     Daniel Miller                         Precinct 11                                            01 
01070030014000009000001000001000000000007000000REP       Lieutenant Governor                                     Daniel Miller                         Precinct 12                                            01 
01070030015000019000000000004000000000015000000REP       Lieutenant Governor                                     Daniel Miller                         Precinct 13                                            01 
01070030016000003000000000000000000000003000000REP       Lieutenant Governor                                     Daniel Miller                         Precinct 14                                            01 
01070040001000379000025000211000000000143000000REP       Lieutenant Governor                                     Dan Patrick                           Precinct 1                                             01 
01070040003000088000006000030000000000052000000REP       Lieutenant Governor                                     Dan Patrick                           Precinct 2                                             01 
01070040004000147000006000061000000000080000000REP       Lieutenant Governor                                     Dan Patrick                           Precinct 3                                             01 
01070040005000169000006000018000000000145000000REP       Lieutenant Governor                                     Dan Patrick                           Precinct 4                                             01 
01070040006000140000009000053000000000078000000REP       Lieutenant Governor                                     Dan Patrick                           Precinct 5                                             01 
01070040008000326000015000048000002000261000000REP       Lieutenant Governor                                     Dan Patrick                           Precinct 6                                             01 
01070040009000168000007000041000000000120000000REP       Lieutenant Governor                                     Dan Patrick                           Precinct 7                                             01 
01070040010000238000008000047000000000183000000REP       Lieutenant Governor                                     Dan Patrick                           Precinct 8                                             01 
01070040011000094000004000043000000000047000000REP       Lieutenant Governor                                     Dan Patrick                           Precinct 9                                             01 
01070040012000223000010000068000001000144000000REP       Lieutenant Governor                                     Dan Patrick                           Precinct 10                                            01 
01070040013000197000006000055000000000136000000REP       Lieutenant Governor                                     Dan Patrick                           Precinct 11                                            01 
01070040014000165000010000025000000000130000000REP       Lieutenant Governor                                     Dan Patrick                           Precinct 12                                            01 
01070040015000235000013000099000000000123000000REP       Lieutenant Governor                                     Dan Patrick                           Precinct 13                                            01 
01070040016000050000005000033000000000012000000REP       Lieutenant Governor                                     Dan Patrick                           Precinct 14                                            01 
01070050001000015000001000004000000000010000000REP       Lieutenant Governor                                     Todd M. Bullis                        Precinct 1                                             01 
01070050003000004000000000002000000000002000000REP       Lieutenant Governor                                     Todd M. Bullis                        Precinct 2                                             01 
01070050004000001000000000000000000000001000000REP       Lieutenant Governor                                     Todd M. Bullis                        Precinct 3                                             01 
01070050005000005000000000000000000000005000000REP       Lieutenant Governor                                     Todd M. Bullis                        Precinct 4                                             01 
01070050006000002000000000001000000000001000000REP       Lieutenant Governor                                     Todd M. Bullis                        Precinct 5                                             01 
01070050008000009000000000000000000000009000000REP       Lieutenant Governor                                     Todd M. Bullis                        Precinct 6                                             01 
01070050009000005000000000001000000000004000000REP       Lieutenant Governor                                     Todd M. Bullis                        Precinct 7                                             01 
01070050010000005000000000001000000000004000000REP       Lieutenant Governor                                     Todd M. Bullis                        Precinct 8                                             01 
01070050011000003000000000001000000000002000000REP       Lieutenant Governor                                     Todd M. Bullis                        Precinct 9                                             01 
01070050012000010000000000003000000000007000000REP       Lieutenant Governor                                     Todd M. Bullis                        Precinct 10                                            01 
01070050013000003000000000000000000000003000000REP       Lieutenant Governor                                     Todd M. Bullis                        Precinct 11                                            01 
01070050014000003000000000000000000000003000000REP       Lieutenant Governor                                     Todd M. Bullis                        Precinct 12                                            01 
01070050015000003000000000000000000000003000000REP       Lieutenant Governor                                     Todd M. Bullis                        Precinct 13                                            01 
01070050016000003000002000000000000000001000000REP       Lieutenant Governor                                     Todd M. Bullis                        Precinct 14                                            01 
01070060001000015000000000011000000000004000000REP       Lieutenant Governor                                     Zach Vance                            Precinct 1                                             01 
01070060003000007000000000001000000000006000000REP       Lieutenant Governor                                     Zach Vance                            Precinct 2                                             01 
01070060004000007000000000002000000000005000000REP       Lieutenant Governor                                     Zach Vance                            Precinct 3                                             01 
01070060005000005000000000001000000000004000000REP       Lieutenant Governor                                     Zach Vance                            Precinct 4                                             01 
01070060006000005000000000000000000000005000000REP       Lieutenant Governor                                     Zach Vance                            Precinct 5                                             01 
01070060008000007000001000001000000000005000000REP       Lieutenant Governor                                     Zach Vance                            Precinct 6                                             01 
01070060009000006000000000001000000000005000000REP       Lieutenant Governor                                     Zach Vance                            Precinct 7                                             01 
01070060010000002000000000000000000000002000000REP       Lieutenant Governor                                     Zach Vance                            Precinct 8                                             01 
01070060011000005000000000000000000000005000000REP       Lieutenant Governor                                     Zach Vance                            Precinct 9                                             01 
01070060012000006000000000003000000000003000000REP       Lieutenant Governor                                     Zach Vance                            Precinct 10                                            01 
01070060013000002000000000000000000000002000000REP       Lieutenant Governor                                     Zach Vance                            Precinct 11                                            01 
01070060014000005000000000000000000000005000000REP       Lieutenant Governor                                     Zach Vance                            Precinct 12                                            01 
01070060015000005000000000004000000000001000000REP       Lieutenant Governor                                     Zach Vance                            Precinct 13                                            01 
01070060016000004000000000003000000000001000000REP       Lieutenant Governor                                     Zach Vance                            Precinct 14                                            01 
01070070001000000000000000000000000000000000000REP       Lieutenant Governor                                     OVER VOTES                            Precinct 1                                             01 
01070070003000000000000000000000000000000000000REP       Lieutenant Governor                                     OVER VOTES                            Precinct 2                                             01 
01070070004000000000000000000000000000000000000REP       Lieutenant Governor                                     OVER VOTES                            Precinct 3                                             01 
01070070005000000000000000000000000000000000000REP       Lieutenant Governor                                     OVER VOTES                            Precinct 4                                             01 
01070070006000000000000000000000000000000000000REP       Lieutenant Governor                                     OVER VOTES                            Precinct 5                                             01 
01070070008000000000000000000000000000000000000REP       Lieutenant Governor                                     OVER VOTES                            Precinct 6                                             01 
01070070009000000000000000000000000000000000000REP       Lieutenant Governor                                     OVER VOTES                            Precinct 7                                             01 
01070070010000000000000000000000000000000000000REP       Lieutenant Governor                                     OVER VOTES                            Precinct 8                                             01 
01070070011000000000000000000000000000000000000REP       Lieutenant Governor                                     OVER VOTES                            Precinct 9                                             01 
01070070012000000000000000000000000000000000000REP       Lieutenant Governor                                     OVER VOTES                            Precinct 10                                            01 
01070070013000000000000000000000000000000000000REP       Lieutenant Governor                                     OVER VOTES                            Precinct 11                                            01 
01070070014000000000000000000000000000000000000REP       Lieutenant Governor                                     OVER VOTES                            Precinct 12                                            01 
01070070015000000000000000000000000000000000000REP       Lieutenant Governor                                     OVER VOTES                            Precinct 13                                            01 
01070070016000000000000000000000000000000000000REP       Lieutenant Governor                                     OVER VOTES                            Precinct 14                                            01 
01070080001000058000000000030000000000028000000REP       Lieutenant Governor                                     UNDER VOTES                           Precinct 1                                             01 
01070080003000010000000000002000000000008000000REP       Lieutenant Governor                                     UNDER VOTES                           Precinct 2                                             01 
01070080004000013000001000004000000000008000000REP       Lieutenant Governor                                     UNDER VOTES                           Precinct 3                                             01 
01070080005000020000002000001000000000017000000REP       Lieutenant Governor                                     UNDER VOTES                           Precinct 4                                             01 
01070080006000019000001000005000000000013000000REP       Lieutenant Governor                                     UNDER VOTES                           Precinct 5                                             01 
01070080008000028000000000005000000000023000000REP       Lieutenant Governor                                     UNDER VOTES                           Precinct 6                                             01 
01070080009000023000000000003000000000020000000REP       Lieutenant Governor                                     UNDER VOTES                           Precinct 7                                             01 
01070080010000019000000000003000000000016000000REP       Lieutenant Governor                                     UNDER VOTES                           Precinct 8                                             01 
01070080011000010000000000001000000000009000000REP       Lieutenant Governor                                     UNDER VOTES                           Precinct 9                                             01 
01070080012000018000000000007000000000011000000REP       Lieutenant Governor                                     UNDER VOTES                           Precinct 10                                            01 
01070080013000034000000000006000000000028000000REP       Lieutenant Governor                                     UNDER VOTES                           Precinct 11                                            01 
01070080014000032000001000004000000000027000000REP       Lieutenant Governor                                     UNDER VOTES                           Precinct 12                                            01 
01070080015000026000000000007000000000019000000REP       Lieutenant Governor                                     UNDER VOTES                           Precinct 13                                            01 
01070080016000002000000000001000000000001000000REP       Lieutenant Governor                                     UNDER VOTES                           Precinct 14                                            01 
01080010001000132000002000070000000000060000000REP       Attorney General                                        George P. Bush                        Precinct 1                                             01 
01080010003000034000000000012000000000022000000REP       Attorney General                                        George P. Bush                        Precinct 2                                             01 
01080010004000043000001000020000000000022000000REP       Attorney General                                        George P. Bush                        Precinct 3                                             01 
01080010005000052000002000002000000000048000000REP       Attorney General                                        George P. Bush                        Precinct 4                                             01 
01080010006000041000001000009000000000031000000REP       Attorney General                                        George P. Bush                        Precinct 5                                             01 
01080010008000115000007000016000000000092000000REP       Attorney General                                        George P. Bush                        Precinct 6                                             01 
01080010009000055000001000012000000000042000000REP       Attorney General                                        George P. Bush                        Precinct 7                                             01 
01080010010000073000000000017000000000056000000REP       Attorney General                                        George P. Bush                        Precinct 8                                             01 
01080010011000029000004000009000000000016000000REP       Attorney General                                        George P. Bush                        Precinct 9                                             01 
01080010012000062000001000020000000000041000000REP       Attorney General                                        George P. Bush                        Precinct 10                                            01 
01080010013000083000001000016000000000066000000REP       Attorney General                                        George P. Bush                        Precinct 11                                            01 
01080010014000067000004000005000000000058000000REP       Attorney General                                        George P. Bush                        Precinct 12                                            01 
01080010015000062000001000015000000000046000000REP       Attorney General                                        George P. Bush                        Precinct 13                                            01 
01080010016000015000000000013000000000002000000REP       Attorney General                                        George P. Bush                        Precinct 14                                            01 
01080020001000079000001000047000000000031000000REP       Attorney General                                        Eva Guzman                            Precinct 1                                             01 
01080020003000027000002000007000000000018000000REP       Attorney General                                        Eva Guzman                            Precinct 2                                             01 
01080020004000034000003000011000000000020000000REP       Attorney General                                        Eva Guzman                            Precinct 3                                             01 
01080020005000031000001000008000000000022000000REP       Attorney General                                        Eva Guzman                            Precinct 4                                             01 
01080020006000028000002000018000000000008000000REP       Attorney General                                        Eva Guzman                            Precinct 5                                             01 
01080020008000043000002000005000000000036000000REP       Attorney General                                        Eva Guzman                            Precinct 6                                             01 
01080020009000031000000000013000000000018000000REP       Attorney General                                        Eva Guzman                            Precinct 7                                             01 
01080020010000023000000000007000000000016000000REP       Attorney General                                        Eva Guzman                            Precinct 8                                             01 
01080020011000020000000000011000000000009000000REP       Attorney General                                        Eva Guzman                            Precinct 9                                             01 
01080020012000047000002000022000001000022000000REP       Attorney General                                        Eva Guzman                            Precinct 10                                            01 
01080020013000034000001000018000000000015000000REP       Attorney General                                        Eva Guzman                            Precinct 11                                            01 
01080020014000026000004000007000000000015000000REP       Attorney General                                        Eva Guzman                            Precinct 12                                            01 
01080020015000038000001000020000000000017000000REP       Attorney General                                        Eva Guzman                            Precinct 13                                            01 
01080020016000012000002000009000000000001000000REP       Attorney General                                        Eva Guzman                            Precinct 14                                            01 
01080030001000251000025000137000000000089000000REP       Attorney General                                        Ken Paxton                            Precinct 1                                             01 
01080030003000052000004000014000000000034000000REP       Attorney General                                        Ken Paxton                            Precinct 2                                             01 
01080030004000096000003000040000000000053000000REP       Attorney General                                        Ken Paxton                            Precinct 3                                             01 
01080030005000106000005000009000000000092000000REP       Attorney General                                        Ken Paxton                            Precinct 4                                             01 
01080030006000082000006000024000000000052000000REP       Attorney General                                        Ken Paxton                            Precinct 5                                             01 
01080030008000183000008000025000001000149000000REP       Attorney General                                        Ken Paxton                            Precinct 6                                             01 
01080030009000113000007000020000000000086000000REP       Attorney General                                        Ken Paxton                            Precinct 7                                             01 
01080030010000153000006000022000000000125000000REP       Attorney General                                        Ken Paxton                            Precinct 8                                             01 
01080030011000057000002000021000000000034000000REP       Attorney General                                        Ken Paxton                            Precinct 9                                             01 
01080030012000142000004000047000000000091000000REP       Attorney General                                        Ken Paxton                            Precinct 10                                            01 
01080030013000124000003000031000000000090000000REP       Attorney General                                        Ken Paxton                            Precinct 11                                            01 
01080030014000094000001000017000000000076000000REP       Attorney General                                        Ken Paxton                            Precinct 12                                            01 
01080030015000154000011000067000000000076000000REP       Attorney General                                        Ken Paxton                            Precinct 13                                            01 
01080030016000031000003000014000000000014000000REP       Attorney General                                        Ken Paxton                            Precinct 14                                            01 
01080040001000061000002000036000000000023000000REP       Attorney General                                        Louie Gohmert                         Precinct 1                                             01 
01080040003000013000000000004000000000009000000REP       Attorney General                                        Louie Gohmert                         Precinct 2                                             01 
01080040004000019000000000007000000000012000000REP       Attorney General                                        Louie Gohmert                         Precinct 3                                             01 
01080040005000029000000000004000000000025000000REP       Attorney General                                        Louie Gohmert                         Precinct 4                                             01 
01080040006000030000000000010000000000020000000REP       Attorney General                                        Louie Gohmert                         Precinct 5                                             01 
01080040008000067000001000014000001000051000000REP       Attorney General                                        Louie Gohmert                         Precinct 6                                             01 
01080040009000029000000000009000000000020000000REP       Attorney General                                        Louie Gohmert                         Precinct 7                                             01 
01080040010000036000002000013000000000021000000REP       Attorney General                                        Louie Gohmert                         Precinct 8                                             01 
01080040011000017000000000006000000000011000000REP       Attorney General                                        Louie Gohmert                         Precinct 9                                             01 
01080040012000039000003000004000000000032000000REP       Attorney General                                        Louie Gohmert                         Precinct 10                                            01 
01080040013000026000001000006000000000019000000REP       Attorney General                                        Louie Gohmert                         Precinct 11                                            01 
01080040014000029000004000003000000000022000000REP       Attorney General                                        Louie Gohmert                         Precinct 12                                            01 
01080040015000046000000000018000000000028000000REP       Attorney General                                        Louie Gohmert                         Precinct 13                                            01 
01080040016000009000002000002000000000005000000REP       Attorney General                                        Louie Gohmert                         Precinct 14                                            01 
01080050001000000000000000000000000000000000000REP       Attorney General                                        OVER VOTES                            Precinct 1                                             01 
01080050003000000000000000000000000000000000000REP       Attorney General                                        OVER VOTES                            Precinct 2                                             01 
01080050004000000000000000000000000000000000000REP       Attorney General                                        OVER VOTES                            Precinct 3                                             01 
01080050005000000000000000000000000000000000000REP       Attorney General                                        OVER VOTES                            Precinct 4                                             01 
01080050006000000000000000000000000000000000000REP       Attorney General                                        OVER VOTES                            Precinct 5                                             01 
01080050008000000000000000000000000000000000000REP       Attorney General                                        OVER VOTES                            Precinct 6                                             01 
01080050009000000000000000000000000000000000000REP       Attorney General                                        OVER VOTES                            Precinct 7                                             01 
01080050010000000000000000000000000000000000000REP       Attorney General                                        OVER VOTES                            Precinct 8                                             01 
01080050011000000000000000000000000000000000000REP       Attorney General                                        OVER VOTES                            Precinct 9                                             01 
01080050012000000000000000000000000000000000000REP       Attorney General                                        OVER VOTES                            Precinct 10                                            01 
01080050013000000000000000000000000000000000000REP       Attorney General                                        OVER VOTES                            Precinct 11                                            01 
01080050014000000000000000000000000000000000000REP       Attorney General                                        OVER VOTES                            Precinct 12                                            01 
01080050015000000000000000000000000000000000000REP       Attorney General                                        OVER VOTES                            Precinct 13                                            01 
01080050016000000000000000000000000000000000000REP       Attorney General                                        OVER VOTES                            Precinct 14                                            01 
01080060001000030000000000014000000000016000000REP       Attorney General                                        UNDER VOTES                           Precinct 1                                             01 
01080060003000003000000000001000000000002000000REP       Attorney General                                        UNDER VOTES                           Precinct 2                                             01 
01080060004000004000000000000000000000004000000REP       Attorney General                                        UNDER VOTES                           Precinct 3                                             01 
01080060005000011000000000001000000000010000000REP       Attorney General                                        UNDER VOTES                           Precinct 4                                             01 
01080060006000010000001000004000000000005000000REP       Attorney General                                        UNDER VOTES                           Precinct 5                                             01 
01080060008000016000000000002000000000014000000REP       Attorney General                                        UNDER VOTES                           Precinct 6                                             01 
01080060009000012000000000002000000000010000000REP       Attorney General                                        UNDER VOTES                           Precinct 7                                             01 
01080060010000010000000000000000000000010000000REP       Attorney General                                        UNDER VOTES                           Precinct 8                                             01 
01080060011000003000000000001000000000002000000REP       Attorney General                                        UNDER VOTES                           Precinct 9                                             01 
01080060012000007000000000001000000000006000000REP       Attorney General                                        UNDER VOTES                           Precinct 10                                            01 
01080060013000020000001000003000000000016000000REP       Attorney General                                        UNDER VOTES                           Precinct 11                                            01 
