01350010001000041DEM       US Representative, District 17                          Mary Jo Woods                         Precinct 101                                           01 
01350010002000011DEM       US Representative, District 17                          Mary Jo Woods                         Precinct 102                                           01 
01350010003000015DEM       US Representative, District 17                          Mary Jo Woods                         Precinct 103                                           01 
01350010004000021DEM       US Representative, District 17                          Mary Jo Woods                         Precinct 104                                           01 
01350010005000021DEM       US Representative, District 17                          Mary Jo Woods                         Precinct 201                                           01 
01350010006000049DEM       US Representative, District 17                          Mary Jo Woods                         Precinct 202                                           01 
01350010007000011DEM       US Representative, District 17                          Mary Jo Woods                         Precinct 203                                           01 
01350010008000013DEM       US Representative, District 17                          Mary Jo Woods                         Precinct 204                                           01 
01350010009000014DEM       US Representative, District 17                          Mary Jo Woods                         Precinct 205                                           01 
01350010010000008DEM       US Representative, District 17                          Mary Jo Woods                         Precinct 206                                           01 
01350010011000030DEM       US Representative, District 17                          Mary Jo Woods                         Precinct 301                                           01 
01350010012000013DEM       US Representative, District 17                          Mary Jo Woods                         Precinct 302                                           01 
01350010013000005DEM       US Representative, District 17                          Mary Jo Woods                         Precinct 303                                           01 
01350010014000014DEM       US Representative, District 17                          Mary Jo Woods                         Precinct 304                                           01 
01350010015000025DEM       US Representative, District 17                          Mary Jo Woods                         Precinct 305                                           01 
01350010016000049DEM       US Representative, District 17                          Mary Jo Woods                         Precinct 401                                           01 
01350010017000006DEM       US Representative, District 17                          Mary Jo Woods                         Precinct 402                                           01 
01350010018000004DEM       US Representative, District 17                          Mary Jo Woods                         Precinct 403                                           01 
01350010019000010DEM       US Representative, District 17                          Mary Jo Woods                         Precinct 404                                           01 
01350010020000005DEM       US Representative, District 17                          Mary Jo Woods                         Precinct 405                                           01 
01350010021000005DEM       US Representative, District 17                          Mary Jo Woods                         Precinct 406                                           01 
01360010001000005DEM       Governor                                                Michael Cooper                        Precinct 101                                           01 
01360010002000001DEM       Governor                                                Michael Cooper                        Precinct 102                                           01 
01360010003000002DEM       Governor                                                Michael Cooper                        Precinct 103                                           01 
01360010004000002DEM       Governor                                                Michael Cooper                        Precinct 104                                           01 
01360010005000003DEM       Governor                                                Michael Cooper                        Precinct 201                                           01 
01360010006000005DEM       Governor                                                Michael Cooper                        Precinct 202                                           01 
01360010007000000DEM       Governor                                                Michael Cooper                        Precinct 203                                           01 
01360010008000000DEM       Governor                                                Michael Cooper                        Precinct 204                                           01 
01360010009000000DEM       Governor                                                Michael Cooper                        Precinct 205                                           01 
01360010010000000DEM       Governor                                                Michael Cooper                        Precinct 206                                           01 
01360010011000003DEM       Governor                                                Michael Cooper                        Precinct 301                                           01 
01360010012000001DEM       Governor                                                Michael Cooper                        Precinct 302                                           01 
01360010013000000DEM       Governor                                                Michael Cooper                        Precinct 303                                           01 
01360010014000000DEM       Governor                                                Michael Cooper                        Precinct 304                                           01 
01360010015000002DEM       Governor                                                Michael Cooper                        Precinct 305                                           01 
01360010016000007DEM       Governor                                                Michael Cooper                        Precinct 401                                           01 
01360010017000001DEM       Governor                                                Michael Cooper                        Precinct 402                                           01 
01360010018000001DEM       Governor                                                Michael Cooper                        Precinct 403                                           01 
01360010019000001DEM       Governor                                                Michael Cooper                        Precinct 404                                           01 
01360010020000000DEM       Governor                                                Michael Cooper                        Precinct 405                                           01 
01360010021000000DEM       Governor                                                Michael Cooper                        Precinct 406                                           01 
01360020001000001DEM       Governor                                                Joy Diaz                              Precinct 101                                           01 
01360020002000000DEM       Governor                                                Joy Diaz                              Precinct 102                                           01 
01360020003000001DEM       Governor                                                Joy Diaz                              Precinct 103                                           01 
01360020004000000DEM       Governor                                                Joy Diaz                              Precinct 104                                           01 
01360020005000004DEM       Governor                                                Joy Diaz                              Precinct 201                                           01 
01360020006000002DEM       Governor                                                Joy Diaz                              Precinct 202                                           01 
01360020007000001DEM       Governor                                                Joy Diaz                              Precinct 203                                           01 
01360020008000002DEM       Governor                                                Joy Diaz                              Precinct 204                                           01 
01360020009000001DEM       Governor                                                Joy Diaz                              Precinct 205                                           01 
01360020010000001DEM       Governor                                                Joy Diaz                              Precinct 206                                           01 
01360020011000003DEM       Governor                                                Joy Diaz                              Precinct 301                                           01 
01360020012000000DEM       Governor                                                Joy Diaz                              Precinct 302                                           01 
01360020013000000DEM       Governor                                                Joy Diaz                              Precinct 303                                           01 
01360020014000001DEM       Governor                                                Joy Diaz                              Precinct 304                                           01 
01360020015000003DEM       Governor                                                Joy Diaz                              Precinct 305                                           01 
01360020016000003DEM       Governor                                                Joy Diaz                              Precinct 401                                           01 
01360020017000001DEM       Governor                                                Joy Diaz                              Precinct 402                                           01 
01360020018000001DEM       Governor                                                Joy Diaz                              Precinct 403                                           01 
01360020019000000DEM       Governor                                                Joy Diaz                              Precinct 404                                           01 
01360020020000000DEM       Governor                                                Joy Diaz                              Precinct 405                                           01 
01360020021000000DEM       Governor                                                Joy Diaz                              Precinct 406                                           01 
01360030001000000DEM       Governor                                                Inocencio (Inno) Barrientez           Precinct 101                                           01 
01360030002000000DEM       Governor                                                Inocencio (Inno) Barrientez           Precinct 102                                           01 
01360030003000000DEM       Governor                                                Inocencio (Inno) Barrientez           Precinct 103                                           01 
01360030004000000DEM       Governor                                                Inocencio (Inno) Barrientez           Precinct 104                                           01 
01360030005000000DEM       Governor                                                Inocencio (Inno) Barrientez           Precinct 201                                           01 
01360030006000002DEM       Governor                                                Inocencio (Inno) Barrientez           Precinct 202                                           01 
01360030007000000DEM       Governor                                                Inocencio (Inno) Barrientez           Precinct 203                                           01 
01360030008000001DEM       Governor                                                Inocencio (Inno) Barrientez           Precinct 204                                           01 
01360030009000003DEM       Governor                                                Inocencio (Inno) Barrientez           Precinct 205                                           01 
01360030010000000DEM       Governor                                                Inocencio (Inno) Barrientez           Precinct 206                                           01 
01360030011000000DEM       Governor                                                Inocencio (Inno) Barrientez           Precinct 301                                           01 
01360030012000000DEM       Governor                                                Inocencio (Inno) Barrientez           Precinct 302                                           01 
01360030013000000DEM       Governor                                                Inocencio (Inno) Barrientez           Precinct 303                                           01 
01360030014000000DEM       Governor                                                Inocencio (Inno) Barrientez           Precinct 304                                           01 
01360030015000000DEM       Governor                                                Inocencio (Inno) Barrientez           Precinct 305                                           01 
01360030016000001DEM       Governor                                                Inocencio (Inno) Barrientez           Precinct 401                                           01 
01360030017000000DEM       Governor                                                Inocencio (Inno) Barrientez           Precinct 402                                           01 
01360030018000000DEM       Governor                                                Inocencio (Inno) Barrientez           Precinct 403                                           01 
01360030019000000DEM       Governor                                                Inocencio (Inno) Barrientez           Precinct 404                                           01 
01360030020000000DEM       Governor                                                Inocencio (Inno) Barrientez           Precinct 405                                           01 
01360030021000000DEM       Governor                                                Inocencio (Inno) Barrientez           Precinct 406                                           01 
01360040001000059DEM       Governor                                                Beto O'Rourke                         Precinct 101                                           01 
01360040002000009DEM       Governor                                                Beto O'Rourke                         Precinct 102                                           01 
01360040003000015DEM       Governor                                                Beto O'Rourke                         Precinct 103                                           01 
01360040004000021DEM       Governor                                                Beto O'Rourke                         Precinct 104                                           01 
01360040005000020DEM       Governor                                                Beto O'Rourke                         Precinct 201                                           01 
01360040006000052DEM       Governor                                                Beto O'Rourke                         Precinct 202                                           01 
01360040007000015DEM       Governor                                                Beto O'Rourke                         Precinct 203                                           01 
01360040008000013DEM       Governor                                                Beto O'Rourke                         Precinct 204                                           01 
01360040009000015DEM       Governor                                                Beto O'Rourke                         Precinct 205                                           01 
01360040010000008DEM       Governor                                                Beto O'Rourke                         Precinct 206                                           01 
01360040011000033DEM       Governor                                                Beto O'Rourke                         Precinct 301                                           01 
01360040012000013DEM       Governor                                                Beto O'Rourke                         Precinct 302                                           01 
01360040013000005DEM       Governor                                                Beto O'Rourke                         Precinct 303                                           01 
01360040014000015DEM       Governor                                                Beto O'Rourke                         Precinct 304                                           01 
01360040015000022DEM       Governor                                                Beto O'Rourke                         Precinct 305                                           01 
01360040016000055DEM       Governor                                                Beto O'Rourke                         Precinct 401                                           01 
01360040017000004DEM       Governor                                                Beto O'Rourke                         Precinct 402                                           01 
01360040018000002DEM       Governor                                                Beto O'Rourke                         Precinct 403                                           01 
01360040019000009DEM       Governor                                                Beto O'Rourke                         Precinct 404                                           01 
01360040020000006DEM       Governor                                                Beto O'Rourke                         Precinct 405                                           01 
01360040021000007DEM       Governor                                                Beto O'Rourke                         Precinct 406                                           01 
01360050001000001DEM       Governor                                                Rich Wakeland                         Precinct 101                                           01 
01360050002000000DEM       Governor                                                Rich Wakeland                         Precinct 102                                           01 
01360050003000000DEM       Governor                                                Rich Wakeland                         Precinct 103                                           01 
01360050004000000DEM       Governor                                                Rich Wakeland                         Precinct 104                                           01 
01360050005000000DEM       Governor                                                Rich Wakeland                         Precinct 201                                           01 
01360050006000003DEM       Governor                                                Rich Wakeland                         Precinct 202                                           01 
01360050007000000DEM       Governor                                                Rich Wakeland                         Precinct 203                                           01 
01360050008000000DEM       Governor                                                Rich Wakeland                         Precinct 204                                           01 
01360050009000000DEM       Governor                                                Rich Wakeland                         Precinct 205                                           01 
01360050010000000DEM       Governor                                                Rich Wakeland                         Precinct 206                                           01 
01360050011000001DEM       Governor                                                Rich Wakeland                         Precinct 301                                           01 
01360050012000000DEM       Governor                                                Rich Wakeland                         Precinct 302                                           01 
01360050013000000DEM       Governor                                                Rich Wakeland                         Precinct 303                                           01 
01360050014000000DEM       Governor                                                Rich Wakeland                         Precinct 304                                           01 
01360050015000001DEM       Governor                                                Rich Wakeland                         Precinct 305                                           01 
01360050016000000DEM       Governor                                                Rich Wakeland                         Precinct 401                                           01 
01360050017000000DEM       Governor                                                Rich Wakeland                         Precinct 402                                           01 
01360050018000000DEM       Governor                                                Rich Wakeland                         Precinct 403                                           01 
01360050019000001DEM       Governor                                                Rich Wakeland                         Precinct 404                                           01 
01360050020000001DEM       Governor                                                Rich Wakeland                         Precinct 405                                           01 
01360050021000000DEM       Governor                                                Rich Wakeland                         Precinct 406                                           01 
01370010001000021DEM       Lieutenant Governor                                     Carla Brailey                         Precinct 101                                           01 
01370010002000005DEM       Lieutenant Governor                                     Carla Brailey                         Precinct 102                                           01 
01370010003000004DEM       Lieutenant Governor                                     Carla Brailey                         Precinct 103                                           01 
01370010004000009DEM       Lieutenant Governor                                     Carla Brailey                         Precinct 104                                           01 
01370010005000004DEM       Lieutenant Governor                                     Carla Brailey                         Precinct 201                                           01 
01370010006000012DEM       Lieutenant Governor                                     Carla Brailey                         Precinct 202                                           01 
01370010007000006DEM       Lieutenant Governor                                     Carla Brailey                         Precinct 203                                           01 
01370010008000004DEM       Lieutenant Governor                                     Carla Brailey                         Precinct 204                                           01 
01370010009000007DEM       Lieutenant Governor                                     Carla Brailey                         Precinct 205                                           01 
01370010010000005DEM       Lieutenant Governor                                     Carla Brailey                         Precinct 206                                           01 
01370010011000013DEM       Lieutenant Governor                                     Carla Brailey                         Precinct 301                                           01 
01370010012000007DEM       Lieutenant Governor                                     Carla Brailey                         Precinct 302                                           01 
01370010013000000DEM       Lieutenant Governor                                     Carla Brailey                         Precinct 303                                           01 
01370010014000004DEM       Lieutenant Governor                                     Carla Brailey                         Precinct 304                                           01 
01370010015000012DEM       Lieutenant Governor                                     Carla Brailey                         Precinct 305                                           01 
01370010016000012DEM       Lieutenant Governor                                     Carla Brailey                         Precinct 401                                           01 
01370010017000001DEM       Lieutenant Governor                                     Carla Brailey                         Precinct 402                                           01 
01370010018000003DEM       Lieutenant Governor                                     Carla Brailey                         Precinct 403                                           01 
01370010019000004DEM       Lieutenant Governor                                     Carla Brailey                         Precinct 404                                           01 
01370010020000002DEM       Lieutenant Governor                                     Carla Brailey                         Precinct 405                                           01 
01370010021000001DEM       Lieutenant Governor                                     Carla Brailey                         Precinct 406                                           01 
01370020001000022DEM       Lieutenant Governor                                     Mike Collier                          Precinct 101                                           01 
01370020002000003DEM       Lieutenant Governor                                     Mike Collier                          Precinct 102                                           01 
01370020003000007DEM       Lieutenant Governor                                     Mike Collier                          Precinct 103                                           01 
01370020004000006DEM       Lieutenant Governor                                     Mike Collier                          Precinct 104                                           01 
01370020005000010DEM       Lieutenant Governor                                     Mike Collier                          Precinct 201                                           01 
01370020006000033DEM       Lieutenant Governor                                     Mike Collier                          Precinct 202                                           01 
01370020007000004DEM       Lieutenant Governor                                     Mike Collier                          Precinct 203                                           01 
01370020008000007DEM       Lieutenant Governor                                     Mike Collier                          Precinct 204                                           01 
01370020009000009DEM       Lieutenant Governor                                     Mike Collier                          Precinct 205                                           01 
01370020010000003DEM       Lieutenant Governor                                     Mike Collier                          Precinct 206                                           01 
01370020011000010DEM       Lieutenant Governor                                     Mike Collier                          Precinct 301                                           01 
01370020012000004DEM       Lieutenant Governor                                     Mike Collier                          Precinct 302                                           01 
01370020013000003DEM       Lieutenant Governor                                     Mike Collier                          Precinct 303                                           01 
01370020014000008DEM       Lieutenant Governor                                     Mike Collier                          Precinct 304                                           01 
01370020015000006DEM       Lieutenant Governor                                     Mike Collier                          Precinct 305                                           01 
01370020016000027DEM       Lieutenant Governor                                     Mike Collier                          Precinct 401                                           01 
01370020017000004DEM       Lieutenant Governor                                     Mike Collier                          Precinct 402                                           01 
01370020018000001DEM       Lieutenant Governor                                     Mike Collier                          Precinct 403                                           01 
01370020019000006DEM       Lieutenant Governor                                     Mike Collier                          Precinct 404                                           01 
01370020020000003DEM       Lieutenant Governor                                     Mike Collier                          Precinct 405                                           01 
01370020021000003DEM       Lieutenant Governor                                     Mike Collier                          Precinct 406                                           01 
01370030001000013DEM       Lieutenant Governor                                     Michelle Beckley                      Precinct 101                                           01 
01370030002000002DEM       Lieutenant Governor                                     Michelle Beckley                      Precinct 102                                           01 
01370030003000005DEM       Lieutenant Governor                                     Michelle Beckley                      Precinct 103                                           01 
01370030004000008DEM       Lieutenant Governor                                     Michelle Beckley                      Precinct 104                                           01 
01370030005000012DEM       Lieutenant Governor                                     Michelle Beckley                      Precinct 201                                           01 
01370030006000013DEM       Lieutenant Governor                                     Michelle Beckley                      Precinct 202                                           01 
01370030007000002DEM       Lieutenant Governor                                     Michelle Beckley                      Precinct 203                                           01 
01370030008000004DEM       Lieutenant Governor                                     Michelle Beckley                      Precinct 204                                           01 
01370030009000002DEM       Lieutenant Governor                                     Michelle Beckley                      Precinct 205                                           01 
01370030010000001DEM       Lieutenant Governor                                     Michelle Beckley                      Precinct 206                                           01 
01370030011000014DEM       Lieutenant Governor                                     Michelle Beckley                      Precinct 301                                           01 
01370030012000002DEM       Lieutenant Governor                                     Michelle Beckley                      Precinct 302                                           01 
01370030013000000DEM       Lieutenant Governor                                     Michelle Beckley                      Precinct 303                                           01 
01370030014000003DEM       Lieutenant Governor                                     Michelle Beckley                      Precinct 304                                           01 
01370030015000009DEM       Lieutenant Governor                                     Michelle Beckley                      Precinct 305                                           01 
01370030016000019DEM       Lieutenant Governor                                     Michelle Beckley                      Precinct 401                                           01 
01370030017000001DEM       Lieutenant Governor                                     Michelle Beckley                      Precinct 402                                           01 
01370030018000000DEM       Lieutenant Governor                                     Michelle Beckley                      Precinct 403                                           01 
01370030019000001DEM       Lieutenant Governor                                     Michelle Beckley                      Precinct 404                                           01 
01370030020000002DEM       Lieutenant Governor                                     Michelle Beckley                      Precinct 405                                           01 
01370030021000002DEM       Lieutenant Governor                                     Michelle Beckley                      Precinct 406                                           01 
01380010001000007DEM       Attorney General                                        S. "TBONE" Raynor                     Precinct 101                                           01 
01380010002000001DEM       Attorney General                                        S. "TBONE" Raynor                     Precinct 102                                           01 
01380010003000001DEM       Attorney General                                        S. "TBONE" Raynor                     Precinct 103                                           01 
01380010004000002DEM       Attorney General                                        S. "TBONE" Raynor                     Precinct 104                                           01 
01380010005000003DEM       Attorney General                                        S. "TBONE" Raynor                     Precinct 201                                           01 
01380010006000005DEM       Attorney General                                        S. "TBONE" Raynor                     Precinct 202                                           01 
01380010007000001DEM       Attorney General                                        S. "TBONE" Raynor                     Precinct 203                                           01 
01380010008000001DEM       Attorney General                                        S. "TBONE" Raynor                     Precinct 204                                           01 
01380010009000006DEM       Attorney General                                        S. "TBONE" Raynor                     Precinct 205                                           01 
01380010010000000DEM       Attorney General                                        S. "TBONE" Raynor                     Precinct 206                                           01 
01380010011000004DEM       Attorney General                                        S. "TBONE" Raynor                     Precinct 301                                           01 
01380010012000002DEM       Attorney General                                        S. "TBONE" Raynor                     Precinct 302                                           01 
01380010013000000DEM       Attorney General                                        S. "TBONE" Raynor                     Precinct 303                                           01 
01380010014000000DEM       Attorney General                                        S. "TBONE" Raynor                     Precinct 304                                           01 
01380010015000004DEM       Attorney General                                        S. "TBONE" Raynor                     Precinct 305                                           01 
01380010016000003DEM       Attorney General                                        S. "TBONE" Raynor                     Precinct 401                                           01 
01380010017000001DEM       Attorney General                                        S. "TBONE" Raynor                     Precinct 402                                           01 
01380010018000001DEM       Attorney General                                        S. "TBONE" Raynor                     Precinct 403                                           01 
01380010019000000DEM       Attorney General                                        S. "TBONE" Raynor                     Precinct 404                                           01 
01380010020000001DEM       Attorney General                                        S. "TBONE" Raynor                     Precinct 405                                           01 
01380010021000002DEM       Attorney General                                        S. "TBONE" Raynor                     Precinct 406                                           01 
01380020001000007DEM       Attorney General                                        Joe Jaworski                          Precinct 101                                           01 
01380020002000001DEM       Attorney General                                        Joe Jaworski                          Precinct 102                                           01 
01380020003000005DEM       Attorney General                                        Joe Jaworski                          Precinct 103                                           01 
01380020004000007DEM       Attorney General                                        Joe Jaworski                          Precinct 104                                           01 
01380020005000005DEM       Attorney General                                        Joe Jaworski                          Precinct 201                                           01 
01380020006000010DEM       Attorney General                                        Joe Jaworski                          Precinct 202                                           01 
01380020007000002DEM       Attorney General                                        Joe Jaworski                          Precinct 203                                           01 
01380020008000004DEM       Attorney General                                        Joe Jaworski                          Precinct 204                                           01 
01380020009000002DEM       Attorney General                                        Joe Jaworski                          Precinct 205                                           01 
01380020010000000DEM       Attorney General                                        Joe Jaworski                          Precinct 206                                           01 
01380020011000001DEM       Attorney General                                        Joe Jaworski                          Precinct 301                                           01 
01380020012000001DEM       Attorney General                                        Joe Jaworski                          Precinct 302                                           01 
01380020013000003DEM       Attorney General                                        Joe Jaworski                          Precinct 303                                           01 
01380020014000008DEM       Attorney General                                        Joe Jaworski                          Precinct 304                                           01 
01380020015000005DEM       Attorney General                                        Joe Jaworski                          Precinct 305                                           01 
01380020016000010DEM       Attorney General                                        Joe Jaworski                          Precinct 401                                           01 
01380020017000002DEM       Attorney General                                        Joe Jaworski                          Precinct 402                                           01 
01380020018000001DEM       Attorney General                                        Joe Jaworski                          Precinct 403                                           01 
01380020019000002DEM       Attorney General                                        Joe Jaworski                          Precinct 404                                           01 
01380020020000001DEM       Attorney General                                        Joe Jaworski                          Precinct 405                                           01 
01380020021000000DEM       Attorney General                                        Joe Jaworski                          Precinct 406                                           01 
01380030001000016DEM       Attorney General                                        Rochelle Mercedes Garza               Precinct 101                                           01 
01380030002000005DEM       Attorney General                                        Rochelle Mercedes Garza               Precinct 102                                           01 
01380030003000003DEM       Attorney General                                        Rochelle Mercedes Garza               Precinct 103                                           01 
01380030004000009DEM       Attorney General                                        Rochelle Mercedes Garza               Precinct 104                                           01 
01380030005000011DEM       Attorney General                                        Rochelle Mercedes Garza               Precinct 201                                           01 
01380030006000015DEM       Attorney General                                        Rochelle Mercedes Garza               Precinct 202                                           01 
01380030007000002DEM       Attorney General                                        Rochelle Mercedes Garza               Precinct 203                                           01 
01380030008000006DEM       Attorney General                                        Rochelle Mercedes Garza               Precinct 204                                           01 
01380030009000004DEM       Attorney General                                        Rochelle Mercedes Garza               Precinct 205                                           01 
01380030010000006DEM       Attorney General                                        Rochelle Mercedes Garza               Precinct 206                                           01 
01380030011000016DEM       Attorney General                                        Rochelle Mercedes Garza               Precinct 301                                           01 
01380030012000004DEM       Attorney General                                        Rochelle Mercedes Garza               Precinct 302                                           01 
01380030013000001DEM       Attorney General                                        Rochelle Mercedes Garza               Precinct 303                                           01 
01380030014000002DEM       Attorney General                                        Rochelle Mercedes Garza               Precinct 304                                           01 
01380030015000010DEM       Attorney General                                        Rochelle Mercedes Garza               Precinct 305                                           01 
01380030016000017DEM       Attorney General                                        Rochelle Mercedes Garza               Precinct 401                                           01 
01380030017000001DEM       Attorney General                                        Rochelle Mercedes Garza               Precinct 402                                           01 
01380030018000002DEM       Attorney General                                        Rochelle Mercedes Garza               Precinct 403                                           01 
01380030019000002DEM       Attorney General                                        Rochelle Mercedes Garza               Precinct 404                                           01 
01380030020000003DEM       Attorney General                                        Rochelle Mercedes Garza               Precinct 405                                           01 
01380030021000001DEM       Attorney General                                        Rochelle Mercedes Garza               Precinct 406                                           01 
01380040001000012DEM       Attorney General                                        Lee Merritt                           Precinct 101                                           01 
01380040002000002DEM       Attorney General                                        Lee Merritt                           Precinct 102                                           01 
01380040003000004DEM       Attorney General                                        Lee Merritt                           Precinct 103                                           01 
01380040004000002DEM       Attorney General                                        Lee Merritt                           Precinct 104                                           01 
01380040005000006DEM       Attorney General                                        Lee Merritt                           Precinct 201                                           01 
01380040006000019DEM       Attorney General                                        Lee Merritt                           Precinct 202                                           01 
01380040007000004DEM       Attorney General                                        Lee Merritt                           Precinct 203                                           01 
01380040008000001DEM       Attorney General                                        Lee Merritt                           Precinct 204                                           01 
01380040009000004DEM       Attorney General                                        Lee Merritt                           Precinct 205                                           01 
01380040010000002DEM       Attorney General                                        Lee Merritt                           Precinct 206                                           01 
01380040011000008DEM       Attorney General                                        Lee Merritt                           Precinct 301                                           01 
01380040012000005DEM       Attorney General                                        Lee Merritt                           Precinct 302                                           01 
01380040013000000DEM       Attorney General                                        Lee Merritt                           Precinct 303                                           01 
01380040014000002DEM       Attorney General                                        Lee Merritt                           Precinct 304                                           01 
01380040015000006DEM       Attorney General                                        Lee Merritt                           Precinct 305                                           01 
01380040016000017DEM       Attorney General                                        Lee Merritt                           Precinct 401                                           01 
01380040017000001DEM       Attorney General                                        Lee Merritt                           Precinct 402                                           01 
01380040018000000DEM       Attorney General                                        Lee Merritt                           Precinct 403                                           01 
01380040019000003DEM       Attorney General                                        Lee Merritt                           Precinct 404                                           01 
01380040020000002DEM       Attorney General                                        Lee Merritt                           Precinct 405                                           01 
01380040021000000DEM       Attorney General                                        Lee Merritt                           Precinct 406                                           01 
01380050001000015DEM       Attorney General                                        Mike Fields                           Precinct 101                                           01 
01380050002000000DEM       Attorney General                                        Mike Fields                           Precinct 102                                           01 
01380050003000002DEM       Attorney General                                        Mike Fields                           Precinct 103                                           01 
01380050004000004DEM       Attorney General                                        Mike Fields                           Precinct 104                                           01 
01380050005000001DEM       Attorney General                                        Mike Fields                           Precinct 201                                           01 
01380050006000011DEM       Attorney General                                        Mike Fields                           Precinct 202                                           01 
01380050007000003DEM       Attorney General                                        Mike Fields                           Precinct 203                                           01 
01380050008000002DEM       Attorney General                                        Mike Fields                           Precinct 204                                           01 
01380050009000002DEM       Attorney General                                        Mike Fields                           Precinct 205                                           01 
01380050010000000DEM       Attorney General                                        Mike Fields                           Precinct 206                                           01 
01380050011000007DEM       Attorney General                                        Mike Fields                           Precinct 301                                           01 
01380050012000000DEM       Attorney General                                        Mike Fields                           Precinct 302                                           01 
01380050013000000DEM       Attorney General                                        Mike Fields                           Precinct 303                                           01 
01380050014000002DEM       Attorney General                                        Mike Fields                           Precinct 304                                           01 
01380050015000003DEM       Attorney General                                        Mike Fields                           Precinct 305                                           01 
01380050016000014DEM       Attorney General                                        Mike Fields                           Precinct 401                                           01 
01380050017000001DEM       Attorney General                                        Mike Fields                           Precinct 402                                           01 
01380050018000000DEM       Attorney General                                        Mike Fields                           Precinct 403                                           01 
01380050019000003DEM       Attorney General                                        Mike Fields                           Precinct 404                                           01 
01380050020000000DEM       Attorney General                                        Mike Fields                           Precinct 405                                           01 
01380050021000002DEM       Attorney General                                        Mike Fields                           Precinct 406                                           01 
01390010001000030DEM       Comptroller of Public Accounts                          Tim Mahoney                           Precinct 101                                           01 
01390010002000004DEM       Comptroller of Public Accounts                          Tim Mahoney                           Precinct 102                                           01 
01390010003000008DEM       Comptroller of Public Accounts                          Tim Mahoney                           Precinct 103                                           01 
01390010004000005DEM       Comptroller of Public Accounts                          Tim Mahoney                           Precinct 104                                           01 
01390010005000008DEM       Comptroller of Public Accounts                          Tim Mahoney                           Precinct 201                                           01 
01390010006000015DEM       Comptroller of Public Accounts                          Tim Mahoney                           Precinct 202                                           01 
01390010007000006DEM       Comptroller of Public Accounts                          Tim Mahoney                           Precinct 203                                           01 
01390010008000003DEM       Comptroller of Public Accounts                          Tim Mahoney                           Precinct 204                                           01 
01390010009000004DEM       Comptroller of Public Accounts                          Tim Mahoney                           Precinct 205                                           01 
01390010010000003DEM       Comptroller of Public Accounts                          Tim Mahoney                           Precinct 206                                           01 
01390010011000011DEM       Comptroller of Public Accounts                          Tim Mahoney                           Precinct 301                                           01 
01390010012000004DEM       Comptroller of Public Accounts                          Tim Mahoney                           Precinct 302                                           01 
01390010013000000DEM       Comptroller of Public Accounts                          Tim Mahoney                           Precinct 303                                           01 
01390010014000002DEM       Comptroller of Public Accounts                          Tim Mahoney                           Precinct 304                                           01 
01390010015000008DEM       Comptroller of Public Accounts                          Tim Mahoney                           Precinct 305                                           01 
01390010016000017DEM       Comptroller of Public Accounts                          Tim Mahoney                           Precinct 401                                           01 
01390010017000004DEM       Comptroller of Public Accounts                          Tim Mahoney                           Precinct 402                                           01 
01390010018000001DEM       Comptroller of Public Accounts                          Tim Mahoney                           Precinct 403                                           01 
01390010019000002DEM       Comptroller of Public Accounts                          Tim Mahoney                           Precinct 404                                           01 
01390010020000002DEM       Comptroller of Public Accounts                          Tim Mahoney                           Precinct 405                                           01 
01390010021000002DEM       Comptroller of Public Accounts                          Tim Mahoney                           Precinct 406                                           01 
01390020001000012DEM       Comptroller of Public Accounts                          Angel Luis Vega                       Precinct 101                                           01 
01390020002000004DEM       Comptroller of Public Accounts                          Angel Luis Vega                       Precinct 102                                           01 
01390020003000003DEM       Comptroller of Public Accounts                          Angel Luis Vega                       Precinct 103                                           01 
01390020004000003DEM       Comptroller of Public Accounts                          Angel Luis Vega                       Precinct 104                                           01 
01390020005000007DEM       Comptroller of Public Accounts                          Angel Luis Vega                       Precinct 201                                           01 
01390020006000016DEM       Comptroller of Public Accounts                          Angel Luis Vega                       Precinct 202                                           01 
01390020007000002DEM       Comptroller of Public Accounts                          Angel Luis Vega                       Precinct 203                                           01 
01390020008000003DEM       Comptroller of Public Accounts                          Angel Luis Vega                       Precinct 204                                           01 
01390020009000010DEM       Comptroller of Public Accounts                          Angel Luis Vega                       Precinct 205                                           01 
01390020010000005DEM       Comptroller of Public Accounts                          Angel Luis Vega                       Precinct 206                                           01 
01390020011000016DEM       Comptroller of Public Accounts                          Angel Luis Vega                       Precinct 301                                           01 
01390020012000004DEM       Comptroller of Public Accounts                          Angel Luis Vega                       Precinct 302                                           01 
01390020013000001DEM       Comptroller of Public Accounts                          Angel Luis Vega                       Precinct 303                                           01 
01390020014000003DEM       Comptroller of Public Accounts                          Angel Luis Vega                       Precinct 304                                           01 
01390020015000008DEM       Comptroller of Public Accounts                          Angel Luis Vega                       Precinct 305                                           01 
01390020016000021DEM       Comptroller of Public Accounts                          Angel Luis Vega                       Precinct 401                                           01 
01390020017000002DEM       Comptroller of Public Accounts                          Angel Luis Vega                       Precinct 402                                           01 
01390020018000000DEM       Comptroller of Public Accounts                          Angel Luis Vega                       Precinct 403                                           01 
01390020019000004DEM       Comptroller of Public Accounts                          Angel Luis Vega                       Precinct 404                                           01 
01390020020000001DEM       Comptroller of Public Accounts                          Angel Luis Vega                       Precinct 405                                           01 
01390020021000001DEM       Comptroller of Public Accounts                          Angel Luis Vega                       Precinct 406                                           01 
01390030001000012DEM       Comptroller of Public Accounts                          Janet T. Dudding                      Precinct 101                                           01 
01390030002000001DEM       Comptroller of Public Accounts                          Janet T. Dudding                      Precinct 102                                           01 
01390030003000004DEM       Comptroller of Public Accounts                          Janet T. Dudding                      Precinct 103                                           01 
01390030004000015DEM       Comptroller of Public Accounts                          Janet T. Dudding                      Precinct 104                                           01 
01390030005000011DEM       Comptroller of Public Accounts                          Janet T. Dudding                      Precinct 201                                           01 
01390030006000027DEM       Comptroller of Public Accounts                          Janet T. Dudding                      Precinct 202                                           01 
01390030007000004DEM       Comptroller of Public Accounts                          Janet T. Dudding                      Precinct 203                                           01 
01390030008000008DEM       Comptroller of Public Accounts                          Janet T. Dudding                      Precinct 204                                           01 
01390030009000003DEM       Comptroller of Public Accounts                          Janet T. Dudding                      Precinct 205                                           01 
01390030010000001DEM       Comptroller of Public Accounts                          Janet T. Dudding                      Precinct 206                                           01 
01390030011000007DEM       Comptroller of Public Accounts                          Janet T. Dudding                      Precinct 301                                           01 
01390030012000005DEM       Comptroller of Public Accounts                          Janet T. Dudding                      Precinct 302                                           01 
01390030013000002DEM       Comptroller of Public Accounts                          Janet T. Dudding                      Precinct 303                                           01 
01390030014000009DEM       Comptroller of Public Accounts                          Janet T. Dudding                      Precinct 304                                           01 
01390030015000012DEM       Comptroller of Public Accounts                          Janet T. Dudding                      Precinct 305                                           01 
01390030016000022DEM       Comptroller of Public Accounts                          Janet T. Dudding                      Precinct 401                                           01 
01390030017000000DEM       Comptroller of Public Accounts                          Janet T. Dudding                      Precinct 402                                           01 
01390030018000003DEM       Comptroller of Public Accounts                          Janet T. Dudding                      Precinct 403                                           01 
01390030019000004DEM       Comptroller of Public Accounts                          Janet T. Dudding                      Precinct 404                                           01 
01390030020000004DEM       Comptroller of Public Accounts                          Janet T. Dudding                      Precinct 405                                           01 
01390030021000002DEM       Comptroller of Public Accounts                          Janet T. Dudding                      Precinct 406                                           01 
01400010001000012DEM       Commissioner of the General Land Office                 Jay Kleberg                           Precinct 101                                           01 
01400010002000001DEM       Commissioner of the General Land Office                 Jay Kleberg                           Precinct 102                                           01 
01400010003000005DEM       Commissioner of the General Land Office                 Jay Kleberg                           Precinct 103                                           01 
01400010004000009DEM       Commissioner of the General Land Office                 Jay Kleberg                           Precinct 104                                           01 
01400010005000009DEM       Commissioner of the General Land Office                 Jay Kleberg                           Precinct 201                                           01 
01400010006000021DEM       Commissioner of the General Land Office                 Jay Kleberg                           Precinct 202                                           01 
01400010007000003DEM       Commissioner of the General Land Office                 Jay Kleberg                           Precinct 203                                           01 
01400010008000005DEM       Commissioner of the General Land Office                 Jay Kleberg                           Precinct 204                                           01 
01400010009000008DEM       Commissioner of the General Land Office                 Jay Kleberg                           Precinct 205                                           01 
01400010010000002DEM       Commissioner of the General Land Office                 Jay Kleberg                           Precinct 206                                           01 
01400010011000007DEM       Commissioner of the General Land Office                 Jay Kleberg                           Precinct 301                                           01 
01400010012000002DEM       Commissioner of the General Land Office                 Jay Kleberg                           Precinct 302                                           01 
01400010013000000DEM       Commissioner of the General Land Office                 Jay Kleberg                           Precinct 303                                           01 
01400010014000008DEM       Commissioner of the General Land Office                 Jay Kleberg                           Precinct 304                                           01 
01400010015000013DEM       Commissioner of the General Land Office                 Jay Kleberg                           Precinct 305                                           01 
01400010016000020DEM       Commissioner of the General Land Office                 Jay Kleberg                           Precinct 401                                           01 
01400010017000002DEM       Commissioner of the General Land Office                 Jay Kleberg                           Precinct 402                                           01 
01400010018000001DEM       Commissioner of the General Land Office                 Jay Kleberg                           Precinct 403                                           01 
01400010019000002DEM       Commissioner of the General Land Office                 Jay Kleberg                           Precinct 404                                           01 
01400010020000004DEM       Commissioner of the General Land Office                 Jay Kleberg                           Precinct 405                                           01 
01400010021000003DEM       Commissioner of the General Land Office                 Jay Kleberg                           Precinct 406                                           01 
01400020001000014DEM       Commissioner of the General Land Office                 Sandragrace Martinez                  Precinct 101                                           01 
01400020002000002DEM       Commissioner of the General Land Office                 Sandragrace Martinez                  Precinct 102                                           01 
01400020003000003DEM       Commissioner of the General Land Office                 Sandragrace Martinez                  Precinct 103                                           01 
01400020004000001DEM       Commissioner of the General Land Office                 Sandragrace Martinez                  Precinct 104                                           01 
01400020005000006DEM       Commissioner of the General Land Office                 Sandragrace Martinez                  Precinct 201                                           01 
01400020006000012DEM       Commissioner of the General Land Office                 Sandragrace Martinez                  Precinct 202                                           01 
01400020007000002DEM       Commissioner of the General Land Office                 Sandragrace Martinez                  Precinct 203                                           01 
01400020008000005DEM       Commissioner of the General Land Office                 Sandragrace Martinez                  Precinct 204                                           01 
01400020009000003DEM       Commissioner of the General Land Office                 Sandragrace Martinez                  Precinct 205                                           01 
01400020010000003DEM       Commissioner of the General Land Office                 Sandragrace Martinez                  Precinct 206                                           01 
01400020011000016DEM       Commissioner of the General Land Office                 Sandragrace Martinez                  Precinct 301                                           01 
01400020012000005DEM       Commissioner of the General Land Office                 Sandragrace Martinez                  Precinct 302                                           01 
01400020013000003DEM       Commissioner of the General Land Office                 Sandragrace Martinez                  Precinct 303                                           01 
01400020014000001DEM       Commissioner of the General Land Office                 Sandragrace Martinez                  Precinct 304                                           01 
01400020015000007DEM       Commissioner of the General Land Office                 Sandragrace Martinez                  Precinct 305                                           01 
01400020016000019DEM       Commissioner of the General Land Office                 Sandragrace Martinez                  Precinct 401                                           01 
01400020017000002DEM       Commissioner of the General Land Office                 Sandragrace Martinez                  Precinct 402                                           01 
01400020018000002DEM       Commissioner of the General Land Office                 Sandragrace Martinez                  Precinct 403                                           01 
01400020019000002DEM       Commissioner of the General Land Office                 Sandragrace Martinez                  Precinct 404                                           01 
01400020020000002DEM       Commissioner of the General Land Office                 Sandragrace Martinez                  Precinct 405                                           01 
01400020021000000DEM       Commissioner of the General Land Office                 Sandragrace Martinez                  Precinct 406                                           01 
01400030001000018DEM       Commissioner of the General Land Office                 Michael Lange                         Precinct 101                                           01 
01400030002000002DEM       Commissioner of the General Land Office                 Michael Lange                         Precinct 102                                           01 
01400030003000004DEM       Commissioner of the General Land Office                 Michael Lange                         Precinct 103                                           01 
01400030004000005DEM       Commissioner of the General Land Office                 Michael Lange                         Precinct 104                                           01 
01400030005000007DEM       Commissioner of the General Land Office                 Michael Lange                         Precinct 201                                           01 
01400030006000013DEM       Commissioner of the General Land Office                 Michael Lange                         Precinct 202                                           01 
01400030007000005DEM       Commissioner of the General Land Office                 Michael Lange                         Precinct 203                                           01 
01400030008000003DEM       Commissioner of the General Land Office                 Michael Lange                         Precinct 204                                           01 
01400030009000006DEM       Commissioner of the General Land Office                 Michael Lange                         Precinct 205                                           01 
01400030010000001DEM       Commissioner of the General Land Office                 Michael Lange                         Precinct 206                                           01 
01400030011000008DEM       Commissioner of the General Land Office                 Michael Lange                         Precinct 301                                           01 
01400030012000005DEM       Commissioner of the General Land Office                 Michael Lange                         Precinct 302                                           01 
01400030013000000DEM       Commissioner of the General Land Office                 Michael Lange                         Precinct 303                                           01 
01400030014000003DEM       Commissioner of the General Land Office                 Michael Lange                         Precinct 304                                           01 
01400030015000006DEM       Commissioner of the General Land Office                 Michael Lange                         Precinct 305                                           01 
01400030016000015DEM       Commissioner of the General Land Office                 Michael Lange                         Precinct 401                                           01 
01400030017000001DEM       Commissioner of the General Land Office                 Michael Lange                         Precinct 402                                           01 
01400030018000001DEM       Commissioner of the General Land Office                 Michael Lange                         Precinct 403                                           01 
01400030019000004DEM       Commissioner of the General Land Office                 Michael Lange                         Precinct 404                                           01 
01400030020000001DEM       Commissioner of the General Land Office                 Michael Lange                         Precinct 405                                           01 
01400030021000002DEM       Commissioner of the General Land Office                 Michael Lange                         Precinct 406                                           01 
01400040001000011DEM       Commissioner of the General Land Office                 Jinny Suh                             Precinct 101                                           01 
01400040002000004DEM       Commissioner of the General Land Office                 Jinny Suh                             Precinct 102                                           01 
01400040003000002DEM       Commissioner of the General Land Office                 Jinny Suh                             Precinct 103                                           01 
01400040004000007DEM       Commissioner of the General Land Office                 Jinny Suh                             Precinct 104                                           01 
01400040005000004DEM       Commissioner of the General Land Office                 Jinny Suh                             Precinct 201                                           01 
01400040006000010DEM       Commissioner of the General Land Office                 Jinny Suh                             Precinct 202                                           01 
01400040007000002DEM       Commissioner of the General Land Office                 Jinny Suh                             Precinct 203                                           01 
01400040008000002DEM       Commissioner of the General Land Office                 Jinny Suh                             Precinct 204                                           01 
01400040009000001DEM       Commissioner of the General Land Office                 Jinny Suh                             Precinct 205                                           01 
01400040010000003DEM       Commissioner of the General Land Office                 Jinny Suh                             Precinct 206                                           01 
01400040011000004DEM       Commissioner of the General Land Office                 Jinny Suh                             Precinct 301                                           01 
01400040012000001DEM       Commissioner of the General Land Office                 Jinny Suh                             Precinct 302                                           01 
01400040013000000DEM       Commissioner of the General Land Office                 Jinny Suh                             Precinct 303                                           01 
01400040014000002DEM       Commissioner of the General Land Office                 Jinny Suh                             Precinct 304                                           01 
01400040015000002DEM       Commissioner of the General Land Office                 Jinny Suh                             Precinct 305                                           01 
01400040016000005DEM       Commissioner of the General Land Office                 Jinny Suh                             Precinct 401                                           01 
01400040017000001DEM       Commissioner of the General Land Office                 Jinny Suh                             Precinct 402                                           01 
01400040018000000DEM       Commissioner of the General Land Office                 Jinny Suh                             Precinct 403                                           01 
01400040019000002DEM       Commissioner of the General Land Office                 Jinny Suh                             Precinct 404                                           01 
01400040020000000DEM       Commissioner of the General Land Office                 Jinny Suh                             Precinct 405                                           01 
01400040021000001DEM       Commissioner of the General Land Office                 Jinny Suh                             Precinct 406                                           01 
01410010001000042DEM       Commissioner of Agriculture                             Susan Hays                            Precinct 101                                           01 
01410010002000008DEM       Commissioner of Agriculture                             Susan Hays                            Precinct 102                                           01 
01410010003000012DEM       Commissioner of Agriculture                             Susan Hays                            Precinct 103                                           01 
01410010004000016DEM       Commissioner of Agriculture                             Susan Hays                            Precinct 104                                           01 
01410010005000019DEM       Commissioner of Agriculture                             Susan Hays                            Precinct 201                                           01 
01410010006000041DEM       Commissioner of Agriculture                             Susan Hays                            Precinct 202                                           01 
01410010007000009DEM       Commissioner of Agriculture                             Susan Hays                            Precinct 203                                           01 
01410010008000014DEM       Commissioner of Agriculture                             Susan Hays                            Precinct 204                                           01 
01410010009000011DEM       Commissioner of Agriculture                             Susan Hays                            Precinct 205                                           01 
01410010010000008DEM       Commissioner of Agriculture                             Susan Hays                            Precinct 206                                           01 
01410010011000028DEM       Commissioner of Agriculture                             Susan Hays                            Precinct 301                                           01 
01410010012000010DEM       Commissioner of Agriculture                             Susan Hays                            Precinct 302                                           01 
01410010013000003DEM       Commissioner of Agriculture                             Susan Hays                            Precinct 303                                           01 
01410010014000013DEM       Commissioner of Agriculture                             Susan Hays                            Precinct 304                                           01 
01410010015000019DEM       Commissioner of Agriculture                             Susan Hays                            Precinct 305                                           01 
01410010016000049DEM       Commissioner of Agriculture                             Susan Hays                            Precinct 401                                           01 
01410010017000004DEM       Commissioner of Agriculture                             Susan Hays                            Precinct 402                                           01 
01410010018000003DEM       Commissioner of Agriculture                             Susan Hays                            Precinct 403                                           01 
01410010019000008DEM       Commissioner of Agriculture                             Susan Hays                            Precinct 404                                           01 
01410010020000006DEM       Commissioner of Agriculture                             Susan Hays                            Precinct 405                                           01 
01410010021000003DEM       Commissioner of Agriculture                             Susan Hays                            Precinct 406                                           01 
01410020001000011DEM       Commissioner of Agriculture                             Ed Ireson                             Precinct 101                                           01 
01410020002000001DEM       Commissioner of Agriculture                             Ed Ireson                             Precinct 102                                           01 
01410020003000003DEM       Commissioner of Agriculture                             Ed Ireson                             Precinct 103                                           01 
01410020004000006DEM       Commissioner of Agriculture                             Ed Ireson                             Precinct 104                                           01 
01410020005000006DEM       Commissioner of Agriculture                             Ed Ireson                             Precinct 201                                           01 
01410020006000015DEM       Commissioner of Agriculture                             Ed Ireson                             Precinct 202                                           01 
01410020007000001DEM       Commissioner of Agriculture                             Ed Ireson                             Precinct 203                                           01 
01410020008000000DEM       Commissioner of Agriculture                             Ed Ireson                             Precinct 204                                           01 
01410020009000005DEM       Commissioner of Agriculture                             Ed Ireson                             Precinct 205                                           01 
01410020010000000DEM       Commissioner of Agriculture                             Ed Ireson                             Precinct 206                                           01 
01410020011000006DEM       Commissioner of Agriculture                             Ed Ireson                             Precinct 301                                           01 
01410020012000002DEM       Commissioner of Agriculture                             Ed Ireson                             Precinct 302                                           01 
01410020013000000DEM       Commissioner of Agriculture                             Ed Ireson                             Precinct 303                                           01 
01410020014000001DEM       Commissioner of Agriculture                             Ed Ireson                             Precinct 304                                           01 
01410020015000006DEM       Commissioner of Agriculture                             Ed Ireson                             Precinct 305                                           01 
01410020016000009DEM       Commissioner of Agriculture                             Ed Ireson                             Precinct 401                                           01 
01410020017000002DEM       Commissioner of Agriculture                             Ed Ireson                             Precinct 402                                           01 
01410020018000001DEM       Commissioner of Agriculture                             Ed Ireson                             Precinct 403                                           01 
01410020019000002DEM       Commissioner of Agriculture                             Ed Ireson                             Precinct 404                                           01 
01410020020000001DEM       Commissioner of Agriculture                             Ed Ireson                             Precinct 405                                           01 
01410020021000002DEM       Commissioner of Agriculture                             Ed Ireson                             Precinct 406                                           01 
01420010001000046DEM       Railroad Commissioner                                   Luke Warford                          Precinct 101                                           01 
01420010002000009DEM       Railroad Commissioner                                   Luke Warford                          Precinct 102                                           01 
01420010003000013DEM       Railroad Commissioner                                   Luke Warford                          Precinct 103                                           01 
01420010004000021DEM       Railroad Commissioner                                   Luke Warford                          Precinct 104                                           01 
01420010005000022DEM       Railroad Commissioner                                   Luke Warford                          Precinct 201                                           01 
01420010006000047DEM       Railroad Commissioner                                   Luke Warford                          Precinct 202                                           01 
01420010007000011DEM       Railroad Commissioner                                   Luke Warford                          Precinct 203                                           01 
01420010008000012DEM       Railroad Commissioner                                   Luke Warford                          Precinct 204                                           01 
01420010009000014DEM       Railroad Commissioner                                   Luke Warford                          Precinct 205                                           01 
01420010010000008DEM       Railroad Commissioner                                   Luke Warford                          Precinct 206                                           01 
01420010011000029DEM       Railroad Commissioner                                   Luke Warford                          Precinct 301                                           01 
01420010012000012DEM       Railroad Commissioner                                   Luke Warford                          Precinct 302                                           01 
01420010013000003DEM       Railroad Commissioner                                   Luke Warford                          Precinct 303                                           01 
01420010014000013DEM       Railroad Commissioner                                   Luke Warford                          Precinct 304                                           01 
01420010015000024DEM       Railroad Commissioner                                   Luke Warford                          Precinct 305                                           01 
01420010016000052DEM       Railroad Commissioner                                   Luke Warford                          Precinct 401                                           01 
01420010017000006DEM       Railroad Commissioner                                   Luke Warford                          Precinct 402                                           01 
01420010018000004DEM       Railroad Commissioner                                   Luke Warford                          Precinct 403                                           01 
01420010019000008DEM       Railroad Commissioner                                   Luke Warford                          Precinct 404                                           01 
01420010020000007DEM       Railroad Commissioner                                   Luke Warford                          Precinct 405                                           01 
01420010021000006DEM       Railroad Commissioner                                   Luke Warford                          Precinct 406                                           01 
01430010001000046DEM       Justice, Supreme Court, Place 3                         Erin A Nowell                         Precinct 101                                           01 
01430010002000009DEM       Justice, Supreme Court, Place 3                         Erin A Nowell                         Precinct 102                                           01 
01430010003000012DEM       Justice, Supreme Court, Place 3                         Erin A Nowell                         Precinct 103                                           01 
01430010004000020DEM       Justice, Supreme Court, Place 3                         Erin A Nowell                         Precinct 104                                           01 
01430010005000023DEM       Justice, Supreme Court, Place 3                         Erin A Nowell                         Precinct 201                                           01 
01430010006000048DEM       Justice, Supreme Court, Place 3                         Erin A Nowell                         Precinct 202                                           01 
01430010007000011DEM       Justice, Supreme Court, Place 3                         Erin A Nowell                         Precinct 203                                           01 
01430010008000012DEM       Justice, Supreme Court, Place 3                         Erin A Nowell                         Precinct 204                                           01 
01430010009000014DEM       Justice, Supreme Court, Place 3                         Erin A Nowell                         Precinct 205                                           01 
01430010010000007DEM       Justice, Supreme Court, Place 3                         Erin A Nowell                         Precinct 206                                           01 
01430010011000031DEM       Justice, Supreme Court, Place 3                         Erin A Nowell                         Precinct 301                                           01 
01430010012000013DEM       Justice, Supreme Court, Place 3                         Erin A Nowell                         Precinct 302                                           01 
01430010013000004DEM       Justice, Supreme Court, Place 3                         Erin A Nowell                         Precinct 303                                           01 
01430010014000012DEM       Justice, Supreme Court, Place 3                         Erin A Nowell                         Precinct 304                                           01 
01430010015000024DEM       Justice, Supreme Court, Place 3                         Erin A Nowell                         Precinct 305                                           01 
01430010016000053DEM       Justice, Supreme Court, Place 3                         Erin A Nowell                         Precinct 401                                           01 
01430010017000006DEM       Justice, Supreme Court, Place 3                         Erin A Nowell                         Precinct 402                                           01 
01430010018000004DEM       Justice, Supreme Court, Place 3                         Erin A Nowell                         Precinct 403                                           01 
01430010019000008DEM       Justice, Supreme Court, Place 3                         Erin A Nowell                         Precinct 404                                           01 
01430010020000006DEM       Justice, Supreme Court, Place 3                         Erin A Nowell                         Precinct 405                                           01 
01430010021000006DEM       Justice, Supreme Court, Place 3                         Erin A Nowell                         Precinct 406                                           01 
01440010001000048DEM       Justice, Supreme Court, Place 5                         Amanda Reichek                        Precinct 101                                           01 
01440010002000009DEM       Justice, Supreme Court, Place 5                         Amanda Reichek                        Precinct 102                                           01 
01440010003000011DEM       Justice, Supreme Court, Place 5                         Amanda Reichek                        Precinct 103                                           01 
01440010004000021DEM       Justice, Supreme Court, Place 5                         Amanda Reichek                        Precinct 104                                           01 
01440010005000023DEM       Justice, Supreme Court, Place 5                         Amanda Reichek                        Precinct 201                                           01 
01440010006000048DEM       Justice, Supreme Court, Place 5                         Amanda Reichek                        Precinct 202                                           01 
01440010007000012DEM       Justice, Supreme Court, Place 5                         Amanda Reichek                        Precinct 203                                           01 
01440010008000012DEM       Justice, Supreme Court, Place 5                         Amanda Reichek                        Precinct 204                                           01 
01440010009000014DEM       Justice, Supreme Court, Place 5                         Amanda Reichek                        Precinct 205                                           01 
01440010010000007DEM       Justice, Supreme Court, Place 5                         Amanda Reichek                        Precinct 206                                           01 
01440010011000029DEM       Justice, Supreme Court, Place 5                         Amanda Reichek                        Precinct 301                                           01 
01440010012000012DEM       Justice, Supreme Court, Place 5                         Amanda Reichek                        Precinct 302                                           01 
01440010013000004DEM       Justice, Supreme Court, Place 5                         Amanda Reichek                        Precinct 303                                           01 
01440010014000013DEM       Justice, Supreme Court, Place 5                         Amanda Reichek                        Precinct 304                                           01 
01440010015000025DEM       Justice, Supreme Court, Place 5                         Amanda Reichek                        Precinct 305                                           01 
01440010016000052DEM       Justice, Supreme Court, Place 5                         Amanda Reichek                        Precinct 401                                           01 
01440010017000006DEM       Justice, Supreme Court, Place 5                         Amanda Reichek                        Precinct 402                                           01 
01440010018000004DEM       Justice, Supreme Court, Place 5                         Amanda Reichek                        Precinct 403                                           01 
01440010019000008DEM       Justice, Supreme Court, Place 5                         Amanda Reichek                        Precinct 404                                           01 
01440010020000006DEM       Justice, Supreme Court, Place 5                         Amanda Reichek                        Precinct 405                                           01 
01440010021000006DEM       Justice, Supreme Court, Place 5                         Amanda Reichek                        Precinct 406                                           01 
01450010001000044DEM       Justice, Supreme Court, Place 9                         Julia Maldonado                       Precinct 101                                           01 
01450010002000009DEM       Justice, Supreme Court, Place 9                         Julia Maldonado                       Precinct 102                                           01 
01450010003000012DEM       Justice, Supreme Court, Place 9                         Julia Maldonado                       Precinct 103                                           01 
01450010004000019DEM       Justice, Supreme Court, Place 9                         Julia Maldonado                       Precinct 104                                           01 
01450010005000021DEM       Justice, Supreme Court, Place 9                         Julia Maldonado                       Precinct 201                                           01 
01450010006000052DEM       Justice, Supreme Court, Place 9                         Julia Maldonado                       Precinct 202                                           01 
