00010010001001156000000000000000000000000000000000000000000000000000000000000000000000000000000000000          REGISTERED VOTERS - TOTAL                               REGISTERED VOTERS - TOTAL             101                                                    00 
00010010002000000000000000000000000000000000000000000000000000000000000000000000000000000000000000000          REGISTERED VOTERS - TOTAL                               REGISTERED VOTERS - TOTAL             101A                                                   00 
00010010003003047000000000000000000000000000000000000000000000000000000000000000000000000000000000000          REGISTERED VOTERS - TOTAL                               REGISTERED VOTERS - TOTAL             102                                                    00 
00010010004003928000000000000000000000000000000000000000000000000000000000000000000000000000000000000          REGISTERED VOTERS - TOTAL                               REGISTERED VOTERS - TOTAL             103                                                    00 
00010010005001165000000000000000000000000000000000000000000000000000000000000000000000000000000000000          REGISTERED VOTERS - TOTAL                               REGISTERED VOTERS - TOTAL             104                                                    00 
00010010006001990000000000000000000000000000000000000000000000000000000000000000000000000000000000000          REGISTERED VOTERS - TOTAL                               REGISTERED VOTERS - TOTAL             105                                                    00 
00010010007003807000000000000000000000000000000000000000000000000000000000000000000000000000000000000          REGISTERED VOTERS - TOTAL                               REGISTERED VOTERS - TOTAL             106                                                    00 
00010010008003003000000000000000000000000000000000000000000000000000000000000000000000000000000000000          REGISTERED VOTERS - TOTAL                               REGISTERED VOTERS - TOTAL             107                                                    00 
00010010009000651000000000000000000000000000000000000000000000000000000000000000000000000000000000000          REGISTERED VOTERS - TOTAL                               REGISTERED VOTERS - TOTAL             108                                                    00 
00010010010000529000000000000000000000000000000000000000000000000000000000000000000000000000000000000          REGISTERED VOTERS - TOTAL                               REGISTERED VOTERS - TOTAL             108A                                                   00 
00010010011000864000000000000000000000000000000000000000000000000000000000000000000000000000000000000          REGISTERED VOTERS - TOTAL                               REGISTERED VOTERS - TOTAL             109                                                    00 
00010010012003085000000000000000000000000000000000000000000000000000000000000000000000000000000000000          REGISTERED VOTERS - TOTAL                               REGISTERED VOTERS - TOTAL             110                                                    00 
00010010013002836000000000000000000000000000000000000000000000000000000000000000000000000000000000000          REGISTERED VOTERS - TOTAL                               REGISTERED VOTERS - TOTAL             201                                                    00 
00010010014002745000000000000000000000000000000000000000000000000000000000000000000000000000000000000          REGISTERED VOTERS - TOTAL                               REGISTERED VOTERS - TOTAL             202                                                    00 
00010010015003648000000000000000000000000000000000000000000000000000000000000000000000000000000000000          REGISTERED VOTERS - TOTAL                               REGISTERED VOTERS - TOTAL             202A                                                   00 
00010010016000801000000000000000000000000000000000000000000000000000000000000000000000000000000000000          REGISTERED VOTERS - TOTAL                               REGISTERED VOTERS - TOTAL             203                                                    00 
00010010017003999000000000000000000000000000000000000000000000000000000000000000000000000000000000000          REGISTERED VOTERS - TOTAL                               REGISTERED VOTERS - TOTAL             204                                                    00 
00010010018001661000000000000000000000000000000000000000000000000000000000000000000000000000000000000          REGISTERED VOTERS - TOTAL                               REGISTERED VOTERS - TOTAL             205                                                    00 
00010010019001803000000000000000000000000000000000000000000000000000000000000000000000000000000000000          REGISTERED VOTERS - TOTAL                               REGISTERED VOTERS - TOTAL             206                                                    00 
00010010020002828000000000000000000000000000000000000000000000000000000000000000000000000000000000000          REGISTERED VOTERS - TOTAL                               REGISTERED VOTERS - TOTAL             207                                                    00 
00010010021000920000000000000000000000000000000000000000000000000000000000000000000000000000000000000          REGISTERED VOTERS - TOTAL                               REGISTERED VOTERS - TOTAL             208                                                    00 
00010010022001644000000000000000000000000000000000000000000000000000000000000000000000000000000000000          REGISTERED VOTERS - TOTAL                               REGISTERED VOTERS - TOTAL             210                                                    00 
00010010023003725000000000000000000000000000000000000000000000000000000000000000000000000000000000000          REGISTERED VOTERS - TOTAL                               REGISTERED VOTERS - TOTAL             211                                                    00 
00010010024003751000000000000000000000000000000000000000000000000000000000000000000000000000000000000          REGISTERED VOTERS - TOTAL                               REGISTERED VOTERS - TOTAL             302                                                    00 
00010010025000431000000000000000000000000000000000000000000000000000000000000000000000000000000000000          REGISTERED VOTERS - TOTAL                               REGISTERED VOTERS - TOTAL             303                                                    00 
00010010026001950000000000000000000000000000000000000000000000000000000000000000000000000000000000000          REGISTERED VOTERS - TOTAL                               REGISTERED VOTERS - TOTAL             304                                                    00 
00010010027001611000000000000000000000000000000000000000000000000000000000000000000000000000000000000          REGISTERED VOTERS - TOTAL                               REGISTERED VOTERS - TOTAL             305                                                    00 
00010010028003603000000000000000000000000000000000000000000000000000000000000000000000000000000000000          REGISTERED VOTERS - TOTAL                               REGISTERED VOTERS - TOTAL             306                                                    00 
00010010029001215000000000000000000000000000000000000000000000000000000000000000000000000000000000000          REGISTERED VOTERS - TOTAL                               REGISTERED VOTERS - TOTAL             307                                                    00 
00010010030001257000000000000000000000000000000000000000000000000000000000000000000000000000000000000          REGISTERED VOTERS - TOTAL                               REGISTERED VOTERS - TOTAL             307A                                                   00 
00010010031003271000000000000000000000000000000000000000000000000000000000000000000000000000000000000          REGISTERED VOTERS - TOTAL                               REGISTERED VOTERS - TOTAL             308                                                    00 
00010010032000408000000000000000000000000000000000000000000000000000000000000000000000000000000000000          REGISTERED VOTERS - TOTAL                               REGISTERED VOTERS - TOTAL             309                                                    00 
00010010033000034000000000000000000000000000000000000000000000000000000000000000000000000000000000000          REGISTERED VOTERS - TOTAL                               REGISTERED VOTERS - TOTAL             309A                                                   00 
00010010034000664000000000000000000000000000000000000000000000000000000000000000000000000000000000000          REGISTERED VOTERS - TOTAL                               REGISTERED VOTERS - TOTAL             310                                                    00 
00010010035001258000000000000000000000000000000000000000000000000000000000000000000000000000000000000          REGISTERED VOTERS - TOTAL                               REGISTERED VOTERS - TOTAL             401                                                    00 
00010010036001106000000000000000000000000000000000000000000000000000000000000000000000000000000000000          REGISTERED VOTERS - TOTAL                               REGISTERED VOTERS - TOTAL             402                                                    00 
00010010037003308000000000000000000000000000000000000000000000000000000000000000000000000000000000000          REGISTERED VOTERS - TOTAL                               REGISTERED VOTERS - TOTAL             403                                                    00 
00010010038002579000000000000000000000000000000000000000000000000000000000000000000000000000000000000          REGISTERED VOTERS - TOTAL                               REGISTERED VOTERS - TOTAL             404                                                    00 
00010010039002768000000000000000000000000000000000000000000000000000000000000000000000000000000000000          REGISTERED VOTERS - TOTAL                               REGISTERED VOTERS - TOTAL             405                                                    00 
00010010040002351000000000000000000000000000000000000000000000000000000000000000000000000000000000000          REGISTERED VOTERS - TOTAL                               REGISTERED VOTERS - TOTAL             406                                                    00 
00010010041003090000000000000000000000000000000000000000000000000000000000000000000000000000000000000          REGISTERED VOTERS - TOTAL                               REGISTERED VOTERS - TOTAL             407                                                    00 
00010010042002521000000000000000000000000000000000000000000000000000000000000000000000000000000000000          REGISTERED VOTERS - TOTAL                               REGISTERED VOTERS - TOTAL             408                                                    00 
00010010043002484000000000000000000000000000000000000000000000000000000000000000000000000000000000000          REGISTERED VOTERS - TOTAL                               REGISTERED VOTERS - TOTAL             409                                                    00 
00010010044001796000000000000000000000000000000000000000000000000000000000000000000000000000000000000          REGISTERED VOTERS - TOTAL                               REGISTERED VOTERS - TOTAL             410                                                    00 
00010010045003136000000000000000000000000000000000000000000000000000000000000000000000000000000000000          REGISTERED VOTERS - TOTAL                               REGISTERED VOTERS - TOTAL             411                                                    00 
00030010001000000000000000000000000000000000000000000000000000000000000000000000000000000000000000000DEM       REGISTERED VOTERS - Democratic Party                    REGISTERED VOTERS - Democratic Party  101                                                    00 
00030010002000000000000000000000000000000000000000000000000000000000000000000000000000000000000000000DEM       REGISTERED VOTERS - Democratic Party                    REGISTERED VOTERS - Democratic Party  101A                                                   00 
00030010003000000000000000000000000000000000000000000000000000000000000000000000000000000000000000000DEM       REGISTERED VOTERS - Democratic Party                    REGISTERED VOTERS - Democratic Party  102                                                    00 
00030010004000000000000000000000000000000000000000000000000000000000000000000000000000000000000000000DEM       REGISTERED VOTERS - Democratic Party                    REGISTERED VOTERS - Democratic Party  103                                                    00 
00030010005000000000000000000000000000000000000000000000000000000000000000000000000000000000000000000DEM       REGISTERED VOTERS - Democratic Party                    REGISTERED VOTERS - Democratic Party  104                                                    00 
00030010006000000000000000000000000000000000000000000000000000000000000000000000000000000000000000000DEM       REGISTERED VOTERS - Democratic Party                    REGISTERED VOTERS - Democratic Party  105                                                    00 
00030010007000000000000000000000000000000000000000000000000000000000000000000000000000000000000000000DEM       REGISTERED VOTERS - Democratic Party                    REGISTERED VOTERS - Democratic Party  106                                                    00 
00030010008000000000000000000000000000000000000000000000000000000000000000000000000000000000000000000DEM       REGISTERED VOTERS - Democratic Party                    REGISTERED VOTERS - Democratic Party  107                                                    00 
00030010009000000000000000000000000000000000000000000000000000000000000000000000000000000000000000000DEM       REGISTERED VOTERS - Democratic Party                    REGISTERED VOTERS - Democratic Party  108                                                    00 
00030010010000000000000000000000000000000000000000000000000000000000000000000000000000000000000000000DEM       REGISTERED VOTERS - Democratic Party                    REGISTERED VOTERS - Democratic Party  108A                                                   00 
00030010011000000000000000000000000000000000000000000000000000000000000000000000000000000000000000000DEM       REGISTERED VOTERS - Democratic Party                    REGISTERED VOTERS - Democratic Party  109                                                    00 
00030010012000000000000000000000000000000000000000000000000000000000000000000000000000000000000000000DEM       REGISTERED VOTERS - Democratic Party                    REGISTERED VOTERS - Democratic Party  110                                                    00 
00030010013000000000000000000000000000000000000000000000000000000000000000000000000000000000000000000DEM       REGISTERED VOTERS - Democratic Party                    REGISTERED VOTERS - Democratic Party  201                                                    00 
00030010014000000000000000000000000000000000000000000000000000000000000000000000000000000000000000000DEM       REGISTERED VOTERS - Democratic Party                    REGISTERED VOTERS - Democratic Party  202                                                    00 
00030010015000000000000000000000000000000000000000000000000000000000000000000000000000000000000000000DEM       REGISTERED VOTERS - Democratic Party                    REGISTERED VOTERS - Democratic Party  202A                                                   00 
00030010016000000000000000000000000000000000000000000000000000000000000000000000000000000000000000000DEM       REGISTERED VOTERS - Democratic Party                    REGISTERED VOTERS - Democratic Party  203                                                    00 
00030010017000000000000000000000000000000000000000000000000000000000000000000000000000000000000000000DEM       REGISTERED VOTERS - Democratic Party                    REGISTERED VOTERS - Democratic Party  204                                                    00 
00030010018000000000000000000000000000000000000000000000000000000000000000000000000000000000000000000DEM       REGISTERED VOTERS - Democratic Party                    REGISTERED VOTERS - Democratic Party  205                                                    00 
00030010019000000000000000000000000000000000000000000000000000000000000000000000000000000000000000000DEM       REGISTERED VOTERS - Democratic Party                    REGISTERED VOTERS - Democratic Party  206                                                    00 
00030010020000000000000000000000000000000000000000000000000000000000000000000000000000000000000000000DEM       REGISTERED VOTERS - Democratic Party                    REGISTERED VOTERS - Democratic Party  207                                                    00 
00030010021000000000000000000000000000000000000000000000000000000000000000000000000000000000000000000DEM       REGISTERED VOTERS - Democratic Party                    REGISTERED VOTERS - Democratic Party  208                                                    00 
00030010022000000000000000000000000000000000000000000000000000000000000000000000000000000000000000000DEM       REGISTERED VOTERS - Democratic Party                    REGISTERED VOTERS - Democratic Party  210                                                    00 
00030010023000000000000000000000000000000000000000000000000000000000000000000000000000000000000000000DEM       REGISTERED VOTERS - Democratic Party                    REGISTERED VOTERS - Democratic Party  211                                                    00 
00030010024000000000000000000000000000000000000000000000000000000000000000000000000000000000000000000DEM       REGISTERED VOTERS - Democratic Party                    REGISTERED VOTERS - Democratic Party  302                                                    00 
00030010025000000000000000000000000000000000000000000000000000000000000000000000000000000000000000000DEM       REGISTERED VOTERS - Democratic Party                    REGISTERED VOTERS - Democratic Party  303                                                    00 
00030010026000000000000000000000000000000000000000000000000000000000000000000000000000000000000000000DEM       REGISTERED VOTERS - Democratic Party                    REGISTERED VOTERS - Democratic Party  304                                                    00 
00030010027000000000000000000000000000000000000000000000000000000000000000000000000000000000000000000DEM       REGISTERED VOTERS - Democratic Party                    REGISTERED VOTERS - Democratic Party  305                                                    00 
00030010028000000000000000000000000000000000000000000000000000000000000000000000000000000000000000000DEM       REGISTERED VOTERS - Democratic Party                    REGISTERED VOTERS - Democratic Party  306                                                    00 
00030010029000000000000000000000000000000000000000000000000000000000000000000000000000000000000000000DEM       REGISTERED VOTERS - Democratic Party                    REGISTERED VOTERS - Democratic Party  307                                                    00 
00030010030000000000000000000000000000000000000000000000000000000000000000000000000000000000000000000DEM       REGISTERED VOTERS - Democratic Party                    REGISTERED VOTERS - Democratic Party  307A                                                   00 
00030010031000000000000000000000000000000000000000000000000000000000000000000000000000000000000000000DEM       REGISTERED VOTERS - Democratic Party                    REGISTERED VOTERS - Democratic Party  308                                                    00 
00030010032000000000000000000000000000000000000000000000000000000000000000000000000000000000000000000DEM       REGISTERED VOTERS - Democratic Party                    REGISTERED VOTERS - Democratic Party  309                                                    00 
00030010033000000000000000000000000000000000000000000000000000000000000000000000000000000000000000000DEM       REGISTERED VOTERS - Democratic Party                    REGISTERED VOTERS - Democratic Party  309A                                                   00 
00030010034000000000000000000000000000000000000000000000000000000000000000000000000000000000000000000DEM       REGISTERED VOTERS - Democratic Party                    REGISTERED VOTERS - Democratic Party  310                                                    00 
00030010035000000000000000000000000000000000000000000000000000000000000000000000000000000000000000000DEM       REGISTERED VOTERS - Democratic Party                    REGISTERED VOTERS - Democratic Party  401                                                    00 
00030010036000000000000000000000000000000000000000000000000000000000000000000000000000000000000000000DEM       REGISTERED VOTERS - Democratic Party                    REGISTERED VOTERS - Democratic Party  402                                                    00 
00030010037000000000000000000000000000000000000000000000000000000000000000000000000000000000000000000DEM       REGISTERED VOTERS - Democratic Party                    REGISTERED VOTERS - Democratic Party  403                                                    00 
00030010038000000000000000000000000000000000000000000000000000000000000000000000000000000000000000000DEM       REGISTERED VOTERS - Democratic Party                    REGISTERED VOTERS - Democratic Party  404                                                    00 
00030010039000000000000000000000000000000000000000000000000000000000000000000000000000000000000000000DEM       REGISTERED VOTERS - Democratic Party                    REGISTERED VOTERS - Democratic Party  405                                                    00 
00030010040000000000000000000000000000000000000000000000000000000000000000000000000000000000000000000DEM       REGISTERED VOTERS - Democratic Party                    REGISTERED VOTERS - Democratic Party  406                                                    00 
00030010041000000000000000000000000000000000000000000000000000000000000000000000000000000000000000000DEM       REGISTERED VOTERS - Democratic Party                    REGISTERED VOTERS - Democratic Party  407                                                    00 
00030010042000000000000000000000000000000000000000000000000000000000000000000000000000000000000000000DEM       REGISTERED VOTERS - Democratic Party                    REGISTERED VOTERS - Democratic Party  408                                                    00 
00030010043000000000000000000000000000000000000000000000000000000000000000000000000000000000000000000DEM       REGISTERED VOTERS - Democratic Party                    REGISTERED VOTERS - Democratic Party  409                                                    00 
00030010044000000000000000000000000000000000000000000000000000000000000000000000000000000000000000000DEM       REGISTERED VOTERS - Democratic Party                    REGISTERED VOTERS - Democratic Party  410                                                    00 
00030010045000000000000000000000000000000000000000000000000000000000000000000000000000000000000000000DEM       REGISTERED VOTERS - Democratic Party                    REGISTERED VOTERS - Democratic Party  411                                                    00 
00050010001000136000005000056000075000000000000000000000000000000000000000000000000000000000000000000          BALLOTS CAST - TOTAL                                    BALLOTS CAST - TOTAL                  101                                                    00 
00050010002000000000000000000000000000000000000000000000000000000000000000000000000000000000000000000          BALLOTS CAST - TOTAL                                    BALLOTS CAST - TOTAL                  101A                                                   00 
00050010003000319000006000139000174000000000000000000000000000000000000000000000000000000000000000000          BALLOTS CAST - TOTAL                                    BALLOTS CAST - TOTAL                  102                                                    00 
00050010004000652000035000319000298000000000000000000000000000000000000000000000000000000000000000000          BALLOTS CAST - TOTAL                                    BALLOTS CAST - TOTAL                  103                                                    00 
00050010005000082000008000034000040000000000000000000000000000000000000000000000000000000000000000000          BALLOTS CAST - TOTAL                                    BALLOTS CAST - TOTAL                  104                                                    00 
00050010006000209000014000100000095000000000000000000000000000000000000000000000000000000000000000000          BALLOTS CAST - TOTAL                                    BALLOTS CAST - TOTAL                  105                                                    00 
00050010007000504000020000246000238000000000000000000000000000000000000000000000000000000000000000000          BALLOTS CAST - TOTAL                                    BALLOTS CAST - TOTAL                  106                                                    00 
00050010008000612000066000307000239000000000000000000000000000000000000000000000000000000000000000000          BALLOTS CAST - TOTAL                                    BALLOTS CAST - TOTAL                  107                                                    00 
00050010009000068000001000045000022000000000000000000000000000000000000000000000000000000000000000000          BALLOTS CAST - TOTAL                                    BALLOTS CAST - TOTAL                  108                                                    00 
00050010010000056000002000016000038000000000000000000000000000000000000000000000000000000000000000000          BALLOTS CAST - TOTAL                                    BALLOTS CAST - TOTAL                  108A                                                   00 
00050010011000079000004000042000033000000000000000000000000000000000000000000000000000000000000000000          BALLOTS CAST - TOTAL                                    BALLOTS CAST - TOTAL                  109                                                    00 
00050010012000803000022000427000354000000000000000000000000000000000000000000000000000000000000000000          BALLOTS CAST - TOTAL                                    BALLOTS CAST - TOTAL                  110                                                    00 
00050010013000433000018000229000186000000000000000000000000000000000000000000000000000000000000000000          BALLOTS CAST - TOTAL                                    BALLOTS CAST - TOTAL                  201                                                    00 
00050010014000634000006000201000427000000000000000000000000000000000000000000000000000000000000000000          BALLOTS CAST - TOTAL                                    BALLOTS CAST - TOTAL                  202                                                    00 
00050010015000700000009000347000344000000000000000000000000000000000000000000000000000000000000000000          BALLOTS CAST - TOTAL                                    BALLOTS CAST - TOTAL                  202A                                                   00 
00050010016000161000002000093000066000000000000000000000000000000000000000000000000000000000000000000          BALLOTS CAST - TOTAL                                    BALLOTS CAST - TOTAL                  203                                                    00 
00050010017001014000034000612000368000000000000000000000000000000000000000000000000000000000000000000          BALLOTS CAST - TOTAL                                    BALLOTS CAST - TOTAL                  204                                                    00 
00050010018000547000014000298000235000000000000000000000000000000000000000000000000000000000000000000          BALLOTS CAST - TOTAL                                    BALLOTS CAST - TOTAL                  205                                                    00 
00050010019000469000024000294000151000000000000000000000000000000000000000000000000000000000000000000          BALLOTS CAST - TOTAL                                    BALLOTS CAST - TOTAL                  206                                                    00 
00050010020000744000035000454000255000000000000000000000000000000000000000000000000000000000000000000          BALLOTS CAST - TOTAL                                    BALLOTS CAST - TOTAL                  207                                                    00 
00050010021000133000012000068000053000000000000000000000000000000000000000000000000000000000000000000          BALLOTS CAST - TOTAL                                    BALLOTS CAST - TOTAL                  208                                                    00 
00050010022000312000011000183000118000000000000000000000000000000000000000000000000000000000000000000          BALLOTS CAST - TOTAL                                    BALLOTS CAST - TOTAL                  210                                                    00 
00050010023000427000005000196000226000000000000000000000000000000000000000000000000000000000000000000          BALLOTS CAST - TOTAL                                    BALLOTS CAST - TOTAL                  211                                                    00 
00050010024000409000009000204000196000000000000000000000000000000000000000000000000000000000000000000          BALLOTS CAST - TOTAL                                    BALLOTS CAST - TOTAL                  302                                                    00 
00050010025000032000001000007000024000000000000000000000000000000000000000000000000000000000000000000          BALLOTS CAST - TOTAL                                    BALLOTS CAST - TOTAL                  303                                                    00 
00050010026000090000002000036000052000000000000000000000000000000000000000000000000000000000000000000          BALLOTS CAST - TOTAL                                    BALLOTS CAST - TOTAL                  304                                                    00 
00050010027000098000008000053000037000000000000000000000000000000000000000000000000000000000000000000          BALLOTS CAST - TOTAL                                    BALLOTS CAST - TOTAL                  305                                                    00 
00050010028000233000018000100000115000000000000000000000000000000000000000000000000000000000000000000          BALLOTS CAST - TOTAL                                    BALLOTS CAST - TOTAL                  306                                                    00 
00050010029000239000016000117000106000000000000000000000000000000000000000000000000000000000000000000          BALLOTS CAST - TOTAL                                    BALLOTS CAST - TOTAL                  307                                                    00 
00050010030000167000003000092000072000000000000000000000000000000000000000000000000000000000000000000          BALLOTS CAST - TOTAL                                    BALLOTS CAST - TOTAL                  307A                                                   00 
00050010031000327000015000156000156000000000000000000000000000000000000000000000000000000000000000000          BALLOTS CAST - TOTAL                                    BALLOTS CAST - TOTAL                  308                                                    00 
00050010032000018000000000007000011000000000000000000000000000000000000000000000000000000000000000000          BALLOTS CAST - TOTAL                                    BALLOTS CAST - TOTAL                  309                                                    00 
00050010033000009000002000007000000000000000000000000000000000000000000000000000000000000000000000000          BALLOTS CAST - TOTAL                                    BALLOTS CAST - TOTAL                  309A                                                   00 
00050010034000059000001000032000026000000000000000000000000000000000000000000000000000000000000000000          BALLOTS CAST - TOTAL                                    BALLOTS CAST - TOTAL                  310                                                    00 
00050010035000202000010000104000088000000000000000000000000000000000000000000000000000000000000000000          BALLOTS CAST - TOTAL                                    BALLOTS CAST - TOTAL                  401                                                    00 
00050010036000270000013000151000106000000000000000000000000000000000000000000000000000000000000000000          BALLOTS CAST - TOTAL                                    BALLOTS CAST - TOTAL                  402                                                    00 
00050010037000821000042000414000365000000000000000000000000000000000000000000000000000000000000000000          BALLOTS CAST - TOTAL                                    BALLOTS CAST - TOTAL                  403                                                    00 
00050010038000686000032000406000248000000000000000000000000000000000000000000000000000000000000000000          BALLOTS CAST - TOTAL                                    BALLOTS CAST - TOTAL                  404                                                    00 
00050010039000574000027000313000234000000000000000000000000000000000000000000000000000000000000000000          BALLOTS CAST - TOTAL                                    BALLOTS CAST - TOTAL                  405                                                    00 
00050010040000430000014000094000322000000000000000000000000000000000000000000000000000000000000000000          BALLOTS CAST - TOTAL                                    BALLOTS CAST - TOTAL                  406                                                    00 
00050010041000481000013000255000213000000000000000000000000000000000000000000000000000000000000000000          BALLOTS CAST - TOTAL                                    BALLOTS CAST - TOTAL                  407                                                    00 
00050010042000809000013000479000317000000000000000000000000000000000000000000000000000000000000000000          BALLOTS CAST - TOTAL                                    BALLOTS CAST - TOTAL                  408                                                    00 
00050010043000513000013000283000217000000000000000000000000000000000000000000000000000000000000000000          BALLOTS CAST - TOTAL                                    BALLOTS CAST - TOTAL                  409                                                    00 
00050010044000385000001000197000187000000000000000000000000000000000000000000000000000000000000000000          BALLOTS CAST - TOTAL                                    BALLOTS CAST - TOTAL                  410                                                    00 
00050010045000778000023000424000331000000000000000000000000000000000000000000000000000000000000000000          BALLOTS CAST - TOTAL                                    BALLOTS CAST - TOTAL                  411                                                    00 
00060010001000004000000000000000004000000000000000000000000000000000000000000000000000000000000000000DEM       BALLOTS CAST - Democratic Party                         BALLOTS CAST - Democratic Party       101                                                    00 
00060010002000000000000000000000000000000000000000000000000000000000000000000000000000000000000000000DEM       BALLOTS CAST - Democratic Party                         BALLOTS CAST - Democratic Party       101A                                                   00 
00060010003000035000002000013000020000000000000000000000000000000000000000000000000000000000000000000DEM       BALLOTS CAST - Democratic Party                         BALLOTS CAST - Democratic Party       102                                                    00 
00060010004000082000008000041000033000000000000000000000000000000000000000000000000000000000000000000DEM       BALLOTS CAST - Democratic Party                         BALLOTS CAST - Democratic Party       103                                                    00 
00060010005000022000003000008000011000000000000000000000000000000000000000000000000000000000000000000DEM       BALLOTS CAST - Democratic Party                         BALLOTS CAST - Democratic Party       104                                                    00 
00060010006000030000001000015000014000000000000000000000000000000000000000000000000000000000000000000DEM       BALLOTS CAST - Democratic Party                         BALLOTS CAST - Democratic Party       105                                                    00 
00060010007000087000005000037000045000000000000000000000000000000000000000000000000000000000000000000DEM       BALLOTS CAST - Democratic Party                         BALLOTS CAST - Democratic Party       106                                                    00 
00060010008000047000011000014000022000000000000000000000000000000000000000000000000000000000000000000DEM       BALLOTS CAST - Democratic Party                         BALLOTS CAST - Democratic Party       107                                                    00 
00060010009000008000000000008000000000000000000000000000000000000000000000000000000000000000000000000DEM       BALLOTS CAST - Democratic Party                         BALLOTS CAST - Democratic Party       108                                                    00 
00060010010000002000000000000000002000000000000000000000000000000000000000000000000000000000000000000DEM       BALLOTS CAST - Democratic Party                         BALLOTS CAST - Democratic Party       108A                                                   00 
00060010011000015000001000007000007000000000000000000000000000000000000000000000000000000000000000000DEM       BALLOTS CAST - Democratic Party                         BALLOTS CAST - Democratic Party       109                                                    00 
00060010012000021000001000012000008000000000000000000000000000000000000000000000000000000000000000000DEM       BALLOTS CAST - Democratic Party                         BALLOTS CAST - Democratic Party       110                                                    00 
00060010013000015000001000005000009000000000000000000000000000000000000000000000000000000000000000000DEM       BALLOTS CAST - Democratic Party                         BALLOTS CAST - Democratic Party       201                                                    00 
00060010014000010000000000003000007000000000000000000000000000000000000000000000000000000000000000000DEM       BALLOTS CAST - Democratic Party                         BALLOTS CAST - Democratic Party       202                                                    00 
00060010015000027000005000012000010000000000000000000000000000000000000000000000000000000000000000000DEM       BALLOTS CAST - Democratic Party                         BALLOTS CAST - Democratic Party       202A                                                   00 
00060010016000006000000000005000001000000000000000000000000000000000000000000000000000000000000000000DEM       BALLOTS CAST - Democratic Party                         BALLOTS CAST - Democratic Party       203                                                    00 
00060010017000048000001000027000020000000000000000000000000000000000000000000000000000000000000000000DEM       BALLOTS CAST - Democratic Party                         BALLOTS CAST - Democratic Party       204                                                    00 
00060010018000026000001000007000018000000000000000000000000000000000000000000000000000000000000000000DEM       BALLOTS CAST - Democratic Party                         BALLOTS CAST - Democratic Party       205                                                    00 
00060010019000028000005000013000010000000000000000000000000000000000000000000000000000000000000000000DEM       BALLOTS CAST - Democratic Party                         BALLOTS CAST - Democratic Party       206                                                    00 
00060010020000060000005000029000026000000000000000000000000000000000000000000000000000000000000000000DEM       BALLOTS CAST - Democratic Party                         BALLOTS CAST - Democratic Party       207                                                    00 
00060010021000024000005000009000010000000000000000000000000000000000000000000000000000000000000000000DEM       BALLOTS CAST - Democratic Party                         BALLOTS CAST - Democratic Party       208                                                    00 
00060010022000032000002000013000017000000000000000000000000000000000000000000000000000000000000000000DEM       BALLOTS CAST - Democratic Party                         BALLOTS CAST - Democratic Party       210                                                    00 
00060010023000048000002000021000025000000000000000000000000000000000000000000000000000000000000000000DEM       BALLOTS CAST - Democratic Party                         BALLOTS CAST - Democratic Party       211                                                    00 
00060010024000039000000000019000020000000000000000000000000000000000000000000000000000000000000000000DEM       BALLOTS CAST - Democratic Party                         BALLOTS CAST - Democratic Party       302                                                    00 
00060010025000007000000000002000005000000000000000000000000000000000000000000000000000000000000000000DEM       BALLOTS CAST - Democratic Party                         BALLOTS CAST - Democratic Party       303                                                    00 
00060010026000027000000000007000020000000000000000000000000000000000000000000000000000000000000000000DEM       BALLOTS CAST - Democratic Party                         BALLOTS CAST - Democratic Party       304                                                    00 
00060010027000062000008000033000021000000000000000000000000000000000000000000000000000000000000000000DEM       BALLOTS CAST - Democratic Party                         BALLOTS CAST - Democratic Party       305                                                    00 
00060010028000136000014000061000061000000000000000000000000000000000000000000000000000000000000000000DEM       BALLOTS CAST - Democratic Party                         BALLOTS CAST - Democratic Party       306                                                    00 
00060010029000035000006000011000018000000000000000000000000000000000000000000000000000000000000000000DEM       BALLOTS CAST - Democratic Party                         BALLOTS CAST - Democratic Party       307                                                    00 
00060010030000034000000000018000016000000000000000000000000000000000000000000000000000000000000000000DEM       BALLOTS CAST - Democratic Party                         BALLOTS CAST - Democratic Party       307A                                                   00 
00060010031000181000014000081000086000000000000000000000000000000000000000000000000000000000000000000DEM       BALLOTS CAST - Democratic Party                         BALLOTS CAST - Democratic Party       308                                                    00 
00060010032000005000000000001000004000000000000000000000000000000000000000000000000000000000000000000DEM       BALLOTS CAST - Democratic Party                         BALLOTS CAST - Democratic Party       309                                                    00 
00060010033000000000000000000000000000000000000000000000000000000000000000000000000000000000000000000DEM       BALLOTS CAST - Democratic Party                         BALLOTS CAST - Democratic Party       309A                                                   00 
00060010034000015000001000007000007000000000000000000000000000000000000000000000000000000000000000000DEM       BALLOTS CAST - Democratic Party                         BALLOTS CAST - Democratic Party       310                                                    00 
00060010035000007000003000003000001000000000000000000000000000000000000000000000000000000000000000000DEM       BALLOTS CAST - Democratic Party                         BALLOTS CAST - Democratic Party       401                                                    00 
00060010036000020000001000012000007000000000000000000000000000000000000000000000000000000000000000000DEM       BALLOTS CAST - Democratic Party                         BALLOTS CAST - Democratic Party       402                                                    00 
00060010037000056000009000021000026000000000000000000000000000000000000000000000000000000000000000000DEM       BALLOTS CAST - Democratic Party                         BALLOTS CAST - Democratic Party       403                                                    00 
00060010038000041000007000025000009000000000000000000000000000000000000000000000000000000000000000000DEM       BALLOTS CAST - Democratic Party                         BALLOTS CAST - Democratic Party       404                                                    00 
00060010039000037000002000023000012000000000000000000000000000000000000000000000000000000000000000000DEM       BALLOTS CAST - Democratic Party                         BALLOTS CAST - Democratic Party       405                                                    00 
00060010040000021000003000003000015000000000000000000000000000000000000000000000000000000000000000000DEM       BALLOTS CAST - Democratic Party                         BALLOTS CAST - Democratic Party       406                                                    00 
00060010041000061000006000026000029000000000000000000000000000000000000000000000000000000000000000000DEM       BALLOTS CAST - Democratic Party                         BALLOTS CAST - Democratic Party       407                                                    00 
00060010042000012000002000006000004000000000000000000000000000000000000000000000000000000000000000000DEM       BALLOTS CAST - Democratic Party                         BALLOTS CAST - Democratic Party       408                                                    00 
00060010043000035000000000022000013000000000000000000000000000000000000000000000000000000000000000000DEM       BALLOTS CAST - Democratic Party                         BALLOTS CAST - Democratic Party       409                                                    00 
00060010044000013000000000007000006000000000000000000000000000000000000000000000000000000000000000000DEM       BALLOTS CAST - Democratic Party                         BALLOTS CAST - Democratic Party       410                                                    00 
00060010045000026000002000014000010000000000000000000000000000000000000000000000000000000000000000000DEM       BALLOTS CAST - Democratic Party                         BALLOTS CAST - Democratic Party       411                                                    00 
00070010001000004000000000000000004000000000000000000000000000000000000000000000000000000000000000000DEM       DEM Governor                                            Beto O'Rourke                         101                                                    01 
00070010002000000000000000000000000000000000000000000000000000000000000000000000000000000000000000000DEM       DEM Governor                                            Beto O'Rourke                         101A                                                   01 
00070010003000032000002000010000020000000000000000000000000000000000000000000000000000000000000000000DEM       DEM Governor                                            Beto O'Rourke                         102                                                    01 
00070010004000075000007000035000033000000000000000000000000000000000000000000000000000000000000000000DEM       DEM Governor                                            Beto O'Rourke                         103                                                    01 
00070010005000022000003000008000011000000000000000000000000000000000000000000000000000000000000000000DEM       DEM Governor                                            Beto O'Rourke                         104                                                    01 
00070010006000027000001000014000012000000000000000000000000000000000000000000000000000000000000000000DEM       DEM Governor                                            Beto O'Rourke                         105                                                    01 
00070010007000081000005000034000042000000000000000000000000000000000000000000000000000000000000000000DEM       DEM Governor                                            Beto O'Rourke                         106                                                    01 
00070010008000042000011000012000019000000000000000000000000000000000000000000000000000000000000000000DEM       DEM Governor                                            Beto O'Rourke                         107                                                    01 
00070010009000007000000000007000000000000000000000000000000000000000000000000000000000000000000000000DEM       DEM Governor                                            Beto O'Rourke                         108                                                    01 
00070010010000002000000000000000002000000000000000000000000000000000000000000000000000000000000000000DEM       DEM Governor                                            Beto O'Rourke                         108A                                                   01 
00070010011000014000000000007000007000000000000000000000000000000000000000000000000000000000000000000DEM       DEM Governor                                            Beto O'Rourke                         109                                                    01 
00070010012000019000001000011000007000000000000000000000000000000000000000000000000000000000000000000DEM       DEM Governor                                            Beto O'Rourke                         110                                                    01 
00070010013000013000000000005000008000000000000000000000000000000000000000000000000000000000000000000DEM       DEM Governor                                            Beto O'Rourke                         201                                                    01 
00070010014000008000000000003000005000000000000000000000000000000000000000000000000000000000000000000DEM       DEM Governor                                            Beto O'Rourke                         202                                                    01 
00070010015000027000005000012000010000000000000000000000000000000000000000000000000000000000000000000DEM       DEM Governor                                            Beto O'Rourke                         202A                                                   01 
00070010016000004000000000003000001000000000000000000000000000000000000000000000000000000000000000000DEM       DEM Governor                                            Beto O'Rourke                         203                                                    01 
00070010017000044000001000025000018000000000000000000000000000000000000000000000000000000000000000000DEM       DEM Governor                                            Beto O'Rourke                         204                                                    01 
00070010018000026000001000007000018000000000000000000000000000000000000000000000000000000000000000000DEM       DEM Governor                                            Beto O'Rourke                         205                                                    01 
00070010019000025000005000012000008000000000000000000000000000000000000000000000000000000000000000000DEM       DEM Governor                                            Beto O'Rourke                         206                                                    01 
00070010020000058000005000029000024000000000000000000000000000000000000000000000000000000000000000000DEM       DEM Governor                                            Beto O'Rourke                         207                                                    01 
00070010021000022000003000009000010000000000000000000000000000000000000000000000000000000000000000000DEM       DEM Governor                                            Beto O'Rourke                         208                                                    01 
00070010022000028000002000010000016000000000000000000000000000000000000000000000000000000000000000000DEM       DEM Governor                                            Beto O'Rourke                         210                                                    01 
00070010023000041000002000018000021000000000000000000000000000000000000000000000000000000000000000000DEM       DEM Governor                                            Beto O'Rourke                         211                                                    01 
00070010024000037000000000018000019000000000000000000000000000000000000000000000000000000000000000000DEM       DEM Governor                                            Beto O'Rourke                         302                                                    01 
00070010025000007000000000002000005000000000000000000000000000000000000000000000000000000000000000000DEM       DEM Governor                                            Beto O'Rourke                         303                                                    01 
00070010026000018000000000006000012000000000000000000000000000000000000000000000000000000000000000000DEM       DEM Governor                                            Beto O'Rourke                         304                                                    01 
00070010027000057000008000033000016000000000000000000000000000000000000000000000000000000000000000000DEM       DEM Governor                                            Beto O'Rourke                         305                                                    01 
00070010028000119000012000055000052000000000000000000000000000000000000000000000000000000000000000000DEM       DEM Governor                                            Beto O'Rourke                         306                                                    01 
00070010029000035000006000011000018000000000000000000000000000000000000000000000000000000000000000000DEM       DEM Governor                                            Beto O'Rourke                         307                                                    01 
00070010030000030000000000016000014000000000000000000000000000000000000000000000000000000000000000000DEM       DEM Governor                                            Beto O'Rourke                         307A                                                   01 
00070010031000168000014000075000079000000000000000000000000000000000000000000000000000000000000000000DEM       DEM Governor                                            Beto O'Rourke                         308                                                    01 
00070010032000005000000000001000004000000000000000000000000000000000000000000000000000000000000000000DEM       DEM Governor                                            Beto O'Rourke                         309                                                    01 
00070010033000000000000000000000000000000000000000000000000000000000000000000000000000000000000000000DEM       DEM Governor                                            Beto O'Rourke                         309A                                                   01 
00070010034000010000001000003000006000000000000000000000000000000000000000000000000000000000000000000DEM       DEM Governor                                            Beto O'Rourke                         310                                                    01 
00070010035000006000002000003000001000000000000000000000000000000000000000000000000000000000000000000DEM       DEM Governor                                            Beto O'Rourke                         401                                                    01 
00070010036000020000001000012000007000000000000000000000000000000000000000000000000000000000000000000DEM       DEM Governor                                            Beto O'Rourke                         402                                                    01 
00070010037000051000008000020000023000000000000000000000000000000000000000000000000000000000000000000DEM       DEM Governor                                            Beto O'Rourke                         403                                                    01 
00070010038000039000006000024000009000000000000000000000000000000000000000000000000000000000000000000DEM       DEM Governor                                            Beto O'Rourke                         404                                                    01 
00070010039000035000002000022000011000000000000000000000000000000000000000000000000000000000000000000DEM       DEM Governor                                            Beto O'Rourke                         405                                                    01 
00070010040000019000002000003000014000000000000000000000000000000000000000000000000000000000000000000DEM       DEM Governor                                            Beto O'Rourke                         406                                                    01 
00070010041000055000006000022000027000000000000000000000000000000000000000000000000000000000000000000DEM       DEM Governor                                            Beto O'Rourke                         407                                                    01 
00070010042000010000002000004000004000000000000000000000000000000000000000000000000000000000000000000DEM       DEM Governor                                            Beto O'Rourke                         408                                                    01 
00070010043000032000000000022000010000000000000000000000000000000000000000000000000000000000000000000DEM       DEM Governor                                            Beto O'Rourke                         409                                                    01 
00070010044000011000000000006000005000000000000000000000000000000000000000000000000000000000000000000DEM       DEM Governor                                            Beto O'Rourke                         410                                                    01 
00070010045000021000002000014000005000000000000000000000000000000000000000000000000000000000000000000DEM       DEM Governor                                            Beto O'Rourke                         411                                                    01 
00070020001000000000000000000000000000000000000000000000000000000000000000000000000000000000000000000DEM       DEM Governor                                            Joy Diaz                              101                                                    01 
00070020002000000000000000000000000000000000000000000000000000000000000000000000000000000000000000000DEM       DEM Governor                                            Joy Diaz                              101A                                                   01 
00070020003000003000000000003000000000000000000000000000000000000000000000000000000000000000000000000DEM       DEM Governor                                            Joy Diaz                              102                                                    01 
00070020004000002000000000002000000000000000000000000000000000000000000000000000000000000000000000000DEM       DEM Governor                                            Joy Diaz                              103                                                    01 
00070020005000000000000000000000000000000000000000000000000000000000000000000000000000000000000000000DEM       DEM Governor                                            Joy Diaz                              104                                                    01 
00070020006000002000000000001000001000000000000000000000000000000000000000000000000000000000000000000DEM       DEM Governor                                            Joy Diaz                              105                                                    01 
00070020007000000000000000000000000000000000000000000000000000000000000000000000000000000000000000000DEM       DEM Governor                                            Joy Diaz                              106                                                    01 
00070020008000002000000000002000000000000000000000000000000000000000000000000000000000000000000000000DEM       DEM Governor                                            Joy Diaz                              107                                                    01 
00070020009000001000000000001000000000000000000000000000000000000000000000000000000000000000000000000DEM       DEM Governor                                            Joy Diaz                              108                                                    01 
00070020010000000000000000000000000000000000000000000000000000000000000000000000000000000000000000000DEM       DEM Governor                                            Joy Diaz                              108A                                                   01 
00070020011000000000000000000000000000000000000000000000000000000000000000000000000000000000000000000DEM       DEM Governor                                            Joy Diaz                              109                                                    01 
00070020012000002000000000001000001000000000000000000000000000000000000000000000000000000000000000000DEM       DEM Governor                                            Joy Diaz                              110                                                    01 
00070020013000000000000000000000000000000000000000000000000000000000000000000000000000000000000000000DEM       DEM Governor                                            Joy Diaz                              201                                                    01 
00070020014000000000000000000000000000000000000000000000000000000000000000000000000000000000000000000DEM       DEM Governor                                            Joy Diaz                              202                                                    01 
00070020015000000000000000000000000000000000000000000000000000000000000000000000000000000000000000000DEM       DEM Governor                                            Joy Diaz                              202A                                                   01 
00070020016000001000000000001000000000000000000000000000000000000000000000000000000000000000000000000DEM       DEM Governor                                            Joy Diaz                              203                                                    01 
00070020017000003000000000002000001000000000000000000000000000000000000000000000000000000000000000000DEM       DEM Governor                                            Joy Diaz                              204                                                    01 
00070020018000000000000000000000000000000000000000000000000000000000000000000000000000000000000000000DEM       DEM Governor                                            Joy Diaz                              205                                                    01 
00070020019000002000000000001000001000000000000000000000000000000000000000000000000000000000000000000DEM       DEM Governor                                            Joy Diaz                              206                                                    01 
00070020020000001000000000000000001000000000000000000000000000000000000000000000000000000000000000000DEM       DEM Governor                                            Joy Diaz                              207                                                    01 
00070020021000001000001000000000000000000000000000000000000000000000000000000000000000000000000000000DEM       DEM Governor                                            Joy Diaz                              208                                                    01 
00070020022000001000000000001000000000000000000000000000000000000000000000000000000000000000000000000DEM       DEM Governor                                            Joy Diaz                              210                                                    01 
00070020023000004000000000003000001000000000000000000000000000000000000000000000000000000000000000000DEM       DEM Governor                                            Joy Diaz                              211                                                    01 
00070020024000001000000000001000000000000000000000000000000000000000000000000000000000000000000000000DEM       DEM Governor                                            Joy Diaz                              302                                                    01 
00070020025000000000000000000000000000000000000000000000000000000000000000000000000000000000000000000DEM       DEM Governor                                            Joy Diaz                              303                                                    01 
00070020026000003000000000000000003000000000000000000000000000000000000000000000000000000000000000000DEM       DEM Governor                                            Joy Diaz                              304                                                    01 
00070020027000002000000000000000002000000000000000000000000000000000000000000000000000000000000000000DEM       DEM Governor                                            Joy Diaz                              305                                                    01 
00070020028000005000000000002000003000000000000000000000000000000000000000000000000000000000000000000DEM       DEM Governor                                            Joy Diaz                              306                                                    01 
00070020029000000000000000000000000000000000000000000000000000000000000000000000000000000000000000000DEM       DEM Governor                                            Joy Diaz                              307                                                    01 
00070020030000001000000000000000001000000000000000000000000000000000000000000000000000000000000000000DEM       DEM Governor                                            Joy Diaz                              307A                                                   01 
00070020031000004000000000002000002000000000000000000000000000000000000000000000000000000000000000000DEM       DEM Governor                                            Joy Diaz                              308                                                    01 
00070020032000000000000000000000000000000000000000000000000000000000000000000000000000000000000000000DEM       DEM Governor                                            Joy Diaz                              309                                                    01 
00070020033000000000000000000000000000000000000000000000000000000000000000000000000000000000000000000DEM       DEM Governor                                            Joy Diaz                              309A                                                   01 
00070020034000003000000000003000000000000000000000000000000000000000000000000000000000000000000000000DEM       DEM Governor                                            Joy Diaz                              310                                                    01 
00070020035000001000001000000000000000000000000000000000000000000000000000000000000000000000000000000DEM       DEM Governor                                            Joy Diaz                              401                                                    01 
00070020036000000000000000000000000000000000000000000000000000000000000000000000000000000000000000000DEM       DEM Governor                                            Joy Diaz                              402                                                    01 
00070020037000003000001000001000001000000000000000000000000000000000000000000000000000000000000000000DEM       DEM Governor                                            Joy Diaz                              403                                                    01 
00070020038000001000001000000000000000000000000000000000000000000000000000000000000000000000000000000DEM       DEM Governor                                            Joy Diaz                              404                                                    01 
00070020039000002000000000001000001000000000000000000000000000000000000000000000000000000000000000000DEM       DEM Governor                                            Joy Diaz                              405                                                    01 
00070020040000000000000000000000000000000000000000000000000000000000000000000000000000000000000000000DEM       DEM Governor                                            Joy Diaz                              406                                                    01 
00070020041000004000000000002000002000000000000000000000000000000000000000000000000000000000000000000DEM       DEM Governor                                            Joy Diaz                              407                                                    01 
00070020042000000000000000000000000000000000000000000000000000000000000000000000000000000000000000000DEM       DEM Governor                                            Joy Diaz                              408                                                    01 
00070020043000000000000000000000000000000000000000000000000000000000000000000000000000000000000000000DEM       DEM Governor                                            Joy Diaz                              409                                                    01 
00070020044000001000000000001000000000000000000000000000000000000000000000000000000000000000000000000DEM       DEM Governor                                            Joy Diaz                              410                                                    01 
00070020045000000000000000000000000000000000000000000000000000000000000000000000000000000000000000000DEM       DEM Governor                                            Joy Diaz                              411                                                    01 
00070030001000000000000000000000000000000000000000000000000000000000000000000000000000000000000000000DEM       DEM Governor                                            Rich Wakeland                         101                                                    01 
00070030002000000000000000000000000000000000000000000000000000000000000000000000000000000000000000000DEM       DEM Governor                                            Rich Wakeland                         101A                                                   01 
00070030003000000000000000000000000000000000000000000000000000000000000000000000000000000000000000000DEM       DEM Governor                                            Rich Wakeland                         102                                                    01 
00070030004000001000000000001000000000000000000000000000000000000000000000000000000000000000000000000DEM       DEM Governor                                            Rich Wakeland                         103                                                    01 
00070030005000000000000000000000000000000000000000000000000000000000000000000000000000000000000000000DEM       DEM Governor                                            Rich Wakeland                         104                                                    01 
00070030006000000000000000000000000000000000000000000000000000000000000000000000000000000000000000000DEM       DEM Governor                                            Rich Wakeland                         105                                                    01 
00070030007000004000000000002000002000000000000000000000000000000000000000000000000000000000000000000DEM       DEM Governor                                            Rich Wakeland                         106                                                    01 
00070030008000001000000000000000001000000000000000000000000000000000000000000000000000000000000000000DEM       DEM Governor                                            Rich Wakeland                         107                                                    01 
00070030009000000000000000000000000000000000000000000000000000000000000000000000000000000000000000000DEM       DEM Governor                                            Rich Wakeland                         108                                                    01 
00070030010000000000000000000000000000000000000000000000000000000000000000000000000000000000000000000DEM       DEM Governor                                            Rich Wakeland                         108A                                                   01 
00070030011000000000000000000000000000000000000000000000000000000000000000000000000000000000000000000DEM       DEM Governor                                            Rich Wakeland                         109                                                    01 
00070030012000000000000000000000000000000000000000000000000000000000000000000000000000000000000000000DEM       DEM Governor                                            Rich Wakeland                         110                                                    01 
00070030013000000000000000000000000000000000000000000000000000000000000000000000000000000000000000000DEM       DEM Governor                                            Rich Wakeland                         201                                                    01 
00070030014000000000000000000000000000000000000000000000000000000000000000000000000000000000000000000DEM       DEM Governor                                            Rich Wakeland                         202                                                    01 
00070030015000000000000000000000000000000000000000000000000000000000000000000000000000000000000000000DEM       DEM Governor                                            Rich Wakeland                         202A                                                   01 
00070030016000000000000000000000000000000000000000000000000000000000000000000000000000000000000000000DEM       DEM Governor                                            Rich Wakeland                         203                                                    01 
00070030017000000000000000000000000000000000000000000000000000000000000000000000000000000000000000000DEM       DEM Governor                                            Rich Wakeland                         204                                                    01 
00070030018000000000000000000000000000000000000000000000000000000000000000000000000000000000000000000DEM       DEM Governor                                            Rich Wakeland                         205                                                    01 
00070030019000000000000000000000000000000000000000000000000000000000000000000000000000000000000000000DEM       DEM Governor                                            Rich Wakeland                         206                                                    01 
00070030020000000000000000000000000000000000000000000000000000000000000000000000000000000000000000000DEM       DEM Governor                                            Rich Wakeland                         207                                                    01 
00070030021000001000001000000000000000000000000000000000000000000000000000000000000000000000000000000DEM       DEM Governor                                            Rich Wakeland                         208                                                    01 
00070030022000000000000000000000000000000000000000000000000000000000000000000000000000000000000000000DEM       DEM Governor                                            Rich Wakeland                         210                                                    01 
00070030023000003000000000000000003000000000000000000000000000000000000000000000000000000000000000000DEM       DEM Governor                                            Rich Wakeland                         211                                                    01 
00070030024000000000000000000000000000000000000000000000000000000000000000000000000000000000000000000DEM       DEM Governor                                            Rich Wakeland                         302                                                    01 
00070030025000000000000000000000000000000000000000000000000000000000000000000000000000000000000000000DEM       DEM Governor                                            Rich Wakeland                         303                                                    01 
00070030026000002000000000000000002000000000000000000000000000000000000000000000000000000000000000000DEM       DEM Governor                                            Rich Wakeland                         304                                                    01 
00070030027000000000000000000000000000000000000000000000000000000000000000000000000000000000000000000DEM       DEM Governor                                            Rich Wakeland                         305                                                    01 
00070030028000003000000000001000002000000000000000000000000000000000000000000000000000000000000000000DEM       DEM Governor                                            Rich Wakeland                         306                                                    01 
00070030029000000000000000000000000000000000000000000000000000000000000000000000000000000000000000000DEM       DEM Governor                                            Rich Wakeland                         307                                                    01 
00070030030000001000000000001000000000000000000000000000000000000000000000000000000000000000000000000DEM       DEM Governor                                            Rich Wakeland                         307A                                                   01 
00070030031000001000000000001000000000000000000000000000000000000000000000000000000000000000000000000DEM       DEM Governor                                            Rich Wakeland                         308                                                    01 
00070030032000000000000000000000000000000000000000000000000000000000000000000000000000000000000000000DEM       DEM Governor                                            Rich Wakeland                         309                                                    01 
00070030033000000000000000000000000000000000000000000000000000000000000000000000000000000000000000000DEM       DEM Governor                                            Rich Wakeland                         309A                                                   01 
00070030034000001000000000000000001000000000000000000000000000000000000000000000000000000000000000000DEM       DEM Governor                                            Rich Wakeland                         310                                                    01 
00070030035000000000000000000000000000000000000000000000000000000000000000000000000000000000000000000DEM       DEM Governor                                            Rich Wakeland                         401                                                    01 
00070030036000000000000000000000000000000000000000000000000000000000000000000000000000000000000000000DEM       DEM Governor                                            Rich Wakeland                         402                                                    01 
00070030037000000000000000000000000000000000000000000000000000000000000000000000000000000000000000000DEM       DEM Governor                                            Rich Wakeland                         403                                                    01 
00070030038000000000000000000000000000000000000000000000000000000000000000000000000000000000000000000DEM       DEM Governor                                            Rich Wakeland                         404                                                    01 
00070030039000000000000000000000000000000000000000000000000000000000000000000000000000000000000000000DEM       DEM Governor                                            Rich Wakeland                         405                                                    01 
00070030040000001000001000000000000000000000000000000000000000000000000000000000000000000000000000000DEM       DEM Governor                                            Rich Wakeland                         406                                                    01 
00070030041000000000000000000000000000000000000000000000000000000000000000000000000000000000000000000DEM       DEM Governor                                            Rich Wakeland                         407                                                    01 
00070030042000000000000000000000000000000000000000000000000000000000000000000000000000000000000000000DEM       DEM Governor                                            Rich Wakeland                         408                                                    01 
00070030043000001000000000000000001000000000000000000000000000000000000000000000000000000000000000000DEM       DEM Governor                                            Rich Wakeland                         409                                                    01 
00070030044000000000000000000000000000000000000000000000000000000000000000000000000000000000000000000DEM       DEM Governor                                            Rich Wakeland                         410                                                    01 
00070030045000001000000000000000001000000000000000000000000000000000000000000000000000000000000000000DEM       DEM Governor                                            Rich Wakeland                         411                                                    01 
00070040001000000000000000000000000000000000000000000000000000000000000000000000000000000000000000000DEM       DEM Governor                                            Michael Cooper                        101                                                    01 
00070040002000000000000000000000000000000000000000000000000000000000000000000000000000000000000000000DEM       DEM Governor                                            Michael Cooper                        101A                                                   01 
00070040003000000000000000000000000000000000000000000000000000000000000000000000000000000000000000000DEM       DEM Governor                                            Michael Cooper                        102                                                    01 
00070040004000002000000000002000000000000000000000000000000000000000000000000000000000000000000000000DEM       DEM Governor                                            Michael Cooper                        103                                                    01 
00070040005000000000000000000000000000000000000000000000000000000000000000000000000000000000000000000DEM       DEM Governor                                            Michael Cooper                        104                                                    01 
00070040006000001000000000000000001000000000000000000000000000000000000000000000000000000000000000000DEM       DEM Governor                                            Michael Cooper                        105                                                    01 
00070040007000002000000000001000001000000000000000000000000000000000000000000000000000000000000000000DEM       DEM Governor                                            Michael Cooper                        106                                                    01 
00070040008000002000000000000000002000000000000000000000000000000000000000000000000000000000000000000DEM       DEM Governor                                            Michael Cooper                        107                                                    01 
00070040009000000000000000000000000000000000000000000000000000000000000000000000000000000000000000000DEM       DEM Governor                                            Michael Cooper                        108                                                    01 
00070040010000000000000000000000000000000000000000000000000000000000000000000000000000000000000000000DEM       DEM Governor                                            Michael Cooper                        108A                                                   01 
00070040011000000000000000000000000000000000000000000000000000000000000000000000000000000000000000000DEM       DEM Governor                                            Michael Cooper                        109                                                    01 
00070040012000000000000000000000000000000000000000000000000000000000000000000000000000000000000000000DEM       DEM Governor                                            Michael Cooper                        110                                                    01 
00070040013000000000000000000000000000000000000000000000000000000000000000000000000000000000000000000DEM       DEM Governor                                            Michael Cooper                        201                                                    01 
00070040014000001000000000000000001000000000000000000000000000000000000000000000000000000000000000000DEM       DEM Governor                                            Michael Cooper                        202                                                    01 
00070040015000000000000000000000000000000000000000000000000000000000000000000000000000000000000000000DEM       DEM Governor                                            Michael Cooper                        202A                                                   01 
00070040016000001000000000001000000000000000000000000000000000000000000000000000000000000000000000000DEM       DEM Governor                                            Michael Cooper                        203                                                    01 
00070040017000000000000000000000000000000000000000000000000000000000000000000000000000000000000000000DEM       DEM Governor                                            Michael Cooper                        204                                                    01 
00070040018000000000000000000000000000000000000000000000000000000000000000000000000000000000000000000DEM       DEM Governor                                            Michael Cooper                        205                                                    01 
00070040019000000000000000000000000000000000000000000000000000000000000000000000000000000000000000000DEM       DEM Governor                                            Michael Cooper                        206                                                    01 
00070040020000001000000000000000001000000000000000000000000000000000000000000000000000000000000000000DEM       DEM Governor                                            Michael Cooper                        207                                                    01 
00070040021000000000000000000000000000000000000000000000000000000000000000000000000000000000000000000DEM       DEM Governor                                            Michael Cooper                        208                                                    01 
00070040022000003000000000002000001000000000000000000000000000000000000000000000000000000000000000000DEM       DEM Governor                                            Michael Cooper                        210                                                    01 
00070040023000000000000000000000000000000000000000000000000000000000000000000000000000000000000000000DEM       DEM Governor                                            Michael Cooper                        211                                                    01 
00070040024000000000000000000000000000000000000000000000000000000000000000000000000000000000000000000DEM       DEM Governor                                            Michael Cooper                        302                                                    01 
00070040025000000000000000000000000000000000000000000000000000000000000000000000000000000000000000000DEM       DEM Governor                                            Michael Cooper                        303                                                    01 
00070040026000001000000000000000001000000000000000000000000000000000000000000000000000000000000000000DEM       DEM Governor                                            Michael Cooper                        304                                                    01 
00070040027000002000000000000000002000000000000000000000000000000000000000000000000000000000000000000DEM       DEM Governor                                            Michael Cooper                        305                                                    01 
00070040028000006000001000001000004000000000000000000000000000000000000000000000000000000000000000000DEM       DEM Governor                                            Michael Cooper                        306                                                    01 
00070040029000000000000000000000000000000000000000000000000000000000000000000000000000000000000000000DEM       DEM Governor                                            Michael Cooper                        307                                                    01 
00070040030000001000000000000000001000000000000000000000000000000000000000000000000000000000000000000DEM       DEM Governor                                            Michael Cooper                        307A                                                   01 
00070040031000003000000000002000001000000000000000000000000000000000000000000000000000000000000000000DEM       DEM Governor                                            Michael Cooper                        308                                                    01 
00070040032000000000000000000000000000000000000000000000000000000000000000000000000000000000000000000DEM       DEM Governor                                            Michael Cooper                        309                                                    01 
00070040033000000000000000000000000000000000000000000000000000000000000000000000000000000000000000000DEM       DEM Governor                                            Michael Cooper                        309A                                                   01 
00070040034000000000000000000000000000000000000000000000000000000000000000000000000000000000000000000DEM       DEM Governor                                            Michael Cooper                        310                                                    01 
00070040035000000000000000000000000000000000000000000000000000000000000000000000000000000000000000000DEM       DEM Governor                                            Michael Cooper                        401                                                    01 
00070040036000000000000000000000000000000000000000000000000000000000000000000000000000000000000000000DEM       DEM Governor                                            Michael Cooper                        402                                                    01 
00070040037000002000000000000000002000000000000000000000000000000000000000000000000000000000000000000DEM       DEM Governor                                            Michael Cooper                        403                                                    01 
00070040038000001000000000001000000000000000000000000000000000000000000000000000000000000000000000000DEM       DEM Governor                                            Michael Cooper                        404                                                    01 
00070040039000000000000000000000000000000000000000000000000000000000000000000000000000000000000000000DEM       DEM Governor                                            Michael Cooper                        405                                                    01 
00070040040000001000000000000000001000000000000000000000000000000000000000000000000000000000000000000DEM       DEM Governor                                            Michael Cooper                        406                                                    01 
00070040041000001000000000001000000000000000000000000000000000000000000000000000000000000000000000000DEM       DEM Governor                                            Michael Cooper                        407                                                    01 
00070040042000002000000000002000000000000000000000000000000000000000000000000000000000000000000000000DEM       DEM Governor                                            Michael Cooper                        408                                                    01 
00070040043000000000000000000000000000000000000000000000000000000000000000000000000000000000000000000DEM       DEM Governor                                            Michael Cooper                        409                                                    01 
00070040044000000000000000000000000000000000000000000000000000000000000000000000000000000000000000000DEM       DEM Governor                                            Michael Cooper                        410                                                    01 
00070040045000003000000000000000003000000000000000000000000000000000000000000000000000000000000000000DEM       DEM Governor                                            Michael Cooper                        411                                                    01 
00070050001000000000000000000000000000000000000000000000000000000000000000000000000000000000000000000DEM       DEM Governor                                            Inocencio (Inno) Barrientez           101                                                    01 
00070050002000000000000000000000000000000000000000000000000000000000000000000000000000000000000000000DEM       DEM Governor                                            Inocencio (Inno) Barrientez           101A                                                   01 
00070050003000000000000000000000000000000000000000000000000000000000000000000000000000000000000000000DEM       DEM Governor                                            Inocencio (Inno) Barrientez           102                                                    01 
00070050004000001000000000001000000000000000000000000000000000000000000000000000000000000000000000000DEM       DEM Governor                                            Inocencio (Inno) Barrientez           103                                                    01 
00070050005000000000000000000000000000000000000000000000000000000000000000000000000000000000000000000DEM       DEM Governor                                            Inocencio (Inno) Barrientez           104                                                    01 
00070050006000000000000000000000000000000000000000000000000000000000000000000000000000000000000000000DEM       DEM Governor                                            Inocencio (Inno) Barrientez           105                                                    01 
00070050007000000000000000000000000000000000000000000000000000000000000000000000000000000000000000000DEM       DEM Governor                                            Inocencio (Inno) Barrientez           106                                                    01 
00070050008000000000000000000000000000000000000000000000000000000000000000000000000000000000000000000DEM       DEM Governor                                            Inocencio (Inno) Barrientez           107                                                    01 
00070050009000000000000000000000000000000000000000000000000000000000000000000000000000000000000000000DEM       DEM Governor                                            Inocencio (Inno) Barrientez           108                                                    01 
00070050010000000000000000000000000000000000000000000000000000000000000000000000000000000000000000000DEM       DEM Governor                                            Inocencio (Inno) Barrientez           108A                                                   01 
00070050011000001000001000000000000000000000000000000000000000000000000000000000000000000000000000000DEM       DEM Governor                                            Inocencio (Inno) Barrientez           109                                                    01 
00070050012000000000000000000000000000000000000000000000000000000000000000000000000000000000000000000DEM       DEM Governor                                            Inocencio (Inno) Barrientez           110                                                    01 
00070050013000001000001000000000000000000000000000000000000000000000000000000000000000000000000000000DEM       DEM Governor                                            Inocencio (Inno) Barrientez           201                                                    01 
00070050014000001000000000000000001000000000000000000000000000000000000000000000000000000000000000000DEM       DEM Governor                                            Inocencio (Inno) Barrientez           202                                                    01 
00070050015000000000000000000000000000000000000000000000000000000000000000000000000000000000000000000DEM       DEM Governor                                            Inocencio (Inno) Barrientez           202A                                                   01 
00070050016000000000000000000000000000000000000000000000000000000000000000000000000000000000000000000DEM       DEM Governor                                            Inocencio (Inno) Barrientez           203                                                    01 
00070050017000000000000000000000000000000000000000000000000000000000000000000000000000000000000000000DEM       DEM Governor                                            Inocencio (Inno) Barrientez           204                                                    01 
