00020010001000000000000000000000000000000000000000000000000000000000000000000000000000000000000000000DEM       REGISTERED VOTERS - Democratic Party                    REGISTERED VOTERS - Democratic Party  Precinct 2                                             00 
00020010002000000000000000000000000000000000000000000000000000000000000000000000000000000000000000000DEM       REGISTERED VOTERS - Democratic Party                    REGISTERED VOTERS - Democratic Party  Precinct 3                                             00 
00020010003000000000000000000000000000000000000000000000000000000000000000000000000000000000000000000DEM       REGISTERED VOTERS - Democratic Party                    REGISTERED VOTERS - Democratic Party  Precinct 4                                             00 
00020010004000000000000000000000000000000000000000000000000000000000000000000000000000000000000000000DEM       REGISTERED VOTERS - Democratic Party                    REGISTERED VOTERS - Democratic Party  Precinct 5                                             00 
00020010005000000000000000000000000000000000000000000000000000000000000000000000000000000000000000000DEM       REGISTERED VOTERS - Democratic Party                    REGISTERED VOTERS - Democratic Party  Precinct 6                                             00 
00020010006000000000000000000000000000000000000000000000000000000000000000000000000000000000000000000DEM       REGISTERED VOTERS - Democratic Party                    REGISTERED VOTERS - Democratic Party  Precinct 7                                             00 
00020010007000000000000000000000000000000000000000000000000000000000000000000000000000000000000000000DEM       REGISTERED VOTERS - Democratic Party                    REGISTERED VOTERS - Democratic Party  Precinct 8                                             00 
00020010008000000000000000000000000000000000000000000000000000000000000000000000000000000000000000000DEM       REGISTERED VOTERS - Democratic Party                    REGISTERED VOTERS - Democratic Party  Precinct 9                                             00 
00020010009000000000000000000000000000000000000000000000000000000000000000000000000000000000000000000DEM       REGISTERED VOTERS - Democratic Party                    REGISTERED VOTERS - Democratic Party  Precinct 10                                            00 
00020010010000000000000000000000000000000000000000000000000000000000000000000000000000000000000000000DEM       REGISTERED VOTERS - Democratic Party                    REGISTERED VOTERS - Democratic Party  Precinct 11                                            00 
00020010011000000000000000000000000000000000000000000000000000000000000000000000000000000000000000000DEM       REGISTERED VOTERS - Democratic Party                    REGISTERED VOTERS - Democratic Party  Precinct 12                                            00 
00020010012000000000000000000000000000000000000000000000000000000000000000000000000000000000000000000DEM       REGISTERED VOTERS - Democratic Party                    REGISTERED VOTERS - Democratic Party  Precinct 13                                            00 
00020010013000000000000000000000000000000000000000000000000000000000000000000000000000000000000000000DEM       REGISTERED VOTERS - Democratic Party                    REGISTERED VOTERS - Democratic Party  Precinct 14                                            00 
00020010014000000000000000000000000000000000000000000000000000000000000000000000000000000000000000000DEM       REGISTERED VOTERS - Democratic Party                    REGISTERED VOTERS - Democratic Party  Precinct 15                                            00 
00020010015000000000000000000000000000000000000000000000000000000000000000000000000000000000000000000DEM       REGISTERED VOTERS - Democratic Party                    REGISTERED VOTERS - Democratic Party  Precinct 16                                            00 
00040010001000666000022000266000378000000000000000000000000000000000000000000000000000000000000000000          BALLOTS CAST - TOTAL                                    BALLOTS CAST - TOTAL                  Precinct 2                                             00 
00040010002000346000011000156000179000000000000000000000000000000000000000000000000000000000000000000          BALLOTS CAST - TOTAL                                    BALLOTS CAST - TOTAL                  Precinct 3                                             00 
00040010003000118000001000047000070000000000000000000000000000000000000000000000000000000000000000000          BALLOTS CAST - TOTAL                                    BALLOTS CAST - TOTAL                  Precinct 4                                             00 
00040010004000253000006000117000130000000000000000000000000000000000000000000000000000000000000000000          BALLOTS CAST - TOTAL                                    BALLOTS CAST - TOTAL                  Precinct 5                                             00 
00040010005000185000006000086000093000000000000000000000000000000000000000000000000000000000000000000          BALLOTS CAST - TOTAL                                    BALLOTS CAST - TOTAL                  Precinct 6                                             00 
00040010006000348000010000098000240000000000000000000000000000000000000000000000000000000000000000000          BALLOTS CAST - TOTAL                                    BALLOTS CAST - TOTAL                  Precinct 7                                             00 
00040010007000231000007000051000173000000000000000000000000000000000000000000000000000000000000000000          BALLOTS CAST - TOTAL                                    BALLOTS CAST - TOTAL                  Precinct 8                                             00 
00040010008000307000014000118000175000000000000000000000000000000000000000000000000000000000000000000          BALLOTS CAST - TOTAL                                    BALLOTS CAST - TOTAL                  Precinct 9                                             00 
00040010009000223000007000077000139000000000000000000000000000000000000000000000000000000000000000000          BALLOTS CAST - TOTAL                                    BALLOTS CAST - TOTAL                  Precinct 10                                            00 
00040010010000238000008000089000141000000000000000000000000000000000000000000000000000000000000000000          BALLOTS CAST - TOTAL                                    BALLOTS CAST - TOTAL                  Precinct 11                                            00 
00040010011000039000001000007000031000000000000000000000000000000000000000000000000000000000000000000          BALLOTS CAST - TOTAL                                    BALLOTS CAST - TOTAL                  Precinct 12                                            00 
00040010012000310000007000108000195000000000000000000000000000000000000000000000000000000000000000000          BALLOTS CAST - TOTAL                                    BALLOTS CAST - TOTAL                  Precinct 13                                            00 
00040010013000067000001000018000048000000000000000000000000000000000000000000000000000000000000000000          BALLOTS CAST - TOTAL                                    BALLOTS CAST - TOTAL                  Precinct 14                                            00 
00040010014000147000005000049000093000000000000000000000000000000000000000000000000000000000000000000          BALLOTS CAST - TOTAL                                    BALLOTS CAST - TOTAL                  Precinct 15                                            00 
00040010015000068000000000032000036000000000000000000000000000000000000000000000000000000000000000000          BALLOTS CAST - TOTAL                                    BALLOTS CAST - TOTAL                  Precinct 16                                            00 
00050010001000028000005000007000016000000000000000000000000000000000000000000000000000000000000000000DEM       BALLOTS CAST - Democratic Party                         BALLOTS CAST - Democratic Party       Precinct 2                                             00 
00050010002000015000005000004000006000000000000000000000000000000000000000000000000000000000000000000DEM       BALLOTS CAST - Democratic Party                         BALLOTS CAST - Democratic Party       Precinct 3                                             00 
00050010003000006000000000001000005000000000000000000000000000000000000000000000000000000000000000000DEM       BALLOTS CAST - Democratic Party                         BALLOTS CAST - Democratic Party       Precinct 4                                             00 
00050010004000012000003000005000004000000000000000000000000000000000000000000000000000000000000000000DEM       BALLOTS CAST - Democratic Party                         BALLOTS CAST - Democratic Party       Precinct 5                                             00 
00050010005000010000002000004000004000000000000000000000000000000000000000000000000000000000000000000DEM       BALLOTS CAST - Democratic Party                         BALLOTS CAST - Democratic Party       Precinct 6                                             00 
00050010006000023000003000004000016000000000000000000000000000000000000000000000000000000000000000000DEM       BALLOTS CAST - Democratic Party                         BALLOTS CAST - Democratic Party       Precinct 7                                             00 
00050010007000006000002000001000003000000000000000000000000000000000000000000000000000000000000000000DEM       BALLOTS CAST - Democratic Party                         BALLOTS CAST - Democratic Party       Precinct 8                                             00 
00050010008000020000004000003000013000000000000000000000000000000000000000000000000000000000000000000DEM       BALLOTS CAST - Democratic Party                         BALLOTS CAST - Democratic Party       Precinct 9                                             00 
00050010009000006000001000002000003000000000000000000000000000000000000000000000000000000000000000000DEM       BALLOTS CAST - Democratic Party                         BALLOTS CAST - Democratic Party       Precinct 10                                            00 
00050010010000014000000000004000010000000000000000000000000000000000000000000000000000000000000000000DEM       BALLOTS CAST - Democratic Party                         BALLOTS CAST - Democratic Party       Precinct 11                                            00 
00050010011000000000000000000000000000000000000000000000000000000000000000000000000000000000000000000DEM       BALLOTS CAST - Democratic Party                         BALLOTS CAST - Democratic Party       Precinct 12                                            00 
00050010012000012000000000005000007000000000000000000000000000000000000000000000000000000000000000000DEM       BALLOTS CAST - Democratic Party                         BALLOTS CAST - Democratic Party       Precinct 13                                            00 
00050010013000001000000000000000001000000000000000000000000000000000000000000000000000000000000000000DEM       BALLOTS CAST - Democratic Party                         BALLOTS CAST - Democratic Party       Precinct 14                                            00 
00050010014000009000003000002000004000000000000000000000000000000000000000000000000000000000000000000DEM       BALLOTS CAST - Democratic Party                         BALLOTS CAST - Democratic Party       Precinct 15                                            00 
00050010015000005000000000002000003000000000000000000000000000000000000000000000000000000000000000000DEM       BALLOTS CAST - Democratic Party                         BALLOTS CAST - Democratic Party       Precinct 16                                            00 
00060010001000000000000000000000000000000000000000000000000000000000000000000000000000000000000000000          BALLOTS CAST - BLANK                                    BALLOTS CAST - BLANK                  Precinct 2                                             00 
00060010002000000000000000000000000000000000000000000000000000000000000000000000000000000000000000000          BALLOTS CAST - BLANK                                    BALLOTS CAST - BLANK                  Precinct 3                                             00 
00060010003000000000000000000000000000000000000000000000000000000000000000000000000000000000000000000          BALLOTS CAST - BLANK                                    BALLOTS CAST - BLANK                  Precinct 4                                             00 
00060010004000000000000000000000000000000000000000000000000000000000000000000000000000000000000000000          BALLOTS CAST - BLANK                                    BALLOTS CAST - BLANK                  Precinct 5                                             00 
00060010005000000000000000000000000000000000000000000000000000000000000000000000000000000000000000000          BALLOTS CAST - BLANK                                    BALLOTS CAST - BLANK                  Precinct 6                                             00 
00060010006000000000000000000000000000000000000000000000000000000000000000000000000000000000000000000          BALLOTS CAST - BLANK                                    BALLOTS CAST - BLANK                  Precinct 7                                             00 
00060010007000000000000000000000000000000000000000000000000000000000000000000000000000000000000000000          BALLOTS CAST - BLANK                                    BALLOTS CAST - BLANK                  Precinct 8                                             00 
00060010008000000000000000000000000000000000000000000000000000000000000000000000000000000000000000000          BALLOTS CAST - BLANK                                    BALLOTS CAST - BLANK                  Precinct 9                                             00 
00060010009000000000000000000000000000000000000000000000000000000000000000000000000000000000000000000          BALLOTS CAST - BLANK                                    BALLOTS CAST - BLANK                  Precinct 10                                            00 
00060010010000000000000000000000000000000000000000000000000000000000000000000000000000000000000000000          BALLOTS CAST - BLANK                                    BALLOTS CAST - BLANK                  Precinct 11                                            00 
00060010011000000000000000000000000000000000000000000000000000000000000000000000000000000000000000000          BALLOTS CAST - BLANK                                    BALLOTS CAST - BLANK                  Precinct 12                                            00 
00060010012000000000000000000000000000000000000000000000000000000000000000000000000000000000000000000          BALLOTS CAST - BLANK                                    BALLOTS CAST - BLANK                  Precinct 13                                            00 
00060010013000000000000000000000000000000000000000000000000000000000000000000000000000000000000000000          BALLOTS CAST - BLANK                                    BALLOTS CAST - BLANK                  Precinct 14                                            00 
00060010014000000000000000000000000000000000000000000000000000000000000000000000000000000000000000000          BALLOTS CAST - BLANK                                    BALLOTS CAST - BLANK                  Precinct 15                                            00 
00060010015000000000000000000000000000000000000000000000000000000000000000000000000000000000000000000          BALLOTS CAST - BLANK                                    BALLOTS CAST - BLANK                  Precinct 16                                            00 
00070010001000025000002000007000016000000000000000000000000000000000000000000000000000000000000000000DEM       DEM US Representative, District 13                      Kathleen Brown                        Precinct 2                                             01 
00070010002000014000005000004000005000000000000000000000000000000000000000000000000000000000000000000DEM       DEM US Representative, District 13                      Kathleen Brown                        Precinct 3                                             01 
00070010003000006000000000001000005000000000000000000000000000000000000000000000000000000000000000000DEM       DEM US Representative, District 13                      Kathleen Brown                        Precinct 4                                             01 
00070010004000012000003000005000004000000000000000000000000000000000000000000000000000000000000000000DEM       DEM US Representative, District 13                      Kathleen Brown                        Precinct 5                                             01 
00070010005000010000002000004000004000000000000000000000000000000000000000000000000000000000000000000DEM       DEM US Representative, District 13                      Kathleen Brown                        Precinct 6                                             01 
00070010006000022000002000004000016000000000000000000000000000000000000000000000000000000000000000000DEM       DEM US Representative, District 13                      Kathleen Brown                        Precinct 7                                             01 
00070010007000006000002000001000003000000000000000000000000000000000000000000000000000000000000000000DEM       DEM US Representative, District 13                      Kathleen Brown                        Precinct 8                                             01 
00070010008000020000004000003000013000000000000000000000000000000000000000000000000000000000000000000DEM       DEM US Representative, District 13                      Kathleen Brown                        Precinct 9                                             01 
00070010009000005000000000002000003000000000000000000000000000000000000000000000000000000000000000000DEM       DEM US Representative, District 13                      Kathleen Brown                        Precinct 10                                            01 
00070010010000013000000000004000009000000000000000000000000000000000000000000000000000000000000000000DEM       DEM US Representative, District 13                      Kathleen Brown                        Precinct 11                                            01 
00070010011000000000000000000000000000000000000000000000000000000000000000000000000000000000000000000DEM       DEM US Representative, District 13                      Kathleen Brown                        Precinct 12                                            01 
00070010012000012000000000005000007000000000000000000000000000000000000000000000000000000000000000000DEM       DEM US Representative, District 13                      Kathleen Brown                        Precinct 13                                            01 
00070010013000001000000000000000001000000000000000000000000000000000000000000000000000000000000000000DEM       DEM US Representative, District 13                      Kathleen Brown                        Precinct 14                                            01 
00070010014000006000003000000000003000000000000000000000000000000000000000000000000000000000000000000DEM       DEM US Representative, District 13                      Kathleen Brown                        Precinct 15                                            01 
00070010015000005000000000002000003000000000000000000000000000000000000000000000000000000000000000000DEM       DEM US Representative, District 13                      Kathleen Brown                        Precinct 16                                            01 
00080010001000023000004000007000012000000000000000000000000000000000000000000000000000000000000000000DEM       DEM Governor                                            Beto O'Rourke                         Precinct 2                                             01 
00080010002000014000004000004000006000000000000000000000000000000000000000000000000000000000000000000DEM       DEM Governor                                            Beto O'Rourke                         Precinct 3                                             01 
00080010003000004000000000001000003000000000000000000000000000000000000000000000000000000000000000000DEM       DEM Governor                                            Beto O'Rourke                         Precinct 4                                             01 
00080010004000011000003000005000003000000000000000000000000000000000000000000000000000000000000000000DEM       DEM Governor                                            Beto O'Rourke                         Precinct 5                                             01 
00080010005000008000002000002000004000000000000000000000000000000000000000000000000000000000000000000DEM       DEM Governor                                            Beto O'Rourke                         Precinct 6                                             01 
00080010006000019000003000002000014000000000000000000000000000000000000000000000000000000000000000000DEM       DEM Governor                                            Beto O'Rourke                         Precinct 7                                             01 
00080010007000005000002000001000002000000000000000000000000000000000000000000000000000000000000000000DEM       DEM Governor                                            Beto O'Rourke                         Precinct 8                                             01 
00080010008000017000004000001000012000000000000000000000000000000000000000000000000000000000000000000DEM       DEM Governor                                            Beto O'Rourke                         Precinct 9                                             01 
00080010009000005000000000002000003000000000000000000000000000000000000000000000000000000000000000000DEM       DEM Governor                                            Beto O'Rourke                         Precinct 10                                            01 
00080010010000013000000000003000010000000000000000000000000000000000000000000000000000000000000000000DEM       DEM Governor                                            Beto O'Rourke                         Precinct 11                                            01 
00080010011000000000000000000000000000000000000000000000000000000000000000000000000000000000000000000DEM       DEM Governor                                            Beto O'Rourke                         Precinct 12                                            01 
00080010012000010000000000004000006000000000000000000000000000000000000000000000000000000000000000000DEM       DEM Governor                                            Beto O'Rourke                         Precinct 13                                            01 
00080010013000001000000000000000001000000000000000000000000000000000000000000000000000000000000000000DEM       DEM Governor                                            Beto O'Rourke                         Precinct 14                                            01 
00080010014000008000003000001000004000000000000000000000000000000000000000000000000000000000000000000DEM       DEM Governor                                            Beto O'Rourke                         Precinct 15                                            01 
00080010015000005000000000002000003000000000000000000000000000000000000000000000000000000000000000000DEM       DEM Governor                                            Beto O'Rourke                         Precinct 16                                            01 
00080020001000000000000000000000000000000000000000000000000000000000000000000000000000000000000000000DEM       DEM Governor                                            Inocencio (Inno) Barrientez           Precinct 2                                             01 
00080020002000000000000000000000000000000000000000000000000000000000000000000000000000000000000000000DEM       DEM Governor                                            Inocencio (Inno) Barrientez           Precinct 3                                             01 
00080020003000000000000000000000000000000000000000000000000000000000000000000000000000000000000000000DEM       DEM Governor                                            Inocencio (Inno) Barrientez           Precinct 4                                             01 
00080020004000001000000000000000001000000000000000000000000000000000000000000000000000000000000000000DEM       DEM Governor                                            Inocencio (Inno) Barrientez           Precinct 5                                             01 
00080020005000000000000000000000000000000000000000000000000000000000000000000000000000000000000000000DEM       DEM Governor                                            Inocencio (Inno) Barrientez           Precinct 6                                             01 
00080020006000001000000000001000000000000000000000000000000000000000000000000000000000000000000000000DEM       DEM Governor                                            Inocencio (Inno) Barrientez           Precinct 7                                             01 
00080020007000000000000000000000000000000000000000000000000000000000000000000000000000000000000000000DEM       DEM Governor                                            Inocencio (Inno) Barrientez           Precinct 8                                             01 
00080020008000000000000000000000000000000000000000000000000000000000000000000000000000000000000000000DEM       DEM Governor                                            Inocencio (Inno) Barrientez           Precinct 9                                             01 
00080020009000000000000000000000000000000000000000000000000000000000000000000000000000000000000000000DEM       DEM Governor                                            Inocencio (Inno) Barrientez           Precinct 10                                            01 
00080020010000000000000000000000000000000000000000000000000000000000000000000000000000000000000000000DEM       DEM Governor                                            Inocencio (Inno) Barrientez           Precinct 11                                            01 
00080020011000000000000000000000000000000000000000000000000000000000000000000000000000000000000000000DEM       DEM Governor                                            Inocencio (Inno) Barrientez           Precinct 12                                            01 
00080020012000000000000000000000000000000000000000000000000000000000000000000000000000000000000000000DEM       DEM Governor                                            Inocencio (Inno) Barrientez           Precinct 13                                            01 
00080020013000000000000000000000000000000000000000000000000000000000000000000000000000000000000000000DEM       DEM Governor                                            Inocencio (Inno) Barrientez           Precinct 14                                            01 
00080020014000000000000000000000000000000000000000000000000000000000000000000000000000000000000000000DEM       DEM Governor                                            Inocencio (Inno) Barrientez           Precinct 15                                            01 
00080020015000000000000000000000000000000000000000000000000000000000000000000000000000000000000000000DEM       DEM Governor                                            Inocencio (Inno) Barrientez           Precinct 16                                            01 
00080030001000000000000000000000000000000000000000000000000000000000000000000000000000000000000000000DEM       DEM Governor                                            Rich Wakeland                         Precinct 2                                             01 
00080030002000000000000000000000000000000000000000000000000000000000000000000000000000000000000000000DEM       DEM Governor                                            Rich Wakeland                         Precinct 3                                             01 
00080030003000000000000000000000000000000000000000000000000000000000000000000000000000000000000000000DEM       DEM Governor                                            Rich Wakeland                         Precinct 4                                             01 
00080030004000000000000000000000000000000000000000000000000000000000000000000000000000000000000000000DEM       DEM Governor                                            Rich Wakeland                         Precinct 5                                             01 
00080030005000000000000000000000000000000000000000000000000000000000000000000000000000000000000000000DEM       DEM Governor                                            Rich Wakeland                         Precinct 6                                             01 
00080030006000000000000000000000000000000000000000000000000000000000000000000000000000000000000000000DEM       DEM Governor                                            Rich Wakeland                         Precinct 7                                             01 
00080030007000001000000000000000001000000000000000000000000000000000000000000000000000000000000000000DEM       DEM Governor                                            Rich Wakeland                         Precinct 8                                             01 
00080030008000000000000000000000000000000000000000000000000000000000000000000000000000000000000000000DEM       DEM Governor                                            Rich Wakeland                         Precinct 9                                             01 
00080030009000000000000000000000000000000000000000000000000000000000000000000000000000000000000000000DEM       DEM Governor                                            Rich Wakeland                         Precinct 10                                            01 
00080030010000001000000000001000000000000000000000000000000000000000000000000000000000000000000000000DEM       DEM Governor                                            Rich Wakeland                         Precinct 11                                            01 
00080030011000000000000000000000000000000000000000000000000000000000000000000000000000000000000000000DEM       DEM Governor                                            Rich Wakeland                         Precinct 12                                            01 
00080030012000000000000000000000000000000000000000000000000000000000000000000000000000000000000000000DEM       DEM Governor                                            Rich Wakeland                         Precinct 13                                            01 
00080030013000000000000000000000000000000000000000000000000000000000000000000000000000000000000000000DEM       DEM Governor                                            Rich Wakeland                         Precinct 14                                            01 
00080030014000001000000000001000000000000000000000000000000000000000000000000000000000000000000000000DEM       DEM Governor                                            Rich Wakeland                         Precinct 15                                            01 
00080030015000000000000000000000000000000000000000000000000000000000000000000000000000000000000000000DEM       DEM Governor                                            Rich Wakeland                         Precinct 16                                            01 
00080040001000002000001000000000001000000000000000000000000000000000000000000000000000000000000000000DEM       DEM Governor                                            Michael Cooper                        Precinct 2                                             01 
00080040002000001000001000000000000000000000000000000000000000000000000000000000000000000000000000000DEM       DEM Governor                                            Michael Cooper                        Precinct 3                                             01 
00080040003000000000000000000000000000000000000000000000000000000000000000000000000000000000000000000DEM       DEM Governor                                            Michael Cooper                        Precinct 4                                             01 
00080040004000000000000000000000000000000000000000000000000000000000000000000000000000000000000000000DEM       DEM Governor                                            Michael Cooper                        Precinct 5                                             01 
00080040005000002000000000002000000000000000000000000000000000000000000000000000000000000000000000000DEM       DEM Governor                                            Michael Cooper                        Precinct 6                                             01 
00080040006000000000000000000000000000000000000000000000000000000000000000000000000000000000000000000DEM       DEM Governor                                            Michael Cooper                        Precinct 7                                             01 
00080040007000000000000000000000000000000000000000000000000000000000000000000000000000000000000000000DEM       DEM Governor                                            Michael Cooper                        Precinct 8                                             01 
00080040008000002000000000002000000000000000000000000000000000000000000000000000000000000000000000000DEM       DEM Governor                                            Michael Cooper                        Precinct 9                                             01 
00080040009000000000000000000000000000000000000000000000000000000000000000000000000000000000000000000DEM       DEM Governor                                            Michael Cooper                        Precinct 10                                            01 
00080040010000000000000000000000000000000000000000000000000000000000000000000000000000000000000000000DEM       DEM Governor                                            Michael Cooper                        Precinct 11                                            01 
00080040011000000000000000000000000000000000000000000000000000000000000000000000000000000000000000000DEM       DEM Governor                                            Michael Cooper                        Precinct 12                                            01 
00080040012000001000000000000000001000000000000000000000000000000000000000000000000000000000000000000DEM       DEM Governor                                            Michael Cooper                        Precinct 13                                            01 
00080040013000000000000000000000000000000000000000000000000000000000000000000000000000000000000000000DEM       DEM Governor                                            Michael Cooper                        Precinct 14                                            01 
00080040014000000000000000000000000000000000000000000000000000000000000000000000000000000000000000000DEM       DEM Governor                                            Michael Cooper                        Precinct 15                                            01 
00080040015000000000000000000000000000000000000000000000000000000000000000000000000000000000000000000DEM       DEM Governor                                            Michael Cooper                        Precinct 16                                            01 
00080050001000003000000000000000003000000000000000000000000000000000000000000000000000000000000000000DEM       DEM Governor                                            Joy Diaz                              Precinct 2                                             01 
00080050002000000000000000000000000000000000000000000000000000000000000000000000000000000000000000000DEM       DEM Governor                                            Joy Diaz                              Precinct 3                                             01 
00080050003000002000000000000000002000000000000000000000000000000000000000000000000000000000000000000DEM       DEM Governor                                            Joy Diaz                              Precinct 4                                             01 
00080050004000000000000000000000000000000000000000000000000000000000000000000000000000000000000000000DEM       DEM Governor                                            Joy Diaz                              Precinct 5                                             01 
00080050005000000000000000000000000000000000000000000000000000000000000000000000000000000000000000000DEM       DEM Governor                                            Joy Diaz                              Precinct 6                                             01 
00080050006000003000000000001000002000000000000000000000000000000000000000000000000000000000000000000DEM       DEM Governor                                            Joy Diaz                              Precinct 7                                             01 
00080050007000000000000000000000000000000000000000000000000000000000000000000000000000000000000000000DEM       DEM Governor                                            Joy Diaz                              Precinct 8                                             01 
00080050008000001000000000000000001000000000000000000000000000000000000000000000000000000000000000000DEM       DEM Governor                                            Joy Diaz                              Precinct 9                                             01 
00080050009000001000001000000000000000000000000000000000000000000000000000000000000000000000000000000DEM       DEM Governor                                            Joy Diaz                              Precinct 10                                            01 
00080050010000000000000000000000000000000000000000000000000000000000000000000000000000000000000000000DEM       DEM Governor                                            Joy Diaz                              Precinct 11                                            01 
00080050011000000000000000000000000000000000000000000000000000000000000000000000000000000000000000000DEM       DEM Governor                                            Joy Diaz                              Precinct 12                                            01 
00080050012000001000000000001000000000000000000000000000000000000000000000000000000000000000000000000DEM       DEM Governor                                            Joy Diaz                              Precinct 13                                            01 
00080050013000000000000000000000000000000000000000000000000000000000000000000000000000000000000000000DEM       DEM Governor                                            Joy Diaz                              Precinct 14                                            01 
00080050014000000000000000000000000000000000000000000000000000000000000000000000000000000000000000000DEM       DEM Governor                                            Joy Diaz                              Precinct 15                                            01 
00080050015000000000000000000000000000000000000000000000000000000000000000000000000000000000000000000DEM       DEM Governor                                            Joy Diaz                              Precinct 16                                            01 
00090010001000014000000000003000011000000000000000000000000000000000000000000000000000000000000000000DEM       DEM Lieutenant Governor                                 Carla Brailey                         Precinct 2                                             01 
00090010002000009000004000002000003000000000000000000000000000000000000000000000000000000000000000000DEM       DEM Lieutenant Governor                                 Carla Brailey                         Precinct 3                                             01 
00090010003000001000000000000000001000000000000000000000000000000000000000000000000000000000000000000DEM       DEM Lieutenant Governor                                 Carla Brailey                         Precinct 4                                             01 
00090010004000008000001000004000003000000000000000000000000000000000000000000000000000000000000000000DEM       DEM Lieutenant Governor                                 Carla Brailey                         Precinct 5                                             01 
00090010005000004000001000001000002000000000000000000000000000000000000000000000000000000000000000000DEM       DEM Lieutenant Governor                                 Carla Brailey                         Precinct 6                                             01 
00090010006000007000002000001000004000000000000000000000000000000000000000000000000000000000000000000DEM       DEM Lieutenant Governor                                 Carla Brailey                         Precinct 7                                             01 
00090010007000002000000000001000001000000000000000000000000000000000000000000000000000000000000000000DEM       DEM Lieutenant Governor                                 Carla Brailey                         Precinct 8                                             01 
00090010008000006000003000000000003000000000000000000000000000000000000000000000000000000000000000000DEM       DEM Lieutenant Governor                                 Carla Brailey                         Precinct 9                                             01 
00090010009000003000000000002000001000000000000000000000000000000000000000000000000000000000000000000DEM       DEM Lieutenant Governor                                 Carla Brailey                         Precinct 10                                            01 
00090010010000008000000000002000006000000000000000000000000000000000000000000000000000000000000000000DEM       DEM Lieutenant Governor                                 Carla Brailey                         Precinct 11                                            01 
00090010011000000000000000000000000000000000000000000000000000000000000000000000000000000000000000000DEM       DEM Lieutenant Governor                                 Carla Brailey                         Precinct 12                                            01 
00090010012000005000000000003000002000000000000000000000000000000000000000000000000000000000000000000DEM       DEM Lieutenant Governor                                 Carla Brailey                         Precinct 13                                            01 
00090010013000001000000000000000001000000000000000000000000000000000000000000000000000000000000000000DEM       DEM Lieutenant Governor                                 Carla Brailey                         Precinct 14                                            01 
00090010014000005000002000002000001000000000000000000000000000000000000000000000000000000000000000000DEM       DEM Lieutenant Governor                                 Carla Brailey                         Precinct 15                                            01 
00090010015000000000000000000000000000000000000000000000000000000000000000000000000000000000000000000DEM       DEM Lieutenant Governor                                 Carla Brailey                         Precinct 16                                            01 
00090020001000011000005000003000003000000000000000000000000000000000000000000000000000000000000000000DEM       DEM Lieutenant Governor                                 Mike Collier                          Precinct 2                                             01 
00090020002000002000001000000000001000000000000000000000000000000000000000000000000000000000000000000DEM       DEM Lieutenant Governor                                 Mike Collier                          Precinct 3                                             01 
00090020003000004000000000001000003000000000000000000000000000000000000000000000000000000000000000000DEM       DEM Lieutenant Governor                                 Mike Collier                          Precinct 4                                             01 
00090020004000003000001000001000001000000000000000000000000000000000000000000000000000000000000000000DEM       DEM Lieutenant Governor                                 Mike Collier                          Precinct 5                                             01 
00090020005000002000000000001000001000000000000000000000000000000000000000000000000000000000000000000DEM       DEM Lieutenant Governor                                 Mike Collier                          Precinct 6                                             01 
00090020006000007000000000001000006000000000000000000000000000000000000000000000000000000000000000000DEM       DEM Lieutenant Governor                                 Mike Collier                          Precinct 7                                             01 
00090020007000004000002000000000002000000000000000000000000000000000000000000000000000000000000000000DEM       DEM Lieutenant Governor                                 Mike Collier                          Precinct 8                                             01 
00090020008000010000001000002000007000000000000000000000000000000000000000000000000000000000000000000DEM       DEM Lieutenant Governor                                 Mike Collier                          Precinct 9                                             01 
00090020009000001000000000000000001000000000000000000000000000000000000000000000000000000000000000000DEM       DEM Lieutenant Governor                                 Mike Collier                          Precinct 10                                            01 
00090020010000002000000000001000001000000000000000000000000000000000000000000000000000000000000000000DEM       DEM Lieutenant Governor                                 Mike Collier                          Precinct 11                                            01 
00090020011000000000000000000000000000000000000000000000000000000000000000000000000000000000000000000DEM       DEM Lieutenant Governor                                 Mike Collier                          Precinct 12                                            01 
00090020012000004000000000001000003000000000000000000000000000000000000000000000000000000000000000000DEM       DEM Lieutenant Governor                                 Mike Collier                          Precinct 13                                            01 
00090020013000000000000000000000000000000000000000000000000000000000000000000000000000000000000000000DEM       DEM Lieutenant Governor                                 Mike Collier                          Precinct 14                                            01 
00090020014000000000000000000000000000000000000000000000000000000000000000000000000000000000000000000DEM       DEM Lieutenant Governor                                 Mike Collier                          Precinct 15                                            01 
00090020015000003000000000002000001000000000000000000000000000000000000000000000000000000000000000000DEM       DEM Lieutenant Governor                                 Mike Collier                          Precinct 16                                            01 
00090030001000002000000000000000002000000000000000000000000000000000000000000000000000000000000000000DEM       DEM Lieutenant Governor                                 Michelle Beckley                      Precinct 2                                             01 
00090030002000004000000000002000002000000000000000000000000000000000000000000000000000000000000000000DEM       DEM Lieutenant Governor                                 Michelle Beckley                      Precinct 3                                             01 
00090030003000001000000000000000001000000000000000000000000000000000000000000000000000000000000000000DEM       DEM Lieutenant Governor                                 Michelle Beckley                      Precinct 4                                             01 
00090030004000001000001000000000000000000000000000000000000000000000000000000000000000000000000000000DEM       DEM Lieutenant Governor                                 Michelle Beckley                      Precinct 5                                             01 
00090030005000004000001000002000001000000000000000000000000000000000000000000000000000000000000000000DEM       DEM Lieutenant Governor                                 Michelle Beckley                      Precinct 6                                             01 
00090030006000009000001000002000006000000000000000000000000000000000000000000000000000000000000000000DEM       DEM Lieutenant Governor                                 Michelle Beckley                      Precinct 7                                             01 
00090030007000000000000000000000000000000000000000000000000000000000000000000000000000000000000000000DEM       DEM Lieutenant Governor                                 Michelle Beckley                      Precinct 8                                             01 
00090030008000003000000000001000002000000000000000000000000000000000000000000000000000000000000000000DEM       DEM Lieutenant Governor                                 Michelle Beckley                      Precinct 9                                             01 
00090030009000001000000000000000001000000000000000000000000000000000000000000000000000000000000000000DEM       DEM Lieutenant Governor                                 Michelle Beckley                      Precinct 10                                            01 
00090030010000003000000000001000002000000000000000000000000000000000000000000000000000000000000000000DEM       DEM Lieutenant Governor                                 Michelle Beckley                      Precinct 11                                            01 
00090030011000000000000000000000000000000000000000000000000000000000000000000000000000000000000000000DEM       DEM Lieutenant Governor                                 Michelle Beckley                      Precinct 12                                            01 
00090030012000003000000000001000002000000000000000000000000000000000000000000000000000000000000000000DEM       DEM Lieutenant Governor                                 Michelle Beckley                      Precinct 13                                            01 
00090030013000000000000000000000000000000000000000000000000000000000000000000000000000000000000000000DEM       DEM Lieutenant Governor                                 Michelle Beckley                      Precinct 14                                            01 
00090030014000004000001000000000003000000000000000000000000000000000000000000000000000000000000000000DEM       DEM Lieutenant Governor                                 Michelle Beckley                      Precinct 15                                            01 
00090030015000002000000000000000002000000000000000000000000000000000000000000000000000000000000000000DEM       DEM Lieutenant Governor                                 Michelle Beckley                      Precinct 16                                            01 
00100010001000000000000000000000000000000000000000000000000000000000000000000000000000000000000000000DEM       DEM Attorney General                                    S. "TBONE" Raynor                     Precinct 2                                             01 
00100010002000003000002000000000001000000000000000000000000000000000000000000000000000000000000000000DEM       DEM Attorney General                                    S. "TBONE" Raynor                     Precinct 3                                             01 
00100010003000003000000000001000002000000000000000000000000000000000000000000000000000000000000000000DEM       DEM Attorney General                                    S. "TBONE" Raynor                     Precinct 4                                             01 
00100010004000003000002000001000000000000000000000000000000000000000000000000000000000000000000000000DEM       DEM Attorney General                                    S. "TBONE" Raynor                     Precinct 5                                             01 
00100010005000000000000000000000000000000000000000000000000000000000000000000000000000000000000000000DEM       DEM Attorney General                                    S. "TBONE" Raynor                     Precinct 6                                             01 
00100010006000004000001000001000002000000000000000000000000000000000000000000000000000000000000000000DEM       DEM Attorney General                                    S. "TBONE" Raynor                     Precinct 7                                             01 
00100010007000000000000000000000000000000000000000000000000000000000000000000000000000000000000000000DEM       DEM Attorney General                                    S. "TBONE" Raynor                     Precinct 8                                             01 
00100010008000003000001000001000001000000000000000000000000000000000000000000000000000000000000000000DEM       DEM Attorney General                                    S. "TBONE" Raynor                     Precinct 9                                             01 
00100010009000002000000000001000001000000000000000000000000000000000000000000000000000000000000000000DEM       DEM Attorney General                                    S. "TBONE" Raynor                     Precinct 10                                            01 
00100010010000001000000000001000000000000000000000000000000000000000000000000000000000000000000000000DEM       DEM Attorney General                                    S. "TBONE" Raynor                     Precinct 11                                            01 
00100010011000000000000000000000000000000000000000000000000000000000000000000000000000000000000000000DEM       DEM Attorney General                                    S. "TBONE" Raynor                     Precinct 12                                            01 
00100010012000004000000000002000002000000000000000000000000000000000000000000000000000000000000000000DEM       DEM Attorney General                                    S. "TBONE" Raynor                     Precinct 13                                            01 
00100010013000001000000000000000001000000000000000000000000000000000000000000000000000000000000000000DEM       DEM Attorney General                                    S. "TBONE" Raynor                     Precinct 14                                            01 
00100010014000001000000000000000001000000000000000000000000000000000000000000000000000000000000000000DEM       DEM Attorney General                                    S. "TBONE" Raynor                     Precinct 15                                            01 
00100010015000000000000000000000000000000000000000000000000000000000000000000000000000000000000000000DEM       DEM Attorney General                                    S. "TBONE" Raynor                     Precinct 16                                            01 
00100020001000003000001000001000001000000000000000000000000000000000000000000000000000000000000000000DEM       DEM Attorney General                                    Mike Fields                           Precinct 2                                             01 
00100020002000001000001000000000000000000000000000000000000000000000000000000000000000000000000000000DEM       DEM Attorney General                                    Mike Fields                           Precinct 3                                             01 
00100020003000000000000000000000000000000000000000000000000000000000000000000000000000000000000000000DEM       DEM Attorney General                                    Mike Fields                           Precinct 4                                             01 
00100020004000002000000000001000001000000000000000000000000000000000000000000000000000000000000000000DEM       DEM Attorney General                                    Mike Fields                           Precinct 5                                             01 
00100020005000003000000000001000002000000000000000000000000000000000000000000000000000000000000000000DEM       DEM Attorney General                                    Mike Fields                           Precinct 6                                             01 
00100020006000000000000000000000000000000000000000000000000000000000000000000000000000000000000000000DEM       DEM Attorney General                                    Mike Fields                           Precinct 7                                             01 
00100020007000005000002000001000002000000000000000000000000000000000000000000000000000000000000000000DEM       DEM Attorney General                                    Mike Fields                           Precinct 8                                             01 
00100020008000009000003000002000004000000000000000000000000000000000000000000000000000000000000000000DEM       DEM Attorney General                                    Mike Fields                           Precinct 9                                             01 
00100020009000000000000000000000000000000000000000000000000000000000000000000000000000000000000000000DEM       DEM Attorney General                                    Mike Fields                           Precinct 10                                            01 
00100020010000004000000000000000004000000000000000000000000000000000000000000000000000000000000000000DEM       DEM Attorney General                                    Mike Fields                           Precinct 11                                            01 
00100020011000000000000000000000000000000000000000000000000000000000000000000000000000000000000000000DEM       DEM Attorney General                                    Mike Fields                           Precinct 12                                            01 
00100020012000003000000000001000002000000000000000000000000000000000000000000000000000000000000000000DEM       DEM Attorney General                                    Mike Fields                           Precinct 13                                            01 
00100020013000000000000000000000000000000000000000000000000000000000000000000000000000000000000000000DEM       DEM Attorney General                                    Mike Fields                           Precinct 14                                            01 
00100020014000001000000000001000000000000000000000000000000000000000000000000000000000000000000000000DEM       DEM Attorney General                                    Mike Fields                           Precinct 15                                            01 
00100020015000001000000000001000000000000000000000000000000000000000000000000000000000000000000000000DEM       DEM Attorney General                                    Mike Fields                           Precinct 16                                            01 
00100030001000009000003000003000003000000000000000000000000000000000000000000000000000000000000000000DEM       DEM Attorney General                                    Joe Jaworski                          Precinct 2                                             01 
00100030002000002000001000000000001000000000000000000000000000000000000000000000000000000000000000000DEM       DEM Attorney General                                    Joe Jaworski                          Precinct 3                                             01 
00100030003000000000000000000000000000000000000000000000000000000000000000000000000000000000000000000DEM       DEM Attorney General                                    Joe Jaworski                          Precinct 4                                             01 
00100030004000002000000000001000001000000000000000000000000000000000000000000000000000000000000000000DEM       DEM Attorney General                                    Joe Jaworski                          Precinct 5                                             01 
00100030005000002000001000000000001000000000000000000000000000000000000000000000000000000000000000000DEM       DEM Attorney General                                    Joe Jaworski                          Precinct 6                                             01 
00100030006000004000000000001000003000000000000000000000000000000000000000000000000000000000000000000DEM       DEM Attorney General                                    Joe Jaworski                          Precinct 7                                             01 
00100030007000000000000000000000000000000000000000000000000000000000000000000000000000000000000000000DEM       DEM Attorney General                                    Joe Jaworski                          Precinct 8                                             01 
00100030008000002000000000000000002000000000000000000000000000000000000000000000000000000000000000000DEM       DEM Attorney General                                    Joe Jaworski                          Precinct 9                                             01 
00100030009000000000000000000000000000000000000000000000000000000000000000000000000000000000000000000DEM       DEM Attorney General                                    Joe Jaworski                          Precinct 10                                            01 
00100030010000003000000000003000000000000000000000000000000000000000000000000000000000000000000000000DEM       DEM Attorney General                                    Joe Jaworski                          Precinct 11                                            01 
00100030011000000000000000000000000000000000000000000000000000000000000000000000000000000000000000000DEM       DEM Attorney General                                    Joe Jaworski                          Precinct 12                                            01 
00100030012000000000000000000000000000000000000000000000000000000000000000000000000000000000000000000DEM       DEM Attorney General                                    Joe Jaworski                          Precinct 13                                            01 
00100030013000000000000000000000000000000000000000000000000000000000000000000000000000000000000000000DEM       DEM Attorney General                                    Joe Jaworski                          Precinct 14                                            01 
00100030014000002000002000000000000000000000000000000000000000000000000000000000000000000000000000000DEM       DEM Attorney General                                    Joe Jaworski                          Precinct 15                                            01 
00100030015000000000000000000000000000000000000000000000000000000000000000000000000000000000000000000DEM       DEM Attorney General                                    Joe Jaworski                          Precinct 16                                            01 
00100040001000005000000000001000004000000000000000000000000000000000000000000000000000000000000000000DEM       DEM Attorney General                                    Lee Merritt                           Precinct 2                                             01 
00100040002000000000000000000000000000000000000000000000000000000000000000000000000000000000000000000DEM       DEM Attorney General                                    Lee Merritt                           Precinct 3                                             01 
00100040003000001000000000000000001000000000000000000000000000000000000000000000000000000000000000000DEM       DEM Attorney General                                    Lee Merritt                           Precinct 4                                             01 
00100040004000001000000000001000000000000000000000000000000000000000000000000000000000000000000000000DEM       DEM Attorney General                                    Lee Merritt                           Precinct 5                                             01 
00100040005000002000000000002000000000000000000000000000000000000000000000000000000000000000000000000DEM       DEM Attorney General                                    Lee Merritt                           Precinct 6                                             01 
00100040006000006000000000001000005000000000000000000000000000000000000000000000000000000000000000000DEM       DEM Attorney General                                    Lee Merritt                           Precinct 7                                             01 
00100040007000000000000000000000000000000000000000000000000000000000000000000000000000000000000000000DEM       DEM Attorney General                                    Lee Merritt                           Precinct 8                                             01 
00100040008000003000000000000000003000000000000000000000000000000000000000000000000000000000000000000DEM       DEM Attorney General                                    Lee Merritt                           Precinct 9                                             01 
00100040009000000000000000000000000000000000000000000000000000000000000000000000000000000000000000000DEM       DEM Attorney General                                    Lee Merritt                           Precinct 10                                            01 
00100040010000000000000000000000000000000000000000000000000000000000000000000000000000000000000000000DEM       DEM Attorney General                                    Lee Merritt                           Precinct 11                                            01 
00100040011000000000000000000000000000000000000000000000000000000000000000000000000000000000000000000DEM       DEM Attorney General                                    Lee Merritt                           Precinct 12                                            01 
00100040012000003000000000000000003000000000000000000000000000000000000000000000000000000000000000000DEM       DEM Attorney General                                    Lee Merritt                           Precinct 13                                            01 
00100040013000000000000000000000000000000000000000000000000000000000000000000000000000000000000000000DEM       DEM Attorney General                                    Lee Merritt                           Precinct 14                                            01 
00100040014000002000001000000000001000000000000000000000000000000000000000000000000000000000000000000DEM       DEM Attorney General                                    Lee Merritt                           Precinct 15                                            01 
00100040015000000000000000000000000000000000000000000000000000000000000000000000000000000000000000000DEM       DEM Attorney General                                    Lee Merritt                           Precinct 16                                            01 
00100050001000009000001000001000007000000000000000000000000000000000000000000000000000000000000000000DEM       DEM Attorney General                                    Rochelle Mercedes Garza               Precinct 2                                             01 
00100050002000009000001000004000004000000000000000000000000000000000000000000000000000000000000000000DEM       DEM Attorney General                                    Rochelle Mercedes Garza               Precinct 3                                             01 
00100050003000002000000000000000002000000000000000000000000000000000000000000000000000000000000000000DEM       DEM Attorney General                                    Rochelle Mercedes Garza               Precinct 4                                             01 
00100050004000003000001000000000002000000000000000000000000000000000000000000000000000000000000000000DEM       DEM Attorney General                                    Rochelle Mercedes Garza               Precinct 5                                             01 
00100050005000003000001000001000001000000000000000000000000000000000000000000000000000000000000000000DEM       DEM Attorney General                                    Rochelle Mercedes Garza               Precinct 6                                             01 
00100050006000009000002000001000006000000000000000000000000000000000000000000000000000000000000000000DEM       DEM Attorney General                                    Rochelle Mercedes Garza               Precinct 7                                             01 
00100050007000001000000000000000001000000000000000000000000000000000000000000000000000000000000000000DEM       DEM Attorney General                                    Rochelle Mercedes Garza               Precinct 8                                             01 
00100050008000003000000000000000003000000000000000000000000000000000000000000000000000000000000000000DEM       DEM Attorney General                                    Rochelle Mercedes Garza               Precinct 9                                             01 
00100050009000004000001000001000002000000000000000000000000000000000000000000000000000000000000000000DEM       DEM Attorney General                                    Rochelle Mercedes Garza               Precinct 10                                            01 
00100050010000006000000000000000006000000000000000000000000000000000000000000000000000000000000000000DEM       DEM Attorney General                                    Rochelle Mercedes Garza               Precinct 11                                            01 
00100050011000000000000000000000000000000000000000000000000000000000000000000000000000000000000000000DEM       DEM Attorney General                                    Rochelle Mercedes Garza               Precinct 12                                            01 
00100050012000002000000000002000000000000000000000000000000000000000000000000000000000000000000000000DEM       DEM Attorney General                                    Rochelle Mercedes Garza               Precinct 13                                            01 
00100050013000000000000000000000000000000000000000000000000000000000000000000000000000000000000000000DEM       DEM Attorney General                                    Rochelle Mercedes Garza               Precinct 14                                            01 
00100050014000003000000000001000002000000000000000000000000000000000000000000000000000000000000000000DEM       DEM Attorney General                                    Rochelle Mercedes Garza               Precinct 15                                            01 
00100050015000003000000000000000003000000000000000000000000000000000000000000000000000000000000000000DEM       DEM Attorney General                                    Rochelle Mercedes Garza               Precinct 16                                            01 
00110010001000006000001000001000004000000000000000000000000000000000000000000000000000000000000000000DEM       DEM Comptroller of Public Accounts                      Angel Luis Vega                       Precinct 2                                             01 
00110010002000009000003000003000003000000000000000000000000000000000000000000000000000000000000000000DEM       DEM Comptroller of Public Accounts                      Angel Luis Vega                       Precinct 3                                             01 
00110010003000003000000000000000003000000000000000000000000000000000000000000000000000000000000000000DEM       DEM Comptroller of Public Accounts                      Angel Luis Vega                       Precinct 4                                             01 
00110010004000005000001000003000001000000000000000000000000000000000000000000000000000000000000000000DEM       DEM Comptroller of Public Accounts                      Angel Luis Vega                       Precinct 5                                             01 
00110010005000002000000000001000001000000000000000000000000000000000000000000000000000000000000000000DEM       DEM Comptroller of Public Accounts                      Angel Luis Vega                       Precinct 6                                             01 
00110010006000007000003000000000004000000000000000000000000000000000000000000000000000000000000000000DEM       DEM Comptroller of Public Accounts                      Angel Luis Vega                       Precinct 7                                             01 
00110010007000001000000000000000001000000000000000000000000000000000000000000000000000000000000000000DEM       DEM Comptroller of Public Accounts                      Angel Luis Vega                       Precinct 8                                             01 
00110010008000005000001000000000004000000000000000000000000000000000000000000000000000000000000000000DEM       DEM Comptroller of Public Accounts                      Angel Luis Vega                       Precinct 9                                             01 
00110010009000003000001000000000002000000000000000000000000000000000000000000000000000000000000000000DEM       DEM Comptroller of Public Accounts                      Angel Luis Vega                       Precinct 10                                            01 
00110010010000010000000000004000006000000000000000000000000000000000000000000000000000000000000000000DEM       DEM Comptroller of Public Accounts                      Angel Luis Vega                       Precinct 11                                            01 
00110010011000000000000000000000000000000000000000000000000000000000000000000000000000000000000000000DEM       DEM Comptroller of Public Accounts                      Angel Luis Vega                       Precinct 12                                            01 
00110010012000004000000000002000002000000000000000000000000000000000000000000000000000000000000000000DEM       DEM Comptroller of Public Accounts                      Angel Luis Vega                       Precinct 13                                            01 
00110010013000000000000000000000000000000000000000000000000000000000000000000000000000000000000000000DEM       DEM Comptroller of Public Accounts                      Angel Luis Vega                       Precinct 14                                            01 
00110010014000001000000000001000000000000000000000000000000000000000000000000000000000000000000000000DEM       DEM Comptroller of Public Accounts                      Angel Luis Vega                       Precinct 15                                            01 
00110010015000000000000000000000000000000000000000000000000000000000000000000000000000000000000000000DEM       DEM Comptroller of Public Accounts                      Angel Luis Vega                       Precinct 16                                            01 
00110020001000006000000000001000005000000000000000000000000000000000000000000000000000000000000000000DEM       DEM Comptroller of Public Accounts                      Tim Mahoney                           Precinct 2                                             01 
00110020002000001000000000000000001000000000000000000000000000000000000000000000000000000000000000000DEM       DEM Comptroller of Public Accounts                      Tim Mahoney                           Precinct 3                                             01 
00110020003000001000000000000000001000000000000000000000000000000000000000000000000000000000000000000DEM       DEM Comptroller of Public Accounts                      Tim Mahoney                           Precinct 4                                             01 
00110020004000001000000000000000001000000000000000000000000000000000000000000000000000000000000000000DEM       DEM Comptroller of Public Accounts                      Tim Mahoney                           Precinct 5                                             01 
00110020005000002000001000001000000000000000000000000000000000000000000000000000000000000000000000000DEM       DEM Comptroller of Public Accounts                      Tim Mahoney                           Precinct 6                                             01 
00110020006000011000000000002000009000000000000000000000000000000000000000000000000000000000000000000DEM       DEM Comptroller of Public Accounts                      Tim Mahoney                           Precinct 7                                             01 
00110020007000003000000000001000002000000000000000000000000000000000000000000000000000000000000000000DEM       DEM Comptroller of Public Accounts                      Tim Mahoney                           Precinct 8                                             01 
00110020008000010000002000001000007000000000000000000000000000000000000000000000000000000000000000000DEM       DEM Comptroller of Public Accounts                      Tim Mahoney                           Precinct 9                                             01 
00110020009000001000000000001000000000000000000000000000000000000000000000000000000000000000000000000DEM       DEM Comptroller of Public Accounts                      Tim Mahoney                           Precinct 10                                            01 
00110020010000001000000000000000001000000000000000000000000000000000000000000000000000000000000000000DEM       DEM Comptroller of Public Accounts                      Tim Mahoney                           Precinct 11                                            01 
00110020011000000000000000000000000000000000000000000000000000000000000000000000000000000000000000000DEM       DEM Comptroller of Public Accounts                      Tim Mahoney                           Precinct 12                                            01 
00110020012000004000000000001000003000000000000000000000000000000000000000000000000000000000000000000DEM       DEM Comptroller of Public Accounts                      Tim Mahoney                           Precinct 13                                            01 
00110020013000000000000000000000000000000000000000000000000000000000000000000000000000000000000000000DEM       DEM Comptroller of Public Accounts                      Tim Mahoney                           Precinct 14                                            01 
00110020014000002000000000000000002000000000000000000000000000000000000000000000000000000000000000000DEM       DEM Comptroller of Public Accounts                      Tim Mahoney                           Precinct 15                                            01 
00110020015000001000000000001000000000000000000000000000000000000000000000000000000000000000000000000DEM       DEM Comptroller of Public Accounts                      Tim Mahoney                           Precinct 16                                            01 
00110030001000013000002000004000007000000000000000000000000000000000000000000000000000000000000000000DEM       DEM Comptroller of Public Accounts                      Janet T. Dudding                      Precinct 2                                             01 
00110030002000005000002000001000002000000000000000000000000000000000000000000000000000000000000000000DEM       DEM Comptroller of Public Accounts                      Janet T. Dudding                      Precinct 3                                             01 
00110030003000002000000000001000001000000000000000000000000000000000000000000000000000000000000000000DEM       DEM Comptroller of Public Accounts                      Janet T. Dudding                      Precinct 4                                             01 
00110030004000005000002000001000002000000000000000000000000000000000000000000000000000000000000000000DEM       DEM Comptroller of Public Accounts                      Janet T. Dudding                      Precinct 5                                             01 
00110030005000006000001000002000003000000000000000000000000000000000000000000000000000000000000000000DEM       DEM Comptroller of Public Accounts                      Janet T. Dudding                      Precinct 6                                             01 
00110030006000004000000000001000003000000000000000000000000000000000000000000000000000000000000000000DEM       DEM Comptroller of Public Accounts                      Janet T. Dudding                      Precinct 7                                             01 
00110030007000002000002000000000000000000000000000000000000000000000000000000000000000000000000000000DEM       DEM Comptroller of Public Accounts                      Janet T. Dudding                      Precinct 8                                             01 
00110030008000004000001000002000001000000000000000000000000000000000000000000000000000000000000000000DEM       DEM Comptroller of Public Accounts                      Janet T. Dudding                      Precinct 9                                             01 
00110030009000002000000000001000001000000000000000000000000000000000000000000000000000000000000000000DEM       DEM Comptroller of Public Accounts                      Janet T. Dudding                      Precinct 10                                            01 
00110030010000003000000000000000003000000000000000000000000000000000000000000000000000000000000000000DEM       DEM Comptroller of Public Accounts                      Janet T. Dudding                      Precinct 11                                            01 
00110030011000000000000000000000000000000000000000000000000000000000000000000000000000000000000000000DEM       DEM Comptroller of Public Accounts                      Janet T. Dudding                      Precinct 12                                            01 
00110030012000004000000000002000002000000000000000000000000000000000000000000000000000000000000000000DEM       DEM Comptroller of Public Accounts                      Janet T. Dudding                      Precinct 13                                            01 
00110030013000001000000000000000001000000000000000000000000000000000000000000000000000000000000000000DEM       DEM Comptroller of Public Accounts                      Janet T. Dudding                      Precinct 14                                            01 
00110030014000006000003000001000002000000000000000000000000000000000000000000000000000000000000000000DEM       DEM Comptroller of Public Accounts                      Janet T. Dudding                      Precinct 15                                            01 
00110030015000003000000000000000003000000000000000000000000000000000000000000000000000000000000000000DEM       DEM Comptroller of Public Accounts                      Janet T. Dudding                      Precinct 16                                            01 
00120010001000005000001000001000003000000000000000000000000000000000000000000000000000000000000000000DEM       DEM Comm General Land Office                            Jinny Suh                             Precinct 2                                             01 
00120010002000007000003000002000002000000000000000000000000000000000000000000000000000000000000000000DEM       DEM Comm General Land Office                            Jinny Suh                             Precinct 3                                             01 
00120010003000002000000000000000002000000000000000000000000000000000000000000000000000000000000000000DEM       DEM Comm General Land Office                            Jinny Suh                             Precinct 4                                             01 
00120010004000003000000000002000001000000000000000000000000000000000000000000000000000000000000000000DEM       DEM Comm General Land Office                            Jinny Suh                             Precinct 5                                             01 
00120010005000004000002000002000000000000000000000000000000000000000000000000000000000000000000000000DEM       DEM Comm General Land Office                            Jinny Suh                             Precinct 6                                             01 
00120010006000002000000000001000001000000000000000000000000000000000000000000000000000000000000000000DEM       DEM Comm General Land Office                            Jinny Suh                             Precinct 7                                             01 
00120010007000002000000000001000001000000000000000000000000000000000000000000000000000000000000000000DEM       DEM Comm General Land Office                            Jinny Suh                             Precinct 8                                             01 
00120010008000004000003000000000001000000000000000000000000000000000000000000000000000000000000000000DEM       DEM Comm General Land Office                            Jinny Suh                             Precinct 9                                             01 
00120010009000001000000000000000001000000000000000000000000000000000000000000000000000000000000000000DEM       DEM Comm General Land Office                            Jinny Suh                             Precinct 10                                            01 
00120010010000005000000000002000003000000000000000000000000000000000000000000000000000000000000000000DEM       DEM Comm General Land Office                            Jinny Suh                             Precinct 11                                            01 
00120010011000000000000000000000000000000000000000000000000000000000000000000000000000000000000000000DEM       DEM Comm General Land Office                            Jinny Suh                             Precinct 12                                            01 
00120010012000002000000000001000001000000000000000000000000000000000000000000000000000000000000000000DEM       DEM Comm General Land Office                            Jinny Suh                             Precinct 13                                            01 
00120010013000000000000000000000000000000000000000000000000000000000000000000000000000000000000000000DEM       DEM Comm General Land Office                            Jinny Suh                             Precinct 14                                            01 
00120010014000002000001000001000000000000000000000000000000000000000000000000000000000000000000000000DEM       DEM Comm General Land Office                            Jinny Suh                             Precinct 15                                            01 
00120010015000000000000000000000000000000000000000000000000000000000000000000000000000000000000000000DEM       DEM Comm General Land Office                            Jinny Suh                             Precinct 16                                            01 
00120020001000006000000000001000005000000000000000000000000000000000000000000000000000000000000000000DEM       DEM Comm General Land Office                            Jay Kleberg                           Precinct 2                                             01 
00120020002000000000000000000000000000000000000000000000000000000000000000000000000000000000000000000DEM       DEM Comm General Land Office                            Jay Kleberg                           Precinct 3                                             01 
00120020003000000000000000000000000000000000000000000000000000000000000000000000000000000000000000000DEM       DEM Comm General Land Office                            Jay Kleberg                           Precinct 4                                             01 
00120020004000002000000000001000001000000000000000000000000000000000000000000000000000000000000000000DEM       DEM Comm General Land Office                            Jay Kleberg                           Precinct 5                                             01 
00120020005000001000000000000000001000000000000000000000000000000000000000000000000000000000000000000DEM       DEM Comm General Land Office                            Jay Kleberg                           Precinct 6                                             01 
00120020006000008000001000002000005000000000000000000000000000000000000000000000000000000000000000000DEM       DEM Comm General Land Office                            Jay Kleberg                           Precinct 7                                             01 
00120020007000002000002000000000000000000000000000000000000000000000000000000000000000000000000000000DEM       DEM Comm General Land Office                            Jay Kleberg                           Precinct 8                                             01 
00120020008000006000000000002000004000000000000000000000000000000000000000000000000000000000000000000DEM       DEM Comm General Land Office                            Jay Kleberg                           Precinct 9                                             01 
00120020009000000000000000000000000000000000000000000000000000000000000000000000000000000000000000000DEM       DEM Comm General Land Office                            Jay Kleberg                           Precinct 10                                            01 
00120020010000002000000000001000001000000000000000000000000000000000000000000000000000000000000000000DEM       DEM Comm General Land Office                            Jay Kleberg                           Precinct 11                                            01 
00120020011000000000000000000000000000000000000000000000000000000000000000000000000000000000000000000DEM       DEM Comm General Land Office                            Jay Kleberg                           Precinct 12                                            01 
00120020012000004000000000002000002000000000000000000000000000000000000000000000000000000000000000000DEM       DEM Comm General Land Office                            Jay Kleberg                           Precinct 13                                            01 
00120020013000000000000000000000000000000000000000000000000000000000000000000000000000000000000000000DEM       DEM Comm General Land Office                            Jay Kleberg                           Precinct 14                                            01 
00120020014000003000000000001000002000000000000000000000000000000000000000000000000000000000000000000DEM       DEM Comm General Land Office                            Jay Kleberg                           Precinct 15                                            01 
00120020015000001000000000000000001000000000000000000000000000000000000000000000000000000000000000000DEM       DEM Comm General Land Office                            Jay Kleberg                           Precinct 16                                            01 
00120030001000010000001000004000005000000000000000000000000000000000000000000000000000000000000000000DEM       DEM Comm General Land Office                            Sandragrace Martinez                  Precinct 2                                             01 
00120030002000004000000000002000002000000000000000000000000000000000000000000000000000000000000000000DEM       DEM Comm General Land Office                            Sandragrace Martinez                  Precinct 3                                             01 
00120030003000003000000000001000002000000000000000000000000000000000000000000000000000000000000000000DEM       DEM Comm General Land Office                            Sandragrace Martinez                  Precinct 4                                             01 
00120030004000003000001000001000001000000000000000000000000000000000000000000000000000000000000000000DEM       DEM Comm General Land Office                            Sandragrace Martinez                  Precinct 5                                             01 
00120030005000001000000000000000001000000000000000000000000000000000000000000000000000000000000000000DEM       DEM Comm General Land Office                            Sandragrace Martinez                  Precinct 6                                             01 
00120030006000006000002000001000003000000000000000000000000000000000000000000000000000000000000000000DEM       DEM Comm General Land Office                            Sandragrace Martinez                  Precinct 7                                             01 
00120030007000001000000000000000001000000000000000000000000000000000000000000000000000000000000000000DEM       DEM Comm General Land Office                            Sandragrace Martinez                  Precinct 8                                             01 
00120030008000005000000000001000004000000000000000000000000000000000000000000000000000000000000000000DEM       DEM Comm General Land Office                            Sandragrace Martinez                  Precinct 9                                             01 
00120030009000004000001000002000001000000000000000000000000000000000000000000000000000000000000000000DEM       DEM Comm General Land Office                            Sandragrace Martinez                  Precinct 10                                            01 
00120030010000003000000000001000002000000000000000000000000000000000000000000000000000000000000000000DEM       DEM Comm General Land Office                            Sandragrace Martinez                  Precinct 11                                            01 
00120030011000000000000000000000000000000000000000000000000000000000000000000000000000000000000000000DEM       DEM Comm General Land Office                            Sandragrace Martinez                  Precinct 12                                            01 
00120030012000002000000000000000002000000000000000000000000000000000000000000000000000000000000000000DEM       DEM Comm General Land Office                            Sandragrace Martinez                  Precinct 13                                            01 
00120030013000001000000000000000001000000000000000000000000000000000000000000000000000000000000000000DEM       DEM Comm General Land Office                            Sandragrace Martinez                  Precinct 14                                            01 
00120030014000000000000000000000000000000000000000000000000000000000000000000000000000000000000000000DEM       DEM Comm General Land Office                            Sandragrace Martinez                  Precinct 15                                            01 
00120030015000002000000000000000002000000000000000000000000000000000000000000000000000000000000000000DEM       DEM Comm General Land Office                            Sandragrace Martinez                  Precinct 16                                            01 
00120040001000003000001000000000002000000000000000000000000000000000000000000000000000000000000000000DEM       DEM Comm General Land Office                            Michael Lange                         Precinct 2                                             01 
00120040002000002000002000000000000000000000000000000000000000000000000000000000000000000000000000000DEM       DEM Comm General Land Office                            Michael Lange                         Precinct 3                                             01 
00120040003000001000000000000000001000000000000000000000000000000000000000000000000000000000000000000DEM       DEM Comm General Land Office                            Michael Lange                         Precinct 4                                             01 
00120040004000003000002000000000001000000000000000000000000000000000000000000000000000000000000000000DEM       DEM Comm General Land Office                            Michael Lange                         Precinct 5                                             01 
00120040005000003000000000001000002000000000000000000000000000000000000000000000000000000000000000000DEM       DEM Comm General Land Office                            Michael Lange                         Precinct 6                                             01 
00120040006000007000000000000000007000000000000000000000000000000000000000000000000000000000000000000DEM       DEM Comm General Land Office                            Michael Lange                         Precinct 7                                             01 
00120040007000001000000000000000001000000000000000000000000000000000000000000000000000000000000000000DEM       DEM Comm General Land Office                            Michael Lange                         Precinct 8                                             01 
00120040008000004000001000000000003000000000000000000000000000000000000000000000000000000000000000000DEM       DEM Comm General Land Office                            Michael Lange                         Precinct 9                                             01 
00120040009000001000000000000000001000000000000000000000000000000000000000000000000000000000000000000DEM       DEM Comm General Land Office                            Michael Lange                         Precinct 10                                            01 
00120040010000003000000000000000003000000000000000000000000000000000000000000000000000000000000000000DEM       DEM Comm General Land Office                            Michael Lange                         Precinct 11                                            01 
00120040011000000000000000000000000000000000000000000000000000000000000000000000000000000000000000000DEM       DEM Comm General Land Office                            Michael Lange                         Precinct 12                                            01 
00120040012000004000000000002000002000000000000000000000000000000000000000000000000000000000000000000DEM       DEM Comm General Land Office                            Michael Lange                         Precinct 13                                            01 
00120040013000000000000000000000000000000000000000000000000000000000000000000000000000000000000000000DEM       DEM Comm General Land Office                            Michael Lange                         Precinct 14                                            01 
00120040014000004000002000000000002000000000000000000000000000000000000000000000000000000000000000000DEM       DEM Comm General Land Office                            Michael Lange                         Precinct 15                                            01 
00120040015000001000000000001000000000000000000000000000000000000000000000000000000000000000000000000DEM       DEM Comm General Land Office                            Michael Lange                         Precinct 16                                            01 
00130010001000005000000000004000001000000000000000000000000000000000000000000000000000000000000000000DEM       DEM Commissioner of Agriculture                         Ed Ireson                             Precinct 2                                             01 
00130010002000001000001000000000000000000000000000000000000000000000000000000000000000000000000000000DEM       DEM Commissioner of Agriculture                         Ed Ireson                             Precinct 3                                             01 
