00010010001002477000000000000000000000000000000000000000000000000000000000000000000000000000000000000          REGISTERED VOTERS - TOTAL                               REGISTERED VOTERS - TOTAL             Precinct 101                                           00 
00010010002001438000000000000000000000000000000000000000000000000000000000000000000000000000000000000          REGISTERED VOTERS - TOTAL                               REGISTERED VOTERS - TOTAL             Precinct 201                                           00 
00010010003001661000000000000000000000000000000000000000000000000000000000000000000000000000000000000          REGISTERED VOTERS - TOTAL                               REGISTERED VOTERS - TOTAL             Precinct 202                                           00 
00010010004000072000000000000000000000000000000000000000000000000000000000000000000000000000000000000          REGISTERED VOTERS - TOTAL                               REGISTERED VOTERS - TOTAL             Precinct 203                                           00 
00010010005002257000000000000000000000000000000000000000000000000000000000000000000000000000000000000          REGISTERED VOTERS - TOTAL                               REGISTERED VOTERS - TOTAL             Precinct 301                                           00 
00010010006001175000000000000000000000000000000000000000000000000000000000000000000000000000000000000          REGISTERED VOTERS - TOTAL                               REGISTERED VOTERS - TOTAL             Precinct 401                                           00 
00010010007000727000000000000000000000000000000000000000000000000000000000000000000000000000000000000          REGISTERED VOTERS - TOTAL                               REGISTERED VOTERS - TOTAL             Precinct 402                                           00 
00040010001000426000015000195000216000000000000000000000000000000000000000000000000000000000000000000REP       BALLOTS CAST - Republican Party                         BALLOTS CAST - Republican Party       Precinct 101                                           00 
00040010002000473000030000239000204000000000000000000000000000000000000000000000000000000000000000000REP       BALLOTS CAST - Republican Party                         BALLOTS CAST - Republican Party       Precinct 201                                           00 
00040010003000594000021000345000228000000000000000000000000000000000000000000000000000000000000000000REP       BALLOTS CAST - Republican Party                         BALLOTS CAST - Republican Party       Precinct 202                                           00 
00040010004000021000000000002000019000000000000000000000000000000000000000000000000000000000000000000REP       BALLOTS CAST - Republican Party                         BALLOTS CAST - Republican Party       Precinct 203                                           00 
00040010005000295000017000144000134000000000000000000000000000000000000000000000000000000000000000000REP       BALLOTS CAST - Republican Party                         BALLOTS CAST - Republican Party       Precinct 301                                           00 
00040010006000362000009000144000209000000000000000000000000000000000000000000000000000000000000000000REP       BALLOTS CAST - Republican Party                         BALLOTS CAST - Republican Party       Precinct 401                                           00 
00040010007000013000000000003000010000000000000000000000000000000000000000000000000000000000000000000REP       BALLOTS CAST - Republican Party                         BALLOTS CAST - Republican Party       Precinct 402                                           00 
00050010001000375000009000175000191000000000000000000000000000000000000000000000000000000000000000000REP       REP US Rep, District 13                                 Ronny Jackson                         Precinct 101                                           01 
00050010002000426000026000213000187000000000000000000000000000000000000000000000000000000000000000000REP       REP US Rep, District 13                                 Ronny Jackson                         Precinct 201                                           01 
00050010003000529000018000303000208000000000000000000000000000000000000000000000000000000000000000000REP       REP US Rep, District 13                                 Ronny Jackson                         Precinct 202                                           01 
00050010004000021000000000002000019000000000000000000000000000000000000000000000000000000000000000000REP       REP US Rep, District 13                                 Ronny Jackson                         Precinct 203                                           01 
00050010005000259000017000127000115000000000000000000000000000000000000000000000000000000000000000000REP       REP US Rep, District 13                                 Ronny Jackson                         Precinct 301                                           01 
00050010006000318000009000121000188000000000000000000000000000000000000000000000000000000000000000000REP       REP US Rep, District 13                                 Ronny Jackson                         Precinct 401                                           01 
00050010007000007000000000002000005000000000000000000000000000000000000000000000000000000000000000000REP       REP US Rep, District 13                                 Ronny Jackson                         Precinct 402                                           01 
00060010001000031000000000014000017000000000000000000000000000000000000000000000000000000000000000000REP       REP Governor                                            Allen B. West                         Precinct 101                                           01 
00060010002000044000002000018000024000000000000000000000000000000000000000000000000000000000000000000REP       REP Governor                                            Allen B. West                         Precinct 201                                           01 
00060010003000043000003000020000020000000000000000000000000000000000000000000000000000000000000000000REP       REP Governor                                            Allen B. West                         Precinct 202                                           01 
00060010004000007000000000000000007000000000000000000000000000000000000000000000000000000000000000000REP       REP Governor                                            Allen B. West                         Precinct 203                                           01 
00060010005000017000003000004000010000000000000000000000000000000000000000000000000000000000000000000REP       REP Governor                                            Allen B. West                         Precinct 301                                           01 
00060010006000036000001000008000027000000000000000000000000000000000000000000000000000000000000000000REP       REP Governor                                            Allen B. West                         Precinct 401                                           01 
00060010007000000000000000000000000000000000000000000000000000000000000000000000000000000000000000000REP       REP Governor                                            Allen B. West                         Precinct 402                                           01 
00060020001000004000000000002000002000000000000000000000000000000000000000000000000000000000000000000REP       REP Governor                                            Danny Harrison                        Precinct 101                                           01 
00060020002000005000000000002000003000000000000000000000000000000000000000000000000000000000000000000REP       REP Governor                                            Danny Harrison                        Precinct 201                                           01 
00060020003000001000000000000000001000000000000000000000000000000000000000000000000000000000000000000REP       REP Governor                                            Danny Harrison                        Precinct 202                                           01 
00060020004000000000000000000000000000000000000000000000000000000000000000000000000000000000000000000REP       REP Governor                                            Danny Harrison                        Precinct 203                                           01 
00060020005000000000000000000000000000000000000000000000000000000000000000000000000000000000000000000REP       REP Governor                                            Danny Harrison                        Precinct 301                                           01 
00060020006000003000000000000000003000000000000000000000000000000000000000000000000000000000000000000REP       REP Governor                                            Danny Harrison                        Precinct 401                                           01 
00060020007000000000000000000000000000000000000000000000000000000000000000000000000000000000000000000REP       REP Governor                                            Danny Harrison                        Precinct 402                                           01 
00060030001000003000000000000000003000000000000000000000000000000000000000000000000000000000000000000REP       REP Governor                                            Paul Belew                            Precinct 101                                           01 
00060030002000005000000000003000002000000000000000000000000000000000000000000000000000000000000000000REP       REP Governor                                            Paul Belew                            Precinct 201                                           01 
00060030003000002000000000001000001000000000000000000000000000000000000000000000000000000000000000000REP       REP Governor                                            Paul Belew                            Precinct 202                                           01 
00060030004000000000000000000000000000000000000000000000000000000000000000000000000000000000000000000REP       REP Governor                                            Paul Belew                            Precinct 203                                           01 
00060030005000001000000000000000001000000000000000000000000000000000000000000000000000000000000000000REP       REP Governor                                            Paul Belew                            Precinct 301                                           01 
00060030006000000000000000000000000000000000000000000000000000000000000000000000000000000000000000000REP       REP Governor                                            Paul Belew                            Precinct 401                                           01 
00060030007000000000000000000000000000000000000000000000000000000000000000000000000000000000000000000REP       REP Governor                                            Paul Belew                            Precinct 402                                           01 
00060040001000031000000000017000014000000000000000000000000000000000000000000000000000000000000000000REP       REP Governor                                            Chad Prather                          Precinct 101                                           01 
00060040002000027000000000013000014000000000000000000000000000000000000000000000000000000000000000000REP       REP Governor                                            Chad Prather                          Precinct 201                                           01 
00060040003000046000000000023000023000000000000000000000000000000000000000000000000000000000000000000REP       REP Governor                                            Chad Prather                          Precinct 202                                           01 
00060040004000000000000000000000000000000000000000000000000000000000000000000000000000000000000000000REP       REP Governor                                            Chad Prather                          Precinct 203                                           01 
00060040005000017000000000008000009000000000000000000000000000000000000000000000000000000000000000000REP       REP Governor                                            Chad Prather                          Precinct 301                                           01 
00060040006000042000000000012000030000000000000000000000000000000000000000000000000000000000000000000REP       REP Governor                                            Chad Prather                          Precinct 401                                           01 
00060040007000000000000000000000000000000000000000000000000000000000000000000000000000000000000000000REP       REP Governor                                            Chad Prather                          Precinct 402                                           01 
00060050001000293000013000144000136000000000000000000000000000000000000000000000000000000000000000000REP       REP Governor                                            Greg Abbott                           Precinct 101                                           01 
00060050002000328000025000169000134000000000000000000000000000000000000000000000000000000000000000000REP       REP Governor                                            Greg Abbott                           Precinct 201                                           01 
00060050003000405000016000241000148000000000000000000000000000000000000000000000000000000000000000000REP       REP Governor                                            Greg Abbott                           Precinct 202                                           01 
00060050004000013000000000002000011000000000000000000000000000000000000000000000000000000000000000000REP       REP Governor                                            Greg Abbott                           Precinct 203                                           01 
00060050005000213000011000111000091000000000000000000000000000000000000000000000000000000000000000000REP       REP Governor                                            Greg Abbott                           Precinct 301                                           01 
00060050006000235000006000106000123000000000000000000000000000000000000000000000000000000000000000000REP       REP Governor                                            Greg Abbott                           Precinct 401                                           01 
00060050007000008000000000002000006000000000000000000000000000000000000000000000000000000000000000000REP       REP Governor                                            Greg Abbott                           Precinct 402                                           01 
00060060001000019000001000006000012000000000000000000000000000000000000000000000000000000000000000000REP       REP Governor                                            Rick Perry                            Precinct 101                                           01 
00060060002000021000000000010000011000000000000000000000000000000000000000000000000000000000000000000REP       REP Governor                                            Rick Perry                            Precinct 201                                           01 
00060060003000032000000000020000012000000000000000000000000000000000000000000000000000000000000000000REP       REP Governor                                            Rick Perry                            Precinct 202                                           01 
00060060004000001000000000000000001000000000000000000000000000000000000000000000000000000000000000000REP       REP Governor                                            Rick Perry                            Precinct 203                                           01 
00060060005000014000002000006000006000000000000000000000000000000000000000000000000000000000000000000REP       REP Governor                                            Rick Perry                            Precinct 301                                           01 
00060060006000017000000000005000012000000000000000000000000000000000000000000000000000000000000000000REP       REP Governor                                            Rick Perry                            Precinct 401                                           01 
00060060007000003000000000000000003000000000000000000000000000000000000000000000000000000000000000000REP       REP Governor                                            Rick Perry                            Precinct 402                                           01 
00060070001000027000001000007000019000000000000000000000000000000000000000000000000000000000000000000REP       REP Governor                                            Don Huffines                          Precinct 101                                           01 
00060070002000030000001000017000012000000000000000000000000000000000000000000000000000000000000000000REP       REP Governor                                            Don Huffines                          Precinct 201                                           01 
00060070003000051000002000031000018000000000000000000000000000000000000000000000000000000000000000000REP       REP Governor                                            Don Huffines                          Precinct 202                                           01 
00060070004000000000000000000000000000000000000000000000000000000000000000000000000000000000000000000REP       REP Governor                                            Don Huffines                          Precinct 203                                           01 
00060070005000021000001000010000010000000000000000000000000000000000000000000000000000000000000000000REP       REP Governor                                            Don Huffines                          Precinct 301                                           01 
00060070006000017000002000008000007000000000000000000000000000000000000000000000000000000000000000000REP       REP Governor                                            Don Huffines                          Precinct 401                                           01 
00060070007000000000000000000000000000000000000000000000000000000000000000000000000000000000000000000REP       REP Governor                                            Don Huffines                          Precinct 402                                           01 
00060080001000006000000000001000005000000000000000000000000000000000000000000000000000000000000000000REP       REP Governor                                            Kandy Kaye Horn                       Precinct 101                                           01 
00060080002000004000000000003000001000000000000000000000000000000000000000000000000000000000000000000REP       REP Governor                                            Kandy Kaye Horn                       Precinct 201                                           01 
00060080003000003000000000002000001000000000000000000000000000000000000000000000000000000000000000000REP       REP Governor                                            Kandy Kaye Horn                       Precinct 202                                           01 
00060080004000000000000000000000000000000000000000000000000000000000000000000000000000000000000000000REP       REP Governor                                            Kandy Kaye Horn                       Precinct 203                                           01 
00060080005000003000000000002000001000000000000000000000000000000000000000000000000000000000000000000REP       REP Governor                                            Kandy Kaye Horn                       Precinct 301                                           01 
00060080006000005000000000001000004000000000000000000000000000000000000000000000000000000000000000000REP       REP Governor                                            Kandy Kaye Horn                       Precinct 401                                           01 
00060080007000000000000000000000000000000000000000000000000000000000000000000000000000000000000000000REP       REP Governor                                            Kandy Kaye Horn                       Precinct 402                                           01 
00070010001000275000009000135000131000000000000000000000000000000000000000000000000000000000000000000REP       REP Lieutenant Governor                                 Dan Patrick                           Precinct 101                                           01 
00070010002000318000024000152000142000000000000000000000000000000000000000000000000000000000000000000REP       REP Lieutenant Governor                                 Dan Patrick                           Precinct 201                                           01 
00070010003000401000019000238000144000000000000000000000000000000000000000000000000000000000000000000REP       REP Lieutenant Governor                                 Dan Patrick                           Precinct 202                                           01 
00070010004000015000000000002000013000000000000000000000000000000000000000000000000000000000000000000REP       REP Lieutenant Governor                                 Dan Patrick                           Precinct 203                                           01 
00070010005000194000016000100000078000000000000000000000000000000000000000000000000000000000000000000REP       REP Lieutenant Governor                                 Dan Patrick                           Precinct 301                                           01 
00070010006000240000009000095000136000000000000000000000000000000000000000000000000000000000000000000REP       REP Lieutenant Governor                                 Dan Patrick                           Precinct 401                                           01 
00070010007000005000000000000000005000000000000000000000000000000000000000000000000000000000000000000REP       REP Lieutenant Governor                                 Dan Patrick                           Precinct 402                                           01 
00070020001000014000000000009000005000000000000000000000000000000000000000000000000000000000000000000REP       REP Lieutenant Governor                                 Todd M. Bullis                        Precinct 101                                           01 
00070020002000009000000000003000006000000000000000000000000000000000000000000000000000000000000000000REP       REP Lieutenant Governor                                 Todd M. Bullis                        Precinct 201                                           01 
00070020003000020000000000014000006000000000000000000000000000000000000000000000000000000000000000000REP       REP Lieutenant Governor                                 Todd M. Bullis                        Precinct 202                                           01 
00070020004000000000000000000000000000000000000000000000000000000000000000000000000000000000000000000REP       REP Lieutenant Governor                                 Todd M. Bullis                        Precinct 203                                           01 
00070020005000014000000000006000008000000000000000000000000000000000000000000000000000000000000000000REP       REP Lieutenant Governor                                 Todd M. Bullis                        Precinct 301                                           01 
00070020006000011000000000005000006000000000000000000000000000000000000000000000000000000000000000000REP       REP Lieutenant Governor                                 Todd M. Bullis                        Precinct 401                                           01 
00070020007000000000000000000000000000000000000000000000000000000000000000000000000000000000000000000REP       REP Lieutenant Governor                                 Todd M. Bullis                        Precinct 402                                           01 
00070030001000018000000000008000010000000000000000000000000000000000000000000000000000000000000000000REP       REP Lieutenant Governor                                 Aaron Sorrells                        Precinct 101                                           01 
00070030002000033000000000021000012000000000000000000000000000000000000000000000000000000000000000000REP       REP Lieutenant Governor                                 Aaron Sorrells                        Precinct 201                                           01 
00070030003000021000000000010000011000000000000000000000000000000000000000000000000000000000000000000REP       REP Lieutenant Governor                                 Aaron Sorrells                        Precinct 202                                           01 
00070030004000002000000000000000002000000000000000000000000000000000000000000000000000000000000000000REP       REP Lieutenant Governor                                 Aaron Sorrells                        Precinct 203                                           01 
00070030005000008000001000004000003000000000000000000000000000000000000000000000000000000000000000000REP       REP Lieutenant Governor                                 Aaron Sorrells                        Precinct 301                                           01 
00070030006000016000000000004000012000000000000000000000000000000000000000000000000000000000000000000REP       REP Lieutenant Governor                                 Aaron Sorrells                        Precinct 401                                           01 
00070030007000002000000000002000000000000000000000000000000000000000000000000000000000000000000000000REP       REP Lieutenant Governor                                 Aaron Sorrells                        Precinct 402                                           01 
00070040001000024000002000009000013000000000000000000000000000000000000000000000000000000000000000000REP       REP Lieutenant Governor                                 Daniel Miller                         Precinct 101                                           01 
00070040002000018000001000012000005000000000000000000000000000000000000000000000000000000000000000000REP       REP Lieutenant Governor                                 Daniel Miller                         Precinct 201                                           01 
00070040003000034000000000021000013000000000000000000000000000000000000000000000000000000000000000000REP       REP Lieutenant Governor                                 Daniel Miller                         Precinct 202                                           01 
00070040004000001000000000000000001000000000000000000000000000000000000000000000000000000000000000000REP       REP Lieutenant Governor                                 Daniel Miller                         Precinct 203                                           01 
00070040005000012000000000003000009000000000000000000000000000000000000000000000000000000000000000000REP       REP Lieutenant Governor                                 Daniel Miller                         Precinct 301                                           01 
00070040006000016000000000007000009000000000000000000000000000000000000000000000000000000000000000000REP       REP Lieutenant Governor                                 Daniel Miller                         Precinct 401                                           01 
00070040007000002000000000000000002000000000000000000000000000000000000000000000000000000000000000000REP       REP Lieutenant Governor                                 Daniel Miller                         Precinct 402                                           01 
00070050001000013000000000003000010000000000000000000000000000000000000000000000000000000000000000000REP       REP Lieutenant Governor                                 Zach Vance                            Precinct 101                                           01 
00070050002000017000000000005000012000000000000000000000000000000000000000000000000000000000000000000REP       REP Lieutenant Governor                                 Zach Vance                            Precinct 201                                           01 
00070050003000026000000000014000012000000000000000000000000000000000000000000000000000000000000000000REP       REP Lieutenant Governor                                 Zach Vance                            Precinct 202                                           01 
00070050004000001000000000000000001000000000000000000000000000000000000000000000000000000000000000000REP       REP Lieutenant Governor                                 Zach Vance                            Precinct 203                                           01 
00070050005000014000000000009000005000000000000000000000000000000000000000000000000000000000000000000REP       REP Lieutenant Governor                                 Zach Vance                            Precinct 301                                           01 
00070050006000003000000000002000001000000000000000000000000000000000000000000000000000000000000000000REP       REP Lieutenant Governor                                 Zach Vance                            Precinct 401                                           01 
00070050007000000000000000000000000000000000000000000000000000000000000000000000000000000000000000000REP       REP Lieutenant Governor                                 Zach Vance                            Precinct 402                                           01 
00070060001000026000002000008000016000000000000000000000000000000000000000000000000000000000000000000REP       REP Lieutenant Governor                                 Trayce Bradford                       Precinct 101                                           01 
00070060002000017000000000009000008000000000000000000000000000000000000000000000000000000000000000000REP       REP Lieutenant Governor                                 Trayce Bradford                       Precinct 201                                           01 
00070060003000022000001000013000008000000000000000000000000000000000000000000000000000000000000000000REP       REP Lieutenant Governor                                 Trayce Bradford                       Precinct 202                                           01 
00070060004000000000000000000000000000000000000000000000000000000000000000000000000000000000000000000REP       REP Lieutenant Governor                                 Trayce Bradford                       Precinct 203                                           01 
00070060005000011000000000001000010000000000000000000000000000000000000000000000000000000000000000000REP       REP Lieutenant Governor                                 Trayce Bradford                       Precinct 301                                           01 
00070060006000024000000000008000016000000000000000000000000000000000000000000000000000000000000000000REP       REP Lieutenant Governor                                 Trayce Bradford                       Precinct 401                                           01 
00070060007000000000000000000000000000000000000000000000000000000000000000000000000000000000000000000REP       REP Lieutenant Governor                                 Trayce Bradford                       Precinct 402                                           01 
00080010001000086000003000039000044000000000000000000000000000000000000000000000000000000000000000000REP       REP Attorney General                                    Eva Guzman                            Precinct 101                                           01 
00080010002000104000010000052000042000000000000000000000000000000000000000000000000000000000000000000REP       REP Attorney General                                    Eva Guzman                            Precinct 201                                           01 
00080010003000102000001000058000043000000000000000000000000000000000000000000000000000000000000000000REP       REP Attorney General                                    Eva Guzman                            Precinct 202                                           01 
00080010004000005000000000000000005000000000000000000000000000000000000000000000000000000000000000000REP       REP Attorney General                                    Eva Guzman                            Precinct 203                                           01 
00080010005000051000002000015000034000000000000000000000000000000000000000000000000000000000000000000REP       REP Attorney General                                    Eva Guzman                            Precinct 301                                           01 
00080010006000056000000000020000036000000000000000000000000000000000000000000000000000000000000000000REP       REP Attorney General                                    Eva Guzman                            Precinct 401                                           01 
00080010007000003000000000000000003000000000000000000000000000000000000000000000000000000000000000000REP       REP Attorney General                                    Eva Guzman                            Precinct 402                                           01 
00080020001000087000003000041000043000000000000000000000000000000000000000000000000000000000000000000REP       REP Attorney General                                    George P. Bush                        Precinct 101                                           01 
00080020002000112000009000049000054000000000000000000000000000000000000000000000000000000000000000000REP       REP Attorney General                                    George P. Bush                        Precinct 201                                           01 
00080020003000133000005000072000056000000000000000000000000000000000000000000000000000000000000000000REP       REP Attorney General                                    George P. Bush                        Precinct 202                                           01 
00080020004000003000000000000000003000000000000000000000000000000000000000000000000000000000000000000REP       REP Attorney General                                    George P. Bush                        Precinct 203                                           01 
00080020005000068000005000026000037000000000000000000000000000000000000000000000000000000000000000000REP       REP Attorney General                                    George P. Bush                        Precinct 301                                           01 
00080020006000066000000000025000041000000000000000000000000000000000000000000000000000000000000000000REP       REP Attorney General                                    George P. Bush                        Precinct 401                                           01 
00080020007000005000000000002000003000000000000000000000000000000000000000000000000000000000000000000REP       REP Attorney General                                    George P. Bush                        Precinct 402                                           01 
00080030001000193000008000093000092000000000000000000000000000000000000000000000000000000000000000000REP       REP Attorney General                                    Ken Paxton                            Precinct 101                                           01 
00080030002000205000010000109000086000000000000000000000000000000000000000000000000000000000000000000REP       REP Attorney General                                    Ken Paxton                            Precinct 201                                           01 
00080030003000271000013000171000087000000000000000000000000000000000000000000000000000000000000000000REP       REP Attorney General                                    Ken Paxton                            Precinct 202                                           01 
00080030004000012000000000002000010000000000000000000000000000000000000000000000000000000000000000000REP       REP Attorney General                                    Ken Paxton                            Precinct 203                                           01 
00080030005000142000007000086000049000000000000000000000000000000000000000000000000000000000000000000REP       REP Attorney General                                    Ken Paxton                            Precinct 301                                           01 
00080030006000189000009000078000102000000000000000000000000000000000000000000000000000000000000000000REP       REP Attorney General                                    Ken Paxton                            Precinct 401                                           01 
00080030007000002000000000000000002000000000000000000000000000000000000000000000000000000000000000000REP       REP Attorney General                                    Ken Paxton                            Precinct 402                                           01 
00080040001000030000000000012000018000000000000000000000000000000000000000000000000000000000000000000REP       REP Attorney General                                    Louie Gohmert                         Precinct 101                                           01 
00080040002000029000000000015000014000000000000000000000000000000000000000000000000000000000000000000REP       REP Attorney General                                    Louie Gohmert                         Precinct 201                                           01 
00080040003000045000002000025000018000000000000000000000000000000000000000000000000000000000000000000REP       REP Attorney General                                    Louie Gohmert                         Precinct 202                                           01 
00080040004000001000000000000000001000000000000000000000000000000000000000000000000000000000000000000REP       REP Attorney General                                    Louie Gohmert                         Precinct 203                                           01 
00080040005000017000002000009000006000000000000000000000000000000000000000000000000000000000000000000REP       REP Attorney General                                    Louie Gohmert                         Precinct 301                                           01 
00080040006000025000000000007000018000000000000000000000000000000000000000000000000000000000000000000REP       REP Attorney General                                    Louie Gohmert                         Precinct 401                                           01 
00080040007000000000000000000000000000000000000000000000000000000000000000000000000000000000000000000REP       REP Attorney General                                    Louie Gohmert                         Precinct 402                                           01 
00090010001000127000003000042000082000000000000000000000000000000000000000000000000000000000000000000REP       REP Comptroller of Public Accounts                      Mark V. Goloby                        Precinct 101                                           01 
00090010002000118000005000054000059000000000000000000000000000000000000000000000000000000000000000000REP       REP Comptroller of Public Accounts                      Mark V. Goloby                        Precinct 201                                           01 
00090010003000158000005000095000058000000000000000000000000000000000000000000000000000000000000000000REP       REP Comptroller of Public Accounts                      Mark V. Goloby                        Precinct 202                                           01 
00090010004000006000000000000000006000000000000000000000000000000000000000000000000000000000000000000REP       REP Comptroller of Public Accounts                      Mark V. Goloby                        Precinct 203                                           01 
00090010005000088000003000042000043000000000000000000000000000000000000000000000000000000000000000000REP       REP Comptroller of Public Accounts                      Mark V. Goloby                        Precinct 301                                           01 
00090010006000094000002000043000049000000000000000000000000000000000000000000000000000000000000000000REP       REP Comptroller of Public Accounts                      Mark V. Goloby                        Precinct 401                                           01 
00090010007000005000000000001000004000000000000000000000000000000000000000000000000000000000000000000REP       REP Comptroller of Public Accounts                      Mark V. Goloby                        Precinct 402                                           01 
00090020001000197000007000108000082000000000000000000000000000000000000000000000000000000000000000000REP       REP Comptroller of Public Accounts                      Glenn Hegar                           Precinct 101                                           01 
00090020002000242000020000127000095000000000000000000000000000000000000000000000000000000000000000000REP       REP Comptroller of Public Accounts                      Glenn Hegar                           Precinct 201                                           01 
00090020003000294000013000167000114000000000000000000000000000000000000000000000000000000000000000000REP       REP Comptroller of Public Accounts                      Glenn Hegar                           Precinct 202                                           01 
00090020004000012000000000002000010000000000000000000000000000000000000000000000000000000000000000000REP       REP Comptroller of Public Accounts                      Glenn Hegar                           Precinct 203                                           01 
00090020005000131000014000067000050000000000000000000000000000000000000000000000000000000000000000000REP       REP Comptroller of Public Accounts                      Glenn Hegar                           Precinct 301                                           01 
00090020006000172000007000062000103000000000000000000000000000000000000000000000000000000000000000000REP       REP Comptroller of Public Accounts                      Glenn Hegar                           Precinct 401                                           01 
00090020007000004000000000001000003000000000000000000000000000000000000000000000000000000000000000000REP       REP Comptroller of Public Accounts                      Glenn Hegar                           Precinct 402                                           01 
00100010001000050000000000025000025000000000000000000000000000000000000000000000000000000000000000000REP       REP Comm General Land Office                            Weston Martinez                       Precinct 101                                           01 
00100010002000039000002000021000016000000000000000000000000000000000000000000000000000000000000000000REP       REP Comm General Land Office                            Weston Martinez                       Precinct 201                                           01 
00100010003000044000003000026000015000000000000000000000000000000000000000000000000000000000000000000REP       REP Comm General Land Office                            Weston Martinez                       Precinct 202                                           01 
00100010004000002000000000000000002000000000000000000000000000000000000000000000000000000000000000000REP       REP Comm General Land Office                            Weston Martinez                       Precinct 203                                           01 
00100010005000021000000000007000014000000000000000000000000000000000000000000000000000000000000000000REP       REP Comm General Land Office                            Weston Martinez                       Precinct 301                                           01 
00100010006000028000000000011000017000000000000000000000000000000000000000000000000000000000000000000REP       REP Comm General Land Office                            Weston Martinez                       Precinct 401                                           01 
00100010007000003000000000001000002000000000000000000000000000000000000000000000000000000000000000000REP       REP Comm General Land Office                            Weston Martinez                       Precinct 402                                           01 
00100020001000073000001000036000036000000000000000000000000000000000000000000000000000000000000000000REP       REP Comm General Land Office                            Tim Westley                           Precinct 101                                           01 
00100020002000092000005000040000047000000000000000000000000000000000000000000000000000000000000000000REP       REP Comm General Land Office                            Tim Westley                           Precinct 201                                           01 
00100020003000098000009000056000033000000000000000000000000000000000000000000000000000000000000000000REP       REP Comm General Land Office                            Tim Westley                           Precinct 202                                           01 
00100020004000002000000000000000002000000000000000000000000000000000000000000000000000000000000000000REP       REP Comm General Land Office                            Tim Westley                           Precinct 203                                           01 
00100020005000050000005000022000023000000000000000000000000000000000000000000000000000000000000000000REP       REP Comm General Land Office                            Tim Westley                           Precinct 301                                           01 
00100020006000074000003000029000042000000000000000000000000000000000000000000000000000000000000000000REP       REP Comm General Land Office                            Tim Westley                           Precinct 401                                           01 
00100020007000001000000000000000001000000000000000000000000000000000000000000000000000000000000000000REP       REP Comm General Land Office                            Tim Westley                           Precinct 402                                           01 
00100030001000103000004000052000047000000000000000000000000000000000000000000000000000000000000000000REP       REP Comm General Land Office                            Dawn Buckingham                       Precinct 101                                           01 
00100030002000106000009000064000033000000000000000000000000000000000000000000000000000000000000000000REP       REP Comm General Land Office                            Dawn Buckingham                       Precinct 201                                           01 
00100030003000154000003000100000051000000000000000000000000000000000000000000000000000000000000000000REP       REP Comm General Land Office                            Dawn Buckingham                       Precinct 202                                           01 
00100030004000009000000000000000009000000000000000000000000000000000000000000000000000000000000000000REP       REP Comm General Land Office                            Dawn Buckingham                       Precinct 203                                           01 
00100030005000070000004000038000028000000000000000000000000000000000000000000000000000000000000000000REP       REP Comm General Land Office                            Dawn Buckingham                       Precinct 301                                           01 
00100030006000072000006000023000043000000000000000000000000000000000000000000000000000000000000000000REP       REP Comm General Land Office                            Dawn Buckingham                       Precinct 401                                           01 
00100030007000001000000000000000001000000000000000000000000000000000000000000000000000000000000000000REP       REP Comm General Land Office                            Dawn Buckingham                       Precinct 402                                           01 
00100040001000011000000000005000006000000000000000000000000000000000000000000000000000000000000000000REP       REP Comm General Land Office                            Ben Armenta                           Precinct 101                                           01 
00100040002000007000000000004000003000000000000000000000000000000000000000000000000000000000000000000REP       REP Comm General Land Office                            Ben Armenta                           Precinct 201                                           01 
00100040003000010000000000007000003000000000000000000000000000000000000000000000000000000000000000000REP       REP Comm General Land Office                            Ben Armenta                           Precinct 202                                           01 
00100040004000001000000000000000001000000000000000000000000000000000000000000000000000000000000000000REP       REP Comm General Land Office                            Ben Armenta                           Precinct 203                                           01 
00100040005000006000000000004000002000000000000000000000000000000000000000000000000000000000000000000REP       REP Comm General Land Office                            Ben Armenta                           Precinct 301                                           01 
00100040006000008000000000004000004000000000000000000000000000000000000000000000000000000000000000000REP       REP Comm General Land Office                            Ben Armenta                           Precinct 401                                           01 
00100040007000001000000000000000001000000000000000000000000000000000000000000000000000000000000000000REP       REP Comm General Land Office                            Ben Armenta                           Precinct 402                                           01 
00100050001000007000000000003000004000000000000000000000000000000000000000000000000000000000000000000REP       REP Comm General Land Office                            Rufus Lopez                           Precinct 101                                           01 
00100050002000014000004000008000002000000000000000000000000000000000000000000000000000000000000000000REP       REP Comm General Land Office                            Rufus Lopez                           Precinct 201                                           01 
00100050003000009000000000006000003000000000000000000000000000000000000000000000000000000000000000000REP       REP Comm General Land Office                            Rufus Lopez                           Precinct 202                                           01 
00100050004000002000000000000000002000000000000000000000000000000000000000000000000000000000000000000REP       REP Comm General Land Office                            Rufus Lopez                           Precinct 203                                           01 
00100050005000008000001000001000006000000000000000000000000000000000000000000000000000000000000000000REP       REP Comm General Land Office                            Rufus Lopez                           Precinct 301                                           01 
00100050006000011000000000002000009000000000000000000000000000000000000000000000000000000000000000000REP       REP Comm General Land Office                            Rufus Lopez                           Precinct 401                                           01 
00100050007000002000000000001000001000000000000000000000000000000000000000000000000000000000000000000REP       REP Comm General Land Office                            Rufus Lopez                           Precinct 402                                           01 
00100060001000022000001000009000012000000000000000000000000000000000000000000000000000000000000000000REP       REP Comm General Land Office                            Jon Spiers                            Precinct 101                                           01 
00100060002000035000003000017000015000000000000000000000000000000000000000000000000000000000000000000REP       REP Comm General Land Office                            Jon Spiers                            Precinct 201                                           01 
00100060003000046000000000031000015000000000000000000000000000000000000000000000000000000000000000000REP       REP Comm General Land Office                            Jon Spiers                            Precinct 202                                           01 
00100060004000002000000000002000000000000000000000000000000000000000000000000000000000000000000000000REP       REP Comm General Land Office                            Jon Spiers                            Precinct 203                                           01 
00100060005000019000002000009000008000000000000000000000000000000000000000000000000000000000000000000REP       REP Comm General Land Office                            Jon Spiers                            Precinct 301                                           01 
00100060006000033000000000016000017000000000000000000000000000000000000000000000000000000000000000000REP       REP Comm General Land Office                            Jon Spiers                            Precinct 401                                           01 
00100060007000000000000000000000000000000000000000000000000000000000000000000000000000000000000000000REP       REP Comm General Land Office                            Jon Spiers                            Precinct 402                                           01 
00100070001000027000000000010000017000000000000000000000000000000000000000000000000000000000000000000REP       REP Comm General Land Office                            Victor Avila                          Precinct 101                                           01 
00100070002000028000000000014000014000000000000000000000000000000000000000000000000000000000000000000REP       REP Comm General Land Office                            Victor Avila                          Precinct 201                                           01 
00100070003000031000000000013000018000000000000000000000000000000000000000000000000000000000000000000REP       REP Comm General Land Office                            Victor Avila                          Precinct 202                                           01 
00100070004000000000000000000000000000000000000000000000000000000000000000000000000000000000000000000REP       REP Comm General Land Office                            Victor Avila                          Precinct 203                                           01 
00100070005000024000000000011000013000000000000000000000000000000000000000000000000000000000000000000REP       REP Comm General Land Office                            Victor Avila                          Precinct 301                                           01 
00100070006000015000000000009000006000000000000000000000000000000000000000000000000000000000000000000REP       REP Comm General Land Office                            Victor Avila                          Precinct 401                                           01 
00100070007000001000000000000000001000000000000000000000000000000000000000000000000000000000000000000REP       REP Comm General Land Office                            Victor Avila                          Precinct 402                                           01 
00100080001000033000005000011000017000000000000000000000000000000000000000000000000000000000000000000REP       REP Comm General Land Office                            Don W. Minton                         Precinct 101                                           01 
00100080002000041000003000020000018000000000000000000000000000000000000000000000000000000000000000000REP       REP Comm General Land Office                            Don W. Minton                         Precinct 201                                           01 
00100080003000052000003000029000020000000000000000000000000000000000000000000000000000000000000000000REP       REP Comm General Land Office                            Don W. Minton                         Precinct 202                                           01 
00100080004000001000000000000000001000000000000000000000000000000000000000000000000000000000000000000REP       REP Comm General Land Office                            Don W. Minton                         Precinct 203                                           01 
00100080005000023000003000012000008000000000000000000000000000000000000000000000000000000000000000000REP       REP Comm General Land Office                            Don W. Minton                         Precinct 301                                           01 
00100080006000016000000000009000007000000000000000000000000000000000000000000000000000000000000000000REP       REP Comm General Land Office                            Don W. Minton                         Precinct 401                                           01 
00100080007000000000000000000000000000000000000000000000000000000000000000000000000000000000000000000REP       REP Comm General Land Office                            Don W. Minton                         Precinct 402                                           01 
00110010001000044000002000022000020000000000000000000000000000000000000000000000000000000000000000000REP       REP Commissioner of Agriculture                         Carey A. Counsil                      Precinct 101                                           01 
00110010002000061000003000034000024000000000000000000000000000000000000000000000000000000000000000000REP       REP Commissioner of Agriculture                         Carey A. Counsil                      Precinct 201                                           01 
00110010003000057000000000033000024000000000000000000000000000000000000000000000000000000000000000000REP       REP Commissioner of Agriculture                         Carey A. Counsil                      Precinct 202                                           01 
00110010004000002000000000000000002000000000000000000000000000000000000000000000000000000000000000000REP       REP Commissioner of Agriculture                         Carey A. Counsil                      Precinct 203                                           01 
00110010005000042000001000019000022000000000000000000000000000000000000000000000000000000000000000000REP       REP Commissioner of Agriculture                         Carey A. Counsil                      Precinct 301                                           01 
00110010006000039000002000013000024000000000000000000000000000000000000000000000000000000000000000000REP       REP Commissioner of Agriculture                         Carey A. Counsil                      Precinct 401                                           01 
00110010007000000000000000000000000000000000000000000000000000000000000000000000000000000000000000000REP       REP Commissioner of Agriculture                         Carey A. Counsil                      Precinct 402                                           01 
00110020001000113000005000042000066000000000000000000000000000000000000000000000000000000000000000000REP       REP Commissioner of Agriculture                         James White                           Precinct 101                                           01 
00110020002000134000009000060000065000000000000000000000000000000000000000000000000000000000000000000REP       REP Commissioner of Agriculture                         James White                           Precinct 201                                           01 
00110020003000149000007000084000058000000000000000000000000000000000000000000000000000000000000000000REP       REP Commissioner of Agriculture                         James White                           Precinct 202                                           01 
00110020004000007000000000000000007000000000000000000000000000000000000000000000000000000000000000000REP       REP Commissioner of Agriculture                         James White                           Precinct 203                                           01 
00110020005000074000003000035000036000000000000000000000000000000000000000000000000000000000000000000REP       REP Commissioner of Agriculture                         James White                           Precinct 301                                           01 
00110020006000091000001000039000051000000000000000000000000000000000000000000000000000000000000000000REP       REP Commissioner of Agriculture                         James White                           Precinct 401                                           01 
00110020007000003000000000001000002000000000000000000000000000000000000000000000000000000000000000000REP       REP Commissioner of Agriculture                         James White                           Precinct 402                                           01 
00110030001000189000005000100000084000000000000000000000000000000000000000000000000000000000000000000REP       REP Commissioner of Agriculture                         Sid Miller                            Precinct 101                                           01 
00110030002000215000016000118000081000000000000000000000000000000000000000000000000000000000000000000REP       REP Commissioner of Agriculture                         Sid Miller                            Precinct 201                                           01 
00110030003000275000010000170000095000000000000000000000000000000000000000000000000000000000000000000REP       REP Commissioner of Agriculture                         Sid Miller                            Precinct 202                                           01 
00110030004000012000000000002000010000000000000000000000000000000000000000000000000000000000000000000REP       REP Commissioner of Agriculture                         Sid Miller                            Precinct 203                                           01 
00110030005000122000012000060000050000000000000000000000000000000000000000000000000000000000000000000REP       REP Commissioner of Agriculture                         Sid Miller                            Precinct 301                                           01 
00110030006000170000006000066000098000000000000000000000000000000000000000000000000000000000000000000REP       REP Commissioner of Agriculture                         Sid Miller                            Precinct 401                                           01 
00110030007000004000000000001000003000000000000000000000000000000000000000000000000000000000000000000REP       REP Commissioner of Agriculture                         Sid Miller                            Precinct 402                                           01 
00120010001000076000001000041000034000000000000000000000000000000000000000000000000000000000000000000REP       REP Railroad Commissioner                               Sarah Stogner                         Precinct 101                                           01 
00120010002000089000004000046000039000000000000000000000000000000000000000000000000000000000000000000REP       REP Railroad Commissioner                               Sarah Stogner                         Precinct 201                                           01 
00120010003000112000003000069000040000000000000000000000000000000000000000000000000000000000000000000REP       REP Railroad Commissioner                               Sarah Stogner                         Precinct 202                                           01 
00120010004000001000000000000000001000000000000000000000000000000000000000000000000000000000000000000REP       REP Railroad Commissioner                               Sarah Stogner                         Precinct 203                                           01 
00120010005000064000003000025000036000000000000000000000000000000000000000000000000000000000000000000REP       REP Railroad Commissioner                               Sarah Stogner                         Precinct 301                                           01 
00120010006000061000000000016000045000000000000000000000000000000000000000000000000000000000000000000REP       REP Railroad Commissioner                               Sarah Stogner                         Precinct 401                                           01 
00120010007000004000000000001000003000000000000000000000000000000000000000000000000000000000000000000REP       REP Railroad Commissioner                               Sarah Stogner                         Precinct 402                                           01 
00120020001000063000003000024000036000000000000000000000000000000000000000000000000000000000000000000REP       REP Railroad Commissioner                               Dawayne Tipton                        Precinct 101                                           01 
00120020002000062000004000029000029000000000000000000000000000000000000000000000000000000000000000000REP       REP Railroad Commissioner                               Dawayne Tipton                        Precinct 201                                           01 
00120020003000085000008000042000035000000000000000000000000000000000000000000000000000000000000000000REP       REP Railroad Commissioner                               Dawayne Tipton                        Precinct 202                                           01 
00120020004000002000000000000000002000000000000000000000000000000000000000000000000000000000000000000REP       REP Railroad Commissioner                               Dawayne Tipton                        Precinct 203                                           01 
00120020005000038000002000018000018000000000000000000000000000000000000000000000000000000000000000000REP       REP Railroad Commissioner                               Dawayne Tipton                        Precinct 301                                           01 
00120020006000051000004000021000026000000000000000000000000000000000000000000000000000000000000000000REP       REP Railroad Commissioner                               Dawayne Tipton                        Precinct 401                                           01 
00120020007000001000000000000000001000000000000000000000000000000000000000000000000000000000000000000REP       REP Railroad Commissioner                               Dawayne Tipton                        Precinct 402                                           01 
00120030001000036000002000016000018000000000000000000000000000000000000000000000000000000000000000000REP       REP Railroad Commissioner                               Tom Slocum Jr                         Precinct 101                                           01 
00120030002000039000007000023000009000000000000000000000000000000000000000000000000000000000000000000REP       REP Railroad Commissioner                               Tom Slocum Jr                         Precinct 201                                           01 
00120030003000045000002000027000016000000000000000000000000000000000000000000000000000000000000000000REP       REP Railroad Commissioner                               Tom Slocum Jr                         Precinct 202                                           01 
00120030004000002000000000000000002000000000000000000000000000000000000000000000000000000000000000000REP       REP Railroad Commissioner                               Tom Slocum Jr                         Precinct 203                                           01 
00120030005000022000001000015000006000000000000000000000000000000000000000000000000000000000000000000REP       REP Railroad Commissioner                               Tom Slocum Jr                         Precinct 301                                           01 
00120030006000028000000000012000016000000000000000000000000000000000000000000000000000000000000000000REP       REP Railroad Commissioner                               Tom Slocum Jr                         Precinct 401                                           01 
00120030007000000000000000000000000000000000000000000000000000000000000000000000000000000000000000000REP       REP Railroad Commissioner                               Tom Slocum Jr                         Precinct 402                                           01 
00120040001000124000004000057000063000000000000000000000000000000000000000000000000000000000000000000REP       REP Railroad Commissioner                               Wayne Christian                       Precinct 101                                           01 
00120040002000147000013000079000055000000000000000000000000000000000000000000000000000000000000000000REP       REP Railroad Commissioner                               Wayne Christian                       Precinct 201                                           01 
00120040003000188000003000124000061000000000000000000000000000000000000000000000000000000000000000000REP       REP Railroad Commissioner                               Wayne Christian                       Precinct 202                                           01 
00120040004000011000000000002000009000000000000000000000000000000000000000000000000000000000000000000REP       REP Railroad Commissioner                               Wayne Christian                       Precinct 203                                           01 
00120040005000082000008000047000027000000000000000000000000000000000000000000000000000000000000000000REP       REP Railroad Commissioner                               Wayne Christian                       Precinct 301                                           01 
00120040006000103000005000047000051000000000000000000000000000000000000000000000000000000000000000000REP       REP Railroad Commissioner                               Wayne Christian                       Precinct 401                                           01 
00120040007000002000000000002000000000000000000000000000000000000000000000000000000000000000000000000REP       REP Railroad Commissioner                               Wayne Christian                       Precinct 402                                           01 
00120050001000037000000000019000018000000000000000000000000000000000000000000000000000000000000000000REP       REP Railroad Commissioner                               Marvin "Sarge" Summers                Precinct 101                                           01 
00120050002000038000000000018000020000000000000000000000000000000000000000000000000000000000000000000REP       REP Railroad Commissioner                               Marvin "Sarge" Summers                Precinct 201                                           01 
00120050003000038000001000016000021000000000000000000000000000000000000000000000000000000000000000000REP       REP Railroad Commissioner                               Marvin "Sarge" Summers                Precinct 202                                           01 
00120050004000002000000000000000002000000000000000000000000000000000000000000000000000000000000000000REP       REP Railroad Commissioner                               Marvin "Sarge" Summers                Precinct 203                                           01 
00120050005000026000003000008000015000000000000000000000000000000000000000000000000000000000000000000REP       REP Railroad Commissioner                               Marvin "Sarge" Summers                Precinct 301                                           01 
00120050006000042000000000017000025000000000000000000000000000000000000000000000000000000000000000000REP       REP Railroad Commissioner                               Marvin "Sarge" Summers                Precinct 401                                           01 
00120050007000000000000000000000000000000000000000000000000000000000000000000000000000000000000000000REP       REP Railroad Commissioner                               Marvin "Sarge" Summers                Precinct 402                                           01 
00130010001000311000008000146000157000000000000000000000000000000000000000000000000000000000000000000REP       REP Justice, Supreme Court, Pl 3                        Debra Lehrmann                        Precinct 101                                           01 
00130010002000352000026000173000153000000000000000000000000000000000000000000000000000000000000000000REP       REP Justice, Supreme Court, Pl 3                        Debra Lehrmann                        Precinct 201                                           01 
00130010003000444000016000258000170000000000000000000000000000000000000000000000000000000000000000000REP       REP Justice, Supreme Court, Pl 3                        Debra Lehrmann                        Precinct 202                                           01 
00130010004000016000000000001000015000000000000000000000000000000000000000000000000000000000000000000REP       REP Justice, Supreme Court, Pl 3                        Debra Lehrmann                        Precinct 203                                           01 
00130010005000214000015000105000094000000000000000000000000000000000000000000000000000000000000000000REP       REP Justice, Supreme Court, Pl 3                        Debra Lehrmann                        Precinct 301                                           01 
00130010006000274000008000104000162000000000000000000000000000000000000000000000000000000000000000000REP       REP Justice, Supreme Court, Pl 3                        Debra Lehrmann                        Precinct 401                                           01 
00130010007000007000000000002000005000000000000000000000000000000000000000000000000000000000000000000REP       REP Justice, Supreme Court, Pl 3                        Debra Lehrmann                        Precinct 402                                           01 
00140010001000312000008000145000159000000000000000000000000000000000000000000000000000000000000000000REP       REP Justice, Supreme Court, Pl 5                        Rebeca Huddle                         Precinct 101                                           01 
00140010002000358000027000176000155000000000000000000000000000000000000000000000000000000000000000000REP       REP Justice, Supreme Court, Pl 5                        Rebeca Huddle                         Precinct 201                                           01 
00140010003000446000016000261000169000000000000000000000000000000000000000000000000000000000000000000REP       REP Justice, Supreme Court, Pl 5                        Rebeca Huddle                         Precinct 202                                           01 
00140010004000016000000000001000015000000000000000000000000000000000000000000000000000000000000000000REP       REP Justice, Supreme Court, Pl 5                        Rebeca Huddle                         Precinct 203                                           01 
00140010005000211000015000104000092000000000000000000000000000000000000000000000000000000000000000000REP       REP Justice, Supreme Court, Pl 5                        Rebeca Huddle                         Precinct 301                                           01 
00140010006000267000008000101000158000000000000000000000000000000000000000000000000000000000000000000REP       REP Justice, Supreme Court, Pl 5                        Rebeca Huddle                         Precinct 401                                           01 
00140010007000008000000000003000005000000000000000000000000000000000000000000000000000000000000000000REP       REP Justice, Supreme Court, Pl 5                        Rebeca Huddle                         Precinct 402                                           01 
00150010001000199000009000091000099000000000000000000000000000000000000000000000000000000000000000000REP       REP Justice, Supreme Court, Pl 9                        Evan Young                            Precinct 101                                           01 
00150010002000218000012000103000103000000000000000000000000000000000000000000000000000000000000000000REP       REP Justice, Supreme Court, Pl 9                        Evan Young                            Precinct 201                                           01 
00150010003000260000010000147000103000000000000000000000000000000000000000000000000000000000000000000REP       REP Justice, Supreme Court, Pl 9                        Evan Young                            Precinct 202                                           01 
00150010004000007000000000000000007000000000000000000000000000000000000000000000000000000000000000000REP       REP Justice, Supreme Court, Pl 9                        Evan Young                            Precinct 203                                           01 
00150010005000136000013000071000052000000000000000000000000000000000000000000000000000000000000000000REP       REP Justice, Supreme Court, Pl 9                        Evan Young                            Precinct 301                                           01 
00150010006000160000003000061000096000000000000000000000000000000000000000000000000000000000000000000REP       REP Justice, Supreme Court, Pl 9                        Evan Young                            Precinct 401                                           01 
00150010007000005000000000001000004000000000000000000000000000000000000000000000000000000000000000000REP       REP Justice, Supreme Court, Pl 9                        Evan Young                            Precinct 402                                           01 
00150020001000119000003000059000057000000000000000000000000000000000000000000000000000000000000000000REP       REP Justice, Supreme Court, Pl 9                        David J. Schenck                      Precinct 101                                           01 
00150020002000131000015000072000044000000000000000000000000000000000000000000000000000000000000000000REP       REP Justice, Supreme Court, Pl 9                        David J. Schenck                      Precinct 201                                           01 
00150020003000183000006000110000067000000000000000000000000000000000000000000000000000000000000000000REP       REP Justice, Supreme Court, Pl 9                        David J. Schenck                      Precinct 202                                           01 
00150020004000010000000000002000008000000000000000000000000000000000000000000000000000000000000000000REP       REP Justice, Supreme Court, Pl 9                        David J. Schenck                      Precinct 203                                           01 
00150020005000075000001000030000044000000000000000000000000000000000000000000000000000000000000000000REP       REP Justice, Supreme Court, Pl 9                        David J. Schenck                      Precinct 301                                           01 
00150020006000106000003000042000061000000000000000000000000000000000000000000000000000000000000000000REP       REP Justice, Supreme Court, Pl 9                        David J. Schenck                      Precinct 401                                           01 
00150020007000003000000000001000002000000000000000000000000000000000000000000000000000000000000000000REP       REP Justice, Supreme Court, Pl 9                        David J. Schenck                      Precinct 402                                           01 
00160010001000296000008000137000151000000000000000000000000000000000000000000000000000000000000000000REP       REP Judge, Ct of Crim App, Pl 2                         Mary Lou Keel                         Precinct 101                                           01 
00160010002000328000027000161000140000000000000000000000000000000000000000000000000000000000000000000REP       REP Judge, Ct of Crim App, Pl 2                         Mary Lou Keel                         Precinct 201                                           01 
00160010003000402000016000231000155000000000000000000000000000000000000000000000000000000000000000000REP       REP Judge, Ct of Crim App, Pl 2                         Mary Lou Keel                         Precinct 202                                           01 
00160010004000015000000000001000014000000000000000000000000000000000000000000000000000000000000000000REP       REP Judge, Ct of Crim App, Pl 2                         Mary Lou Keel                         Precinct 203                                           01 
00160010005000187000015000090000082000000000000000000000000000000000000000000000000000000000000000000REP       REP Judge, Ct of Crim App, Pl 2                         Mary Lou Keel                         Precinct 301                                           01 
00160010006000240000008000096000136000000000000000000000000000000000000000000000000000000000000000000REP       REP Judge, Ct of Crim App, Pl 2                         Mary Lou Keel                         Precinct 401                                           01 
00160010007000007000000000002000005000000000000000000000000000000000000000000000000000000000000000000REP       REP Judge, Ct of Crim App, Pl 2                         Mary Lou Keel                         Precinct 402                                           01 
00170010001000161000005000072000084000000000000000000000000000000000000000000000000000000000000000000REP       REP Judge, Ct of Crim App, Pl 5                         Clint Morgan                          Precinct 101                                           01 
00170010002000151000011000076000064000000000000000000000000000000000000000000000000000000000000000000REP       REP Judge, Ct of Crim App, Pl 5                         Clint Morgan                          Precinct 201                                           01 
00170010003000211000004000126000081000000000000000000000000000000000000000000000000000000000000000000REP       REP Judge, Ct of Crim App, Pl 5                         Clint Morgan                          Precinct 202                                           01 
00170010004000004000000000000000004000000000000000000000000000000000000000000000000000000000000000000REP       REP Judge, Ct of Crim App, Pl 5                         Clint Morgan                          Precinct 203                                           01 
00170010005000102000003000052000047000000000000000000000000000000000000000000000000000000000000000000REP       REP Judge, Ct of Crim App, Pl 5                         Clint Morgan                          Precinct 301                                           01 
00170010006000123000001000047000075000000000000000000000000000000000000000000000000000000000000000000REP       REP Judge, Ct of Crim App, Pl 5                         Clint Morgan                          Precinct 401                                           01 
00170010007000003000000000001000002000000000000000000000000000000000000000000000000000000000000000000REP       REP Judge, Ct of Crim App, Pl 5                         Clint Morgan                          Precinct 402                                           01 
00170020001000159000006000080000073000000000000000000000000000000000000000000000000000000000000000000REP       REP Judge, Ct of Crim App, Pl 5                         Scott Walker                          Precinct 101                                           01 
00170020002000197000014000101000082000000000000000000000000000000000000000000000000000000000000000000REP       REP Judge, Ct of Crim App, Pl 5                         Scott Walker                          Precinct 201                                           01 
00170020003000221000014000127000080000000000000000000000000000000000000000000000000000000000000000000REP       REP Judge, Ct of Crim App, Pl 5                         Scott Walker                          Precinct 202                                           01 
00170020004000011000000000001000010000000000000000000000000000000000000000000000000000000000000000000REP       REP Judge, Ct of Crim App, Pl 5                         Scott Walker                          Precinct 203                                           01 
00170020005000111000011000054000046000000000000000000000000000000000000000000000000000000000000000000REP       REP Judge, Ct of Crim App, Pl 5                         Scott Walker                          Precinct 301                                           01 
00170020006000138000005000056000077000000000000000000000000000000000000000000000000000000000000000000REP       REP Judge, Ct of Crim App, Pl 5                         Scott Walker                          Precinct 401                                           01 
00170020007000004000000000001000003000000000000000000000000000000000000000000000000000000000000000000REP       REP Judge, Ct of Crim App, Pl 5                         Scott Walker                          Precinct 402                                           01 
00180010001000301000008000144000149000000000000000000000000000000000000000000000000000000000000000000REP       REP Judge, Ct of Crim App, Pl 6                         Jesse F. McClure, III                 Precinct 101                                           01 
00180010002000347000024000175000148000000000000000000000000000000000000000000000000000000000000000000REP       REP Judge, Ct of Crim App, Pl 6                         Jesse F. McClure, III                 Precinct 201                                           01 
00180010003000422000016000250000156000000000000000000000000000000000000000000000000000000000000000000REP       REP Judge, Ct of Crim App, Pl 6                         Jesse F. McClure, III                 Precinct 202                                           01 
00180010004000017000000000001000016000000000000000000000000000000000000000000000000000000000000000000REP       REP Judge, Ct of Crim App, Pl 6                         Jesse F. McClure, III                 Precinct 203                                           01 
00180010005000209000016000103000090000000000000000000000000000000000000000000000000000000000000000000REP       REP Judge, Ct of Crim App, Pl 6                         Jesse F. McClure, III                 Precinct 301                                           01 
00180010006000255000008000098000149000000000000000000000000000000000000000000000000000000000000000000REP       REP Judge, Ct of Crim App, Pl 6                         Jesse F. McClure, III                 Precinct 401                                           01 
00180010007000007000000000002000005000000000000000000000000000000000000000000000000000000000000000000REP       REP Judge, Ct of Crim App, Pl 6                         Jesse F. McClure, III                 Precinct 402                                           01 
00190010001000169000006000079000084000000000000000000000000000000000000000000000000000000000000000000REP       REP Member, State BoE, Dist 15                          Aaron Kinsey                          Precinct 101                                           01 
00190010002000179000016000087000076000000000000000000000000000000000000000000000000000000000000000000REP       REP Member, State BoE, Dist 15                          Aaron Kinsey                          Precinct 201                                           01 
00190010003000238000007000139000092000000000000000000000000000000000000000000000000000000000000000000REP       REP Member, State BoE, Dist 15                          Aaron Kinsey                          Precinct 202                                           01 
00190010004000008000000000000000008000000000000000000000000000000000000000000000000000000000000000000REP       REP Member, State BoE, Dist 15                          Aaron Kinsey                          Precinct 203                                           01 
00190010005000110000007000059000044000000000000000000000000000000000000000000000000000000000000000000REP       REP Member, State BoE, Dist 15                          Aaron Kinsey                          Precinct 301                                           01 
00190010006000156000003000063000090000000000000000000000000000000000000000000000000000000000000000000REP       REP Member, State BoE, Dist 15                          Aaron Kinsey                          Precinct 401                                           01 
00190010007000007000000000003000004000000000000000000000000000000000000000000000000000000000000000000REP       REP Member, State BoE, Dist 15                          Aaron Kinsey                          Precinct 402                                           01 
00190020001000149000005000072000072000000000000000000000000000000000000000000000000000000000000000000REP       REP Member, State BoE, Dist 15                          Jay Johnson                           Precinct 101                                           01 
00190020002000178000009000095000074000000000000000000000000000000000000000000000000000000000000000000REP       REP Member, State BoE, Dist 15                          Jay Johnson                           Precinct 201                                           01 
00190020003000209000011000126000072000000000000000000000000000000000000000000000000000000000000000000REP       REP Member, State BoE, Dist 15                          Jay Johnson                           Precinct 202                                           01 
00190020004000010000000000001000009000000000000000000000000000000000000000000000000000000000000000000REP       REP Member, State BoE, Dist 15                          Jay Johnson                           Precinct 203                                           01 
00190020005000102000010000045000047000000000000000000000000000000000000000000000000000000000000000000REP       REP Member, State BoE, Dist 15                          Jay Johnson                           Precinct 301                                           01 
00190020006000117000003000043000071000000000000000000000000000000000000000000000000000000000000000000REP       REP Member, State BoE, Dist 15                          Jay Johnson                           Precinct 401                                           01 
00190020007000001000000000000000001000000000000000000000000000000000000000000000000000000000000000000REP       REP Member, State BoE, Dist 15                          Jay Johnson                           Precinct 402                                           01 
00200010001000188000009000093000086000000000000000000000000000000000000000000000000000000000000000000REP       REP State Senator, Dist 31                              Kevin Sparks                          Precinct 101                                           01 
00200010002000209000021000110000078000000000000000000000000000000000000000000000000000000000000000000REP       REP State Senator, Dist 31                              Kevin Sparks                          Precinct 201                                           01 
00200010003000272000008000174000090000000000000000000000000000000000000000000000000000000000000000000REP       REP State Senator, Dist 31                              Kevin Sparks                          Precinct 202                                           01 
00200010004000012000000000001000011000000000000000000000000000000000000000000000000000000000000000000REP       REP State Senator, Dist 31                              Kevin Sparks                          Precinct 203                                           01 
00200010005000133000010000065000058000000000000000000000000000000000000000000000000000000000000000000REP       REP State Senator, Dist 31                              Kevin Sparks                          Precinct 301                                           01 
00200010006000167000006000063000098000000000000000000000000000000000000000000000000000000000000000000REP       REP State Senator, Dist 31                              Kevin Sparks                          Precinct 401                                           01 
00200010007000002000000000001000001000000000000000000000000000000000000000000000000000000000000000000REP       REP State Senator, Dist 31                              Kevin Sparks                          Precinct 402                                           01 
00200020001000065000000000028000037000000000000000000000000000000000000000000000000000000000000000000REP       REP State Senator, Dist 31                              Stormy Bradley                        Precinct 101                                           01 
00200020002000059000001000023000035000000000000000000000000000000000000000000000000000000000000000000REP       REP State Senator, Dist 31                              Stormy Bradley                        Precinct 201                                           01 
00200020003000075000003000045000027000000000000000000000000000000000000000000000000000000000000000000REP       REP State Senator, Dist 31                              Stormy Bradley                        Precinct 202                                           01 
00200020004000003000000000000000003000000000000000000000000000000000000000000000000000000000000000000REP       REP State Senator, Dist 31                              Stormy Bradley                        Precinct 203                                           01 
00200020005000046000002000025000019000000000000000000000000000000000000000000000000000000000000000000REP       REP State Senator, Dist 31                              Stormy Bradley                        Precinct 301                                           01 
00200020006000049000000000020000029000000000000000000000000000000000000000000000000000000000000000000REP       REP State Senator, Dist 31                              Stormy Bradley                        Precinct 401                                           01 
00200020007000000000000000000000000000000000000000000000000000000000000000000000000000000000000000000REP       REP State Senator, Dist 31                              Stormy Bradley                        Precinct 402                                           01 
00200030001000079000001000036000042000000000000000000000000000000000000000000000000000000000000000000REP       REP State Senator, Dist 31                              Tim Reid                              Precinct 101                                           01 
00200030002000117000004000063000050000000000000000000000000000000000000000000000000000000000000000000REP       REP State Senator, Dist 31                              Tim Reid                              Precinct 201                                           01 
00200030003000149000007000077000065000000000000000000000000000000000000000000000000000000000000000000REP       REP State Senator, Dist 31                              Tim Reid                              Precinct 202                                           01 
00200030004000002000000000000000002000000000000000000000000000000000000000000000000000000000000000000REP       REP State Senator, Dist 31                              Tim Reid                              Precinct 203                                           01 
00200030005000044000001000021000022000000000000000000000000000000000000000000000000000000000000000000REP       REP State Senator, Dist 31                              Tim Reid                              Precinct 301                                           01 
00200030006000054000001000021000032000000000000000000000000000000000000000000000000000000000000000000REP       REP State Senator, Dist 31                              Tim Reid                              Precinct 401                                           01 
00200030007000007000000000001000006000000000000000000000000000000000000000000000000000000000000000000REP       REP State Senator, Dist 31                              Tim Reid                              Precinct 402                                           01 
00200040001000055000002000026000027000000000000000000000000000000000000000000000000000000000000000000REP       REP State Senator, Dist 31                              Jesse Quackenbush                     Precinct 101                                           01 
00200040002000043000003000023000017000000000000000000000000000000000000000000000000000000000000000000REP       REP State Senator, Dist 31                              Jesse Quackenbush                     Precinct 201                                           01 
00200040003000046000002000028000016000000000000000000000000000000000000000000000000000000000000000000REP       REP State Senator, Dist 31                              Jesse Quackenbush                     Precinct 202                                           01 
00200040004000001000000000000000001000000000000000000000000000000000000000000000000000000000000000000REP       REP State Senator, Dist 31                              Jesse Quackenbush                     Precinct 203                                           01 
00200040005000038000004000017000017000000000000000000000000000000000000000000000000000000000000000000REP       REP State Senator, Dist 31                              Jesse Quackenbush                     Precinct 301                                           01 
00200040006000048000002000014000032000000000000000000000000000000000000000000000000000000000000000000REP       REP State Senator, Dist 31                              Jesse Quackenbush                     Precinct 401                                           01 
00200040007000000000000000000000000000000000000000000000000000000000000000000000000000000000000000000REP       REP State Senator, Dist 31                              Jesse Quackenbush                     Precinct 402                                           01 
00210010001000360000008000168000184000000000000000000000000000000000000000000000000000000000000000000REP       REP State Rep, Dist 87                                  Four Price                            Precinct 101                                           01 
00210010002000416000026000211000179000000000000000000000000000000000000000000000000000000000000000000REP       REP State Rep, Dist 87                                  Four Price                            Precinct 201                                           01 
00210010003000535000017000319000199000000000000000000000000000000000000000000000000000000000000000000REP       REP State Rep, Dist 87                                  Four Price                            Precinct 202                                           01 
00210010004000019000000000001000018000000000000000000000000000000000000000000000000000000000000000000REP       REP State Rep, Dist 87                                  Four Price                            Precinct 203                                           01 
00210010005000256000017000129000110000000000000000000000000000000000000000000000000000000000000000000REP       REP State Rep, Dist 87                                  Four Price                            Precinct 301                                           01 
00210010006000310000008000120000182000000000000000000000000000000000000000000000000000000000000000000REP       REP State Rep, Dist 87                                  Four Price                            Precinct 401                                           01 
