00010010001002477000000000000000000000000000000000000000000000000000000000000000000000000000000000000          REGISTERED VOTERS - TOTAL                               REGISTERED VOTERS - TOTAL             Precinct 101                                           00 
00010010002001438000000000000000000000000000000000000000000000000000000000000000000000000000000000000          REGISTERED VOTERS - TOTAL                               REGISTERED VOTERS - TOTAL             Precinct 201                                           00 
00010010003001661000000000000000000000000000000000000000000000000000000000000000000000000000000000000          REGISTERED VOTERS - TOTAL                               REGISTERED VOTERS - TOTAL             Precinct 202                                           00 
00010010004000072000000000000000000000000000000000000000000000000000000000000000000000000000000000000          REGISTERED VOTERS - TOTAL                               REGISTERED VOTERS - TOTAL             Precinct 203                                           00 
00010010005002257000000000000000000000000000000000000000000000000000000000000000000000000000000000000          REGISTERED VOTERS - TOTAL                               REGISTERED VOTERS - TOTAL             Precinct 301                                           00 
00010010006001175000000000000000000000000000000000000000000000000000000000000000000000000000000000000          REGISTERED VOTERS - TOTAL                               REGISTERED VOTERS - TOTAL             Precinct 401                                           00 
00010010007000727000000000000000000000000000000000000000000000000000000000000000000000000000000000000          REGISTERED VOTERS - TOTAL                               REGISTERED VOTERS - TOTAL             Precinct 402                                           00 
00040010001000027000000000009000018000000000000000000000000000000000000000000000000000000000000000000DEM       BALLOTS CAST - Democratic Party                         BALLOTS CAST - Democratic Party       Precinct 101                                           00 
00040010002000016000003000002000011000000000000000000000000000000000000000000000000000000000000000000DEM       BALLOTS CAST - Democratic Party                         BALLOTS CAST - Democratic Party       Precinct 201                                           00 
00040010003000008000002000004000002000000000000000000000000000000000000000000000000000000000000000000DEM       BALLOTS CAST - Democratic Party                         BALLOTS CAST - Democratic Party       Precinct 202                                           00 
00040010004000001000000000000000001000000000000000000000000000000000000000000000000000000000000000000DEM       BALLOTS CAST - Democratic Party                         BALLOTS CAST - Democratic Party       Precinct 203                                           00 
00040010005000020000006000004000010000000000000000000000000000000000000000000000000000000000000000000DEM       BALLOTS CAST - Democratic Party                         BALLOTS CAST - Democratic Party       Precinct 301                                           00 
00040010006000011000000000003000008000000000000000000000000000000000000000000000000000000000000000000DEM       BALLOTS CAST - Democratic Party                         BALLOTS CAST - Democratic Party       Precinct 401                                           00 
00040010007000005000000000000000005000000000000000000000000000000000000000000000000000000000000000000DEM       BALLOTS CAST - Democratic Party                         BALLOTS CAST - Democratic Party       Precinct 402                                           00 
00050010001000024000000000007000017000000000000000000000000000000000000000000000000000000000000000000DEM       DEM US Rep, District 13                                 Kathleen Brown                        Precinct 101                                           01 
00050010002000013000002000002000009000000000000000000000000000000000000000000000000000000000000000000DEM       DEM US Rep, District 13                                 Kathleen Brown                        Precinct 201                                           01 
00050010003000008000002000004000002000000000000000000000000000000000000000000000000000000000000000000DEM       DEM US Rep, District 13                                 Kathleen Brown                        Precinct 202                                           01 
00050010004000001000000000000000001000000000000000000000000000000000000000000000000000000000000000000DEM       DEM US Rep, District 13                                 Kathleen Brown                        Precinct 203                                           01 
00050010005000018000006000004000008000000000000000000000000000000000000000000000000000000000000000000DEM       DEM US Rep, District 13                                 Kathleen Brown                        Precinct 301                                           01 
00050010006000009000000000003000006000000000000000000000000000000000000000000000000000000000000000000DEM       DEM US Rep, District 13                                 Kathleen Brown                        Precinct 401                                           01 
00050010007000004000000000000000004000000000000000000000000000000000000000000000000000000000000000000DEM       DEM US Rep, District 13                                 Kathleen Brown                        Precinct 402                                           01 
00060010001000002000000000001000001000000000000000000000000000000000000000000000000000000000000000000DEM       DEM Governor                                            Inocencio (Inno) Barrientez           Precinct 101                                           01 
00060010002000001000000000000000001000000000000000000000000000000000000000000000000000000000000000000DEM       DEM Governor                                            Inocencio (Inno) Barrientez           Precinct 201                                           01 
00060010003000000000000000000000000000000000000000000000000000000000000000000000000000000000000000000DEM       DEM Governor                                            Inocencio (Inno) Barrientez           Precinct 202                                           01 
00060010004000000000000000000000000000000000000000000000000000000000000000000000000000000000000000000DEM       DEM Governor                                            Inocencio (Inno) Barrientez           Precinct 203                                           01 
00060010005000001000000000000000001000000000000000000000000000000000000000000000000000000000000000000DEM       DEM Governor                                            Inocencio (Inno) Barrientez           Precinct 301                                           01 
00060010006000001000000000000000001000000000000000000000000000000000000000000000000000000000000000000DEM       DEM Governor                                            Inocencio (Inno) Barrientez           Precinct 401                                           01 
00060010007000000000000000000000000000000000000000000000000000000000000000000000000000000000000000000DEM       DEM Governor                                            Inocencio (Inno) Barrientez           Precinct 402                                           01 
00060020001000018000000000005000013000000000000000000000000000000000000000000000000000000000000000000DEM       DEM Governor                                            Beto O'Rourke                         Precinct 101                                           01 
00060020002000015000003000002000010000000000000000000000000000000000000000000000000000000000000000000DEM       DEM Governor                                            Beto O'Rourke                         Precinct 201                                           01 
00060020003000007000002000004000001000000000000000000000000000000000000000000000000000000000000000000DEM       DEM Governor                                            Beto O'Rourke                         Precinct 202                                           01 
00060020004000001000000000000000001000000000000000000000000000000000000000000000000000000000000000000DEM       DEM Governor                                            Beto O'Rourke                         Precinct 203                                           01 
00060020005000017000006000004000007000000000000000000000000000000000000000000000000000000000000000000DEM       DEM Governor                                            Beto O'Rourke                         Precinct 301                                           01 
00060020006000008000000000002000006000000000000000000000000000000000000000000000000000000000000000000DEM       DEM Governor                                            Beto O'Rourke                         Precinct 401                                           01 
00060020007000005000000000000000005000000000000000000000000000000000000000000000000000000000000000000DEM       DEM Governor                                            Beto O'Rourke                         Precinct 402                                           01 
00060030001000000000000000000000000000000000000000000000000000000000000000000000000000000000000000000DEM       DEM Governor                                            Rich Wakeland                         Precinct 101                                           01 
00060030002000000000000000000000000000000000000000000000000000000000000000000000000000000000000000000DEM       DEM Governor                                            Rich Wakeland                         Precinct 201                                           01 
00060030003000000000000000000000000000000000000000000000000000000000000000000000000000000000000000000DEM       DEM Governor                                            Rich Wakeland                         Precinct 202                                           01 
00060030004000000000000000000000000000000000000000000000000000000000000000000000000000000000000000000DEM       DEM Governor                                            Rich Wakeland                         Precinct 203                                           01 
00060030005000000000000000000000000000000000000000000000000000000000000000000000000000000000000000000DEM       DEM Governor                                            Rich Wakeland                         Precinct 301                                           01 
00060030006000000000000000000000000000000000000000000000000000000000000000000000000000000000000000000DEM       DEM Governor                                            Rich Wakeland                         Precinct 401                                           01 
00060030007000000000000000000000000000000000000000000000000000000000000000000000000000000000000000000DEM       DEM Governor                                            Rich Wakeland                         Precinct 402                                           01 
00060040001000003000000000001000002000000000000000000000000000000000000000000000000000000000000000000DEM       DEM Governor                                            Michael Cooper                        Precinct 101                                           01 
00060040002000000000000000000000000000000000000000000000000000000000000000000000000000000000000000000DEM       DEM Governor                                            Michael Cooper                        Precinct 201                                           01 
00060040003000000000000000000000000000000000000000000000000000000000000000000000000000000000000000000DEM       DEM Governor                                            Michael Cooper                        Precinct 202                                           01 
00060040004000000000000000000000000000000000000000000000000000000000000000000000000000000000000000000DEM       DEM Governor                                            Michael Cooper                        Precinct 203                                           01 
00060040005000000000000000000000000000000000000000000000000000000000000000000000000000000000000000000DEM       DEM Governor                                            Michael Cooper                        Precinct 301                                           01 
00060040006000002000000000001000001000000000000000000000000000000000000000000000000000000000000000000DEM       DEM Governor                                            Michael Cooper                        Precinct 401                                           01 
00060040007000000000000000000000000000000000000000000000000000000000000000000000000000000000000000000DEM       DEM Governor                                            Michael Cooper                        Precinct 402                                           01 
00060050001000004000000000002000002000000000000000000000000000000000000000000000000000000000000000000DEM       DEM Governor                                            Joy Diaz                              Precinct 101                                           01 
00060050002000000000000000000000000000000000000000000000000000000000000000000000000000000000000000000DEM       DEM Governor                                            Joy Diaz                              Precinct 201                                           01 
00060050003000000000000000000000000000000000000000000000000000000000000000000000000000000000000000000DEM       DEM Governor                                            Joy Diaz                              Precinct 202                                           01 
00060050004000000000000000000000000000000000000000000000000000000000000000000000000000000000000000000DEM       DEM Governor                                            Joy Diaz                              Precinct 203                                           01 
00060050005000001000000000000000001000000000000000000000000000000000000000000000000000000000000000000DEM       DEM Governor                                            Joy Diaz                              Precinct 301                                           01 
00060050006000000000000000000000000000000000000000000000000000000000000000000000000000000000000000000DEM       DEM Governor                                            Joy Diaz                              Precinct 401                                           01 
00060050007000000000000000000000000000000000000000000000000000000000000000000000000000000000000000000DEM       DEM Governor                                            Joy Diaz                              Precinct 402                                           01 
00070010001000014000000000004000010000000000000000000000000000000000000000000000000000000000000000000DEM       DEM Lieutenant Governor                                 Carla Brailey                         Precinct 101                                           01 
00070010002000003000000000000000003000000000000000000000000000000000000000000000000000000000000000000DEM       DEM Lieutenant Governor                                 Carla Brailey                         Precinct 201                                           01 
00070010003000003000000000002000001000000000000000000000000000000000000000000000000000000000000000000DEM       DEM Lieutenant Governor                                 Carla Brailey                         Precinct 202                                           01 
00070010004000001000000000000000001000000000000000000000000000000000000000000000000000000000000000000DEM       DEM Lieutenant Governor                                 Carla Brailey                         Precinct 203                                           01 
00070010005000009000004000002000003000000000000000000000000000000000000000000000000000000000000000000DEM       DEM Lieutenant Governor                                 Carla Brailey                         Precinct 301                                           01 
00070010006000002000000000001000001000000000000000000000000000000000000000000000000000000000000000000DEM       DEM Lieutenant Governor                                 Carla Brailey                         Precinct 401                                           01 
00070010007000003000000000000000003000000000000000000000000000000000000000000000000000000000000000000DEM       DEM Lieutenant Governor                                 Carla Brailey                         Precinct 402                                           01 
00070020001000005000000000002000003000000000000000000000000000000000000000000000000000000000000000000DEM       DEM Lieutenant Governor                                 Michelle Beckley                      Precinct 101                                           01 
00070020002000010000003000001000006000000000000000000000000000000000000000000000000000000000000000000DEM       DEM Lieutenant Governor                                 Michelle Beckley                      Precinct 201                                           01 
00070020003000001000001000000000000000000000000000000000000000000000000000000000000000000000000000000DEM       DEM Lieutenant Governor                                 Michelle Beckley                      Precinct 202                                           01 
00070020004000000000000000000000000000000000000000000000000000000000000000000000000000000000000000000DEM       DEM Lieutenant Governor                                 Michelle Beckley                      Precinct 203                                           01 
00070020005000004000001000001000002000000000000000000000000000000000000000000000000000000000000000000DEM       DEM Lieutenant Governor                                 Michelle Beckley                      Precinct 301                                           01 
00070020006000005000000000002000003000000000000000000000000000000000000000000000000000000000000000000DEM       DEM Lieutenant Governor                                 Michelle Beckley                      Precinct 401                                           01 
00070020007000001000000000000000001000000000000000000000000000000000000000000000000000000000000000000DEM       DEM Lieutenant Governor                                 Michelle Beckley                      Precinct 402                                           01 
00070030001000006000000000002000004000000000000000000000000000000000000000000000000000000000000000000DEM       DEM Lieutenant Governor                                 Mike Collier                          Precinct 101                                           01 
00070030002000003000000000001000002000000000000000000000000000000000000000000000000000000000000000000DEM       DEM Lieutenant Governor                                 Mike Collier                          Precinct 201                                           01 
00070030003000003000001000002000000000000000000000000000000000000000000000000000000000000000000000000DEM       DEM Lieutenant Governor                                 Mike Collier                          Precinct 202                                           01 
00070030004000000000000000000000000000000000000000000000000000000000000000000000000000000000000000000DEM       DEM Lieutenant Governor                                 Mike Collier                          Precinct 203                                           01 
00070030005000004000001000001000002000000000000000000000000000000000000000000000000000000000000000000DEM       DEM Lieutenant Governor                                 Mike Collier                          Precinct 301                                           01 
00070030006000001000000000000000001000000000000000000000000000000000000000000000000000000000000000000DEM       DEM Lieutenant Governor                                 Mike Collier                          Precinct 401                                           01 
00070030007000001000000000000000001000000000000000000000000000000000000000000000000000000000000000000DEM       DEM Lieutenant Governor                                 Mike Collier                          Precinct 402                                           01 
00080010001000005000000000002000003000000000000000000000000000000000000000000000000000000000000000000DEM       DEM Attorney General                                    S. "TBONE" Raynor                     Precinct 101                                           01 
00080010002000005000000000001000004000000000000000000000000000000000000000000000000000000000000000000DEM       DEM Attorney General                                    S. "TBONE" Raynor                     Precinct 201                                           01 
00080010003000000000000000000000000000000000000000000000000000000000000000000000000000000000000000000DEM       DEM Attorney General                                    S. "TBONE" Raynor                     Precinct 202                                           01 
00080010004000001000000000000000001000000000000000000000000000000000000000000000000000000000000000000DEM       DEM Attorney General                                    S. "TBONE" Raynor                     Precinct 203                                           01 
00080010005000001000001000000000000000000000000000000000000000000000000000000000000000000000000000000DEM       DEM Attorney General                                    S. "TBONE" Raynor                     Precinct 301                                           01 
00080010006000000000000000000000000000000000000000000000000000000000000000000000000000000000000000000DEM       DEM Attorney General                                    S. "TBONE" Raynor                     Precinct 401                                           01 
00080010007000001000000000000000001000000000000000000000000000000000000000000000000000000000000000000DEM       DEM Attorney General                                    S. "TBONE" Raynor                     Precinct 402                                           01 
00080020001000001000000000001000000000000000000000000000000000000000000000000000000000000000000000000DEM       DEM Attorney General                                    Lee Merritt                           Precinct 101                                           01 
00080020002000004000002000000000002000000000000000000000000000000000000000000000000000000000000000000DEM       DEM Attorney General                                    Lee Merritt                           Precinct 201                                           01 
00080020003000001000000000001000000000000000000000000000000000000000000000000000000000000000000000000DEM       DEM Attorney General                                    Lee Merritt                           Precinct 202                                           01 
00080020004000000000000000000000000000000000000000000000000000000000000000000000000000000000000000000DEM       DEM Attorney General                                    Lee Merritt                           Precinct 203                                           01 
00080020005000001000001000000000000000000000000000000000000000000000000000000000000000000000000000000DEM       DEM Attorney General                                    Lee Merritt                           Precinct 301                                           01 
00080020006000000000000000000000000000000000000000000000000000000000000000000000000000000000000000000DEM       DEM Attorney General                                    Lee Merritt                           Precinct 401                                           01 
00080020007000002000000000000000002000000000000000000000000000000000000000000000000000000000000000000DEM       DEM Attorney General                                    Lee Merritt                           Precinct 402                                           01 
00080030001000006000000000002000004000000000000000000000000000000000000000000000000000000000000000000DEM       DEM Attorney General                                    Mike Fields                           Precinct 101                                           01 
00080030002000002000000000000000002000000000000000000000000000000000000000000000000000000000000000000DEM       DEM Attorney General                                    Mike Fields                           Precinct 201                                           01 
00080030003000002000000000001000001000000000000000000000000000000000000000000000000000000000000000000DEM       DEM Attorney General                                    Mike Fields                           Precinct 202                                           01 
00080030004000000000000000000000000000000000000000000000000000000000000000000000000000000000000000000DEM       DEM Attorney General                                    Mike Fields                           Precinct 203                                           01 
00080030005000005000002000001000002000000000000000000000000000000000000000000000000000000000000000000DEM       DEM Attorney General                                    Mike Fields                           Precinct 301                                           01 
00080030006000003000000000001000002000000000000000000000000000000000000000000000000000000000000000000DEM       DEM Attorney General                                    Mike Fields                           Precinct 401                                           01 
00080030007000000000000000000000000000000000000000000000000000000000000000000000000000000000000000000DEM       DEM Attorney General                                    Mike Fields                           Precinct 402                                           01 
00080040001000012000000000002000010000000000000000000000000000000000000000000000000000000000000000000DEM       DEM Attorney General                                    Rochelle Mercedes Garza               Precinct 101                                           01 
00080040002000004000001000001000002000000000000000000000000000000000000000000000000000000000000000000DEM       DEM Attorney General                                    Rochelle Mercedes Garza               Precinct 201                                           01 
00080040003000003000001000002000000000000000000000000000000000000000000000000000000000000000000000000DEM       DEM Attorney General                                    Rochelle Mercedes Garza               Precinct 202                                           01 
00080040004000000000000000000000000000000000000000000000000000000000000000000000000000000000000000000DEM       DEM Attorney General                                    Rochelle Mercedes Garza               Precinct 203                                           01 
00080040005000010000002000003000005000000000000000000000000000000000000000000000000000000000000000000DEM       DEM Attorney General                                    Rochelle Mercedes Garza               Precinct 301                                           01 
00080040006000005000000000001000004000000000000000000000000000000000000000000000000000000000000000000DEM       DEM Attorney General                                    Rochelle Mercedes Garza               Precinct 401                                           01 
00080040007000002000000000000000002000000000000000000000000000000000000000000000000000000000000000000DEM       DEM Attorney General                                    Rochelle Mercedes Garza               Precinct 402                                           01 
00080050001000002000000000001000001000000000000000000000000000000000000000000000000000000000000000000DEM       DEM Attorney General                                    Joe Jaworski                          Precinct 101                                           01 
00080050002000000000000000000000000000000000000000000000000000000000000000000000000000000000000000000DEM       DEM Attorney General                                    Joe Jaworski                          Precinct 201                                           01 
00080050003000001000001000000000000000000000000000000000000000000000000000000000000000000000000000000DEM       DEM Attorney General                                    Joe Jaworski                          Precinct 202                                           01 
00080050004000000000000000000000000000000000000000000000000000000000000000000000000000000000000000000DEM       DEM Attorney General                                    Joe Jaworski                          Precinct 203                                           01 
00080050005000001000000000000000001000000000000000000000000000000000000000000000000000000000000000000DEM       DEM Attorney General                                    Joe Jaworski                          Precinct 301                                           01 
00080050006000001000000000001000000000000000000000000000000000000000000000000000000000000000000000000DEM       DEM Attorney General                                    Joe Jaworski                          Precinct 401                                           01 
00080050007000000000000000000000000000000000000000000000000000000000000000000000000000000000000000000DEM       DEM Attorney General                                    Joe Jaworski                          Precinct 402                                           01 
00090010001000003000000000002000001000000000000000000000000000000000000000000000000000000000000000000DEM       DEM Comptroller of Public Accounts                      Tim Mahoney                           Precinct 101                                           01 
00090010002000005000002000001000002000000000000000000000000000000000000000000000000000000000000000000DEM       DEM Comptroller of Public Accounts                      Tim Mahoney                           Precinct 201                                           01 
00090010003000005000001000003000001000000000000000000000000000000000000000000000000000000000000000000DEM       DEM Comptroller of Public Accounts                      Tim Mahoney                           Precinct 202                                           01 
00090010004000000000000000000000000000000000000000000000000000000000000000000000000000000000000000000DEM       DEM Comptroller of Public Accounts                      Tim Mahoney                           Precinct 203                                           01 
00090010005000003000000000000000003000000000000000000000000000000000000000000000000000000000000000000DEM       DEM Comptroller of Public Accounts                      Tim Mahoney                           Precinct 301                                           01 
00090010006000002000000000001000001000000000000000000000000000000000000000000000000000000000000000000DEM       DEM Comptroller of Public Accounts                      Tim Mahoney                           Precinct 401                                           01 
00090010007000001000000000000000001000000000000000000000000000000000000000000000000000000000000000000DEM       DEM Comptroller of Public Accounts                      Tim Mahoney                           Precinct 402                                           01 
00090020001000004000000000001000003000000000000000000000000000000000000000000000000000000000000000000DEM       DEM Comptroller of Public Accounts                      Janet T. Dudding                      Precinct 101                                           01 
00090020002000005000000000000000005000000000000000000000000000000000000000000000000000000000000000000DEM       DEM Comptroller of Public Accounts                      Janet T. Dudding                      Precinct 201                                           01 
00090020003000002000001000001000000000000000000000000000000000000000000000000000000000000000000000000DEM       DEM Comptroller of Public Accounts                      Janet T. Dudding                      Precinct 202                                           01 
00090020004000001000000000000000001000000000000000000000000000000000000000000000000000000000000000000DEM       DEM Comptroller of Public Accounts                      Janet T. Dudding                      Precinct 203                                           01 
00090020005000007000004000001000002000000000000000000000000000000000000000000000000000000000000000000DEM       DEM Comptroller of Public Accounts                      Janet T. Dudding                      Precinct 301                                           01 
00090020006000003000000000001000002000000000000000000000000000000000000000000000000000000000000000000DEM       DEM Comptroller of Public Accounts                      Janet T. Dudding                      Precinct 401                                           01 
00090020007000000000000000000000000000000000000000000000000000000000000000000000000000000000000000000DEM       DEM Comptroller of Public Accounts                      Janet T. Dudding                      Precinct 402                                           01 
00090030001000018000000000005000013000000000000000000000000000000000000000000000000000000000000000000DEM       DEM Comptroller of Public Accounts                      Angel Luis Vega                       Precinct 101                                           01 
00090030002000006000001000001000004000000000000000000000000000000000000000000000000000000000000000000DEM       DEM Comptroller of Public Accounts                      Angel Luis Vega                       Precinct 201                                           01 
00090030003000000000000000000000000000000000000000000000000000000000000000000000000000000000000000000DEM       DEM Comptroller of Public Accounts                      Angel Luis Vega                       Precinct 202                                           01 
00090030004000000000000000000000000000000000000000000000000000000000000000000000000000000000000000000DEM       DEM Comptroller of Public Accounts                      Angel Luis Vega                       Precinct 203                                           01 
00090030005000008000002000003000003000000000000000000000000000000000000000000000000000000000000000000DEM       DEM Comptroller of Public Accounts                      Angel Luis Vega                       Precinct 301                                           01 
00090030006000004000000000001000003000000000000000000000000000000000000000000000000000000000000000000DEM       DEM Comptroller of Public Accounts                      Angel Luis Vega                       Precinct 401                                           01 
00090030007000004000000000000000004000000000000000000000000000000000000000000000000000000000000000000DEM       DEM Comptroller of Public Accounts                      Angel Luis Vega                       Precinct 402                                           01 
00100010001000015000000000003000012000000000000000000000000000000000000000000000000000000000000000000DEM       DEM Comm General Land Office                            Sandragrace Martinez                  Precinct 101                                           01 
00100010002000005000000000001000004000000000000000000000000000000000000000000000000000000000000000000DEM       DEM Comm General Land Office                            Sandragrace Martinez                  Precinct 201                                           01 
00100010003000002000000000001000001000000000000000000000000000000000000000000000000000000000000000000DEM       DEM Comm General Land Office                            Sandragrace Martinez                  Precinct 202                                           01 
00100010004000000000000000000000000000000000000000000000000000000000000000000000000000000000000000000DEM       DEM Comm General Land Office                            Sandragrace Martinez                  Precinct 203                                           01 
00100010005000010000003000001000006000000000000000000000000000000000000000000000000000000000000000000DEM       DEM Comm General Land Office                            Sandragrace Martinez                  Precinct 301                                           01 
00100010006000003000000000000000003000000000000000000000000000000000000000000000000000000000000000000DEM       DEM Comm General Land Office                            Sandragrace Martinez                  Precinct 401                                           01 
00100010007000003000000000000000003000000000000000000000000000000000000000000000000000000000000000000DEM       DEM Comm General Land Office                            Sandragrace Martinez                  Precinct 402                                           01 
00100020001000002000000000000000002000000000000000000000000000000000000000000000000000000000000000000DEM       DEM Comm General Land Office                            Jinny Suh                             Precinct 101                                           01 
00100020002000003000000000001000002000000000000000000000000000000000000000000000000000000000000000000DEM       DEM Comm General Land Office                            Jinny Suh                             Precinct 201                                           01 
00100020003000002000001000001000000000000000000000000000000000000000000000000000000000000000000000000DEM       DEM Comm General Land Office                            Jinny Suh                             Precinct 202                                           01 
00100020004000000000000000000000000000000000000000000000000000000000000000000000000000000000000000000DEM       DEM Comm General Land Office                            Jinny Suh                             Precinct 203                                           01 
00100020005000004000002000002000000000000000000000000000000000000000000000000000000000000000000000000DEM       DEM Comm General Land Office                            Jinny Suh                             Precinct 301                                           01 
00100020006000003000000000001000002000000000000000000000000000000000000000000000000000000000000000000DEM       DEM Comm General Land Office                            Jinny Suh                             Precinct 401                                           01 
00100020007000001000000000000000001000000000000000000000000000000000000000000000000000000000000000000DEM       DEM Comm General Land Office                            Jinny Suh                             Precinct 402                                           01 
00100030001000007000000000004000003000000000000000000000000000000000000000000000000000000000000000000DEM       DEM Comm General Land Office                            Michael Lange                         Precinct 101                                           01 
00100030002000007000003000000000004000000000000000000000000000000000000000000000000000000000000000000DEM       DEM Comm General Land Office                            Michael Lange                         Precinct 201                                           01 
00100030003000002000000000002000000000000000000000000000000000000000000000000000000000000000000000000DEM       DEM Comm General Land Office                            Michael Lange                         Precinct 202                                           01 
00100030004000001000000000000000001000000000000000000000000000000000000000000000000000000000000000000DEM       DEM Comm General Land Office                            Michael Lange                         Precinct 203                                           01 
00100030005000003000000000001000002000000000000000000000000000000000000000000000000000000000000000000DEM       DEM Comm General Land Office                            Michael Lange                         Precinct 301                                           01 
00100030006000001000000000001000000000000000000000000000000000000000000000000000000000000000000000000DEM       DEM Comm General Land Office                            Michael Lange                         Precinct 401                                           01 
00100030007000000000000000000000000000000000000000000000000000000000000000000000000000000000000000000DEM       DEM Comm General Land Office                            Michael Lange                         Precinct 402                                           01 
00100040001000001000000000001000000000000000000000000000000000000000000000000000000000000000000000000DEM       DEM Comm General Land Office                            Jay Kleberg                           Precinct 101                                           01 
00100040002000000000000000000000000000000000000000000000000000000000000000000000000000000000000000000DEM       DEM Comm General Land Office                            Jay Kleberg                           Precinct 201                                           01 
00100040003000001000001000000000000000000000000000000000000000000000000000000000000000000000000000000DEM       DEM Comm General Land Office                            Jay Kleberg                           Precinct 202                                           01 
00100040004000000000000000000000000000000000000000000000000000000000000000000000000000000000000000000DEM       DEM Comm General Land Office                            Jay Kleberg                           Precinct 203                                           01 
00100040005000002000001000000000001000000000000000000000000000000000000000000000000000000000000000000DEM       DEM Comm General Land Office                            Jay Kleberg                           Precinct 301                                           01 
00100040006000000000000000000000000000000000000000000000000000000000000000000000000000000000000000000DEM       DEM Comm General Land Office                            Jay Kleberg                           Precinct 401                                           01 
00100040007000001000000000000000001000000000000000000000000000000000000000000000000000000000000000000DEM       DEM Comm General Land Office                            Jay Kleberg                           Precinct 402                                           01 
00110010001000007000000000002000005000000000000000000000000000000000000000000000000000000000000000000DEM       DEM Commissioner of Agriculture                         Ed Ireson                             Precinct 101                                           01 
00110010002000004000002000000000002000000000000000000000000000000000000000000000000000000000000000000DEM       DEM Commissioner of Agriculture                         Ed Ireson                             Precinct 201                                           01 
00110010003000005000001000003000001000000000000000000000000000000000000000000000000000000000000000000DEM       DEM Commissioner of Agriculture                         Ed Ireson                             Precinct 202                                           01 
00110010004000000000000000000000000000000000000000000000000000000000000000000000000000000000000000000DEM       DEM Commissioner of Agriculture                         Ed Ireson                             Precinct 203                                           01 
00110010005000003000000000000000003000000000000000000000000000000000000000000000000000000000000000000DEM       DEM Commissioner of Agriculture                         Ed Ireson                             Precinct 301                                           01 
00110010006000001000000000000000001000000000000000000000000000000000000000000000000000000000000000000DEM       DEM Commissioner of Agriculture                         Ed Ireson                             Precinct 401                                           01 
00110010007000002000000000000000002000000000000000000000000000000000000000000000000000000000000000000DEM       DEM Commissioner of Agriculture                         Ed Ireson                             Precinct 402                                           01 
00110020001000017000000000006000011000000000000000000000000000000000000000000000000000000000000000000DEM       DEM Commissioner of Agriculture                         Susan Hays                            Precinct 101                                           01 
00110020002000011000001000002000008000000000000000000000000000000000000000000000000000000000000000000DEM       DEM Commissioner of Agriculture                         Susan Hays                            Precinct 201                                           01 
00110020003000002000001000001000000000000000000000000000000000000000000000000000000000000000000000000DEM       DEM Commissioner of Agriculture                         Susan Hays                            Precinct 202                                           01 
00110020004000001000000000000000001000000000000000000000000000000000000000000000000000000000000000000DEM       DEM Commissioner of Agriculture                         Susan Hays                            Precinct 203                                           01 
00110020005000015000006000004000005000000000000000000000000000000000000000000000000000000000000000000DEM       DEM Commissioner of Agriculture                         Susan Hays                            Precinct 301                                           01 
00110020006000007000000000003000004000000000000000000000000000000000000000000000000000000000000000000DEM       DEM Commissioner of Agriculture                         Susan Hays                            Precinct 401                                           01 
00110020007000002000000000000000002000000000000000000000000000000000000000000000000000000000000000000DEM       DEM Commissioner of Agriculture                         Susan Hays                            Precinct 402                                           01 
00120010001000022000000000007000015000000000000000000000000000000000000000000000000000000000000000000DEM       DEM Railroad Commissioner                               Luke Warford                          Precinct 101                                           01 
00120010002000014000002000002000010000000000000000000000000000000000000000000000000000000000000000000DEM       DEM Railroad Commissioner                               Luke Warford                          Precinct 201                                           01 
00120010003000007000002000004000001000000000000000000000000000000000000000000000000000000000000000000DEM       DEM Railroad Commissioner                               Luke Warford                          Precinct 202                                           01 
00120010004000001000000000000000001000000000000000000000000000000000000000000000000000000000000000000DEM       DEM Railroad Commissioner                               Luke Warford                          Precinct 203                                           01 
00120010005000018000006000004000008000000000000000000000000000000000000000000000000000000000000000000DEM       DEM Railroad Commissioner                               Luke Warford                          Precinct 301                                           01 
00120010006000005000000000001000004000000000000000000000000000000000000000000000000000000000000000000DEM       DEM Railroad Commissioner                               Luke Warford                          Precinct 401                                           01 
00120010007000005000000000000000005000000000000000000000000000000000000000000000000000000000000000000DEM       DEM Railroad Commissioner                               Luke Warford                          Precinct 402                                           01 
00130010001000025000000000008000017000000000000000000000000000000000000000000000000000000000000000000DEM       DEM Justice, Supreme Court, Pl 3                        Erin A Nowell                         Precinct 101                                           01 
00130010002000013000002000002000009000000000000000000000000000000000000000000000000000000000000000000DEM       DEM Justice, Supreme Court, Pl 3                        Erin A Nowell                         Precinct 201                                           01 
00130010003000007000002000004000001000000000000000000000000000000000000000000000000000000000000000000DEM       DEM Justice, Supreme Court, Pl 3                        Erin A Nowell                         Precinct 202                                           01 
00130010004000001000000000000000001000000000000000000000000000000000000000000000000000000000000000000DEM       DEM Justice, Supreme Court, Pl 3                        Erin A Nowell                         Precinct 203                                           01 
00130010005000018000006000004000008000000000000000000000000000000000000000000000000000000000000000000DEM       DEM Justice, Supreme Court, Pl 3                        Erin A Nowell                         Precinct 301                                           01 
00130010006000005000000000001000004000000000000000000000000000000000000000000000000000000000000000000DEM       DEM Justice, Supreme Court, Pl 3                        Erin A Nowell                         Precinct 401                                           01 
00130010007000004000000000000000004000000000000000000000000000000000000000000000000000000000000000000DEM       DEM Justice, Supreme Court, Pl 3                        Erin A Nowell                         Precinct 402                                           01 
00140010001000025000000000008000017000000000000000000000000000000000000000000000000000000000000000000DEM       DEM Justice, Supreme Court, Pl 5                        Amanda Reichek                        Precinct 101                                           01 
00140010002000013000002000002000009000000000000000000000000000000000000000000000000000000000000000000DEM       DEM Justice, Supreme Court, Pl 5                        Amanda Reichek                        Precinct 201                                           01 
00140010003000007000002000004000001000000000000000000000000000000000000000000000000000000000000000000DEM       DEM Justice, Supreme Court, Pl 5                        Amanda Reichek                        Precinct 202                                           01 
00140010004000001000000000000000001000000000000000000000000000000000000000000000000000000000000000000DEM       DEM Justice, Supreme Court, Pl 5                        Amanda Reichek                        Precinct 203                                           01 
00140010005000018000006000004000008000000000000000000000000000000000000000000000000000000000000000000DEM       DEM Justice, Supreme Court, Pl 5                        Amanda Reichek                        Precinct 301                                           01 
00140010006000007000000000002000005000000000000000000000000000000000000000000000000000000000000000000DEM       DEM Justice, Supreme Court, Pl 5                        Amanda Reichek                        Precinct 401                                           01 
00140010007000004000000000000000004000000000000000000000000000000000000000000000000000000000000000000DEM       DEM Justice, Supreme Court, Pl 5                        Amanda Reichek                        Precinct 402                                           01 
00150010001000024000000000008000016000000000000000000000000000000000000000000000000000000000000000000DEM       DEM Justice, Supreme Court, Pl 9                        Julia Maldonado                       Precinct 101                                           01 
00150010002000014000002000002000010000000000000000000000000000000000000000000000000000000000000000000DEM       DEM Justice, Supreme Court, Pl 9                        Julia Maldonado                       Precinct 201                                           01 
00150010003000008000002000004000002000000000000000000000000000000000000000000000000000000000000000000DEM       DEM Justice, Supreme Court, Pl 9                        Julia Maldonado                       Precinct 202                                           01 
00150010004000001000000000000000001000000000000000000000000000000000000000000000000000000000000000000DEM       DEM Justice, Supreme Court, Pl 9                        Julia Maldonado                       Precinct 203                                           01 
00150010005000018000006000004000008000000000000000000000000000000000000000000000000000000000000000000DEM       DEM Justice, Supreme Court, Pl 9                        Julia Maldonado                       Precinct 301                                           01 
00150010006000010000000000003000007000000000000000000000000000000000000000000000000000000000000000000DEM       DEM Justice, Supreme Court, Pl 9                        Julia Maldonado                       Precinct 401                                           01 
00150010007000004000000000000000004000000000000000000000000000000000000000000000000000000000000000000DEM       DEM Justice, Supreme Court, Pl 9                        Julia Maldonado                       Precinct 402                                           01 
00160010001000022000000000008000014000000000000000000000000000000000000000000000000000000000000000000DEM       DEM Judge, Ct of Crim App, Pl 5                         Dana Huffman                          Precinct 101                                           01 
00160010002000013000002000002000009000000000000000000000000000000000000000000000000000000000000000000DEM       DEM Judge, Ct of Crim App, Pl 5                         Dana Huffman                          Precinct 201                                           01 
00160010003000008000002000004000002000000000000000000000000000000000000000000000000000000000000000000DEM       DEM Judge, Ct of Crim App, Pl 5                         Dana Huffman                          Precinct 202                                           01 
00160010004000001000000000000000001000000000000000000000000000000000000000000000000000000000000000000DEM       DEM Judge, Ct of Crim App, Pl 5                         Dana Huffman                          Precinct 203                                           01 
00160010005000018000006000004000008000000000000000000000000000000000000000000000000000000000000000000DEM       DEM Judge, Ct of Crim App, Pl 5                         Dana Huffman                          Precinct 301                                           01 
00160010006000009000000000003000006000000000000000000000000000000000000000000000000000000000000000000DEM       DEM Judge, Ct of Crim App, Pl 5                         Dana Huffman                          Precinct 401                                           01 
00160010007000004000000000000000004000000000000000000000000000000000000000000000000000000000000000000DEM       DEM Judge, Ct of Crim App, Pl 5                         Dana Huffman                          Precinct 402                                           01 
00170010001000020000000000006000014000000000000000000000000000000000000000000000000000000000000000000DEM       DEM Judge, Ct of Crim App, Pl 6                         Robert Johnson                        Precinct 101                                           01 
00170010002000013000002000002000009000000000000000000000000000000000000000000000000000000000000000000DEM       DEM Judge, Ct of Crim App, Pl 6                         Robert Johnson                        Precinct 201                                           01 
00170010003000008000002000004000002000000000000000000000000000000000000000000000000000000000000000000DEM       DEM Judge, Ct of Crim App, Pl 6                         Robert Johnson                        Precinct 202                                           01 
00170010004000001000000000000000001000000000000000000000000000000000000000000000000000000000000000000DEM       DEM Judge, Ct of Crim App, Pl 6                         Robert Johnson                        Precinct 203                                           01 
00170010005000018000006000004000008000000000000000000000000000000000000000000000000000000000000000000DEM       DEM Judge, Ct of Crim App, Pl 6                         Robert Johnson                        Precinct 301                                           01 
00170010006000010000000000003000007000000000000000000000000000000000000000000000000000000000000000000DEM       DEM Judge, Ct of Crim App, Pl 6                         Robert Johnson                        Precinct 401                                           01 
00170010007000004000000000000000004000000000000000000000000000000000000000000000000000000000000000000DEM       DEM Judge, Ct of Crim App, Pl 6                         Robert Johnson                        Precinct 402                                           01 
