00010010001000955000000000000000000000000000000000000000000000000000000000000000000000000000000000000          REGISTERED VOTERS - TOTAL                               REGISTERED VOTERS - TOTAL             Precinct 1                                             00 
00010010002001059000000000000000000000000000000000000000000000000000000000000000000000000000000000000          REGISTERED VOTERS - TOTAL                               REGISTERED VOTERS - TOTAL             Precinct 2                                             00 
00010010003001725000000000000000000000000000000000000000000000000000000000000000000000000000000000000          REGISTERED VOTERS - TOTAL                               REGISTERED VOTERS - TOTAL             Precinct 3                                             00 
00010010004001814000000000000000000000000000000000000000000000000000000000000000000000000000000000000          REGISTERED VOTERS - TOTAL                               REGISTERED VOTERS - TOTAL             Precinct 4                                             00 
00010010005000145000000000000000000000000000000000000000000000000000000000000000000000000000000000000          REGISTERED VOTERS - TOTAL                               REGISTERED VOTERS - TOTAL             Precinct 5                                             00 
00010010006001062000000000000000000000000000000000000000000000000000000000000000000000000000000000000          REGISTERED VOTERS - TOTAL                               REGISTERED VOTERS - TOTAL             Precinct 6                                             00 
00010010007000292000000000000000000000000000000000000000000000000000000000000000000000000000000000000          REGISTERED VOTERS - TOTAL                               REGISTERED VOTERS - TOTAL             Precinct 7                                             00 
00010010008000164000000000000000000000000000000000000000000000000000000000000000000000000000000000000          REGISTERED VOTERS - TOTAL                               REGISTERED VOTERS - TOTAL             Precinct 8                                             00 
00010010009001435000000000000000000000000000000000000000000000000000000000000000000000000000000000000          REGISTERED VOTERS - TOTAL                               REGISTERED VOTERS - TOTAL             Precinct 9                                             00 
00020010001000000000000000000000000000000000000000000000000000000000000000000000000000000000000000000REP       REGISTERED VOTERS - Republican Party                    REGISTERED VOTERS - Republican Party  Precinct 1                                             00 
00020010002000000000000000000000000000000000000000000000000000000000000000000000000000000000000000000REP       REGISTERED VOTERS - Republican Party                    REGISTERED VOTERS - Republican Party  Precinct 2                                             00 
00020010003000000000000000000000000000000000000000000000000000000000000000000000000000000000000000000REP       REGISTERED VOTERS - Republican Party                    REGISTERED VOTERS - Republican Party  Precinct 3                                             00 
00020010004000000000000000000000000000000000000000000000000000000000000000000000000000000000000000000REP       REGISTERED VOTERS - Republican Party                    REGISTERED VOTERS - Republican Party  Precinct 4                                             00 
00020010005000000000000000000000000000000000000000000000000000000000000000000000000000000000000000000REP       REGISTERED VOTERS - Republican Party                    REGISTERED VOTERS - Republican Party  Precinct 5                                             00 
00020010006000000000000000000000000000000000000000000000000000000000000000000000000000000000000000000REP       REGISTERED VOTERS - Republican Party                    REGISTERED VOTERS - Republican Party  Precinct 6                                             00 
00020010007000000000000000000000000000000000000000000000000000000000000000000000000000000000000000000REP       REGISTERED VOTERS - Republican Party                    REGISTERED VOTERS - Republican Party  Precinct 7                                             00 
00020010008000000000000000000000000000000000000000000000000000000000000000000000000000000000000000000REP       REGISTERED VOTERS - Republican Party                    REGISTERED VOTERS - Republican Party  Precinct 8                                             00 
00020010009000000000000000000000000000000000000000000000000000000000000000000000000000000000000000000REP       REGISTERED VOTERS - Republican Party                    REGISTERED VOTERS - Republican Party  Precinct 9                                             00 
00030010001000000000000000000000000000000000000000000000000000000000000000000000000000000000000000000DEM       REGISTERED VOTERS - Democratic Party                    REGISTERED VOTERS - Democratic Party  Precinct 1                                             00 
00030010002000000000000000000000000000000000000000000000000000000000000000000000000000000000000000000DEM       REGISTERED VOTERS - Democratic Party                    REGISTERED VOTERS - Democratic Party  Precinct 2                                             00 
00030010003000000000000000000000000000000000000000000000000000000000000000000000000000000000000000000DEM       REGISTERED VOTERS - Democratic Party                    REGISTERED VOTERS - Democratic Party  Precinct 3                                             00 
00030010004000000000000000000000000000000000000000000000000000000000000000000000000000000000000000000DEM       REGISTERED VOTERS - Democratic Party                    REGISTERED VOTERS - Democratic Party  Precinct 4                                             00 
00030010005000000000000000000000000000000000000000000000000000000000000000000000000000000000000000000DEM       REGISTERED VOTERS - Democratic Party                    REGISTERED VOTERS - Democratic Party  Precinct 5                                             00 
00030010006000000000000000000000000000000000000000000000000000000000000000000000000000000000000000000DEM       REGISTERED VOTERS - Democratic Party                    REGISTERED VOTERS - Democratic Party  Precinct 6                                             00 
00030010007000000000000000000000000000000000000000000000000000000000000000000000000000000000000000000DEM       REGISTERED VOTERS - Democratic Party                    REGISTERED VOTERS - Democratic Party  Precinct 7                                             00 
00030010008000000000000000000000000000000000000000000000000000000000000000000000000000000000000000000DEM       REGISTERED VOTERS - Democratic Party                    REGISTERED VOTERS - Democratic Party  Precinct 8                                             00 
00030010009000000000000000000000000000000000000000000000000000000000000000000000000000000000000000000DEM       REGISTERED VOTERS - Democratic Party                    REGISTERED VOTERS - Democratic Party  Precinct 9                                             00 
00040010001000955000000000000000000000000000000000000000000000000000000000000000000000000000000000000NON       REGISTERED VOTERS - NONPARTISAN                         REGISTERED VOTERS - NONPARTISAN       Precinct 1                                             00 
00040010002001059000000000000000000000000000000000000000000000000000000000000000000000000000000000000NON       REGISTERED VOTERS - NONPARTISAN                         REGISTERED VOTERS - NONPARTISAN       Precinct 2                                             00 
00040010003001725000000000000000000000000000000000000000000000000000000000000000000000000000000000000NON       REGISTERED VOTERS - NONPARTISAN                         REGISTERED VOTERS - NONPARTISAN       Precinct 3                                             00 
00040010004001814000000000000000000000000000000000000000000000000000000000000000000000000000000000000NON       REGISTERED VOTERS - NONPARTISAN                         REGISTERED VOTERS - NONPARTISAN       Precinct 4                                             00 
00040010005000145000000000000000000000000000000000000000000000000000000000000000000000000000000000000NON       REGISTERED VOTERS - NONPARTISAN                         REGISTERED VOTERS - NONPARTISAN       Precinct 5                                             00 
00040010006001062000000000000000000000000000000000000000000000000000000000000000000000000000000000000NON       REGISTERED VOTERS - NONPARTISAN                         REGISTERED VOTERS - NONPARTISAN       Precinct 6                                             00 
00040010007000292000000000000000000000000000000000000000000000000000000000000000000000000000000000000NON       REGISTERED VOTERS - NONPARTISAN                         REGISTERED VOTERS - NONPARTISAN       Precinct 7                                             00 
00040010008000164000000000000000000000000000000000000000000000000000000000000000000000000000000000000NON       REGISTERED VOTERS - NONPARTISAN                         REGISTERED VOTERS - NONPARTISAN       Precinct 8                                             00 
00040010009001435000000000000000000000000000000000000000000000000000000000000000000000000000000000000NON       REGISTERED VOTERS - NONPARTISAN                         REGISTERED VOTERS - NONPARTISAN       Precinct 9                                             00 
00050010001000182000004000052000126000000000000000000000000000000000000000000000000000000000000000000          BALLOTS CAST - TOTAL                                    BALLOTS CAST - TOTAL                  Precinct 1                                             00 
00050010002000333000007000101000225000000000000000000000000000000000000000000000000000000000000000000          BALLOTS CAST - TOTAL                                    BALLOTS CAST - TOTAL                  Precinct 2                                             00 
00050010003000317000014000107000196000000000000000000000000000000000000000000000000000000000000000000          BALLOTS CAST - TOTAL                                    BALLOTS CAST - TOTAL                  Precinct 3                                             00 
00050010004000271000010000084000177000000000000000000000000000000000000000000000000000000000000000000          BALLOTS CAST - TOTAL                                    BALLOTS CAST - TOTAL                  Precinct 4                                             00 
00050010005000058000001000007000050000000000000000000000000000000000000000000000000000000000000000000          BALLOTS CAST - TOTAL                                    BALLOTS CAST - TOTAL                  Precinct 5                                             00 
00050010006000250000003000044000203000000000000000000000000000000000000000000000000000000000000000000          BALLOTS CAST - TOTAL                                    BALLOTS CAST - TOTAL                  Precinct 6                                             00 
00050010007000094000000000011000083000000000000000000000000000000000000000000000000000000000000000000          BALLOTS CAST - TOTAL                                    BALLOTS CAST - TOTAL                  Precinct 7                                             00 
00050010008000066000000000006000060000000000000000000000000000000000000000000000000000000000000000000          BALLOTS CAST - TOTAL                                    BALLOTS CAST - TOTAL                  Precinct 8                                             00 
00050010009000429000007000138000284000000000000000000000000000000000000000000000000000000000000000000          BALLOTS CAST - TOTAL                                    BALLOTS CAST - TOTAL                  Precinct 9                                             00 
00060010001000150000000000045000105000000000000000000000000000000000000000000000000000000000000000000REP       BALLOTS CAST - Republican Party                         BALLOTS CAST - Republican Party       Precinct 1                                             00 
00060010002000316000004000099000213000000000000000000000000000000000000000000000000000000000000000000REP       BALLOTS CAST - Republican Party                         BALLOTS CAST - Republican Party       Precinct 2                                             00 
00060010003000276000005000093000178000000000000000000000000000000000000000000000000000000000000000000REP       BALLOTS CAST - Republican Party                         BALLOTS CAST - Republican Party       Precinct 3                                             00 
00060010004000225000003000074000148000000000000000000000000000000000000000000000000000000000000000000REP       BALLOTS CAST - Republican Party                         BALLOTS CAST - Republican Party       Precinct 4                                             00 
00060010005000051000000000007000044000000000000000000000000000000000000000000000000000000000000000000REP       BALLOTS CAST - Republican Party                         BALLOTS CAST - Republican Party       Precinct 5                                             00 
00060010006000234000001000042000191000000000000000000000000000000000000000000000000000000000000000000REP       BALLOTS CAST - Republican Party                         BALLOTS CAST - Republican Party       Precinct 6                                             00 
00060010007000094000000000011000083000000000000000000000000000000000000000000000000000000000000000000REP       BALLOTS CAST - Republican Party                         BALLOTS CAST - Republican Party       Precinct 7                                             00 
00060010008000062000000000006000056000000000000000000000000000000000000000000000000000000000000000000REP       BALLOTS CAST - Republican Party                         BALLOTS CAST - Republican Party       Precinct 8                                             00 
00060010009000407000003000131000273000000000000000000000000000000000000000000000000000000000000000000REP       BALLOTS CAST - Republican Party                         BALLOTS CAST - Republican Party       Precinct 9                                             00 
00070010001000032000004000007000021000000000000000000000000000000000000000000000000000000000000000000DEM       BALLOTS CAST - Democratic Party                         BALLOTS CAST - Democratic Party       Precinct 1                                             00 
00070010002000017000003000002000012000000000000000000000000000000000000000000000000000000000000000000DEM       BALLOTS CAST - Democratic Party                         BALLOTS CAST - Democratic Party       Precinct 2                                             00 
00070010003000041000009000014000018000000000000000000000000000000000000000000000000000000000000000000DEM       BALLOTS CAST - Democratic Party                         BALLOTS CAST - Democratic Party       Precinct 3                                             00 
00070010004000046000007000010000029000000000000000000000000000000000000000000000000000000000000000000DEM       BALLOTS CAST - Democratic Party                         BALLOTS CAST - Democratic Party       Precinct 4                                             00 
00070010005000007000001000000000006000000000000000000000000000000000000000000000000000000000000000000DEM       BALLOTS CAST - Democratic Party                         BALLOTS CAST - Democratic Party       Precinct 5                                             00 
00070010006000016000002000002000012000000000000000000000000000000000000000000000000000000000000000000DEM       BALLOTS CAST - Democratic Party                         BALLOTS CAST - Democratic Party       Precinct 6                                             00 
00070010007000000000000000000000000000000000000000000000000000000000000000000000000000000000000000000DEM       BALLOTS CAST - Democratic Party                         BALLOTS CAST - Democratic Party       Precinct 7                                             00 
00070010008000004000000000000000004000000000000000000000000000000000000000000000000000000000000000000DEM       BALLOTS CAST - Democratic Party                         BALLOTS CAST - Democratic Party       Precinct 8                                             00 
00070010009000022000004000007000011000000000000000000000000000000000000000000000000000000000000000000DEM       BALLOTS CAST - Democratic Party                         BALLOTS CAST - Democratic Party       Precinct 9                                             00 
00080010001000000000000000000000000000000000000000000000000000000000000000000000000000000000000000000NON       BALLOTS CAST - NONPARTISAN                              BALLOTS CAST - NONPARTISAN            Precinct 1                                             00 
00080010002000000000000000000000000000000000000000000000000000000000000000000000000000000000000000000NON       BALLOTS CAST - NONPARTISAN                              BALLOTS CAST - NONPARTISAN            Precinct 2                                             00 
00080010003000000000000000000000000000000000000000000000000000000000000000000000000000000000000000000NON       BALLOTS CAST - NONPARTISAN                              BALLOTS CAST - NONPARTISAN            Precinct 3                                             00 
00080010004000000000000000000000000000000000000000000000000000000000000000000000000000000000000000000NON       BALLOTS CAST - NONPARTISAN                              BALLOTS CAST - NONPARTISAN            Precinct 4                                             00 
00080010005000000000000000000000000000000000000000000000000000000000000000000000000000000000000000000NON       BALLOTS CAST - NONPARTISAN                              BALLOTS CAST - NONPARTISAN            Precinct 5                                             00 
00080010006000000000000000000000000000000000000000000000000000000000000000000000000000000000000000000NON       BALLOTS CAST - NONPARTISAN                              BALLOTS CAST - NONPARTISAN            Precinct 6                                             00 
00080010007000000000000000000000000000000000000000000000000000000000000000000000000000000000000000000NON       BALLOTS CAST - NONPARTISAN                              BALLOTS CAST - NONPARTISAN            Precinct 7                                             00 
00080010008000000000000000000000000000000000000000000000000000000000000000000000000000000000000000000NON       BALLOTS CAST - NONPARTISAN                              BALLOTS CAST - NONPARTISAN            Precinct 8                                             00 
00080010009000000000000000000000000000000000000000000000000000000000000000000000000000000000000000000NON       BALLOTS CAST - NONPARTISAN                              BALLOTS CAST - NONPARTISAN            Precinct 9                                             00 
00090010001000000000000000000000000000000000000000000000000000000000000000000000000000000000000000000          BALLOTS CAST - BLANK                                    BALLOTS CAST - BLANK                  Precinct 1                                             00 
00090010002000000000000000000000000000000000000000000000000000000000000000000000000000000000000000000          BALLOTS CAST - BLANK                                    BALLOTS CAST - BLANK                  Precinct 2                                             00 
00090010003000000000000000000000000000000000000000000000000000000000000000000000000000000000000000000          BALLOTS CAST - BLANK                                    BALLOTS CAST - BLANK                  Precinct 3                                             00 
00090010004000000000000000000000000000000000000000000000000000000000000000000000000000000000000000000          BALLOTS CAST - BLANK                                    BALLOTS CAST - BLANK                  Precinct 4                                             00 
00090010005000000000000000000000000000000000000000000000000000000000000000000000000000000000000000000          BALLOTS CAST - BLANK                                    BALLOTS CAST - BLANK                  Precinct 5                                             00 
00090010006000000000000000000000000000000000000000000000000000000000000000000000000000000000000000000          BALLOTS CAST - BLANK                                    BALLOTS CAST - BLANK                  Precinct 6                                             00 
00090010007000000000000000000000000000000000000000000000000000000000000000000000000000000000000000000          BALLOTS CAST - BLANK                                    BALLOTS CAST - BLANK                  Precinct 7                                             00 
00090010008000000000000000000000000000000000000000000000000000000000000000000000000000000000000000000          BALLOTS CAST - BLANK                                    BALLOTS CAST - BLANK                  Precinct 8                                             00 
00090010009000000000000000000000000000000000000000000000000000000000000000000000000000000000000000000          BALLOTS CAST - BLANK                                    BALLOTS CAST - BLANK                  Precinct 9                                             00 
00100010001000131000000000038000093000000000000000000000000000000000000000000000000000000000000000000REP       REP US Representative, District 19                      Jodey C. Arrington                    Precinct 1                                             01 
00100010002000268000003000080000185000000000000000000000000000000000000000000000000000000000000000000REP       REP US Representative, District 19                      Jodey C. Arrington                    Precinct 2                                             01 
00100010003000235000004000077000154000000000000000000000000000000000000000000000000000000000000000000REP       REP US Representative, District 19                      Jodey C. Arrington                    Precinct 3                                             01 
00100010004000162000003000052000107000000000000000000000000000000000000000000000000000000000000000000REP       REP US Representative, District 19                      Jodey C. Arrington                    Precinct 4                                             01 
00100010005000042000000000006000036000000000000000000000000000000000000000000000000000000000000000000REP       REP US Representative, District 19                      Jodey C. Arrington                    Precinct 5                                             01 
00100010006000205000001000037000167000000000000000000000000000000000000000000000000000000000000000000REP       REP US Representative, District 19                      Jodey C. Arrington                    Precinct 6                                             01 
00100010007000075000000000007000068000000000000000000000000000000000000000000000000000000000000000000REP       REP US Representative, District 19                      Jodey C. Arrington                    Precinct 7                                             01 
00100010008000052000000000004000048000000000000000000000000000000000000000000000000000000000000000000REP       REP US Representative, District 19                      Jodey C. Arrington                    Precinct 8                                             01 
00100010009000333000003000105000225000000000000000000000000000000000000000000000000000000000000000000REP       REP US Representative, District 19                      Jodey C. Arrington                    Precinct 9                                             01 
00100020001000000000000000000000000000000000000000000000000000000000000000000000000000000000000000000          REP US Representative, District 19                      OVER VOTES                            Precinct 1                                             01 
00100020002000000000000000000000000000000000000000000000000000000000000000000000000000000000000000000          REP US Representative, District 19                      OVER VOTES                            Precinct 2                                             01 
00100020003000000000000000000000000000000000000000000000000000000000000000000000000000000000000000000          REP US Representative, District 19                      OVER VOTES                            Precinct 3                                             01 
00100020004000000000000000000000000000000000000000000000000000000000000000000000000000000000000000000          REP US Representative, District 19                      OVER VOTES                            Precinct 4                                             01 
00100020005000000000000000000000000000000000000000000000000000000000000000000000000000000000000000000          REP US Representative, District 19                      OVER VOTES                            Precinct 5                                             01 
00100020006000000000000000000000000000000000000000000000000000000000000000000000000000000000000000000          REP US Representative, District 19                      OVER VOTES                            Precinct 6                                             01 
00100020007000000000000000000000000000000000000000000000000000000000000000000000000000000000000000000          REP US Representative, District 19                      OVER VOTES                            Precinct 7                                             01 
00100020008000000000000000000000000000000000000000000000000000000000000000000000000000000000000000000          REP US Representative, District 19                      OVER VOTES                            Precinct 8                                             01 
00100020009000000000000000000000000000000000000000000000000000000000000000000000000000000000000000000          REP US Representative, District 19                      OVER VOTES                            Precinct 9                                             01 
00100030001000019000000000007000012000000000000000000000000000000000000000000000000000000000000000000          REP US Representative, District 19                      UNDER VOTES                           Precinct 1                                             01 
00100030002000048000001000019000028000000000000000000000000000000000000000000000000000000000000000000          REP US Representative, District 19                      UNDER VOTES                           Precinct 2                                             01 
00100030003000041000001000016000024000000000000000000000000000000000000000000000000000000000000000000          REP US Representative, District 19                      UNDER VOTES                           Precinct 3                                             01 
00100030004000063000000000022000041000000000000000000000000000000000000000000000000000000000000000000          REP US Representative, District 19                      UNDER VOTES                           Precinct 4                                             01 
00100030005000009000000000001000008000000000000000000000000000000000000000000000000000000000000000000          REP US Representative, District 19                      UNDER VOTES                           Precinct 5                                             01 
00100030006000029000000000005000024000000000000000000000000000000000000000000000000000000000000000000          REP US Representative, District 19                      UNDER VOTES                           Precinct 6                                             01 
00100030007000019000000000004000015000000000000000000000000000000000000000000000000000000000000000000          REP US Representative, District 19                      UNDER VOTES                           Precinct 7                                             01 
00100030008000010000000000002000008000000000000000000000000000000000000000000000000000000000000000000          REP US Representative, District 19                      UNDER VOTES                           Precinct 8                                             01 
00100030009000074000000000026000048000000000000000000000000000000000000000000000000000000000000000000          REP US Representative, District 19                      UNDER VOTES                           Precinct 9                                             01 
00110010001000000000000000000000000000000000000000000000000000000000000000000000000000000000000000000REP       REP Governor                                            Paul Belew                            Precinct 1                                             01 
00110010002000000000000000000000000000000000000000000000000000000000000000000000000000000000000000000REP       REP Governor                                            Paul Belew                            Precinct 2                                             01 
00110010003000003000000000002000001000000000000000000000000000000000000000000000000000000000000000000REP       REP Governor                                            Paul Belew                            Precinct 3                                             01 
00110010004000001000000000000000001000000000000000000000000000000000000000000000000000000000000000000REP       REP Governor                                            Paul Belew                            Precinct 4                                             01 
00110010005000000000000000000000000000000000000000000000000000000000000000000000000000000000000000000REP       REP Governor                                            Paul Belew                            Precinct 5                                             01 
00110010006000001000000000000000001000000000000000000000000000000000000000000000000000000000000000000REP       REP Governor                                            Paul Belew                            Precinct 6                                             01 
00110010007000002000000000000000002000000000000000000000000000000000000000000000000000000000000000000REP       REP Governor                                            Paul Belew                            Precinct 7                                             01 
00110010008000000000000000000000000000000000000000000000000000000000000000000000000000000000000000000REP       REP Governor                                            Paul Belew                            Precinct 8                                             01 
00110010009000001000000000000000001000000000000000000000000000000000000000000000000000000000000000000REP       REP Governor                                            Paul Belew                            Precinct 9                                             01 
00110020001000004000000000000000004000000000000000000000000000000000000000000000000000000000000000000REP       REP Governor                                            Kandy Kaye Horn                       Precinct 1                                             01 
00110020002000004000000000000000004000000000000000000000000000000000000000000000000000000000000000000REP       REP Governor                                            Kandy Kaye Horn                       Precinct 2                                             01 
00110020003000003000000000002000001000000000000000000000000000000000000000000000000000000000000000000REP       REP Governor                                            Kandy Kaye Horn                       Precinct 3                                             01 
00110020004000000000000000000000000000000000000000000000000000000000000000000000000000000000000000000REP       REP Governor                                            Kandy Kaye Horn                       Precinct 4                                             01 
00110020005000000000000000000000000000000000000000000000000000000000000000000000000000000000000000000REP       REP Governor                                            Kandy Kaye Horn                       Precinct 5                                             01 
00110020006000004000000000001000003000000000000000000000000000000000000000000000000000000000000000000REP       REP Governor                                            Kandy Kaye Horn                       Precinct 6                                             01 
00110020007000000000000000000000000000000000000000000000000000000000000000000000000000000000000000000REP       REP Governor                                            Kandy Kaye Horn                       Precinct 7                                             01 
00110020008000000000000000000000000000000000000000000000000000000000000000000000000000000000000000000REP       REP Governor                                            Kandy Kaye Horn                       Precinct 8                                             01 
00110020009000004000000000002000002000000000000000000000000000000000000000000000000000000000000000000REP       REP Governor                                            Kandy Kaye Horn                       Precinct 9                                             01 
00110030001000108000000000033000075000000000000000000000000000000000000000000000000000000000000000000REP       REP Governor                                            Greg Abbott                           Precinct 1                                             01 
00110030002000226000003000075000148000000000000000000000000000000000000000000000000000000000000000000REP       REP Governor                                            Greg Abbott                           Precinct 2                                             01 
00110030003000195000005000062000128000000000000000000000000000000000000000000000000000000000000000000REP       REP Governor                                            Greg Abbott                           Precinct 3                                             01 
00110030004000150000003000043000104000000000000000000000000000000000000000000000000000000000000000000REP       REP Governor                                            Greg Abbott                           Precinct 4                                             01 
00110030005000043000000000005000038000000000000000000000000000000000000000000000000000000000000000000REP       REP Governor                                            Greg Abbott                           Precinct 5                                             01 
00110030006000163000001000022000140000000000000000000000000000000000000000000000000000000000000000000REP       REP Governor                                            Greg Abbott                           Precinct 6                                             01 
00110030007000061000000000009000052000000000000000000000000000000000000000000000000000000000000000000REP       REP Governor                                            Greg Abbott                           Precinct 7                                             01 
00110030008000040000000000003000037000000000000000000000000000000000000000000000000000000000000000000REP       REP Governor                                            Greg Abbott                           Precinct 8                                             01 
00110030009000289000003000086000200000000000000000000000000000000000000000000000000000000000000000000REP       REP Governor                                            Greg Abbott                           Precinct 9                                             01 
00110040001000004000000000002000002000000000000000000000000000000000000000000000000000000000000000000REP       REP Governor                                            Don Huffines                          Precinct 1                                             01 
00110040002000026000000000004000022000000000000000000000000000000000000000000000000000000000000000000REP       REP Governor                                            Don Huffines                          Precinct 2                                             01 
00110040003000014000000000006000008000000000000000000000000000000000000000000000000000000000000000000REP       REP Governor                                            Don Huffines                          Precinct 3                                             01 
00110040004000010000000000003000007000000000000000000000000000000000000000000000000000000000000000000REP       REP Governor                                            Don Huffines                          Precinct 4                                             01 
00110040005000005000000000002000003000000000000000000000000000000000000000000000000000000000000000000REP       REP Governor                                            Don Huffines                          Precinct 5                                             01 
00110040006000013000000000003000010000000000000000000000000000000000000000000000000000000000000000000REP       REP Governor                                            Don Huffines                          Precinct 6                                             01 
00110040007000012000000000000000012000000000000000000000000000000000000000000000000000000000000000000REP       REP Governor                                            Don Huffines                          Precinct 7                                             01 
00110040008000004000000000001000003000000000000000000000000000000000000000000000000000000000000000000REP       REP Governor                                            Don Huffines                          Precinct 8                                             01 
00110040009000026000000000010000016000000000000000000000000000000000000000000000000000000000000000000REP       REP Governor                                            Don Huffines                          Precinct 9                                             01 
00110050001000018000000000005000013000000000000000000000000000000000000000000000000000000000000000000REP       REP Governor                                            Allen B. West                         Precinct 1                                             01 
00110050002000029000000000011000018000000000000000000000000000000000000000000000000000000000000000000REP       REP Governor                                            Allen B. West                         Precinct 2                                             01 
00110050003000022000000000006000016000000000000000000000000000000000000000000000000000000000000000000REP       REP Governor                                            Allen B. West                         Precinct 3                                             01 
00110050004000015000000000004000011000000000000000000000000000000000000000000000000000000000000000000REP       REP Governor                                            Allen B. West                         Precinct 4                                             01 
00110050005000000000000000000000000000000000000000000000000000000000000000000000000000000000000000000REP       REP Governor                                            Allen B. West                         Precinct 5                                             01 
00110050006000025000000000006000019000000000000000000000000000000000000000000000000000000000000000000REP       REP Governor                                            Allen B. West                         Precinct 6                                             01 
00110050007000006000000000001000005000000000000000000000000000000000000000000000000000000000000000000REP       REP Governor                                            Allen B. West                         Precinct 7                                             01 
00110050008000005000000000001000004000000000000000000000000000000000000000000000000000000000000000000REP       REP Governor                                            Allen B. West                         Precinct 8                                             01 
00110050009000039000000000011000028000000000000000000000000000000000000000000000000000000000000000000REP       REP Governor                                            Allen B. West                         Precinct 9                                             01 
00110060001000004000000000001000003000000000000000000000000000000000000000000000000000000000000000000REP       REP Governor                                            Rick Perry                            Precinct 1                                             01 
00110060002000013000001000004000008000000000000000000000000000000000000000000000000000000000000000000REP       REP Governor                                            Rick Perry                            Precinct 2                                             01 
00110060003000012000000000008000004000000000000000000000000000000000000000000000000000000000000000000REP       REP Governor                                            Rick Perry                            Precinct 3                                             01 
00110060004000013000000000007000006000000000000000000000000000000000000000000000000000000000000000000REP       REP Governor                                            Rick Perry                            Precinct 4                                             01 
00110060005000001000000000000000001000000000000000000000000000000000000000000000000000000000000000000REP       REP Governor                                            Rick Perry                            Precinct 5                                             01 
00110060006000003000000000000000003000000000000000000000000000000000000000000000000000000000000000000REP       REP Governor                                            Rick Perry                            Precinct 6                                             01 
00110060007000003000000000001000002000000000000000000000000000000000000000000000000000000000000000000REP       REP Governor                                            Rick Perry                            Precinct 7                                             01 
00110060008000003000000000000000003000000000000000000000000000000000000000000000000000000000000000000REP       REP Governor                                            Rick Perry                            Precinct 8                                             01 
00110060009000016000000000008000008000000000000000000000000000000000000000000000000000000000000000000REP       REP Governor                                            Rick Perry                            Precinct 9                                             01 
00110070001000002000000000000000002000000000000000000000000000000000000000000000000000000000000000000REP       REP Governor                                            Danny Harrison                        Precinct 1                                             01 
00110070002000000000000000000000000000000000000000000000000000000000000000000000000000000000000000000REP       REP Governor                                            Danny Harrison                        Precinct 2                                             01 
00110070003000003000000000001000002000000000000000000000000000000000000000000000000000000000000000000REP       REP Governor                                            Danny Harrison                        Precinct 3                                             01 
00110070004000002000000000001000001000000000000000000000000000000000000000000000000000000000000000000REP       REP Governor                                            Danny Harrison                        Precinct 4                                             01 
00110070005000000000000000000000000000000000000000000000000000000000000000000000000000000000000000000REP       REP Governor                                            Danny Harrison                        Precinct 5                                             01 
00110070006000000000000000000000000000000000000000000000000000000000000000000000000000000000000000000REP       REP Governor                                            Danny Harrison                        Precinct 6                                             01 
00110070007000000000000000000000000000000000000000000000000000000000000000000000000000000000000000000REP       REP Governor                                            Danny Harrison                        Precinct 7                                             01 
00110070008000001000000000000000001000000000000000000000000000000000000000000000000000000000000000000REP       REP Governor                                            Danny Harrison                        Precinct 8                                             01 
00110070009000000000000000000000000000000000000000000000000000000000000000000000000000000000000000000REP       REP Governor                                            Danny Harrison                        Precinct 9                                             01 
00110080001000007000000000003000004000000000000000000000000000000000000000000000000000000000000000000REP       REP Governor                                            Chad Prather                          Precinct 1                                             01 
00110080002000013000000000003000010000000000000000000000000000000000000000000000000000000000000000000REP       REP Governor                                            Chad Prather                          Precinct 2                                             01 
00110080003000014000000000004000010000000000000000000000000000000000000000000000000000000000000000000REP       REP Governor                                            Chad Prather                          Precinct 3                                             01 
00110080004000008000000000003000005000000000000000000000000000000000000000000000000000000000000000000REP       REP Governor                                            Chad Prather                          Precinct 4                                             01 
00110080005000002000000000000000002000000000000000000000000000000000000000000000000000000000000000000REP       REP Governor                                            Chad Prather                          Precinct 5                                             01 
00110080006000022000000000010000012000000000000000000000000000000000000000000000000000000000000000000REP       REP Governor                                            Chad Prather                          Precinct 6                                             01 
00110080007000009000000000000000009000000000000000000000000000000000000000000000000000000000000000000REP       REP Governor                                            Chad Prather                          Precinct 7                                             01 
00110080008000009000000000001000008000000000000000000000000000000000000000000000000000000000000000000REP       REP Governor                                            Chad Prather                          Precinct 8                                             01 
00110080009000025000000000010000015000000000000000000000000000000000000000000000000000000000000000000REP       REP Governor                                            Chad Prather                          Precinct 9                                             01 
00110090001000000000000000000000000000000000000000000000000000000000000000000000000000000000000000000          REP Governor                                            OVER VOTES                            Precinct 1                                             01 
00110090002000000000000000000000000000000000000000000000000000000000000000000000000000000000000000000          REP Governor                                            OVER VOTES                            Precinct 2                                             01 
00110090003000000000000000000000000000000000000000000000000000000000000000000000000000000000000000000          REP Governor                                            OVER VOTES                            Precinct 3                                             01 
00110090004000000000000000000000000000000000000000000000000000000000000000000000000000000000000000000          REP Governor                                            OVER VOTES                            Precinct 4                                             01 
00110090005000000000000000000000000000000000000000000000000000000000000000000000000000000000000000000          REP Governor                                            OVER VOTES                            Precinct 5                                             01 
00110090006000000000000000000000000000000000000000000000000000000000000000000000000000000000000000000          REP Governor                                            OVER VOTES                            Precinct 6                                             01 
00110090007000000000000000000000000000000000000000000000000000000000000000000000000000000000000000000          REP Governor                                            OVER VOTES                            Precinct 7                                             01 
00110090008000000000000000000000000000000000000000000000000000000000000000000000000000000000000000000          REP Governor                                            OVER VOTES                            Precinct 8                                             01 
00110090009000000000000000000000000000000000000000000000000000000000000000000000000000000000000000000          REP Governor                                            OVER VOTES                            Precinct 9                                             01 
00110100001000003000000000001000002000000000000000000000000000000000000000000000000000000000000000000          REP Governor                                            UNDER VOTES                           Precinct 1                                             01 
00110100002000005000000000002000003000000000000000000000000000000000000000000000000000000000000000000          REP Governor                                            UNDER VOTES                           Precinct 2                                             01 
00110100003000010000000000002000008000000000000000000000000000000000000000000000000000000000000000000          REP Governor                                            UNDER VOTES                           Precinct 3                                             01 
00110100004000026000000000013000013000000000000000000000000000000000000000000000000000000000000000000          REP Governor                                            UNDER VOTES                           Precinct 4                                             01 
00110100005000000000000000000000000000000000000000000000000000000000000000000000000000000000000000000          REP Governor                                            UNDER VOTES                           Precinct 5                                             01 
00110100006000003000000000000000003000000000000000000000000000000000000000000000000000000000000000000          REP Governor                                            UNDER VOTES                           Precinct 6                                             01 
00110100007000001000000000000000001000000000000000000000000000000000000000000000000000000000000000000          REP Governor                                            UNDER VOTES                           Precinct 7                                             01 
00110100008000000000000000000000000000000000000000000000000000000000000000000000000000000000000000000          REP Governor                                            UNDER VOTES                           Precinct 8                                             01 
00110100009000007000000000004000003000000000000000000000000000000000000000000000000000000000000000000          REP Governor                                            UNDER VOTES                           Precinct 9                                             01 
00120010001000010000000000003000007000000000000000000000000000000000000000000000000000000000000000000REP       REP Lieutenant Governor                                 Trayce Bradford                       Precinct 1                                             01 
00120010002000015000000000006000009000000000000000000000000000000000000000000000000000000000000000000REP       REP Lieutenant Governor                                 Trayce Bradford                       Precinct 2                                             01 
00120010003000025000000000010000015000000000000000000000000000000000000000000000000000000000000000000REP       REP Lieutenant Governor                                 Trayce Bradford                       Precinct 3                                             01 
00120010004000009000000000003000006000000000000000000000000000000000000000000000000000000000000000000REP       REP Lieutenant Governor                                 Trayce Bradford                       Precinct 4                                             01 
00120010005000001000000000000000001000000000000000000000000000000000000000000000000000000000000000000REP       REP Lieutenant Governor                                 Trayce Bradford                       Precinct 5                                             01 
00120010006000016000000000005000011000000000000000000000000000000000000000000000000000000000000000000REP       REP Lieutenant Governor                                 Trayce Bradford                       Precinct 6                                             01 
00120010007000006000000000000000006000000000000000000000000000000000000000000000000000000000000000000REP       REP Lieutenant Governor                                 Trayce Bradford                       Precinct 7                                             01 
00120010008000005000000000000000005000000000000000000000000000000000000000000000000000000000000000000REP       REP Lieutenant Governor                                 Trayce Bradford                       Precinct 8                                             01 
00120010009000018000000000003000015000000000000000000000000000000000000000000000000000000000000000000REP       REP Lieutenant Governor                                 Trayce Bradford                       Precinct 9                                             01 
00120020001000003000000000000000003000000000000000000000000000000000000000000000000000000000000000000REP       REP Lieutenant Governor                                 Zach Vance                            Precinct 1                                             01 
00120020002000011000001000002000008000000000000000000000000000000000000000000000000000000000000000000REP       REP Lieutenant Governor                                 Zach Vance                            Precinct 2                                             01 
00120020003000010000000000004000006000000000000000000000000000000000000000000000000000000000000000000REP       REP Lieutenant Governor                                 Zach Vance                            Precinct 3                                             01 
00120020004000006000000000001000005000000000000000000000000000000000000000000000000000000000000000000REP       REP Lieutenant Governor                                 Zach Vance                            Precinct 4                                             01 
00120020005000000000000000000000000000000000000000000000000000000000000000000000000000000000000000000REP       REP Lieutenant Governor                                 Zach Vance                            Precinct 5                                             01 
00120020006000007000000000002000005000000000000000000000000000000000000000000000000000000000000000000REP       REP Lieutenant Governor                                 Zach Vance                            Precinct 6                                             01 
00120020007000003000000000000000003000000000000000000000000000000000000000000000000000000000000000000REP       REP Lieutenant Governor                                 Zach Vance                            Precinct 7                                             01 
00120020008000003000000000000000003000000000000000000000000000000000000000000000000000000000000000000REP       REP Lieutenant Governor                                 Zach Vance                            Precinct 8                                             01 
00120020009000021000000000006000015000000000000000000000000000000000000000000000000000000000000000000REP       REP Lieutenant Governor                                 Zach Vance                            Precinct 9                                             01 
00120030001000104000000000033000071000000000000000000000000000000000000000000000000000000000000000000REP       REP Lieutenant Governor                                 Dan Patrick                           Precinct 1                                             01 
00120030002000224000003000071000150000000000000000000000000000000000000000000000000000000000000000000REP       REP Lieutenant Governor                                 Dan Patrick                           Precinct 2                                             01 
00120030003000177000005000062000110000000000000000000000000000000000000000000000000000000000000000000REP       REP Lieutenant Governor                                 Dan Patrick                           Precinct 3                                             01 
00120030004000142000003000045000094000000000000000000000000000000000000000000000000000000000000000000REP       REP Lieutenant Governor                                 Dan Patrick                           Precinct 4                                             01 
00120030005000043000000000007000036000000000000000000000000000000000000000000000000000000000000000000REP       REP Lieutenant Governor                                 Dan Patrick                           Precinct 5                                             01 
00120030006000168000001000026000141000000000000000000000000000000000000000000000000000000000000000000REP       REP Lieutenant Governor                                 Dan Patrick                           Precinct 6                                             01 
00120030007000069000000000010000059000000000000000000000000000000000000000000000000000000000000000000REP       REP Lieutenant Governor                                 Dan Patrick                           Precinct 7                                             01 
00120030008000046000000000004000042000000000000000000000000000000000000000000000000000000000000000000REP       REP Lieutenant Governor                                 Dan Patrick                           Precinct 8                                             01 
00120030009000289000003000087000199000000000000000000000000000000000000000000000000000000000000000000REP       REP Lieutenant Governor                                 Dan Patrick                           Precinct 9                                             01 
00120040001000012000000000001000011000000000000000000000000000000000000000000000000000000000000000000REP       REP Lieutenant Governor                                 Daniel Miller                         Precinct 1                                             01 
00120040002000015000000000005000010000000000000000000000000000000000000000000000000000000000000000000REP       REP Lieutenant Governor                                 Daniel Miller                         Precinct 2                                             01 
00120040003000018000000000004000014000000000000000000000000000000000000000000000000000000000000000000REP       REP Lieutenant Governor                                 Daniel Miller                         Precinct 3                                             01 
00120040004000009000000000001000008000000000000000000000000000000000000000000000000000000000000000000REP       REP Lieutenant Governor                                 Daniel Miller                         Precinct 4                                             01 
00120040005000000000000000000000000000000000000000000000000000000000000000000000000000000000000000000REP       REP Lieutenant Governor                                 Daniel Miller                         Precinct 5                                             01 
00120040006000011000000000004000007000000000000000000000000000000000000000000000000000000000000000000REP       REP Lieutenant Governor                                 Daniel Miller                         Precinct 6                                             01 
00120040007000004000000000000000004000000000000000000000000000000000000000000000000000000000000000000REP       REP Lieutenant Governor                                 Daniel Miller                         Precinct 7                                             01 
00120040008000002000000000000000002000000000000000000000000000000000000000000000000000000000000000000REP       REP Lieutenant Governor                                 Daniel Miller                         Precinct 8                                             01 
00120040009000019000000000008000011000000000000000000000000000000000000000000000000000000000000000000REP       REP Lieutenant Governor                                 Daniel Miller                         Precinct 9                                             01 
00120050001000004000000000000000004000000000000000000000000000000000000000000000000000000000000000000REP       REP Lieutenant Governor                                 Aaron Sorrells                        Precinct 1                                             01 
00120050002000013000000000003000010000000000000000000000000000000000000000000000000000000000000000000REP       REP Lieutenant Governor                                 Aaron Sorrells                        Precinct 2                                             01 
00120050003000009000000000004000005000000000000000000000000000000000000000000000000000000000000000000REP       REP Lieutenant Governor                                 Aaron Sorrells                        Precinct 3                                             01 
00120050004000010000000000004000006000000000000000000000000000000000000000000000000000000000000000000REP       REP Lieutenant Governor                                 Aaron Sorrells                        Precinct 4                                             01 
00120050005000002000000000000000002000000000000000000000000000000000000000000000000000000000000000000REP       REP Lieutenant Governor                                 Aaron Sorrells                        Precinct 5                                             01 
00120050006000003000000000001000002000000000000000000000000000000000000000000000000000000000000000000REP       REP Lieutenant Governor                                 Aaron Sorrells                        Precinct 6                                             01 
00120050007000004000000000000000004000000000000000000000000000000000000000000000000000000000000000000REP       REP Lieutenant Governor                                 Aaron Sorrells                        Precinct 7                                             01 
00120050008000003000000000000000003000000000000000000000000000000000000000000000000000000000000000000REP       REP Lieutenant Governor                                 Aaron Sorrells                        Precinct 8                                             01 
00120050009000017000000000008000009000000000000000000000000000000000000000000000000000000000000000000REP       REP Lieutenant Governor                                 Aaron Sorrells                        Precinct 9                                             01 
00120060001000003000000000001000002000000000000000000000000000000000000000000000000000000000000000000REP       REP Lieutenant Governor                                 Todd M. Bullis                        Precinct 1                                             01 
00120060002000003000000000001000002000000000000000000000000000000000000000000000000000000000000000000REP       REP Lieutenant Governor                                 Todd M. Bullis                        Precinct 2                                             01 
00120060003000004000000000001000003000000000000000000000000000000000000000000000000000000000000000000REP       REP Lieutenant Governor                                 Todd M. Bullis                        Precinct 3                                             01 
00120060004000002000000000001000001000000000000000000000000000000000000000000000000000000000000000000REP       REP Lieutenant Governor                                 Todd M. Bullis                        Precinct 4                                             01 
00120060005000000000000000000000000000000000000000000000000000000000000000000000000000000000000000000REP       REP Lieutenant Governor                                 Todd M. Bullis                        Precinct 5                                             01 
00120060006000006000000000001000005000000000000000000000000000000000000000000000000000000000000000000REP       REP Lieutenant Governor                                 Todd M. Bullis                        Precinct 6                                             01 
00120060007000001000000000000000001000000000000000000000000000000000000000000000000000000000000000000REP       REP Lieutenant Governor                                 Todd M. Bullis                        Precinct 7                                             01 
00120060008000000000000000000000000000000000000000000000000000000000000000000000000000000000000000000REP       REP Lieutenant Governor                                 Todd M. Bullis                        Precinct 8                                             01 
00120060009000005000000000001000004000000000000000000000000000000000000000000000000000000000000000000REP       REP Lieutenant Governor                                 Todd M. Bullis                        Precinct 9                                             01 
00120070001000000000000000000000000000000000000000000000000000000000000000000000000000000000000000000          REP Lieutenant Governor                                 OVER VOTES                            Precinct 1                                             01 
00120070002000000000000000000000000000000000000000000000000000000000000000000000000000000000000000000          REP Lieutenant Governor                                 OVER VOTES                            Precinct 2                                             01 
00120070003000000000000000000000000000000000000000000000000000000000000000000000000000000000000000000          REP Lieutenant Governor                                 OVER VOTES                            Precinct 3                                             01 
00120070004000000000000000000000000000000000000000000000000000000000000000000000000000000000000000000          REP Lieutenant Governor                                 OVER VOTES                            Precinct 4                                             01 
00120070005000000000000000000000000000000000000000000000000000000000000000000000000000000000000000000          REP Lieutenant Governor                                 OVER VOTES                            Precinct 5                                             01 
00120070006000000000000000000000000000000000000000000000000000000000000000000000000000000000000000000          REP Lieutenant Governor                                 OVER VOTES                            Precinct 6                                             01 
00120070007000000000000000000000000000000000000000000000000000000000000000000000000000000000000000000          REP Lieutenant Governor                                 OVER VOTES                            Precinct 7                                             01 
00120070008000000000000000000000000000000000000000000000000000000000000000000000000000000000000000000          REP Lieutenant Governor                                 OVER VOTES                            Precinct 8                                             01 
00120070009000000000000000000000000000000000000000000000000000000000000000000000000000000000000000000          REP Lieutenant Governor                                 OVER VOTES                            Precinct 9                                             01 
00120080001000014000000000007000007000000000000000000000000000000000000000000000000000000000000000000          REP Lieutenant Governor                                 UNDER VOTES                           Precinct 1                                             01 
00120080002000035000000000011000024000000000000000000000000000000000000000000000000000000000000000000          REP Lieutenant Governor                                 UNDER VOTES                           Precinct 2                                             01 
00120080003000033000000000008000025000000000000000000000000000000000000000000000000000000000000000000          REP Lieutenant Governor                                 UNDER VOTES                           Precinct 3                                             01 
00120080004000047000000000019000028000000000000000000000000000000000000000000000000000000000000000000          REP Lieutenant Governor                                 UNDER VOTES                           Precinct 4                                             01 
00120080005000005000000000000000005000000000000000000000000000000000000000000000000000000000000000000          REP Lieutenant Governor                                 UNDER VOTES                           Precinct 5                                             01 
00120080006000023000000000003000020000000000000000000000000000000000000000000000000000000000000000000          REP Lieutenant Governor                                 UNDER VOTES                           Precinct 6                                             01 
00120080007000007000000000001000006000000000000000000000000000000000000000000000000000000000000000000          REP Lieutenant Governor                                 UNDER VOTES                           Precinct 7                                             01 
00120080008000003000000000002000001000000000000000000000000000000000000000000000000000000000000000000          REP Lieutenant Governor                                 UNDER VOTES                           Precinct 8                                             01 
00120080009000038000000000018000020000000000000000000000000000000000000000000000000000000000000000000          REP Lieutenant Governor                                 UNDER VOTES                           Precinct 9                                             01 
00130010001000028000000000008000020000000000000000000000000000000000000000000000000000000000000000000REP       REP Attorney General                                    Eva Guzman                            Precinct 1                                             01 
00130010002000058000002000013000043000000000000000000000000000000000000000000000000000000000000000000REP       REP Attorney General                                    Eva Guzman                            Precinct 2                                             01 
00130010003000055000001000016000038000000000000000000000000000000000000000000000000000000000000000000REP       REP Attorney General                                    Eva Guzman                            Precinct 3                                             01 
00130010004000054000000000014000040000000000000000000000000000000000000000000000000000000000000000000REP       REP Attorney General                                    Eva Guzman                            Precinct 4                                             01 
00130010005000006000000000001000005000000000000000000000000000000000000000000000000000000000000000000REP       REP Attorney General                                    Eva Guzman                            Precinct 5                                             01 
00130010006000049000001000012000036000000000000000000000000000000000000000000000000000000000000000000REP       REP Attorney General                                    Eva Guzman                            Precinct 6                                             01 
00130010007000014000000000001000013000000000000000000000000000000000000000000000000000000000000000000REP       REP Attorney General                                    Eva Guzman                            Precinct 7                                             01 
00130010008000007000000000001000006000000000000000000000000000000000000000000000000000000000000000000REP       REP Attorney General                                    Eva Guzman                            Precinct 8                                             01 
00130010009000079000000000026000053000000000000000000000000000000000000000000000000000000000000000000REP       REP Attorney General                                    Eva Guzman                            Precinct 9                                             01 
00130020001000042000000000008000034000000000000000000000000000000000000000000000000000000000000000000REP       REP Attorney General                                    George P. Bush                        Precinct 1                                             01 
00130020002000084000001000026000057000000000000000000000000000000000000000000000000000000000000000000REP       REP Attorney General                                    George P. Bush                        Precinct 2                                             01 
00130020003000062000001000019000042000000000000000000000000000000000000000000000000000000000000000000REP       REP Attorney General                                    George P. Bush                        Precinct 3                                             01 
00130020004000046000000000020000026000000000000000000000000000000000000000000000000000000000000000000REP       REP Attorney General                                    George P. Bush                        Precinct 4                                             01 
00130020005000010000000000002000008000000000000000000000000000000000000000000000000000000000000000000REP       REP Attorney General                                    George P. Bush                        Precinct 5                                             01 
00130020006000056000000000011000045000000000000000000000000000000000000000000000000000000000000000000REP       REP Attorney General                                    George P. Bush                        Precinct 6                                             01 
00130020007000018000000000001000017000000000000000000000000000000000000000000000000000000000000000000REP       REP Attorney General                                    George P. Bush                        Precinct 7                                             01 
00130020008000016000000000002000014000000000000000000000000000000000000000000000000000000000000000000REP       REP Attorney General                                    George P. Bush                        Precinct 8                                             01 
00130020009000094000000000027000067000000000000000000000000000000000000000000000000000000000000000000REP       REP Attorney General                                    George P. Bush                        Precinct 9                                             01 
00130030001000066000000000022000044000000000000000000000000000000000000000000000000000000000000000000REP       REP Attorney General                                    Ken Paxton                            Precinct 1                                             01 
00130030002000124000001000039000084000000000000000000000000000000000000000000000000000000000000000000REP       REP Attorney General                                    Ken Paxton                            Precinct 2                                             01 
00130030003000115000003000042000070000000000000000000000000000000000000000000000000000000000000000000REP       REP Attorney General                                    Ken Paxton                            Precinct 3                                             01 
00130030004000088000002000027000059000000000000000000000000000000000000000000000000000000000000000000REP       REP Attorney General                                    Ken Paxton                            Precinct 4                                             01 
00130030005000027000000000002000025000000000000000000000000000000000000000000000000000000000000000000REP       REP Attorney General                                    Ken Paxton                            Precinct 5                                             01 
00130030006000102000000000015000087000000000000000000000000000000000000000000000000000000000000000000REP       REP Attorney General                                    Ken Paxton                            Precinct 6                                             01 
00130030007000049000000000008000041000000000000000000000000000000000000000000000000000000000000000000REP       REP Attorney General                                    Ken Paxton                            Precinct 7                                             01 
00130030008000028000000000001000027000000000000000000000000000000000000000000000000000000000000000000REP       REP Attorney General                                    Ken Paxton                            Precinct 8                                             01 
00130030009000180000003000061000116000000000000000000000000000000000000000000000000000000000000000000REP       REP Attorney General                                    Ken Paxton                            Precinct 9                                             01 
00130040001000008000000000003000005000000000000000000000000000000000000000000000000000000000000000000REP       REP Attorney General                                    Louie Gohmert                         Precinct 1                                             01 
00130040002000029000000000013000016000000000000000000000000000000000000000000000000000000000000000000REP       REP Attorney General                                    Louie Gohmert                         Precinct 2                                             01 
00130040003000024000000000009000015000000000000000000000000000000000000000000000000000000000000000000REP       REP Attorney General                                    Louie Gohmert                         Precinct 3                                             01 
00130040004000012000001000005000006000000000000000000000000000000000000000000000000000000000000000000REP       REP Attorney General                                    Louie Gohmert                         Precinct 4                                             01 
00130040005000006000000000002000004000000000000000000000000000000000000000000000000000000000000000000REP       REP Attorney General                                    Louie Gohmert                         Precinct 5                                             01 
00130040006000014000000000003000011000000000000000000000000000000000000000000000000000000000000000000REP       REP Attorney General                                    Louie Gohmert                         Precinct 6                                             01 
00130040007000010000000000001000009000000000000000000000000000000000000000000000000000000000000000000REP       REP Attorney General                                    Louie Gohmert                         Precinct 7                                             01 
00130040008000008000000000002000006000000000000000000000000000000000000000000000000000000000000000000REP       REP Attorney General                                    Louie Gohmert                         Precinct 8                                             01 
00130040009000030000000000007000023000000000000000000000000000000000000000000000000000000000000000000REP       REP Attorney General                                    Louie Gohmert                         Precinct 9                                             01 
00130050001000000000000000000000000000000000000000000000000000000000000000000000000000000000000000000          REP Attorney General                                    OVER VOTES                            Precinct 1                                             01 
00130050002000000000000000000000000000000000000000000000000000000000000000000000000000000000000000000          REP Attorney General                                    OVER VOTES                            Precinct 2                                             01 
00130050003000000000000000000000000000000000000000000000000000000000000000000000000000000000000000000          REP Attorney General                                    OVER VOTES                            Precinct 3                                             01 
00130050004000000000000000000000000000000000000000000000000000000000000000000000000000000000000000000          REP Attorney General                                    OVER VOTES                            Precinct 4                                             01 
00130050005000000000000000000000000000000000000000000000000000000000000000000000000000000000000000000          REP Attorney General                                    OVER VOTES                            Precinct 5                                             01 
00130050006000000000000000000000000000000000000000000000000000000000000000000000000000000000000000000          REP Attorney General                                    OVER VOTES                            Precinct 6                                             01 
00130050007000000000000000000000000000000000000000000000000000000000000000000000000000000000000000000          REP Attorney General                                    OVER VOTES                            Precinct 7                                             01 
00130050008000000000000000000000000000000000000000000000000000000000000000000000000000000000000000000          REP Attorney General                                    OVER VOTES                            Precinct 8                                             01 
00130050009000000000000000000000000000000000000000000000000000000000000000000000000000000000000000000          REP Attorney General                                    OVER VOTES                            Precinct 9                                             01 
00130060001000006000000000004000002000000000000000000000000000000000000000000000000000000000000000000          REP Attorney General                                    UNDER VOTES                           Precinct 1                                             01 
00130060002000021000000000008000013000000000000000000000000000000000000000000000000000000000000000000          REP Attorney General                                    UNDER VOTES                           Precinct 2                                             01 
00130060003000020000000000007000013000000000000000000000000000000000000000000000000000000000000000000          REP Attorney General                                    UNDER VOTES                           Precinct 3                                             01 
00130060004000025000000000008000017000000000000000000000000000000000000000000000000000000000000000000          REP Attorney General                                    UNDER VOTES                           Precinct 4                                             01 
00130060005000002000000000000000002000000000000000000000000000000000000000000000000000000000000000000          REP Attorney General                                    UNDER VOTES                           Precinct 5                                             01 
00130060006000013000000000001000012000000000000000000000000000000000000000000000000000000000000000000          REP Attorney General                                    UNDER VOTES                           Precinct 6                                             01 
00130060007000003000000000000000003000000000000000000000000000000000000000000000000000000000000000000          REP Attorney General                                    UNDER VOTES                           Precinct 7                                             01 
00130060008000003000000000000000003000000000000000000000000000000000000000000000000000000000000000000          REP Attorney General                                    UNDER VOTES                           Precinct 8                                             01 
00130060009000024000000000010000014000000000000000000000000000000000000000000000000000000000000000000          REP Attorney General                                    UNDER VOTES                           Precinct 9                                             01 
00140010001000019000000000001000018000000000000000000000000000000000000000000000000000000000000000000REP       REP Comptroller of Public Accounts                      Mark V. Goloby                        Precinct 1                                             01 
00140010002000043000000000009000034000000000000000000000000000000000000000000000000000000000000000000REP       REP Comptroller of Public Accounts                      Mark V. Goloby                        Precinct 2                                             01 
00140010003000038000000000010000028000000000000000000000000000000000000000000000000000000000000000000REP       REP Comptroller of Public Accounts                      Mark V. Goloby                        Precinct 3                                             01 
00140010004000031000000000010000021000000000000000000000000000000000000000000000000000000000000000000REP       REP Comptroller of Public Accounts                      Mark V. Goloby                        Precinct 4                                             01 
00140010005000007000000000000000007000000000000000000000000000000000000000000000000000000000000000000REP       REP Comptroller of Public Accounts                      Mark V. Goloby                        Precinct 5                                             01 
00140010006000038000000000007000031000000000000000000000000000000000000000000000000000000000000000000REP       REP Comptroller of Public Accounts                      Mark V. Goloby                        Precinct 6                                             01 
00140010007000019000000000001000018000000000000000000000000000000000000000000000000000000000000000000REP       REP Comptroller of Public Accounts                      Mark V. Goloby                        Precinct 7                                             01 
00140010008000006000000000000000006000000000000000000000000000000000000000000000000000000000000000000REP       REP Comptroller of Public Accounts                      Mark V. Goloby                        Precinct 8                                             01 
00140010009000058000000000015000043000000000000000000000000000000000000000000000000000000000000000000REP       REP Comptroller of Public Accounts                      Mark V. Goloby                        Precinct 9                                             01 
00140020001000101000000000028000073000000000000000000000000000000000000000000000000000000000000000000REP       REP Comptroller of Public Accounts                      Glenn Hegar                           Precinct 1                                             01 
00140020002000185000003000063000119000000000000000000000000000000000000000000000000000000000000000000REP       REP Comptroller of Public Accounts                      Glenn Hegar                           Precinct 2                                             01 
00140020003000179000005000059000115000000000000000000000000000000000000000000000000000000000000000000REP       REP Comptroller of Public Accounts                      Glenn Hegar                           Precinct 3                                             01 
00140020004000133000003000038000092000000000000000000000000000000000000000000000000000000000000000000REP       REP Comptroller of Public Accounts                      Glenn Hegar                           Precinct 4                                             01 
00140020005000035000000000007000028000000000000000000000000000000000000000000000000000000000000000000REP       REP Comptroller of Public Accounts                      Glenn Hegar                           Precinct 5                                             01 
00140020006000149000001000029000119000000000000000000000000000000000000000000000000000000000000000000REP       REP Comptroller of Public Accounts                      Glenn Hegar                           Precinct 6                                             01 
00140020007000055000000000005000050000000000000000000000000000000000000000000000000000000000000000000REP       REP Comptroller of Public Accounts                      Glenn Hegar                           Precinct 7                                             01 
00140020008000047000000000004000043000000000000000000000000000000000000000000000000000000000000000000REP       REP Comptroller of Public Accounts                      Glenn Hegar                           Precinct 8                                             01 
00140020009000266000003000083000180000000000000000000000000000000000000000000000000000000000000000000REP       REP Comptroller of Public Accounts                      Glenn Hegar                           Precinct 9                                             01 
00140030001000001000000000001000000000000000000000000000000000000000000000000000000000000000000000000          REP Comptroller of Public Accounts                      OVER VOTES                            Precinct 1                                             01 
00140030002000000000000000000000000000000000000000000000000000000000000000000000000000000000000000000          REP Comptroller of Public Accounts                      OVER VOTES                            Precinct 2                                             01 
00140030003000000000000000000000000000000000000000000000000000000000000000000000000000000000000000000          REP Comptroller of Public Accounts                      OVER VOTES                            Precinct 3                                             01 
00140030004000000000000000000000000000000000000000000000000000000000000000000000000000000000000000000          REP Comptroller of Public Accounts                      OVER VOTES                            Precinct 4                                             01 
00140030005000000000000000000000000000000000000000000000000000000000000000000000000000000000000000000          REP Comptroller of Public Accounts                      OVER VOTES                            Precinct 5                                             01 
00140030006000000000000000000000000000000000000000000000000000000000000000000000000000000000000000000          REP Comptroller of Public Accounts                      OVER VOTES                            Precinct 6                                             01 
00140030007000000000000000000000000000000000000000000000000000000000000000000000000000000000000000000          REP Comptroller of Public Accounts                      OVER VOTES                            Precinct 7                                             01 
00140030008000000000000000000000000000000000000000000000000000000000000000000000000000000000000000000          REP Comptroller of Public Accounts                      OVER VOTES                            Precinct 8                                             01 
00140030009000000000000000000000000000000000000000000000000000000000000000000000000000000000000000000          REP Comptroller of Public Accounts                      OVER VOTES                            Precinct 9                                             01 
00140040001000029000000000015000014000000000000000000000000000000000000000000000000000000000000000000          REP Comptroller of Public Accounts                      UNDER VOTES                           Precinct 1                                             01 
00140040002000088000001000027000060000000000000000000000000000000000000000000000000000000000000000000          REP Comptroller of Public Accounts                      UNDER VOTES                           Precinct 2                                             01 
00140040003000059000000000024000035000000000000000000000000000000000000000000000000000000000000000000          REP Comptroller of Public Accounts                      UNDER VOTES                           Precinct 3                                             01 
00140040004000061000000000026000035000000000000000000000000000000000000000000000000000000000000000000          REP Comptroller of Public Accounts                      UNDER VOTES                           Precinct 4                                             01 
00140040005000009000000000000000009000000000000000000000000000000000000000000000000000000000000000000          REP Comptroller of Public Accounts                      UNDER VOTES                           Precinct 5                                             01 
00140040006000047000000000006000041000000000000000000000000000000000000000000000000000000000000000000          REP Comptroller of Public Accounts                      UNDER VOTES                           Precinct 6                                             01 
00140040007000020000000000005000015000000000000000000000000000000000000000000000000000000000000000000          REP Comptroller of Public Accounts                      UNDER VOTES                           Precinct 7                                             01 
00140040008000009000000000002000007000000000000000000000000000000000000000000000000000000000000000000          REP Comptroller of Public Accounts                      UNDER VOTES                           Precinct 8                                             01 
00140040009000083000000000033000050000000000000000000000000000000000000000000000000000000000000000000          REP Comptroller of Public Accounts                      UNDER VOTES                           Precinct 9                                             01 
00150010001000008000000000002000006000000000000000000000000000000000000000000000000000000000000000000REP       REP Comm General Land Office                            Ben Armenta                           Precinct 1                                             01 
00150010002000010000000000002000008000000000000000000000000000000000000000000000000000000000000000000REP       REP Comm General Land Office                            Ben Armenta                           Precinct 2                                             01 
00150010003000013000000000004000009000000000000000000000000000000000000000000000000000000000000000000REP       REP Comm General Land Office                            Ben Armenta                           Precinct 3                                             01 
00150010004000006000001000001000004000000000000000000000000000000000000000000000000000000000000000000REP       REP Comm General Land Office                            Ben Armenta                           Precinct 4                                             01 
00150010005000002000000000000000002000000000000000000000000000000000000000000000000000000000000000000REP       REP Comm General Land Office                            Ben Armenta                           Precinct 5                                             01 
00150010006000020000000000006000014000000000000000000000000000000000000000000000000000000000000000000REP       REP Comm General Land Office                            Ben Armenta                           Precinct 6                                             01 
00150010007000005000000000001000004000000000000000000000000000000000000000000000000000000000000000000REP       REP Comm General Land Office                            Ben Armenta                           Precinct 7                                             01 
00150010008000001000000000000000001000000000000000000000000000000000000000000000000000000000000000000REP       REP Comm General Land Office                            Ben Armenta                           Precinct 8                                             01 
00150010009000009000000000005000004000000000000000000000000000000000000000000000000000000000000000000REP       REP Comm General Land Office                            Ben Armenta                           Precinct 9                                             01 
00150020001000005000000000001000004000000000000000000000000000000000000000000000000000000000000000000REP       REP Comm General Land Office                            Victor Avila                          Precinct 1                                             01 
00150020002000012000000000005000007000000000000000000000000000000000000000000000000000000000000000000REP       REP Comm General Land Office                            Victor Avila                          Precinct 2                                             01 
00150020003000019000000000011000008000000000000000000000000000000000000000000000000000000000000000000REP       REP Comm General Land Office                            Victor Avila                          Precinct 3                                             01 
00150020004000017000000000005000012000000000000000000000000000000000000000000000000000000000000000000REP       REP Comm General Land Office                            Victor Avila                          Precinct 4                                             01 
00150020005000001000000000000000001000000000000000000000000000000000000000000000000000000000000000000REP       REP Comm General Land Office                            Victor Avila                          Precinct 5                                             01 
00150020006000012000000000005000007000000000000000000000000000000000000000000000000000000000000000000REP       REP Comm General Land Office                            Victor Avila                          Precinct 6                                             01 
00150020007000002000000000000000002000000000000000000000000000000000000000000000000000000000000000000REP       REP Comm General Land Office                            Victor Avila                          Precinct 7                                             01 
00150020008000003000000000000000003000000000000000000000000000000000000000000000000000000000000000000REP       REP Comm General Land Office                            Victor Avila                          Precinct 8                                             01 
