00010010001001301000000000000000000000000000000000000000000000000000000000000000000000000000000000000          REGISTERED VOTERS - TOTAL                               REGISTERED VOTERS - TOTAL             Calvert 1                                              00 
00010010002001347000000000000000000000000000000000000000000000000000000000000000000000000000000000000          REGISTERED VOTERS - TOTAL                               REGISTERED VOTERS - TOTAL             Hearne 2                                               00 
00010010003000592000000000000000000000000000000000000000000000000000000000000000000000000000000000000          REGISTERED VOTERS - TOTAL                               REGISTERED VOTERS - TOTAL             Wheelock 3                                             00 
00010010004000706000000000000000000000000000000000000000000000000000000000000000000000000000000000000          REGISTERED VOTERS - TOTAL                               REGISTERED VOTERS - TOTAL             Bald Prairie 4                                         00 
00010010005001482000000000000000000000000000000000000000000000000000000000000000000000000000000000000          REGISTERED VOTERS - TOTAL                               REGISTERED VOTERS - TOTAL             Bremond 5                                              00 
00010010006001566000000000000000000000000000000000000000000000000000000000000000000000000000000000000          REGISTERED VOTERS - TOTAL                               REGISTERED VOTERS - TOTAL             Franklin 6                                             00 
00010010007000250000000000000000000000000000000000000000000000000000000000000000000000000000000000000          REGISTERED VOTERS - TOTAL                               REGISTERED VOTERS - TOTAL             Seale 8                                                00 
00010010008001251000000000000000000000000000000000000000000000000000000000000000000000000000000000000          REGISTERED VOTERS - TOTAL                               REGISTERED VOTERS - TOTAL             Benchley 11                                            00 
00010010009000226000000000000000000000000000000000000000000000000000000000000000000000000000000000000          REGISTERED VOTERS - TOTAL                               REGISTERED VOTERS - TOTAL             Elliott 13                                             00 
00010010010000278000000000000000000000000000000000000000000000000000000000000000000000000000000000000          REGISTERED VOTERS - TOTAL                               REGISTERED VOTERS - TOTAL             Easterly 16                                            00 
00010010011000594000000000000000000000000000000000000000000000000000000000000000000000000000000000000          REGISTERED VOTERS - TOTAL                               REGISTERED VOTERS - TOTAL             New Baden 19                                           00 
00010010012001493000000000000000000000000000000000000000000000000000000000000000000000000000000000000          REGISTERED VOTERS - TOTAL                               REGISTERED VOTERS - TOTAL             Teal Center 22                                         00 
00010010013000756000000000000000000000000000000000000000000000000000000000000000000000000000000000000          REGISTERED VOTERS - TOTAL                               REGISTERED VOTERS - TOTAL             Christian Faith 23                                     00 
00020010001000000000000000000000000000000000000000000000000000000000000000000000000000000000000000000REP       REGISTERED VOTERS - Republican Party                    REGISTERED VOTERS - Republican Party  Calvert 1                                              00 
00020010002000000000000000000000000000000000000000000000000000000000000000000000000000000000000000000REP       REGISTERED VOTERS - Republican Party                    REGISTERED VOTERS - Republican Party  Hearne 2                                               00 
00020010003000000000000000000000000000000000000000000000000000000000000000000000000000000000000000000REP       REGISTERED VOTERS - Republican Party                    REGISTERED VOTERS - Republican Party  Wheelock 3                                             00 
00020010004000000000000000000000000000000000000000000000000000000000000000000000000000000000000000000REP       REGISTERED VOTERS - Republican Party                    REGISTERED VOTERS - Republican Party  Bald Prairie 4                                         00 
00020010005000000000000000000000000000000000000000000000000000000000000000000000000000000000000000000REP       REGISTERED VOTERS - Republican Party                    REGISTERED VOTERS - Republican Party  Bremond 5                                              00 
00020010006000000000000000000000000000000000000000000000000000000000000000000000000000000000000000000REP       REGISTERED VOTERS - Republican Party                    REGISTERED VOTERS - Republican Party  Franklin 6                                             00 
00020010007000000000000000000000000000000000000000000000000000000000000000000000000000000000000000000REP       REGISTERED VOTERS - Republican Party                    REGISTERED VOTERS - Republican Party  Seale 8                                                00 
00020010008000000000000000000000000000000000000000000000000000000000000000000000000000000000000000000REP       REGISTERED VOTERS - Republican Party                    REGISTERED VOTERS - Republican Party  Benchley 11                                            00 
00020010009000000000000000000000000000000000000000000000000000000000000000000000000000000000000000000REP       REGISTERED VOTERS - Republican Party                    REGISTERED VOTERS - Republican Party  Elliott 13                                             00 
00020010010000000000000000000000000000000000000000000000000000000000000000000000000000000000000000000REP       REGISTERED VOTERS - Republican Party                    REGISTERED VOTERS - Republican Party  Easterly 16                                            00 
00020010011000000000000000000000000000000000000000000000000000000000000000000000000000000000000000000REP       REGISTERED VOTERS - Republican Party                    REGISTERED VOTERS - Republican Party  New Baden 19                                           00 
00020010012000000000000000000000000000000000000000000000000000000000000000000000000000000000000000000REP       REGISTERED VOTERS - Republican Party                    REGISTERED VOTERS - Republican Party  Teal Center 22                                         00 
00020010013000000000000000000000000000000000000000000000000000000000000000000000000000000000000000000REP       REGISTERED VOTERS - Republican Party                    REGISTERED VOTERS - Republican Party  Christian Faith 23                                     00 
00030010001000000000000000000000000000000000000000000000000000000000000000000000000000000000000000000DEM       REGISTERED VOTERS - Democratic Party                    REGISTERED VOTERS - Democratic Party  Calvert 1                                              00 
00030010002000000000000000000000000000000000000000000000000000000000000000000000000000000000000000000DEM       REGISTERED VOTERS - Democratic Party                    REGISTERED VOTERS - Democratic Party  Hearne 2                                               00 
00030010003000000000000000000000000000000000000000000000000000000000000000000000000000000000000000000DEM       REGISTERED VOTERS - Democratic Party                    REGISTERED VOTERS - Democratic Party  Wheelock 3                                             00 
00030010004000000000000000000000000000000000000000000000000000000000000000000000000000000000000000000DEM       REGISTERED VOTERS - Democratic Party                    REGISTERED VOTERS - Democratic Party  Bald Prairie 4                                         00 
00030010005000000000000000000000000000000000000000000000000000000000000000000000000000000000000000000DEM       REGISTERED VOTERS - Democratic Party                    REGISTERED VOTERS - Democratic Party  Bremond 5                                              00 
00030010006000000000000000000000000000000000000000000000000000000000000000000000000000000000000000000DEM       REGISTERED VOTERS - Democratic Party                    REGISTERED VOTERS - Democratic Party  Franklin 6                                             00 
00030010007000000000000000000000000000000000000000000000000000000000000000000000000000000000000000000DEM       REGISTERED VOTERS - Democratic Party                    REGISTERED VOTERS - Democratic Party  Seale 8                                                00 
00030010008000000000000000000000000000000000000000000000000000000000000000000000000000000000000000000DEM       REGISTERED VOTERS - Democratic Party                    REGISTERED VOTERS - Democratic Party  Benchley 11                                            00 
00030010009000000000000000000000000000000000000000000000000000000000000000000000000000000000000000000DEM       REGISTERED VOTERS - Democratic Party                    REGISTERED VOTERS - Democratic Party  Elliott 13                                             00 
00030010010000000000000000000000000000000000000000000000000000000000000000000000000000000000000000000DEM       REGISTERED VOTERS - Democratic Party                    REGISTERED VOTERS - Democratic Party  Easterly 16                                            00 
00030010011000000000000000000000000000000000000000000000000000000000000000000000000000000000000000000DEM       REGISTERED VOTERS - Democratic Party                    REGISTERED VOTERS - Democratic Party  New Baden 19                                           00 
00030010012000000000000000000000000000000000000000000000000000000000000000000000000000000000000000000DEM       REGISTERED VOTERS - Democratic Party                    REGISTERED VOTERS - Democratic Party  Teal Center 22                                         00 
00030010013000000000000000000000000000000000000000000000000000000000000000000000000000000000000000000DEM       REGISTERED VOTERS - Democratic Party                    REGISTERED VOTERS - Democratic Party  Christian Faith 23                                     00 
00040010001001301000000000000000000000000000000000000000000000000000000000000000000000000000000000000NON       REGISTERED VOTERS - NONPARTISAN                         REGISTERED VOTERS - NONPARTISAN       Calvert 1                                              00 
00040010002001347000000000000000000000000000000000000000000000000000000000000000000000000000000000000NON       REGISTERED VOTERS - NONPARTISAN                         REGISTERED VOTERS - NONPARTISAN       Hearne 2                                               00 
00040010003000592000000000000000000000000000000000000000000000000000000000000000000000000000000000000NON       REGISTERED VOTERS - NONPARTISAN                         REGISTERED VOTERS - NONPARTISAN       Wheelock 3                                             00 
00040010004000706000000000000000000000000000000000000000000000000000000000000000000000000000000000000NON       REGISTERED VOTERS - NONPARTISAN                         REGISTERED VOTERS - NONPARTISAN       Bald Prairie 4                                         00 
00040010005001482000000000000000000000000000000000000000000000000000000000000000000000000000000000000NON       REGISTERED VOTERS - NONPARTISAN                         REGISTERED VOTERS - NONPARTISAN       Bremond 5                                              00 
00040010006001566000000000000000000000000000000000000000000000000000000000000000000000000000000000000NON       REGISTERED VOTERS - NONPARTISAN                         REGISTERED VOTERS - NONPARTISAN       Franklin 6                                             00 
00040010007000250000000000000000000000000000000000000000000000000000000000000000000000000000000000000NON       REGISTERED VOTERS - NONPARTISAN                         REGISTERED VOTERS - NONPARTISAN       Seale 8                                                00 
00040010008001251000000000000000000000000000000000000000000000000000000000000000000000000000000000000NON       REGISTERED VOTERS - NONPARTISAN                         REGISTERED VOTERS - NONPARTISAN       Benchley 11                                            00 
00040010009000226000000000000000000000000000000000000000000000000000000000000000000000000000000000000NON       REGISTERED VOTERS - NONPARTISAN                         REGISTERED VOTERS - NONPARTISAN       Elliott 13                                             00 
00040010010000278000000000000000000000000000000000000000000000000000000000000000000000000000000000000NON       REGISTERED VOTERS - NONPARTISAN                         REGISTERED VOTERS - NONPARTISAN       Easterly 16                                            00 
00040010011000594000000000000000000000000000000000000000000000000000000000000000000000000000000000000NON       REGISTERED VOTERS - NONPARTISAN                         REGISTERED VOTERS - NONPARTISAN       New Baden 19                                           00 
00040010012001493000000000000000000000000000000000000000000000000000000000000000000000000000000000000NON       REGISTERED VOTERS - NONPARTISAN                         REGISTERED VOTERS - NONPARTISAN       Teal Center 22                                         00 
00040010013000756000000000000000000000000000000000000000000000000000000000000000000000000000000000000NON       REGISTERED VOTERS - NONPARTISAN                         REGISTERED VOTERS - NONPARTISAN       Christian Faith 23                                     00 
00050010001000342000010000183000149000000000000000000000000000000000000000000000000000000000000000000          BALLOTS CAST - TOTAL                                    BALLOTS CAST - TOTAL                  Calvert 1                                              00 
00050010002000354000011000190000153000000000000000000000000000000000000000000000000000000000000000000          BALLOTS CAST - TOTAL                                    BALLOTS CAST - TOTAL                  Hearne 2                                               00 
00050010003000240000004000079000157000000000000000000000000000000000000000000000000000000000000000000          BALLOTS CAST - TOTAL                                    BALLOTS CAST - TOTAL                  Wheelock 3                                             00 
00050010004000281000005000184000092000000000000000000000000000000000000000000000000000000000000000000          BALLOTS CAST - TOTAL                                    BALLOTS CAST - TOTAL                  Bald Prairie 4                                         00 
00050010005000502000020000210000272000000000000000000000000000000000000000000000000000000000000000000          BALLOTS CAST - TOTAL                                    BALLOTS CAST - TOTAL                  Bremond 5                                              00 
00050010006000491000011000261000219000000000000000000000000000000000000000000000000000000000000000000          BALLOTS CAST - TOTAL                                    BALLOTS CAST - TOTAL                  Franklin 6                                             00 
00050010007000134000008000021000104000001000000000000000000000000000000000000000000000000000000000000          BALLOTS CAST - TOTAL                                    BALLOTS CAST - TOTAL                  Seale 8                                                00 
00050010008000323000025000104000194000000000000000000000000000000000000000000000000000000000000000000          BALLOTS CAST - TOTAL                                    BALLOTS CAST - TOTAL                  Benchley 11                                            00 
00050010009000087000001000050000036000000000000000000000000000000000000000000000000000000000000000000          BALLOTS CAST - TOTAL                                    BALLOTS CAST - TOTAL                  Elliott 13                                             00 
00050010010000113000002000050000061000000000000000000000000000000000000000000000000000000000000000000          BALLOTS CAST - TOTAL                                    BALLOTS CAST - TOTAL                  Easterly 16                                            00 
00050010011000255000011000138000106000000000000000000000000000000000000000000000000000000000000000000          BALLOTS CAST - TOTAL                                    BALLOTS CAST - TOTAL                  New Baden 19                                           00 
00050010012000201000019000077000104000001000000000000000000000000000000000000000000000000000000000000          BALLOTS CAST - TOTAL                                    BALLOTS CAST - TOTAL                  Teal Center 22                                         00 
00050010013000143000010000072000061000000000000000000000000000000000000000000000000000000000000000000          BALLOTS CAST - TOTAL                                    BALLOTS CAST - TOTAL                  Christian Faith 23                                     00 
00060010001000284000004000161000119000000000000000000000000000000000000000000000000000000000000000000REP       BALLOTS CAST - Republican Party                         BALLOTS CAST - Republican Party       Calvert 1                                              00 
00060010002000315000010000167000138000000000000000000000000000000000000000000000000000000000000000000REP       BALLOTS CAST - Republican Party                         BALLOTS CAST - Republican Party       Hearne 2                                               00 
00060010003000227000003000073000151000000000000000000000000000000000000000000000000000000000000000000REP       BALLOTS CAST - Republican Party                         BALLOTS CAST - Republican Party       Wheelock 3                                             00 
00060010004000265000001000179000085000000000000000000000000000000000000000000000000000000000000000000REP       BALLOTS CAST - Republican Party                         BALLOTS CAST - Republican Party       Bald Prairie 4                                         00 
00060010005000443000009000189000245000000000000000000000000000000000000000000000000000000000000000000REP       BALLOTS CAST - Republican Party                         BALLOTS CAST - Republican Party       Bremond 5                                              00 
00060010006000463000007000249000207000000000000000000000000000000000000000000000000000000000000000000REP       BALLOTS CAST - Republican Party                         BALLOTS CAST - Republican Party       Franklin 6                                             00 
00060010007000126000008000021000096000001000000000000000000000000000000000000000000000000000000000000REP       BALLOTS CAST - Republican Party                         BALLOTS CAST - Republican Party       Seale 8                                                00 
00060010008000273000008000091000174000000000000000000000000000000000000000000000000000000000000000000REP       BALLOTS CAST - Republican Party                         BALLOTS CAST - Republican Party       Benchley 11                                            00 
00060010009000085000001000049000035000000000000000000000000000000000000000000000000000000000000000000REP       BALLOTS CAST - Republican Party                         BALLOTS CAST - Republican Party       Elliott 13                                             00 
00060010010000111000002000050000059000000000000000000000000000000000000000000000000000000000000000000REP       BALLOTS CAST - Republican Party                         BALLOTS CAST - Republican Party       Easterly 16                                            00 
00060010011000242000007000135000100000000000000000000000000000000000000000000000000000000000000000000REP       BALLOTS CAST - Republican Party                         BALLOTS CAST - Republican Party       New Baden 19                                           00 
00060010012000085000001000036000048000000000000000000000000000000000000000000000000000000000000000000REP       BALLOTS CAST - Republican Party                         BALLOTS CAST - Republican Party       Teal Center 22                                         00 
00060010013000111000001000065000045000000000000000000000000000000000000000000000000000000000000000000REP       BALLOTS CAST - Republican Party                         BALLOTS CAST - Republican Party       Christian Faith 23                                     00 
00070010001000058000006000022000030000000000000000000000000000000000000000000000000000000000000000000DEM       BALLOTS CAST - Democratic Party                         BALLOTS CAST - Democratic Party       Calvert 1                                              00 
00070010002000039000001000023000015000000000000000000000000000000000000000000000000000000000000000000DEM       BALLOTS CAST - Democratic Party                         BALLOTS CAST - Democratic Party       Hearne 2                                               00 
00070010003000013000001000006000006000000000000000000000000000000000000000000000000000000000000000000DEM       BALLOTS CAST - Democratic Party                         BALLOTS CAST - Democratic Party       Wheelock 3                                             00 
00070010004000016000004000005000007000000000000000000000000000000000000000000000000000000000000000000DEM       BALLOTS CAST - Democratic Party                         BALLOTS CAST - Democratic Party       Bald Prairie 4                                         00 
00070010005000059000011000021000027000000000000000000000000000000000000000000000000000000000000000000DEM       BALLOTS CAST - Democratic Party                         BALLOTS CAST - Democratic Party       Bremond 5                                              00 
00070010006000028000004000012000012000000000000000000000000000000000000000000000000000000000000000000DEM       BALLOTS CAST - Democratic Party                         BALLOTS CAST - Democratic Party       Franklin 6                                             00 
00070010007000008000000000000000008000000000000000000000000000000000000000000000000000000000000000000DEM       BALLOTS CAST - Democratic Party                         BALLOTS CAST - Democratic Party       Seale 8                                                00 
00070010008000050000017000013000020000000000000000000000000000000000000000000000000000000000000000000DEM       BALLOTS CAST - Democratic Party                         BALLOTS CAST - Democratic Party       Benchley 11                                            00 
00070010009000002000000000001000001000000000000000000000000000000000000000000000000000000000000000000DEM       BALLOTS CAST - Democratic Party                         BALLOTS CAST - Democratic Party       Elliott 13                                             00 
00070010010000002000000000000000002000000000000000000000000000000000000000000000000000000000000000000DEM       BALLOTS CAST - Democratic Party                         BALLOTS CAST - Democratic Party       Easterly 16                                            00 
00070010011000013000004000003000006000000000000000000000000000000000000000000000000000000000000000000DEM       BALLOTS CAST - Democratic Party                         BALLOTS CAST - Democratic Party       New Baden 19                                           00 
00070010012000116000018000041000056000001000000000000000000000000000000000000000000000000000000000000DEM       BALLOTS CAST - Democratic Party                         BALLOTS CAST - Democratic Party       Teal Center 22                                         00 
00070010013000032000009000007000016000000000000000000000000000000000000000000000000000000000000000000DEM       BALLOTS CAST - Democratic Party                         BALLOTS CAST - Democratic Party       Christian Faith 23                                     00 
00080010001000000000000000000000000000000000000000000000000000000000000000000000000000000000000000000NON       BALLOTS CAST - NONPARTISAN                              BALLOTS CAST - NONPARTISAN            Calvert 1                                              00 
00080010002000000000000000000000000000000000000000000000000000000000000000000000000000000000000000000NON       BALLOTS CAST - NONPARTISAN                              BALLOTS CAST - NONPARTISAN            Hearne 2                                               00 
00080010003000000000000000000000000000000000000000000000000000000000000000000000000000000000000000000NON       BALLOTS CAST - NONPARTISAN                              BALLOTS CAST - NONPARTISAN            Wheelock 3                                             00 
00080010004000000000000000000000000000000000000000000000000000000000000000000000000000000000000000000NON       BALLOTS CAST - NONPARTISAN                              BALLOTS CAST - NONPARTISAN            Bald Prairie 4                                         00 
00080010005000000000000000000000000000000000000000000000000000000000000000000000000000000000000000000NON       BALLOTS CAST - NONPARTISAN                              BALLOTS CAST - NONPARTISAN            Bremond 5                                              00 
00080010006000000000000000000000000000000000000000000000000000000000000000000000000000000000000000000NON       BALLOTS CAST - NONPARTISAN                              BALLOTS CAST - NONPARTISAN            Franklin 6                                             00 
00080010007000000000000000000000000000000000000000000000000000000000000000000000000000000000000000000NON       BALLOTS CAST - NONPARTISAN                              BALLOTS CAST - NONPARTISAN            Seale 8                                                00 
00080010008000000000000000000000000000000000000000000000000000000000000000000000000000000000000000000NON       BALLOTS CAST - NONPARTISAN                              BALLOTS CAST - NONPARTISAN            Benchley 11                                            00 
00080010009000000000000000000000000000000000000000000000000000000000000000000000000000000000000000000NON       BALLOTS CAST - NONPARTISAN                              BALLOTS CAST - NONPARTISAN            Elliott 13                                             00 
00080010010000000000000000000000000000000000000000000000000000000000000000000000000000000000000000000NON       BALLOTS CAST - NONPARTISAN                              BALLOTS CAST - NONPARTISAN            Easterly 16                                            00 
00080010011000000000000000000000000000000000000000000000000000000000000000000000000000000000000000000NON       BALLOTS CAST - NONPARTISAN                              BALLOTS CAST - NONPARTISAN            New Baden 19                                           00 
00080010012000000000000000000000000000000000000000000000000000000000000000000000000000000000000000000NON       BALLOTS CAST - NONPARTISAN                              BALLOTS CAST - NONPARTISAN            Teal Center 22                                         00 
00080010013000000000000000000000000000000000000000000000000000000000000000000000000000000000000000000NON       BALLOTS CAST - NONPARTISAN                              BALLOTS CAST - NONPARTISAN            Christian Faith 23                                     00 
00090010001000000000000000000000000000000000000000000000000000000000000000000000000000000000000000000          BALLOTS CAST - BLANK                                    BALLOTS CAST - BLANK                  Calvert 1                                              00 
00090010002000000000000000000000000000000000000000000000000000000000000000000000000000000000000000000          BALLOTS CAST - BLANK                                    BALLOTS CAST - BLANK                  Hearne 2                                               00 
00090010003000000000000000000000000000000000000000000000000000000000000000000000000000000000000000000          BALLOTS CAST - BLANK                                    BALLOTS CAST - BLANK                  Wheelock 3                                             00 
00090010004000000000000000000000000000000000000000000000000000000000000000000000000000000000000000000          BALLOTS CAST - BLANK                                    BALLOTS CAST - BLANK                  Bald Prairie 4                                         00 
00090010005000000000000000000000000000000000000000000000000000000000000000000000000000000000000000000          BALLOTS CAST - BLANK                                    BALLOTS CAST - BLANK                  Bremond 5                                              00 
00090010006000000000000000000000000000000000000000000000000000000000000000000000000000000000000000000          BALLOTS CAST - BLANK                                    BALLOTS CAST - BLANK                  Franklin 6                                             00 
00090010007000000000000000000000000000000000000000000000000000000000000000000000000000000000000000000          BALLOTS CAST - BLANK                                    BALLOTS CAST - BLANK                  Seale 8                                                00 
00090010008000000000000000000000000000000000000000000000000000000000000000000000000000000000000000000          BALLOTS CAST - BLANK                                    BALLOTS CAST - BLANK                  Benchley 11                                            00 
00090010009000000000000000000000000000000000000000000000000000000000000000000000000000000000000000000          BALLOTS CAST - BLANK                                    BALLOTS CAST - BLANK                  Elliott 13                                             00 
00090010010000000000000000000000000000000000000000000000000000000000000000000000000000000000000000000          BALLOTS CAST - BLANK                                    BALLOTS CAST - BLANK                  Easterly 16                                            00 
00090010011000000000000000000000000000000000000000000000000000000000000000000000000000000000000000000          BALLOTS CAST - BLANK                                    BALLOTS CAST - BLANK                  New Baden 19                                           00 
00090010012000000000000000000000000000000000000000000000000000000000000000000000000000000000000000000          BALLOTS CAST - BLANK                                    BALLOTS CAST - BLANK                  Teal Center 22                                         00 
00090010013000000000000000000000000000000000000000000000000000000000000000000000000000000000000000000          BALLOTS CAST - BLANK                                    BALLOTS CAST - BLANK                  Christian Faith 23                                     00 
00100010001000026000000000013000013000000000000000000000000000000000000000000000000000000000000000000REP       REP US Representative, District 17                      Jason "Stormchaser" Nelson            Calvert 1                                              01 
00100010002000022000000000010000012000000000000000000000000000000000000000000000000000000000000000000REP       REP US Representative, District 17                      Jason "Stormchaser" Nelson            Hearne 2                                               01 
00100010003000022000000000005000017000000000000000000000000000000000000000000000000000000000000000000REP       REP US Representative, District 17                      Jason "Stormchaser" Nelson            Wheelock 3                                             01 
00100010004000018000000000013000005000000000000000000000000000000000000000000000000000000000000000000REP       REP US Representative, District 17                      Jason "Stormchaser" Nelson            Bald Prairie 4                                         01 
00100010005000027000000000010000017000000000000000000000000000000000000000000000000000000000000000000REP       REP US Representative, District 17                      Jason "Stormchaser" Nelson            Bremond 5                                              01 
00100010006000041000000000020000021000000000000000000000000000000000000000000000000000000000000000000REP       REP US Representative, District 17                      Jason "Stormchaser" Nelson            Franklin 6                                             01 
00100010007000009000000000001000008000000000000000000000000000000000000000000000000000000000000000000REP       REP US Representative, District 17                      Jason "Stormchaser" Nelson            Seale 8                                                01 
00100010008000021000001000005000015000000000000000000000000000000000000000000000000000000000000000000REP       REP US Representative, District 17                      Jason "Stormchaser" Nelson            Benchley 11                                            01 
00100010009000009000000000005000004000000000000000000000000000000000000000000000000000000000000000000REP       REP US Representative, District 17                      Jason "Stormchaser" Nelson            Elliott 13                                             01 
00100010010000010000000000001000009000000000000000000000000000000000000000000000000000000000000000000REP       REP US Representative, District 17                      Jason "Stormchaser" Nelson            Easterly 16                                            01 
00100010011000018000000000011000007000000000000000000000000000000000000000000000000000000000000000000REP       REP US Representative, District 17                      Jason "Stormchaser" Nelson            New Baden 19                                           01 
00100010012000007000000000001000006000000000000000000000000000000000000000000000000000000000000000000REP       REP US Representative, District 17                      Jason "Stormchaser" Nelson            Teal Center 22                                         01 
00100010013000011000000000006000005000000000000000000000000000000000000000000000000000000000000000000REP       REP US Representative, District 17                      Jason "Stormchaser" Nelson            Christian Faith 23                                     01 
00100020001000009000000000006000003000000000000000000000000000000000000000000000000000000000000000000REP       REP US Representative, District 17                      Rob Rosenberger                       Calvert 1                                              01 
00100020002000015000001000011000003000000000000000000000000000000000000000000000000000000000000000000REP       REP US Representative, District 17                      Rob Rosenberger                       Hearne 2                                               01 
00100020003000009000001000000000008000000000000000000000000000000000000000000000000000000000000000000REP       REP US Representative, District 17                      Rob Rosenberger                       Wheelock 3                                             01 
00100020004000012000000000005000007000000000000000000000000000000000000000000000000000000000000000000REP       REP US Representative, District 17                      Rob Rosenberger                       Bald Prairie 4                                         01 
00100020005000024000000000011000013000000000000000000000000000000000000000000000000000000000000000000REP       REP US Representative, District 17                      Rob Rosenberger                       Bremond 5                                              01 
00100020006000022000000000016000006000000000000000000000000000000000000000000000000000000000000000000REP       REP US Representative, District 17                      Rob Rosenberger                       Franklin 6                                             01 
00100020007000005000000000000000005000000000000000000000000000000000000000000000000000000000000000000REP       REP US Representative, District 17                      Rob Rosenberger                       Seale 8                                                01 
00100020008000016000000000005000011000000000000000000000000000000000000000000000000000000000000000000REP       REP US Representative, District 17                      Rob Rosenberger                       Benchley 11                                            01 
00100020009000000000000000000000000000000000000000000000000000000000000000000000000000000000000000000REP       REP US Representative, District 17                      Rob Rosenberger                       Elliott 13                                             01 
00100020010000005000000000002000003000000000000000000000000000000000000000000000000000000000000000000REP       REP US Representative, District 17                      Rob Rosenberger                       Easterly 16                                            01 
00100020011000013000000000007000006000000000000000000000000000000000000000000000000000000000000000000REP       REP US Representative, District 17                      Rob Rosenberger                       New Baden 19                                           01 
00100020012000003000000000001000002000000000000000000000000000000000000000000000000000000000000000000REP       REP US Representative, District 17                      Rob Rosenberger                       Teal Center 22                                         01 
00100020013000007000000000005000002000000000000000000000000000000000000000000000000000000000000000000REP       REP US Representative, District 17                      Rob Rosenberger                       Christian Faith 23                                     01 
00100030001000212000004000119000089000000000000000000000000000000000000000000000000000000000000000000REP       REP US Representative, District 17                      Pete Sessions                         Calvert 1                                              01 
00100030002000222000009000118000095000000000000000000000000000000000000000000000000000000000000000000REP       REP US Representative, District 17                      Pete Sessions                         Hearne 2                                               01 
00100030003000172000002000057000113000000000000000000000000000000000000000000000000000000000000000000REP       REP US Representative, District 17                      Pete Sessions                         Wheelock 3                                             01 
00100030004000200000001000142000057000000000000000000000000000000000000000000000000000000000000000000REP       REP US Representative, District 17                      Pete Sessions                         Bald Prairie 4                                         01 
00100030005000341000009000154000178000000000000000000000000000000000000000000000000000000000000000000REP       REP US Representative, District 17                      Pete Sessions                         Bremond 5                                              01 
00100030006000333000007000182000144000000000000000000000000000000000000000000000000000000000000000000REP       REP US Representative, District 17                      Pete Sessions                         Franklin 6                                             01 
00100030007000099000007000016000075000001000000000000000000000000000000000000000000000000000000000000REP       REP US Representative, District 17                      Pete Sessions                         Seale 8                                                01 
00100030008000201000007000070000124000000000000000000000000000000000000000000000000000000000000000000REP       REP US Representative, District 17                      Pete Sessions                         Benchley 11                                            01 
00100030009000065000001000039000025000000000000000000000000000000000000000000000000000000000000000000REP       REP US Representative, District 17                      Pete Sessions                         Elliott 13                                             01 
00100030010000085000002000041000042000000000000000000000000000000000000000000000000000000000000000000REP       REP US Representative, District 17                      Pete Sessions                         Easterly 16                                            01 
00100030011000165000006000091000068000000000000000000000000000000000000000000000000000000000000000000REP       REP US Representative, District 17                      Pete Sessions                         New Baden 19                                           01 
00100030012000049000001000023000025000000000000000000000000000000000000000000000000000000000000000000REP       REP US Representative, District 17                      Pete Sessions                         Teal Center 22                                         01 
00100030013000071000001000041000029000000000000000000000000000000000000000000000000000000000000000000REP       REP US Representative, District 17                      Pete Sessions                         Christian Faith 23                                     01 
00100040001000012000000000006000006000000000000000000000000000000000000000000000000000000000000000000REP       REP US Representative, District 17                      Paulette Carson                       Calvert 1                                              01 
00100040002000019000000000010000009000000000000000000000000000000000000000000000000000000000000000000REP       REP US Representative, District 17                      Paulette Carson                       Hearne 2                                               01 
00100040003000014000000000008000006000000000000000000000000000000000000000000000000000000000000000000REP       REP US Representative, District 17                      Paulette Carson                       Wheelock 3                                             01 
00100040004000019000000000011000008000000000000000000000000000000000000000000000000000000000000000000REP       REP US Representative, District 17                      Paulette Carson                       Bald Prairie 4                                         01 
00100040005000021000000000005000016000000000000000000000000000000000000000000000000000000000000000000REP       REP US Representative, District 17                      Paulette Carson                       Bremond 5                                              01 
00100040006000024000000000015000009000000000000000000000000000000000000000000000000000000000000000000REP       REP US Representative, District 17                      Paulette Carson                       Franklin 6                                             01 
00100040007000007000000000003000004000000000000000000000000000000000000000000000000000000000000000000REP       REP US Representative, District 17                      Paulette Carson                       Seale 8                                                01 
00100040008000025000000000010000015000000000000000000000000000000000000000000000000000000000000000000REP       REP US Representative, District 17                      Paulette Carson                       Benchley 11                                            01 
00100040009000008000000000005000003000000000000000000000000000000000000000000000000000000000000000000REP       REP US Representative, District 17                      Paulette Carson                       Elliott 13                                             01 
00100040010000007000000000005000002000000000000000000000000000000000000000000000000000000000000000000REP       REP US Representative, District 17                      Paulette Carson                       Easterly 16                                            01 
00100040011000028000001000017000010000000000000000000000000000000000000000000000000000000000000000000REP       REP US Representative, District 17                      Paulette Carson                       New Baden 19                                           01 
00100040012000014000000000006000008000000000000000000000000000000000000000000000000000000000000000000REP       REP US Representative, District 17                      Paulette Carson                       Teal Center 22                                         01 
00100040013000011000000000006000005000000000000000000000000000000000000000000000000000000000000000000REP       REP US Representative, District 17                      Paulette Carson                       Christian Faith 23                                     01 
00100050001000000000000000000000000000000000000000000000000000000000000000000000000000000000000000000          REP US Representative, District 17                      OVER VOTES                            Calvert 1                                              01 
00100050002000000000000000000000000000000000000000000000000000000000000000000000000000000000000000000          REP US Representative, District 17                      OVER VOTES                            Hearne 2                                               01 
00100050003000000000000000000000000000000000000000000000000000000000000000000000000000000000000000000          REP US Representative, District 17                      OVER VOTES                            Wheelock 3                                             01 
00100050004000000000000000000000000000000000000000000000000000000000000000000000000000000000000000000          REP US Representative, District 17                      OVER VOTES                            Bald Prairie 4                                         01 
00100050005000000000000000000000000000000000000000000000000000000000000000000000000000000000000000000          REP US Representative, District 17                      OVER VOTES                            Bremond 5                                              01 
00100050006000001000000000000000001000000000000000000000000000000000000000000000000000000000000000000          REP US Representative, District 17                      OVER VOTES                            Franklin 6                                             01 
00100050007000000000000000000000000000000000000000000000000000000000000000000000000000000000000000000          REP US Representative, District 17                      OVER VOTES                            Seale 8                                                01 
00100050008000000000000000000000000000000000000000000000000000000000000000000000000000000000000000000          REP US Representative, District 17                      OVER VOTES                            Benchley 11                                            01 
00100050009000001000000000000000001000000000000000000000000000000000000000000000000000000000000000000          REP US Representative, District 17                      OVER VOTES                            Elliott 13                                             01 
00100050010000000000000000000000000000000000000000000000000000000000000000000000000000000000000000000          REP US Representative, District 17                      OVER VOTES                            Easterly 16                                            01 
00100050011000000000000000000000000000000000000000000000000000000000000000000000000000000000000000000          REP US Representative, District 17                      OVER VOTES                            New Baden 19                                           01 
00100050012000000000000000000000000000000000000000000000000000000000000000000000000000000000000000000          REP US Representative, District 17                      OVER VOTES                            Teal Center 22                                         01 
00100050013000000000000000000000000000000000000000000000000000000000000000000000000000000000000000000          REP US Representative, District 17                      OVER VOTES                            Christian Faith 23                                     01 
00100060001000025000000000017000008000000000000000000000000000000000000000000000000000000000000000000          REP US Representative, District 17                      UNDER VOTES                           Calvert 1                                              01 
00100060002000037000000000018000019000000000000000000000000000000000000000000000000000000000000000000          REP US Representative, District 17                      UNDER VOTES                           Hearne 2                                               01 
00100060003000010000000000003000007000000000000000000000000000000000000000000000000000000000000000000          REP US Representative, District 17                      UNDER VOTES                           Wheelock 3                                             01 
00100060004000016000000000008000008000000000000000000000000000000000000000000000000000000000000000000          REP US Representative, District 17                      UNDER VOTES                           Bald Prairie 4                                         01 
00100060005000030000000000009000021000000000000000000000000000000000000000000000000000000000000000000          REP US Representative, District 17                      UNDER VOTES                           Bremond 5                                              01 
00100060006000042000000000016000026000000000000000000000000000000000000000000000000000000000000000000          REP US Representative, District 17                      UNDER VOTES                           Franklin 6                                             01 
00100060007000006000001000001000004000000000000000000000000000000000000000000000000000000000000000000          REP US Representative, District 17                      UNDER VOTES                           Seale 8                                                01 
00100060008000010000000000001000009000000000000000000000000000000000000000000000000000000000000000000          REP US Representative, District 17                      UNDER VOTES                           Benchley 11                                            01 
00100060009000002000000000000000002000000000000000000000000000000000000000000000000000000000000000000          REP US Representative, District 17                      UNDER VOTES                           Elliott 13                                             01 
00100060010000004000000000001000003000000000000000000000000000000000000000000000000000000000000000000          REP US Representative, District 17                      UNDER VOTES                           Easterly 16                                            01 
00100060011000018000000000009000009000000000000000000000000000000000000000000000000000000000000000000          REP US Representative, District 17                      UNDER VOTES                           New Baden 19                                           01 
00100060012000012000000000005000007000000000000000000000000000000000000000000000000000000000000000000          REP US Representative, District 17                      UNDER VOTES                           Teal Center 22                                         01 
00100060013000011000000000007000004000000000000000000000000000000000000000000000000000000000000000000          REP US Representative, District 17                      UNDER VOTES                           Christian Faith 23                                     01 
00110010001000001000000000000000001000000000000000000000000000000000000000000000000000000000000000000REP       REP Governor                                            Danny Harrison                        Calvert 1                                              01 
00110010002000002000000000002000000000000000000000000000000000000000000000000000000000000000000000000REP       REP Governor                                            Danny Harrison                        Hearne 2                                               01 
00110010003000001000000000000000001000000000000000000000000000000000000000000000000000000000000000000REP       REP Governor                                            Danny Harrison                        Wheelock 3                                             01 
00110010004000002000000000000000002000000000000000000000000000000000000000000000000000000000000000000REP       REP Governor                                            Danny Harrison                        Bald Prairie 4                                         01 
00110010005000001000000000000000001000000000000000000000000000000000000000000000000000000000000000000REP       REP Governor                                            Danny Harrison                        Bremond 5                                              01 
00110010006000003000000000003000000000000000000000000000000000000000000000000000000000000000000000000REP       REP Governor                                            Danny Harrison                        Franklin 6                                             01 
00110010007000000000000000000000000000000000000000000000000000000000000000000000000000000000000000000REP       REP Governor                                            Danny Harrison                        Seale 8                                                01 
00110010008000000000000000000000000000000000000000000000000000000000000000000000000000000000000000000REP       REP Governor                                            Danny Harrison                        Benchley 11                                            01 
00110010009000001000000000000000001000000000000000000000000000000000000000000000000000000000000000000REP       REP Governor                                            Danny Harrison                        Elliott 13                                             01 
00110010010000000000000000000000000000000000000000000000000000000000000000000000000000000000000000000REP       REP Governor                                            Danny Harrison                        Easterly 16                                            01 
00110010011000002000000000001000001000000000000000000000000000000000000000000000000000000000000000000REP       REP Governor                                            Danny Harrison                        New Baden 19                                           01 
00110010012000002000000000001000001000000000000000000000000000000000000000000000000000000000000000000REP       REP Governor                                            Danny Harrison                        Teal Center 22                                         01 
00110010013000000000000000000000000000000000000000000000000000000000000000000000000000000000000000000REP       REP Governor                                            Danny Harrison                        Christian Faith 23                                     01 
00110020001000009000000000004000005000000000000000000000000000000000000000000000000000000000000000000REP       REP Governor                                            Chad Prather                          Calvert 1                                              01 
00110020002000014000001000006000007000000000000000000000000000000000000000000000000000000000000000000REP       REP Governor                                            Chad Prather                          Hearne 2                                               01 
00110020003000007000000000001000006000000000000000000000000000000000000000000000000000000000000000000REP       REP Governor                                            Chad Prather                          Wheelock 3                                             01 
00110020004000015000000000007000008000000000000000000000000000000000000000000000000000000000000000000REP       REP Governor                                            Chad Prather                          Bald Prairie 4                                         01 
00110020005000023000000000004000019000000000000000000000000000000000000000000000000000000000000000000REP       REP Governor                                            Chad Prather                          Bremond 5                                              01 
00110020006000032000000000019000013000000000000000000000000000000000000000000000000000000000000000000REP       REP Governor                                            Chad Prather                          Franklin 6                                             01 
00110020007000002000000000000000002000000000000000000000000000000000000000000000000000000000000000000REP       REP Governor                                            Chad Prather                          Seale 8                                                01 
00110020008000014000000000003000011000000000000000000000000000000000000000000000000000000000000000000REP       REP Governor                                            Chad Prather                          Benchley 11                                            01 
00110020009000005000000000001000004000000000000000000000000000000000000000000000000000000000000000000REP       REP Governor                                            Chad Prather                          Elliott 13                                             01 
00110020010000001000000000000000001000000000000000000000000000000000000000000000000000000000000000000REP       REP Governor                                            Chad Prather                          Easterly 16                                            01 
00110020011000014000000000007000007000000000000000000000000000000000000000000000000000000000000000000REP       REP Governor                                            Chad Prather                          New Baden 19                                           01 
00110020012000003000000000003000000000000000000000000000000000000000000000000000000000000000000000000REP       REP Governor                                            Chad Prather                          Teal Center 22                                         01 
00110020013000008000000000002000006000000000000000000000000000000000000000000000000000000000000000000REP       REP Governor                                            Chad Prather                          Christian Faith 23                                     01 
00110030001000002000000000001000001000000000000000000000000000000000000000000000000000000000000000000REP       REP Governor                                            Kandy Kaye Horn                       Calvert 1                                              01 
00110030002000004000000000003000001000000000000000000000000000000000000000000000000000000000000000000REP       REP Governor                                            Kandy Kaye Horn                       Hearne 2                                               01 
00110030003000004000001000000000003000000000000000000000000000000000000000000000000000000000000000000REP       REP Governor                                            Kandy Kaye Horn                       Wheelock 3                                             01 
00110030004000004000000000004000000000000000000000000000000000000000000000000000000000000000000000000REP       REP Governor                                            Kandy Kaye Horn                       Bald Prairie 4                                         01 
00110030005000003000000000002000001000000000000000000000000000000000000000000000000000000000000000000REP       REP Governor                                            Kandy Kaye Horn                       Bremond 5                                              01 
00110030006000005000000000004000001000000000000000000000000000000000000000000000000000000000000000000REP       REP Governor                                            Kandy Kaye Horn                       Franklin 6                                             01 
00110030007000000000000000000000000000000000000000000000000000000000000000000000000000000000000000000REP       REP Governor                                            Kandy Kaye Horn                       Seale 8                                                01 
00110030008000000000000000000000000000000000000000000000000000000000000000000000000000000000000000000REP       REP Governor                                            Kandy Kaye Horn                       Benchley 11                                            01 
00110030009000000000000000000000000000000000000000000000000000000000000000000000000000000000000000000REP       REP Governor                                            Kandy Kaye Horn                       Elliott 13                                             01 
00110030010000004000000000003000001000000000000000000000000000000000000000000000000000000000000000000REP       REP Governor                                            Kandy Kaye Horn                       Easterly 16                                            01 
00110030011000004000000000002000002000000000000000000000000000000000000000000000000000000000000000000REP       REP Governor                                            Kandy Kaye Horn                       New Baden 19                                           01 
00110030012000002000000000001000001000000000000000000000000000000000000000000000000000000000000000000REP       REP Governor                                            Kandy Kaye Horn                       Teal Center 22                                         01 
00110030013000000000000000000000000000000000000000000000000000000000000000000000000000000000000000000REP       REP Governor                                            Kandy Kaye Horn                       Christian Faith 23                                     01 
00110040001000016000000000009000007000000000000000000000000000000000000000000000000000000000000000000REP       REP Governor                                            Don Huffines                          Calvert 1                                              01 
00110040002000010000002000005000003000000000000000000000000000000000000000000000000000000000000000000REP       REP Governor                                            Don Huffines                          Hearne 2                                               01 
00110040003000012000000000002000010000000000000000000000000000000000000000000000000000000000000000000REP       REP Governor                                            Don Huffines                          Wheelock 3                                             01 
00110040004000013000000000010000003000000000000000000000000000000000000000000000000000000000000000000REP       REP Governor                                            Don Huffines                          Bald Prairie 4                                         01 
00110040005000031000000000014000017000000000000000000000000000000000000000000000000000000000000000000REP       REP Governor                                            Don Huffines                          Bremond 5                                              01 
00110040006000031000000000013000018000000000000000000000000000000000000000000000000000000000000000000REP       REP Governor                                            Don Huffines                          Franklin 6                                             01 
00110040007000003000000000000000003000000000000000000000000000000000000000000000000000000000000000000REP       REP Governor                                            Don Huffines                          Seale 8                                                01 
00110040008000024000002000006000016000000000000000000000000000000000000000000000000000000000000000000REP       REP Governor                                            Don Huffines                          Benchley 11                                            01 
00110040009000005000000000002000003000000000000000000000000000000000000000000000000000000000000000000REP       REP Governor                                            Don Huffines                          Elliott 13                                             01 
00110040010000008000000000002000006000000000000000000000000000000000000000000000000000000000000000000REP       REP Governor                                            Don Huffines                          Easterly 16                                            01 
00110040011000015000000000008000007000000000000000000000000000000000000000000000000000000000000000000REP       REP Governor                                            Don Huffines                          New Baden 19                                           01 
00110040012000005000000000000000005000000000000000000000000000000000000000000000000000000000000000000REP       REP Governor                                            Don Huffines                          Teal Center 22                                         01 
00110040013000004000000000002000002000000000000000000000000000000000000000000000000000000000000000000REP       REP Governor                                            Don Huffines                          Christian Faith 23                                     01 
00110050001000190000004000111000075000000000000000000000000000000000000000000000000000000000000000000REP       REP Governor                                            Greg Abbott                           Calvert 1                                              01 
00110050002000222000005000123000094000000000000000000000000000000000000000000000000000000000000000000REP       REP Governor                                            Greg Abbott                           Hearne 2                                               01 
00110050003000151000002000045000104000000000000000000000000000000000000000000000000000000000000000000REP       REP Governor                                            Greg Abbott                           Wheelock 3                                             01 
00110050004000185000001000130000054000000000000000000000000000000000000000000000000000000000000000000REP       REP Governor                                            Greg Abbott                           Bald Prairie 4                                         01 
00110050005000319000008000145000166000000000000000000000000000000000000000000000000000000000000000000REP       REP Governor                                            Greg Abbott                           Bremond 5                                              01 
00110050006000310000007000166000137000000000000000000000000000000000000000000000000000000000000000000REP       REP Governor                                            Greg Abbott                           Franklin 6                                             01 
00110050007000098000007000014000076000001000000000000000000000000000000000000000000000000000000000000REP       REP Governor                                            Greg Abbott                           Seale 8                                                01 
00110050008000179000006000067000106000000000000000000000000000000000000000000000000000000000000000000REP       REP Governor                                            Greg Abbott                           Benchley 11                                            01 
00110050009000057000001000034000022000000000000000000000000000000000000000000000000000000000000000000REP       REP Governor                                            Greg Abbott                           Elliott 13                                             01 
00110050010000076000001000038000037000000000000000000000000000000000000000000000000000000000000000000REP       REP Governor                                            Greg Abbott                           Easterly 16                                            01 
00110050011000170000006000093000071000000000000000000000000000000000000000000000000000000000000000000REP       REP Governor                                            Greg Abbott                           New Baden 19                                           01 
00110050012000050000001000020000029000000000000000000000000000000000000000000000000000000000000000000REP       REP Governor                                            Greg Abbott                           Teal Center 22                                         01 
00110050013000062000001000036000025000000000000000000000000000000000000000000000000000000000000000000REP       REP Governor                                            Greg Abbott                           Christian Faith 23                                     01 
00110060001000002000000000002000000000000000000000000000000000000000000000000000000000000000000000000REP       REP Governor                                            Paul Belew                            Calvert 1                                              01 
00110060002000001000000000001000000000000000000000000000000000000000000000000000000000000000000000000REP       REP Governor                                            Paul Belew                            Hearne 2                                               01 
00110060003000001000000000000000001000000000000000000000000000000000000000000000000000000000000000000REP       REP Governor                                            Paul Belew                            Wheelock 3                                             01 
00110060004000001000000000001000000000000000000000000000000000000000000000000000000000000000000000000REP       REP Governor                                            Paul Belew                            Bald Prairie 4                                         01 
00110060005000001000000000000000001000000000000000000000000000000000000000000000000000000000000000000REP       REP Governor                                            Paul Belew                            Bremond 5                                              01 
00110060006000000000000000000000000000000000000000000000000000000000000000000000000000000000000000000REP       REP Governor                                            Paul Belew                            Franklin 6                                             01 
00110060007000000000000000000000000000000000000000000000000000000000000000000000000000000000000000000REP       REP Governor                                            Paul Belew                            Seale 8                                                01 
00110060008000002000000000001000001000000000000000000000000000000000000000000000000000000000000000000REP       REP Governor                                            Paul Belew                            Benchley 11                                            01 
00110060009000000000000000000000000000000000000000000000000000000000000000000000000000000000000000000REP       REP Governor                                            Paul Belew                            Elliott 13                                             01 
00110060010000000000000000000000000000000000000000000000000000000000000000000000000000000000000000000REP       REP Governor                                            Paul Belew                            Easterly 16                                            01 
00110060011000002000000000002000000000000000000000000000000000000000000000000000000000000000000000000REP       REP Governor                                            Paul Belew                            New Baden 19                                           01 
00110060012000000000000000000000000000000000000000000000000000000000000000000000000000000000000000000REP       REP Governor                                            Paul Belew                            Teal Center 22                                         01 
00110060013000001000000000001000000000000000000000000000000000000000000000000000000000000000000000000REP       REP Governor                                            Paul Belew                            Christian Faith 23                                     01 
00110070001000008000000000003000005000000000000000000000000000000000000000000000000000000000000000000REP       REP Governor                                            Rick Perry                            Calvert 1                                              01 
00110070002000015000001000003000011000000000000000000000000000000000000000000000000000000000000000000REP       REP Governor                                            Rick Perry                            Hearne 2                                               01 
00110070003000008000000000003000005000000000000000000000000000000000000000000000000000000000000000000REP       REP Governor                                            Rick Perry                            Wheelock 3                                             01 
00110070004000010000000000007000003000000000000000000000000000000000000000000000000000000000000000000REP       REP Governor                                            Rick Perry                            Bald Prairie 4                                         01 
00110070005000015000001000005000009000000000000000000000000000000000000000000000000000000000000000000REP       REP Governor                                            Rick Perry                            Bremond 5                                              01 
00110070006000012000000000008000004000000000000000000000000000000000000000000000000000000000000000000REP       REP Governor                                            Rick Perry                            Franklin 6                                             01 
00110070007000002000000000001000001000000000000000000000000000000000000000000000000000000000000000000REP       REP Governor                                            Rick Perry                            Seale 8                                                01 
00110070008000004000000000001000003000000000000000000000000000000000000000000000000000000000000000000REP       REP Governor                                            Rick Perry                            Benchley 11                                            01 
00110070009000001000000000001000000000000000000000000000000000000000000000000000000000000000000000000REP       REP Governor                                            Rick Perry                            Elliott 13                                             01 
00110070010000004000000000001000003000000000000000000000000000000000000000000000000000000000000000000REP       REP Governor                                            Rick Perry                            Easterly 16                                            01 
00110070011000008000000000006000002000000000000000000000000000000000000000000000000000000000000000000REP       REP Governor                                            Rick Perry                            New Baden 19                                           01 
00110070012000000000000000000000000000000000000000000000000000000000000000000000000000000000000000000REP       REP Governor                                            Rick Perry                            Teal Center 22                                         01 
00110070013000009000000000008000001000000000000000000000000000000000000000000000000000000000000000000REP       REP Governor                                            Rick Perry                            Christian Faith 23                                     01 
00110080001000048000000000025000023000000000000000000000000000000000000000000000000000000000000000000REP       REP Governor                                            Allen B. West                         Calvert 1                                              01 
00110080002000027000001000013000013000000000000000000000000000000000000000000000000000000000000000000REP       REP Governor                                            Allen B. West                         Hearne 2                                               01 
00110080003000041000000000022000019000000000000000000000000000000000000000000000000000000000000000000REP       REP Governor                                            Allen B. West                         Wheelock 3                                             01 
00110080004000030000000000017000013000000000000000000000000000000000000000000000000000000000000000000REP       REP Governor                                            Allen B. West                         Bald Prairie 4                                         01 
00110080005000044000000000019000025000000000000000000000000000000000000000000000000000000000000000000REP       REP Governor                                            Allen B. West                         Bremond 5                                              01 
00110080006000062000000000030000032000000000000000000000000000000000000000000000000000000000000000000REP       REP Governor                                            Allen B. West                         Franklin 6                                             01 
00110080007000018000000000006000012000000000000000000000000000000000000000000000000000000000000000000REP       REP Governor                                            Allen B. West                         Seale 8                                                01 
00110080008000049000000000013000036000000000000000000000000000000000000000000000000000000000000000000REP       REP Governor                                            Allen B. West                         Benchley 11                                            01 
00110080009000016000000000011000005000000000000000000000000000000000000000000000000000000000000000000REP       REP Governor                                            Allen B. West                         Elliott 13                                             01 
00110080010000014000000000006000008000000000000000000000000000000000000000000000000000000000000000000REP       REP Governor                                            Allen B. West                         Easterly 16                                            01 
00110080011000024000001000014000009000000000000000000000000000000000000000000000000000000000000000000REP       REP Governor                                            Allen B. West                         New Baden 19                                           01 
00110080012000012000000000007000005000000000000000000000000000000000000000000000000000000000000000000REP       REP Governor                                            Allen B. West                         Teal Center 22                                         01 
00110080013000021000000000011000010000000000000000000000000000000000000000000000000000000000000000000REP       REP Governor                                            Allen B. West                         Christian Faith 23                                     01 
00110090001000000000000000000000000000000000000000000000000000000000000000000000000000000000000000000          REP Governor                                            OVER VOTES                            Calvert 1                                              01 
00110090002000000000000000000000000000000000000000000000000000000000000000000000000000000000000000000          REP Governor                                            OVER VOTES                            Hearne 2                                               01 
00110090003000000000000000000000000000000000000000000000000000000000000000000000000000000000000000000          REP Governor                                            OVER VOTES                            Wheelock 3                                             01 
00110090004000000000000000000000000000000000000000000000000000000000000000000000000000000000000000000          REP Governor                                            OVER VOTES                            Bald Prairie 4                                         01 
00110090005000000000000000000000000000000000000000000000000000000000000000000000000000000000000000000          REP Governor                                            OVER VOTES                            Bremond 5                                              01 
00110090006000000000000000000000000000000000000000000000000000000000000000000000000000000000000000000          REP Governor                                            OVER VOTES                            Franklin 6                                             01 
00110090007000000000000000000000000000000000000000000000000000000000000000000000000000000000000000000          REP Governor                                            OVER VOTES                            Seale 8                                                01 
00110090008000000000000000000000000000000000000000000000000000000000000000000000000000000000000000000          REP Governor                                            OVER VOTES                            Benchley 11                                            01 
00110090009000000000000000000000000000000000000000000000000000000000000000000000000000000000000000000          REP Governor                                            OVER VOTES                            Elliott 13                                             01 
00110090010000000000000000000000000000000000000000000000000000000000000000000000000000000000000000000          REP Governor                                            OVER VOTES                            Easterly 16                                            01 
00110090011000000000000000000000000000000000000000000000000000000000000000000000000000000000000000000          REP Governor                                            OVER VOTES                            New Baden 19                                           01 
00110090012000000000000000000000000000000000000000000000000000000000000000000000000000000000000000000          REP Governor                                            OVER VOTES                            Teal Center 22                                         01 
00110090013000000000000000000000000000000000000000000000000000000000000000000000000000000000000000000          REP Governor                                            OVER VOTES                            Christian Faith 23                                     01 
00110100001000008000000000006000002000000000000000000000000000000000000000000000000000000000000000000          REP Governor                                            UNDER VOTES                           Calvert 1                                              01 
00110100002000020000000000011000009000000000000000000000000000000000000000000000000000000000000000000          REP Governor                                            UNDER VOTES                           Hearne 2                                               01 
00110100003000002000000000000000002000000000000000000000000000000000000000000000000000000000000000000          REP Governor                                            UNDER VOTES                           Wheelock 3                                             01 
00110100004000005000000000003000002000000000000000000000000000000000000000000000000000000000000000000          REP Governor                                            UNDER VOTES                           Bald Prairie 4                                         01 
00110100005000006000000000000000006000000000000000000000000000000000000000000000000000000000000000000          REP Governor                                            UNDER VOTES                           Bremond 5                                              01 
00110100006000008000000000006000002000000000000000000000000000000000000000000000000000000000000000000          REP Governor                                            UNDER VOTES                           Franklin 6                                             01 
00110100007000003000001000000000002000000000000000000000000000000000000000000000000000000000000000000          REP Governor                                            UNDER VOTES                           Seale 8                                                01 
00110100008000001000000000000000001000000000000000000000000000000000000000000000000000000000000000000          REP Governor                                            UNDER VOTES                           Benchley 11                                            01 
00110100009000000000000000000000000000000000000000000000000000000000000000000000000000000000000000000          REP Governor                                            UNDER VOTES                           Elliott 13                                             01 
00110100010000004000001000000000003000000000000000000000000000000000000000000000000000000000000000000          REP Governor                                            UNDER VOTES                           Easterly 16                                            01 
00110100011000003000000000002000001000000000000000000000000000000000000000000000000000000000000000000          REP Governor                                            UNDER VOTES                           New Baden 19                                           01 
00110100012000011000000000004000007000000000000000000000000000000000000000000000000000000000000000000          REP Governor                                            UNDER VOTES                           Teal Center 22                                         01 
00110100013000006000000000005000001000000000000000000000000000000000000000000000000000000000000000000          REP Governor                                            UNDER VOTES                           Christian Faith 23                                     01 
00120010001000010000000000005000005000000000000000000000000000000000000000000000000000000000000000000REP       REP Lieutenant Governor                                 Aaron Sorrells                        Calvert 1                                              01 
00120010002000013000001000010000002000000000000000000000000000000000000000000000000000000000000000000REP       REP Lieutenant Governor                                 Aaron Sorrells                        Hearne 2                                               01 
00120010003000013000000000008000005000000000000000000000000000000000000000000000000000000000000000000REP       REP Lieutenant Governor                                 Aaron Sorrells                        Wheelock 3                                             01 
00120010004000014000000000008000006000000000000000000000000000000000000000000000000000000000000000000REP       REP Lieutenant Governor                                 Aaron Sorrells                        Bald Prairie 4                                         01 
00120010005000015000000000008000007000000000000000000000000000000000000000000000000000000000000000000REP       REP Lieutenant Governor                                 Aaron Sorrells                        Bremond 5                                              01 
00120010006000018000000000012000006000000000000000000000000000000000000000000000000000000000000000000REP       REP Lieutenant Governor                                 Aaron Sorrells                        Franklin 6                                             01 
00120010007000007000000000000000007000000000000000000000000000000000000000000000000000000000000000000REP       REP Lieutenant Governor                                 Aaron Sorrells                        Seale 8                                                01 
00120010008000006000000000003000003000000000000000000000000000000000000000000000000000000000000000000REP       REP Lieutenant Governor                                 Aaron Sorrells                        Benchley 11                                            01 
00120010009000003000000000002000001000000000000000000000000000000000000000000000000000000000000000000REP       REP Lieutenant Governor                                 Aaron Sorrells                        Elliott 13                                             01 
00120010010000007000000000002000005000000000000000000000000000000000000000000000000000000000000000000REP       REP Lieutenant Governor                                 Aaron Sorrells                        Easterly 16                                            01 
00120010011000012000000000006000006000000000000000000000000000000000000000000000000000000000000000000REP       REP Lieutenant Governor                                 Aaron Sorrells                        New Baden 19                                           01 
00120010012000003000000000001000002000000000000000000000000000000000000000000000000000000000000000000REP       REP Lieutenant Governor                                 Aaron Sorrells                        Teal Center 22                                         01 
00120010013000005000000000004000001000000000000000000000000000000000000000000000000000000000000000000REP       REP Lieutenant Governor                                 Aaron Sorrells                        Christian Faith 23                                     01 
00120020001000012000000000010000002000000000000000000000000000000000000000000000000000000000000000000REP       REP Lieutenant Governor                                 Trayce Bradford                       Calvert 1                                              01 
00120020002000013000000000004000009000000000000000000000000000000000000000000000000000000000000000000REP       REP Lieutenant Governor                                 Trayce Bradford                       Hearne 2                                               01 
00120020003000009000000000001000008000000000000000000000000000000000000000000000000000000000000000000REP       REP Lieutenant Governor                                 Trayce Bradford                       Wheelock 3                                             01 
00120020004000011000000000008000003000000000000000000000000000000000000000000000000000000000000000000REP       REP Lieutenant Governor                                 Trayce Bradford                       Bald Prairie 4                                         01 
00120020005000036000001000010000025000000000000000000000000000000000000000000000000000000000000000000REP       REP Lieutenant Governor                                 Trayce Bradford                       Bremond 5                                              01 
00120020006000023000000000012000011000000000000000000000000000000000000000000000000000000000000000000REP       REP Lieutenant Governor                                 Trayce Bradford                       Franklin 6                                             01 
00120020007000007000000000005000002000000000000000000000000000000000000000000000000000000000000000000REP       REP Lieutenant Governor                                 Trayce Bradford                       Seale 8                                                01 
00120020008000010000000000003000007000000000000000000000000000000000000000000000000000000000000000000REP       REP Lieutenant Governor                                 Trayce Bradford                       Benchley 11                                            01 
00120020009000003000000000003000000000000000000000000000000000000000000000000000000000000000000000000REP       REP Lieutenant Governor                                 Trayce Bradford                       Elliott 13                                             01 
00120020010000004000000000002000002000000000000000000000000000000000000000000000000000000000000000000REP       REP Lieutenant Governor                                 Trayce Bradford                       Easterly 16                                            01 
00120020011000014000001000005000008000000000000000000000000000000000000000000000000000000000000000000REP       REP Lieutenant Governor                                 Trayce Bradford                       New Baden 19                                           01 
00120020012000006000000000003000003000000000000000000000000000000000000000000000000000000000000000000REP       REP Lieutenant Governor                                 Trayce Bradford                       Teal Center 22                                         01 
00120020013000006000000000004000002000000000000000000000000000000000000000000000000000000000000000000REP       REP Lieutenant Governor                                 Trayce Bradford                       Christian Faith 23                                     01 
00120030001000010000000000003000007000000000000000000000000000000000000000000000000000000000000000000REP       REP Lieutenant Governor                                 Zach Vance                            Calvert 1                                              01 
00120030002000013000001000004000008000000000000000000000000000000000000000000000000000000000000000000REP       REP Lieutenant Governor                                 Zach Vance                            Hearne 2                                               01 
00120030003000006000001000001000004000000000000000000000000000000000000000000000000000000000000000000REP       REP Lieutenant Governor                                 Zach Vance                            Wheelock 3                                             01 
00120030004000009000000000005000004000000000000000000000000000000000000000000000000000000000000000000REP       REP Lieutenant Governor                                 Zach Vance                            Bald Prairie 4                                         01 
00120030005000009000000000006000003000000000000000000000000000000000000000000000000000000000000000000REP       REP Lieutenant Governor                                 Zach Vance                            Bremond 5                                              01 
00120030006000009000000000004000005000000000000000000000000000000000000000000000000000000000000000000REP       REP Lieutenant Governor                                 Zach Vance                            Franklin 6                                             01 
00120030007000002000000000000000002000000000000000000000000000000000000000000000000000000000000000000REP       REP Lieutenant Governor                                 Zach Vance                            Seale 8                                                01 
00120030008000009000000000003000006000000000000000000000000000000000000000000000000000000000000000000REP       REP Lieutenant Governor                                 Zach Vance                            Benchley 11                                            01 
00120030009000001000000000000000001000000000000000000000000000000000000000000000000000000000000000000REP       REP Lieutenant Governor                                 Zach Vance                            Elliott 13                                             01 
00120030010000003000000000002000001000000000000000000000000000000000000000000000000000000000000000000REP       REP Lieutenant Governor                                 Zach Vance                            Easterly 16                                            01 
00120030011000006000000000006000000000000000000000000000000000000000000000000000000000000000000000000REP       REP Lieutenant Governor                                 Zach Vance                            New Baden 19                                           01 
00120030012000002000000000001000001000000000000000000000000000000000000000000000000000000000000000000REP       REP Lieutenant Governor                                 Zach Vance                            Teal Center 22                                         01 
00120030013000006000000000005000001000000000000000000000000000000000000000000000000000000000000000000REP       REP Lieutenant Governor                                 Zach Vance                            Christian Faith 23                                     01 
00120040001000199000004000111000084000000000000000000000000000000000000000000000000000000000000000000REP       REP Lieutenant Governor                                 Dan Patrick                           Calvert 1                                              01 
00120040002000215000008000114000093000000000000000000000000000000000000000000000000000000000000000000REP       REP Lieutenant Governor                                 Dan Patrick                           Hearne 2                                               01 
00120040003000155000002000051000102000000000000000000000000000000000000000000000000000000000000000000REP       REP Lieutenant Governor                                 Dan Patrick                           Wheelock 3                                             01 
00120040004000182000001000130000051000000000000000000000000000000000000000000000000000000000000000000REP       REP Lieutenant Governor                                 Dan Patrick                           Bald Prairie 4                                         01 
00120040005000319000008000143000168000000000000000000000000000000000000000000000000000000000000000000REP       REP Lieutenant Governor                                 Dan Patrick                           Bremond 5                                              01 
00120040006000310000006000166000138000000000000000000000000000000000000000000000000000000000000000000REP       REP Lieutenant Governor                                 Dan Patrick                           Franklin 6                                             01 
00120040007000099000006000014000078000001000000000000000000000000000000000000000000000000000000000000REP       REP Lieutenant Governor                                 Dan Patrick                           Seale 8                                                01 
00120040008000200000008000073000119000000000000000000000000000000000000000000000000000000000000000000REP       REP Lieutenant Governor                                 Dan Patrick                           Benchley 11                                            01 
00120040009000060000001000035000024000000000000000000000000000000000000000000000000000000000000000000REP       REP Lieutenant Governor                                 Dan Patrick                           Elliott 13                                             01 
00120040010000082000002000039000041000000000000000000000000000000000000000000000000000000000000000000REP       REP Lieutenant Governor                                 Dan Patrick                           Easterly 16                                            01 
00120040011000173000006000103000064000000000000000000000000000000000000000000000000000000000000000000REP       REP Lieutenant Governor                                 Dan Patrick                           New Baden 19                                           01 
00120040012000051000001000020000030000000000000000000000000000000000000000000000000000000000000000000REP       REP Lieutenant Governor                                 Dan Patrick                           Teal Center 22                                         01 
00120040013000064000001000034000029000000000000000000000000000000000000000000000000000000000000000000REP       REP Lieutenant Governor                                 Dan Patrick                           Christian Faith 23                                     01 
